{
	"modificadores.sol": {
		"ModificadoresFunciones": {
			"abi": [
				{
					"inputs": [
						{
							"internalType": "uint256",
							"name": "_posicion",
							"type": "uint256"
						}
					],
					"name": "getAlumno",
					"outputs": [
						{
							"internalType": "string",
							"name": "",
							"type": "string"
						}
					],
					"stateMutability": "view",
					"type": "function"
				},
				{
					"inputs": [
						{
							"internalType": "string",
							"name": "_alumno",
							"type": "string"
						}
					],
					"name": "nuevoAlumno",
					"outputs": [],
					"stateMutability": "nonpayable",
					"type": "function"
				},
				{
					"inputs": [
						{
							"internalType": "uint256",
							"name": "_a",
							"type": "uint256"
						},
						{
							"internalType": "uint256",
							"name": "_b",
							"type": "uint256"
						}
					],
					"name": "potencia",
					"outputs": [
						{
							"internalType": "uint256",
							"name": "",
							"type": "uint256"
						}
					],
					"stateMutability": "pure",
					"type": "function"
				},
				{
					"inputs": [
						{
							"internalType": "uint256",
							"name": "_a",
							"type": "uint256"
						}
					],
					"name": "sumTox",
					"outputs": [
						{
							"internalType": "uint256",
							"name": "",
							"type": "uint256"
						}
					],
					"stateMutability": "view",
					"type": "function"
				}
			],
			"devdoc": {
				"kind": "dev",
				"methods": {},
				"version": 1
			},
			"evm": {
				"assembly": "    /* \"modificadores.sol\":33:779  contract ModificadoresFunciones {... */\n  mstore(0x40, 0x80)\n    /* \"modificadores.sol\":372:374  10 */\n  0x0a\n    /* \"modificadores.sol\":363:374  uint x = 10 */\n  0x01\n  sstore\n    /* \"modificadores.sol\":33:779  contract ModificadoresFunciones {... */\n  callvalue\n  dup1\n  iszero\n  tag_1\n  jumpi\n  0x00\n  dup1\n  revert\ntag_1:\n  pop\n  dataSize(sub_0)\n  dup1\n  dataOffset(sub_0)\n  0x00\n  codecopy\n  0x00\n  return\nstop\n\nsub_0: assembly {\n        /* \"modificadores.sol\":33:779  contract ModificadoresFunciones {... */\n      mstore(0x40, 0x80)\n      callvalue\n      dup1\n      iszero\n      tag_1\n      jumpi\n      0x00\n      dup1\n      revert\n    tag_1:\n      pop\n      jumpi(tag_2, lt(calldatasize, 0x04))\n      shr(0xe0, calldataload(0x00))\n      dup1\n      0x13bd6e3c\n      eq\n      tag_3\n      jumpi\n      dup1\n      0x199c937b\n      eq\n      tag_4\n      jumpi\n      dup1\n      0x29137cc3\n      eq\n      tag_5\n      jumpi\n      dup1\n      0x7da5096b\n      eq\n      tag_6\n      jumpi\n    tag_2:\n      0x00\n      dup1\n      revert\n        /* \"modificadores.sol\":380:461  function sumTox(uint _a) public view returns(uint) {... */\n    tag_3:\n      tag_7\n      0x04\n      dup1\n      calldatasize\n      sub\n      dup2\n      add\n      swap1\n      tag_8\n      swap2\n      swap1\n      tag_9\n      jump\t// in\n    tag_8:\n      tag_10\n      jump\t// in\n    tag_7:\n      mload(0x40)\n      tag_11\n      swap2\n      swap1\n      tag_12\n      jump\t// in\n    tag_11:\n      mload(0x40)\n      dup1\n      swap2\n      sub\n      swap1\n      return\n        /* \"modificadores.sol\":235:357  function getAlumno(uint _posicion) public view returns(string memory) {... */\n    tag_4:\n      tag_13\n      0x04\n      dup1\n      calldatasize\n      sub\n      dup2\n      add\n      swap1\n      tag_14\n      swap2\n      swap1\n      tag_9\n      jump\t// in\n    tag_14:\n      tag_15\n      jump\t// in\n    tag_13:\n      mload(0x40)\n      tag_16\n      swap2\n      swap1\n      tag_17\n      jump\t// in\n    tag_16:\n      mload(0x40)\n      dup1\n      swap2\n      sub\n      swap1\n      return\n        /* \"modificadores.sol\":497:591  function potencia(uint _a, uint _b) public pure returns(uint) {... */\n    tag_5:\n      tag_18\n      0x04\n      dup1\n      calldatasize\n      sub\n      dup2\n      add\n      swap1\n      tag_19\n      swap2\n      swap1\n      tag_20\n      jump\t// in\n    tag_19:\n      tag_21\n      jump\t// in\n    tag_18:\n      mload(0x40)\n      tag_22\n      swap2\n      swap1\n      tag_12\n      jump\t// in\n    tag_22:\n      mload(0x40)\n      dup1\n      swap2\n      sub\n      swap1\n      return\n        /* \"modificadores.sol\":130:229  function nuevoAlumno(string memory _alumno) public {... */\n    tag_6:\n      tag_23\n      0x04\n      dup1\n      calldatasize\n      sub\n      dup2\n      add\n      swap1\n      tag_24\n      swap2\n      swap1\n      tag_25\n      jump\t// in\n    tag_24:\n      tag_26\n      jump\t// in\n    tag_23:\n      stop\n        /* \"modificadores.sol\":380:461  function sumTox(uint _a) public view returns(uint) {... */\n    tag_10:\n        /* \"modificadores.sol\":425:429  uint */\n      0x00\n        /* \"modificadores.sol\":452:454  _a */\n      dup2\n        /* \"modificadores.sol\":448:449  x */\n      sload(0x01)\n        /* \"modificadores.sol\":448:454  x + _a */\n      tag_28\n      swap2\n      swap1\n      tag_29\n      jump\t// in\n    tag_28:\n        /* \"modificadores.sol\":441:454  return x + _a */\n      swap1\n      pop\n        /* \"modificadores.sol\":380:461  function sumTox(uint _a) public view returns(uint) {... */\n      swap2\n      swap1\n      pop\n      jump\t// out\n        /* \"modificadores.sol\":235:357  function getAlumno(uint _posicion) public view returns(string memory) {... */\n    tag_15:\n        /* \"modificadores.sol\":290:303  string memory */\n      0x60\n        /* \"modificadores.sol\":322:339  lista_estudiantes */\n      0x00\n        /* \"modificadores.sol\":340:349  _posicion */\n      dup3\n        /* \"modificadores.sol\":322:350  lista_estudiantes[_posicion] */\n      dup2\n      sload\n      dup2\n      lt\n      tag_31\n      jumpi\n      tag_32\n      tag_33\n      jump\t// in\n    tag_32:\n    tag_31:\n      swap1\n      0x00\n      mstore\n      keccak256(0x00, 0x20)\n      add\n        /* \"modificadores.sol\":315:350  return lista_estudiantes[_posicion] */\n      dup1\n      sload\n      tag_35\n      swap1\n      tag_36\n      jump\t// in\n    tag_35:\n      dup1\n      0x1f\n      add\n      0x20\n      dup1\n      swap2\n      div\n      mul\n      0x20\n      add\n      mload(0x40)\n      swap1\n      dup2\n      add\n      0x40\n      mstore\n      dup1\n      swap3\n      swap2\n      swap1\n      dup2\n      dup2\n      mstore\n      0x20\n      add\n      dup3\n      dup1\n      sload\n      tag_37\n      swap1\n      tag_36\n      jump\t// in\n    tag_37:\n      dup1\n      iszero\n      tag_38\n      jumpi\n      dup1\n      0x1f\n      lt\n      tag_39\n      jumpi\n      0x0100\n      dup1\n      dup4\n      sload\n      div\n      mul\n      dup4\n      mstore\n      swap2\n      0x20\n      add\n      swap2\n      jump(tag_38)\n    tag_39:\n      dup3\n      add\n      swap2\n      swap1\n      0x00\n      mstore\n      keccak256(0x00, 0x20)\n      swap1\n    tag_40:\n      dup2\n      sload\n      dup2\n      mstore\n      swap1\n      0x01\n      add\n      swap1\n      0x20\n      add\n      dup1\n      dup4\n      gt\n      tag_40\n      jumpi\n      dup3\n      swap1\n      sub\n      0x1f\n      and\n      dup3\n      add\n      swap2\n    tag_38:\n      pop\n      pop\n      pop\n      pop\n      pop\n      swap1\n      pop\n        /* \"modificadores.sol\":235:357  function getAlumno(uint _posicion) public view returns(string memory) {... */\n      swap2\n      swap1\n      pop\n      jump\t// out\n        /* \"modificadores.sol\":497:591  function potencia(uint _a, uint _b) public pure returns(uint) {... */\n    tag_21:\n        /* \"modificadores.sol\":553:557  uint */\n      0x00\n        /* \"modificadores.sol\":582:584  _b */\n      dup2\n        /* \"modificadores.sol\":576:578  _a */\n      dup4\n        /* \"modificadores.sol\":576:584  _a ** _b */\n      tag_42\n      swap2\n      swap1\n      tag_43\n      jump\t// in\n    tag_42:\n        /* \"modificadores.sol\":569:584  return _a ** _b */\n      swap1\n      pop\n        /* \"modificadores.sol\":497:591  function potencia(uint _a, uint _b) public pure returns(uint) {... */\n      swap3\n      swap2\n      pop\n      pop\n      jump\t// out\n        /* \"modificadores.sol\":130:229  function nuevoAlumno(string memory _alumno) public {... */\n    tag_26:\n        /* \"modificadores.sol\":191:208  lista_estudiantes */\n      0x00\n        /* \"modificadores.sol\":214:221  _alumno */\n      dup2\n        /* \"modificadores.sol\":191:222  lista_estudiantes.push(_alumno) */\n      swap1\n      dup1\n      0x01\n      dup2\n      sload\n      add\n      dup1\n      dup3\n      sstore\n      dup1\n      swap2\n      pop\n      pop\n      0x01\n      swap1\n      sub\n      swap1\n      0x00\n      mstore\n      keccak256(0x00, 0x20)\n      add\n      0x00\n      swap1\n      swap2\n      swap1\n      swap2\n      swap1\n      swap2\n      pop\n      swap1\n      dup1\n      mload\n      swap1\n      0x20\n      add\n      swap1\n      tag_46\n      swap3\n      swap2\n      swap1\n      tag_47\n      jump\t// in\n    tag_46:\n      pop\n        /* \"modificadores.sol\":130:229  function nuevoAlumno(string memory _alumno) public {... */\n      pop\n      jump\t// out\n    tag_47:\n      dup3\n      dup1\n      sload\n      tag_48\n      swap1\n      tag_36\n      jump\t// in\n    tag_48:\n      swap1\n      0x00\n      mstore\n      keccak256(0x00, 0x20)\n      swap1\n      0x1f\n      add\n      0x20\n      swap1\n      div\n      dup2\n      add\n      swap3\n      dup3\n      tag_50\n      jumpi\n      0x00\n      dup6\n      sstore\n      jump(tag_49)\n    tag_50:\n      dup3\n      0x1f\n      lt\n      tag_51\n      jumpi\n      dup1\n      mload\n      not(0xff)\n      and\n      dup4\n      dup1\n      add\n      or\n      dup6\n      sstore\n      jump(tag_49)\n    tag_51:\n      dup3\n      dup1\n      add\n      0x01\n      add\n      dup6\n      sstore\n      dup3\n      iszero\n      tag_49\n      jumpi\n      swap2\n      dup3\n      add\n    tag_52:\n      dup3\n      dup2\n      gt\n      iszero\n      tag_53\n      jumpi\n      dup3\n      mload\n      dup3\n      sstore\n      swap2\n      0x20\n      add\n      swap2\n      swap1\n      0x01\n      add\n      swap1\n      jump(tag_52)\n    tag_53:\n    tag_49:\n      pop\n      swap1\n      pop\n      tag_54\n      swap2\n      swap1\n      tag_55\n      jump\t// in\n    tag_54:\n      pop\n      swap1\n      jump\t// out\n    tag_55:\n    tag_56:\n      dup1\n      dup3\n      gt\n      iszero\n      tag_57\n      jumpi\n      0x00\n      dup2\n      0x00\n      swap1\n      sstore\n      pop\n      0x01\n      add\n      jump(tag_56)\n    tag_57:\n      pop\n      swap1\n      jump\t// out\n        /* \"#utility.yul\":7:419   */\n    tag_59:\n        /* \"#utility.yul\":85:90   */\n      0x00\n        /* \"#utility.yul\":110:176   */\n      tag_61\n        /* \"#utility.yul\":126:175   */\n      tag_62\n        /* \"#utility.yul\":168:174   */\n      dup5\n        /* \"#utility.yul\":126:175   */\n      tag_63\n      jump\t// in\n    tag_62:\n        /* \"#utility.yul\":110:176   */\n      tag_64\n      jump\t// in\n    tag_61:\n        /* \"#utility.yul\":101:176   */\n      swap1\n      pop\n        /* \"#utility.yul\":199:205   */\n      dup3\n        /* \"#utility.yul\":192:197   */\n      dup2\n        /* \"#utility.yul\":185:206   */\n      mstore\n        /* \"#utility.yul\":237:241   */\n      0x20\n        /* \"#utility.yul\":230:235   */\n      dup2\n        /* \"#utility.yul\":226:242   */\n      add\n        /* \"#utility.yul\":275:278   */\n      dup5\n        /* \"#utility.yul\":266:272   */\n      dup5\n        /* \"#utility.yul\":261:264   */\n      dup5\n        /* \"#utility.yul\":257:273   */\n      add\n        /* \"#utility.yul\":254:279   */\n      gt\n        /* \"#utility.yul\":251:253   */\n      iszero\n      tag_65\n      jumpi\n        /* \"#utility.yul\":282:361   */\n      tag_66\n      tag_67\n      jump\t// in\n    tag_66:\n        /* \"#utility.yul\":251:253   */\n    tag_65:\n        /* \"#utility.yul\":372:413   */\n      tag_68\n        /* \"#utility.yul\":406:412   */\n      dup5\n        /* \"#utility.yul\":401:404   */\n      dup3\n        /* \"#utility.yul\":396:399   */\n      dup6\n        /* \"#utility.yul\":372:413   */\n      tag_69\n      jump\t// in\n    tag_68:\n        /* \"#utility.yul\":91:419   */\n      pop\n      swap4\n      swap3\n      pop\n      pop\n      pop\n      jump\t// out\n        /* \"#utility.yul\":439:779   */\n    tag_70:\n        /* \"#utility.yul\":495:500   */\n      0x00\n        /* \"#utility.yul\":544:547   */\n      dup3\n        /* \"#utility.yul\":537:541   */\n      0x1f\n        /* \"#utility.yul\":529:535   */\n      dup4\n        /* \"#utility.yul\":525:542   */\n      add\n        /* \"#utility.yul\":521:548   */\n      slt\n        /* \"#utility.yul\":511:513   */\n      tag_72\n      jumpi\n        /* \"#utility.yul\":552:631   */\n      tag_73\n      tag_74\n      jump\t// in\n    tag_73:\n        /* \"#utility.yul\":511:513   */\n    tag_72:\n        /* \"#utility.yul\":669:675   */\n      dup2\n        /* \"#utility.yul\":656:676   */\n      calldataload\n        /* \"#utility.yul\":694:773   */\n      tag_75\n        /* \"#utility.yul\":769:772   */\n      dup5\n        /* \"#utility.yul\":761:767   */\n      dup3\n        /* \"#utility.yul\":754:758   */\n      0x20\n        /* \"#utility.yul\":746:752   */\n      dup7\n        /* \"#utility.yul\":742:759   */\n      add\n        /* \"#utility.yul\":694:773   */\n      tag_59\n      jump\t// in\n    tag_75:\n        /* \"#utility.yul\":685:773   */\n      swap2\n      pop\n        /* \"#utility.yul\":501:779   */\n      pop\n      swap3\n      swap2\n      pop\n      pop\n      jump\t// out\n        /* \"#utility.yul\":785:924   */\n    tag_76:\n        /* \"#utility.yul\":831:836   */\n      0x00\n        /* \"#utility.yul\":869:875   */\n      dup2\n        /* \"#utility.yul\":856:876   */\n      calldataload\n        /* \"#utility.yul\":847:876   */\n      swap1\n      pop\n        /* \"#utility.yul\":885:918   */\n      tag_78\n        /* \"#utility.yul\":912:917   */\n      dup2\n        /* \"#utility.yul\":885:918   */\n      tag_79\n      jump\t// in\n    tag_78:\n        /* \"#utility.yul\":837:924   */\n      swap3\n      swap2\n      pop\n      pop\n      jump\t// out\n        /* \"#utility.yul\":930:1439   */\n    tag_25:\n        /* \"#utility.yul\":999:1005   */\n      0x00\n        /* \"#utility.yul\":1048:1050   */\n      0x20\n        /* \"#utility.yul\":1036:1045   */\n      dup3\n        /* \"#utility.yul\":1027:1034   */\n      dup5\n        /* \"#utility.yul\":1023:1046   */\n      sub\n        /* \"#utility.yul\":1019:1051   */\n      slt\n        /* \"#utility.yul\":1016:1018   */\n      iszero\n      tag_81\n      jumpi\n        /* \"#utility.yul\":1054:1133   */\n      tag_82\n      tag_83\n      jump\t// in\n    tag_82:\n        /* \"#utility.yul\":1016:1018   */\n    tag_81:\n        /* \"#utility.yul\":1202:1203   */\n      0x00\n        /* \"#utility.yul\":1191:1200   */\n      dup3\n        /* \"#utility.yul\":1187:1204   */\n      add\n        /* \"#utility.yul\":1174:1205   */\n      calldataload\n        /* \"#utility.yul\":1232:1250   */\n      0xffffffffffffffff\n        /* \"#utility.yul\":1224:1230   */\n      dup2\n        /* \"#utility.yul\":1221:1251   */\n      gt\n        /* \"#utility.yul\":1218:1220   */\n      iszero\n      tag_84\n      jumpi\n        /* \"#utility.yul\":1254:1333   */\n      tag_85\n      tag_86\n      jump\t// in\n    tag_85:\n        /* \"#utility.yul\":1218:1220   */\n    tag_84:\n        /* \"#utility.yul\":1359:1422   */\n      tag_87\n        /* \"#utility.yul\":1414:1421   */\n      dup5\n        /* \"#utility.yul\":1405:1411   */\n      dup3\n        /* \"#utility.yul\":1394:1403   */\n      dup6\n        /* \"#utility.yul\":1390:1412   */\n      add\n        /* \"#utility.yul\":1359:1422   */\n      tag_70\n      jump\t// in\n    tag_87:\n        /* \"#utility.yul\":1349:1422   */\n      swap2\n      pop\n        /* \"#utility.yul\":1145:1432   */\n      pop\n        /* \"#utility.yul\":1006:1439   */\n      swap3\n      swap2\n      pop\n      pop\n      jump\t// out\n        /* \"#utility.yul\":1445:1774   */\n    tag_9:\n        /* \"#utility.yul\":1504:1510   */\n      0x00\n        /* \"#utility.yul\":1553:1555   */\n      0x20\n        /* \"#utility.yul\":1541:1550   */\n      dup3\n        /* \"#utility.yul\":1532:1539   */\n      dup5\n        /* \"#utility.yul\":1528:1551   */\n      sub\n        /* \"#utility.yul\":1524:1556   */\n      slt\n        /* \"#utility.yul\":1521:1523   */\n      iszero\n      tag_89\n      jumpi\n        /* \"#utility.yul\":1559:1638   */\n      tag_90\n      tag_83\n      jump\t// in\n    tag_90:\n        /* \"#utility.yul\":1521:1523   */\n    tag_89:\n        /* \"#utility.yul\":1679:1680   */\n      0x00\n        /* \"#utility.yul\":1704:1757   */\n      tag_91\n        /* \"#utility.yul\":1749:1756   */\n      dup5\n        /* \"#utility.yul\":1740:1746   */\n      dup3\n        /* \"#utility.yul\":1729:1738   */\n      dup6\n        /* \"#utility.yul\":1725:1747   */\n      add\n        /* \"#utility.yul\":1704:1757   */\n      tag_76\n      jump\t// in\n    tag_91:\n        /* \"#utility.yul\":1694:1757   */\n      swap2\n      pop\n        /* \"#utility.yul\":1650:1767   */\n      pop\n        /* \"#utility.yul\":1511:1774   */\n      swap3\n      swap2\n      pop\n      pop\n      jump\t// out\n        /* \"#utility.yul\":1780:2254   */\n    tag_20:\n        /* \"#utility.yul\":1848:1854   */\n      0x00\n        /* \"#utility.yul\":1856:1862   */\n      dup1\n        /* \"#utility.yul\":1905:1907   */\n      0x40\n        /* \"#utility.yul\":1893:1902   */\n      dup4\n        /* \"#utility.yul\":1884:1891   */\n      dup6\n        /* \"#utility.yul\":1880:1903   */\n      sub\n        /* \"#utility.yul\":1876:1908   */\n      slt\n        /* \"#utility.yul\":1873:1875   */\n      iszero\n      tag_93\n      jumpi\n        /* \"#utility.yul\":1911:1990   */\n      tag_94\n      tag_83\n      jump\t// in\n    tag_94:\n        /* \"#utility.yul\":1873:1875   */\n    tag_93:\n        /* \"#utility.yul\":2031:2032   */\n      0x00\n        /* \"#utility.yul\":2056:2109   */\n      tag_95\n        /* \"#utility.yul\":2101:2108   */\n      dup6\n        /* \"#utility.yul\":2092:2098   */\n      dup3\n        /* \"#utility.yul\":2081:2090   */\n      dup7\n        /* \"#utility.yul\":2077:2099   */\n      add\n        /* \"#utility.yul\":2056:2109   */\n      tag_76\n      jump\t// in\n    tag_95:\n        /* \"#utility.yul\":2046:2109   */\n      swap3\n      pop\n        /* \"#utility.yul\":2002:2119   */\n      pop\n        /* \"#utility.yul\":2158:2160   */\n      0x20\n        /* \"#utility.yul\":2184:2237   */\n      tag_96\n        /* \"#utility.yul\":2229:2236   */\n      dup6\n        /* \"#utility.yul\":2220:2226   */\n      dup3\n        /* \"#utility.yul\":2209:2218   */\n      dup7\n        /* \"#utility.yul\":2205:2227   */\n      add\n        /* \"#utility.yul\":2184:2237   */\n      tag_76\n      jump\t// in\n    tag_96:\n        /* \"#utility.yul\":2174:2237   */\n      swap2\n      pop\n        /* \"#utility.yul\":2129:2247   */\n      pop\n        /* \"#utility.yul\":1863:2254   */\n      swap3\n      pop\n      swap3\n      swap1\n      pop\n      jump\t// out\n        /* \"#utility.yul\":2260:2624   */\n    tag_97:\n        /* \"#utility.yul\":2348:2351   */\n      0x00\n        /* \"#utility.yul\":2376:2415   */\n      tag_99\n        /* \"#utility.yul\":2409:2414   */\n      dup3\n        /* \"#utility.yul\":2376:2415   */\n      tag_100\n      jump\t// in\n    tag_99:\n        /* \"#utility.yul\":2431:2502   */\n      tag_101\n        /* \"#utility.yul\":2495:2501   */\n      dup2\n        /* \"#utility.yul\":2490:2493   */\n      dup6\n        /* \"#utility.yul\":2431:2502   */\n      tag_102\n      jump\t// in\n    tag_101:\n        /* \"#utility.yul\":2424:2502   */\n      swap4\n      pop\n        /* \"#utility.yul\":2511:2563   */\n      tag_103\n        /* \"#utility.yul\":2556:2562   */\n      dup2\n        /* \"#utility.yul\":2551:2554   */\n      dup6\n        /* \"#utility.yul\":2544:2548   */\n      0x20\n        /* \"#utility.yul\":2537:2542   */\n      dup7\n        /* \"#utility.yul\":2533:2549   */\n      add\n        /* \"#utility.yul\":2511:2563   */\n      tag_104\n      jump\t// in\n    tag_103:\n        /* \"#utility.yul\":2588:2617   */\n      tag_105\n        /* \"#utility.yul\":2610:2616   */\n      dup2\n        /* \"#utility.yul\":2588:2617   */\n      tag_106\n      jump\t// in\n    tag_105:\n        /* \"#utility.yul\":2583:2586   */\n      dup5\n        /* \"#utility.yul\":2579:2618   */\n      add\n        /* \"#utility.yul\":2572:2618   */\n      swap2\n      pop\n        /* \"#utility.yul\":2352:2624   */\n      pop\n      swap3\n      swap2\n      pop\n      pop\n      jump\t// out\n        /* \"#utility.yul\":2630:2748   */\n    tag_107:\n        /* \"#utility.yul\":2717:2741   */\n      tag_109\n        /* \"#utility.yul\":2735:2740   */\n      dup2\n        /* \"#utility.yul\":2717:2741   */\n      tag_110\n      jump\t// in\n    tag_109:\n        /* \"#utility.yul\":2712:2715   */\n      dup3\n        /* \"#utility.yul\":2705:2742   */\n      mstore\n        /* \"#utility.yul\":2695:2748   */\n      pop\n      pop\n      jump\t// out\n        /* \"#utility.yul\":2754:3067   */\n    tag_17:\n        /* \"#utility.yul\":2867:2871   */\n      0x00\n        /* \"#utility.yul\":2905:2907   */\n      0x20\n        /* \"#utility.yul\":2894:2903   */\n      dup3\n        /* \"#utility.yul\":2890:2908   */\n      add\n        /* \"#utility.yul\":2882:2908   */\n      swap1\n      pop\n        /* \"#utility.yul\":2954:2963   */\n      dup2\n        /* \"#utility.yul\":2948:2952   */\n      dup2\n        /* \"#utility.yul\":2944:2964   */\n      sub\n        /* \"#utility.yul\":2940:2941   */\n      0x00\n        /* \"#utility.yul\":2929:2938   */\n      dup4\n        /* \"#utility.yul\":2925:2942   */\n      add\n        /* \"#utility.yul\":2918:2965   */\n      mstore\n        /* \"#utility.yul\":2982:3060   */\n      tag_112\n        /* \"#utility.yul\":3055:3059   */\n      dup2\n        /* \"#utility.yul\":3046:3052   */\n      dup5\n        /* \"#utility.yul\":2982:3060   */\n      tag_97\n      jump\t// in\n    tag_112:\n        /* \"#utility.yul\":2974:3060   */\n      swap1\n      pop\n        /* \"#utility.yul\":2872:3067   */\n      swap3\n      swap2\n      pop\n      pop\n      jump\t// out\n        /* \"#utility.yul\":3073:3295   */\n    tag_12:\n        /* \"#utility.yul\":3166:3170   */\n      0x00\n        /* \"#utility.yul\":3204:3206   */\n      0x20\n        /* \"#utility.yul\":3193:3202   */\n      dup3\n        /* \"#utility.yul\":3189:3207   */\n      add\n        /* \"#utility.yul\":3181:3207   */\n      swap1\n      pop\n        /* \"#utility.yul\":3217:3288   */\n      tag_114\n        /* \"#utility.yul\":3285:3286   */\n      0x00\n        /* \"#utility.yul\":3274:3283   */\n      dup4\n        /* \"#utility.yul\":3270:3287   */\n      add\n        /* \"#utility.yul\":3261:3267   */\n      dup5\n        /* \"#utility.yul\":3217:3288   */\n      tag_107\n      jump\t// in\n    tag_114:\n        /* \"#utility.yul\":3171:3295   */\n      swap3\n      swap2\n      pop\n      pop\n      jump\t// out\n        /* \"#utility.yul\":3301:3430   */\n    tag_64:\n        /* \"#utility.yul\":3335:3341   */\n      0x00\n        /* \"#utility.yul\":3362:3382   */\n      tag_116\n      tag_117\n      jump\t// in\n    tag_116:\n        /* \"#utility.yul\":3352:3382   */\n      swap1\n      pop\n        /* \"#utility.yul\":3391:3424   */\n      tag_118\n        /* \"#utility.yul\":3419:3423   */\n      dup3\n        /* \"#utility.yul\":3411:3417   */\n      dup3\n        /* \"#utility.yul\":3391:3424   */\n      tag_119\n      jump\t// in\n    tag_118:\n        /* \"#utility.yul\":3342:3430   */\n      swap2\n      swap1\n      pop\n      jump\t// out\n        /* \"#utility.yul\":3436:3511   */\n    tag_117:\n        /* \"#utility.yul\":3469:3475   */\n      0x00\n        /* \"#utility.yul\":3502:3504   */\n      0x40\n        /* \"#utility.yul\":3496:3505   */\n      mload\n        /* \"#utility.yul\":3486:3505   */\n      swap1\n      pop\n        /* \"#utility.yul\":3476:3511   */\n      swap1\n      jump\t// out\n        /* \"#utility.yul\":3517:3825   */\n    tag_63:\n        /* \"#utility.yul\":3579:3583   */\n      0x00\n        /* \"#utility.yul\":3669:3687   */\n      0xffffffffffffffff\n        /* \"#utility.yul\":3661:3667   */\n      dup3\n        /* \"#utility.yul\":3658:3688   */\n      gt\n        /* \"#utility.yul\":3655:3657   */\n      iszero\n      tag_122\n      jumpi\n        /* \"#utility.yul\":3691:3709   */\n      tag_123\n      tag_124\n      jump\t// in\n    tag_123:\n        /* \"#utility.yul\":3655:3657   */\n    tag_122:\n        /* \"#utility.yul\":3729:3758   */\n      tag_125\n        /* \"#utility.yul\":3751:3757   */\n      dup3\n        /* \"#utility.yul\":3729:3758   */\n      tag_106\n      jump\t// in\n    tag_125:\n        /* \"#utility.yul\":3721:3758   */\n      swap1\n      pop\n        /* \"#utility.yul\":3813:3817   */\n      0x20\n        /* \"#utility.yul\":3807:3811   */\n      dup2\n        /* \"#utility.yul\":3803:3818   */\n      add\n        /* \"#utility.yul\":3795:3818   */\n      swap1\n      pop\n        /* \"#utility.yul\":3584:3825   */\n      swap2\n      swap1\n      pop\n      jump\t// out\n        /* \"#utility.yul\":3831:3930   */\n    tag_100:\n        /* \"#utility.yul\":3883:3889   */\n      0x00\n        /* \"#utility.yul\":3917:3922   */\n      dup2\n        /* \"#utility.yul\":3911:3923   */\n      mload\n        /* \"#utility.yul\":3901:3923   */\n      swap1\n      pop\n        /* \"#utility.yul\":3890:3930   */\n      swap2\n      swap1\n      pop\n      jump\t// out\n        /* \"#utility.yul\":3936:4105   */\n    tag_102:\n        /* \"#utility.yul\":4020:4031   */\n      0x00\n        /* \"#utility.yul\":4054:4060   */\n      dup3\n        /* \"#utility.yul\":4049:4052   */\n      dup3\n        /* \"#utility.yul\":4042:4061   */\n      mstore\n        /* \"#utility.yul\":4094:4098   */\n      0x20\n        /* \"#utility.yul\":4089:4092   */\n      dup3\n        /* \"#utility.yul\":4085:4099   */\n      add\n        /* \"#utility.yul\":4070:4099   */\n      swap1\n      pop\n        /* \"#utility.yul\":4032:4105   */\n      swap3\n      swap2\n      pop\n      pop\n      jump\t// out\n        /* \"#utility.yul\":4111:4416   */\n    tag_29:\n        /* \"#utility.yul\":4151:4154   */\n      0x00\n        /* \"#utility.yul\":4170:4190   */\n      tag_129\n        /* \"#utility.yul\":4188:4189   */\n      dup3\n        /* \"#utility.yul\":4170:4190   */\n      tag_110\n      jump\t// in\n    tag_129:\n        /* \"#utility.yul\":4165:4190   */\n      swap2\n      pop\n        /* \"#utility.yul\":4204:4224   */\n      tag_130\n        /* \"#utility.yul\":4222:4223   */\n      dup4\n        /* \"#utility.yul\":4204:4224   */\n      tag_110\n      jump\t// in\n    tag_130:\n        /* \"#utility.yul\":4199:4224   */\n      swap3\n      pop\n        /* \"#utility.yul\":4358:4359   */\n      dup3\n        /* \"#utility.yul\":4290:4356   */\n      0xffffffffffffffffffffffffffffffffffffffffffffffffffffffffffffffff\n        /* \"#utility.yul\":4286:4360   */\n      sub\n        /* \"#utility.yul\":4283:4284   */\n      dup3\n        /* \"#utility.yul\":4280:4361   */\n      gt\n        /* \"#utility.yul\":4277:4279   */\n      iszero\n      tag_131\n      jumpi\n        /* \"#utility.yul\":4364:4382   */\n      tag_132\n      tag_133\n      jump\t// in\n    tag_132:\n        /* \"#utility.yul\":4277:4279   */\n    tag_131:\n        /* \"#utility.yul\":4408:4409   */\n      dup3\n        /* \"#utility.yul\":4405:4406   */\n      dup3\n        /* \"#utility.yul\":4401:4410   */\n      add\n        /* \"#utility.yul\":4394:4410   */\n      swap1\n      pop\n        /* \"#utility.yul\":4155:4416   */\n      swap3\n      swap2\n      pop\n      pop\n      jump\t// out\n        /* \"#utility.yul\":4422:5270   */\n    tag_134:\n        /* \"#utility.yul\":4483:4488   */\n      0x00\n        /* \"#utility.yul\":4490:4494   */\n      dup1\n        /* \"#utility.yul\":4514:4520   */\n      dup3\n        /* \"#utility.yul\":4505:4520   */\n      swap2\n      pop\n        /* \"#utility.yul\":4538:4543   */\n      dup4\n        /* \"#utility.yul\":4529:4543   */\n      swap1\n      pop\n        /* \"#utility.yul\":4552:5264   */\n    tag_136:\n        /* \"#utility.yul\":4573:4574   */\n      0x01\n        /* \"#utility.yul\":4563:4571   */\n      dup6\n        /* \"#utility.yul\":4560:4575   */\n      gt\n        /* \"#utility.yul\":4552:5264   */\n      iszero\n      tag_138\n      jumpi\n        /* \"#utility.yul\":4668:4672   */\n      dup1\n        /* \"#utility.yul\":4663:4666   */\n      dup7\n        /* \"#utility.yul\":4659:4673   */\n      div\n        /* \"#utility.yul\":4653:4657   */\n      dup2\n        /* \"#utility.yul\":4650:4674   */\n      gt\n        /* \"#utility.yul\":4647:4649   */\n      iszero\n      tag_139\n      jumpi\n        /* \"#utility.yul\":4677:4695   */\n      tag_140\n      tag_133\n      jump\t// in\n    tag_140:\n        /* \"#utility.yul\":4647:4649   */\n    tag_139:\n        /* \"#utility.yul\":4727:4728   */\n      0x01\n        /* \"#utility.yul\":4717:4725   */\n      dup6\n        /* \"#utility.yul\":4713:4729   */\n      and\n        /* \"#utility.yul\":4710:4712   */\n      iszero\n      tag_141\n      jumpi\n        /* \"#utility.yul\":5142:5146   */\n      dup1\n        /* \"#utility.yul\":5135:5140   */\n      dup3\n        /* \"#utility.yul\":5131:5147   */\n      mul\n        /* \"#utility.yul\":5122:5147   */\n      swap2\n      pop\n        /* \"#utility.yul\":4710:4712   */\n    tag_141:\n        /* \"#utility.yul\":5192:5196   */\n      dup1\n        /* \"#utility.yul\":5186:5190   */\n      dup2\n        /* \"#utility.yul\":5182:5197   */\n      mul\n        /* \"#utility.yul\":5174:5197   */\n      swap1\n      pop\n        /* \"#utility.yul\":5222:5254   */\n      tag_142\n        /* \"#utility.yul\":5245:5253   */\n      dup6\n        /* \"#utility.yul\":5222:5254   */\n      tag_143\n      jump\t// in\n    tag_142:\n        /* \"#utility.yul\":5210:5254   */\n      swap5\n      pop\n        /* \"#utility.yul\":4552:5264   */\n      jump(tag_136)\n    tag_138:\n        /* \"#utility.yul\":4495:5270   */\n      swap5\n      pop\n      swap5\n      swap3\n      pop\n      pop\n      pop\n      jump\t// out\n        /* \"#utility.yul\":5276:5561   */\n    tag_43:\n        /* \"#utility.yul\":5336:5341   */\n      0x00\n        /* \"#utility.yul\":5360:5383   */\n      tag_145\n        /* \"#utility.yul\":5378:5382   */\n      dup3\n        /* \"#utility.yul\":5360:5383   */\n      tag_110\n      jump\t// in\n    tag_145:\n        /* \"#utility.yul\":5352:5383   */\n      swap2\n      pop\n        /* \"#utility.yul\":5404:5431   */\n      tag_146\n        /* \"#utility.yul\":5422:5430   */\n      dup4\n        /* \"#utility.yul\":5404:5431   */\n      tag_110\n      jump\t// in\n    tag_146:\n        /* \"#utility.yul\":5392:5431   */\n      swap3\n      pop\n        /* \"#utility.yul\":5450:5554   */\n      tag_147\n        /* \"#utility.yul\":5487:5553   */\n      0xffffffffffffffffffffffffffffffffffffffffffffffffffffffffffffffff\n        /* \"#utility.yul\":5477:5485   */\n      dup5\n        /* \"#utility.yul\":5471:5475   */\n      dup5\n        /* \"#utility.yul\":5450:5554   */\n      tag_148\n      jump\t// in\n    tag_147:\n        /* \"#utility.yul\":5441:5554   */\n      swap1\n      pop\n        /* \"#utility.yul\":5342:5561   */\n      swap3\n      swap2\n      pop\n      pop\n      jump\t// out\n        /* \"#utility.yul\":5567:6640   */\n    tag_148:\n        /* \"#utility.yul\":5621:5626   */\n      0x00\n        /* \"#utility.yul\":5812:5820   */\n      dup3\n        /* \"#utility.yul\":5802:5804   */\n      tag_150\n      jumpi\n        /* \"#utility.yul\":5833:5834   */\n      0x01\n        /* \"#utility.yul\":5824:5834   */\n      swap1\n      pop\n        /* \"#utility.yul\":5835:5840   */\n      jump(tag_149)\n        /* \"#utility.yul\":5802:5804   */\n    tag_150:\n        /* \"#utility.yul\":5861:5865   */\n      dup2\n        /* \"#utility.yul\":5851:5853   */\n      tag_151\n      jumpi\n        /* \"#utility.yul\":5878:5879   */\n      0x00\n        /* \"#utility.yul\":5869:5879   */\n      swap1\n      pop\n        /* \"#utility.yul\":5880:5885   */\n      jump(tag_149)\n        /* \"#utility.yul\":5851:5853   */\n    tag_151:\n        /* \"#utility.yul\":5947:5951   */\n      dup2\n        /* \"#utility.yul\":5995:5996   */\n      0x01\n        /* \"#utility.yul\":5990:6017   */\n      dup2\n      eq\n      tag_153\n      jumpi\n        /* \"#utility.yul\":6031:6032   */\n      0x02\n        /* \"#utility.yul\":6026:6217   */\n      dup2\n      eq\n      tag_154\n      jumpi\n        /* \"#utility.yul\":5940:6217   */\n      jump(tag_152)\n        /* \"#utility.yul\":5990:6017   */\n    tag_153:\n        /* \"#utility.yul\":6008:6009   */\n      0x01\n        /* \"#utility.yul\":5999:6009   */\n      swap2\n      pop\n        /* \"#utility.yul\":6010:6015   */\n      pop\n      jump(tag_149)\n        /* \"#utility.yul\":6026:6217   */\n    tag_154:\n        /* \"#utility.yul\":6071:6074   */\n      0xff\n        /* \"#utility.yul\":6061:6069   */\n      dup5\n        /* \"#utility.yul\":6058:6075   */\n      gt\n        /* \"#utility.yul\":6055:6057   */\n      iszero\n      tag_155\n      jumpi\n        /* \"#utility.yul\":6078:6096   */\n      tag_156\n      tag_133\n      jump\t// in\n    tag_156:\n        /* \"#utility.yul\":6055:6057   */\n    tag_155:\n        /* \"#utility.yul\":6127:6135   */\n      dup4\n        /* \"#utility.yul\":6124:6125   */\n      0x02\n        /* \"#utility.yul\":6120:6136   */\n      exp\n        /* \"#utility.yul\":6111:6136   */\n      swap2\n      pop\n        /* \"#utility.yul\":6162:6165   */\n      dup5\n        /* \"#utility.yul\":6155:6160   */\n      dup3\n        /* \"#utility.yul\":6152:6166   */\n      gt\n        /* \"#utility.yul\":6149:6151   */\n      iszero\n      tag_157\n      jumpi\n        /* \"#utility.yul\":6169:6187   */\n      tag_158\n      tag_133\n      jump\t// in\n    tag_158:\n        /* \"#utility.yul\":6149:6151   */\n    tag_157:\n        /* \"#utility.yul\":6202:6207   */\n      pop\n      jump(tag_149)\n        /* \"#utility.yul\":5940:6217   */\n    tag_152:\n      pop\n        /* \"#utility.yul\":6326:6328   */\n      0x20\n        /* \"#utility.yul\":6316:6324   */\n      dup4\n        /* \"#utility.yul\":6313:6329   */\n      lt\n        /* \"#utility.yul\":6307:6310   */\n      0x0133\n        /* \"#utility.yul\":6301:6305   */\n      dup4\n        /* \"#utility.yul\":6298:6311   */\n      lt\n        /* \"#utility.yul\":6294:6330   */\n      and\n        /* \"#utility.yul\":6276:6278   */\n      0x4e\n        /* \"#utility.yul\":6266:6274   */\n      dup5\n        /* \"#utility.yul\":6263:6279   */\n      lt\n        /* \"#utility.yul\":6258:6260   */\n      0x0b\n        /* \"#utility.yul\":6252:6256   */\n      dup5\n        /* \"#utility.yul\":6249:6261   */\n      lt\n        /* \"#utility.yul\":6245:6280   */\n      and\n        /* \"#utility.yul\":6229:6340   */\n      or\n        /* \"#utility.yul\":6226:6228   */\n      iszero\n      tag_159\n      jumpi\n        /* \"#utility.yul\":6382:6390   */\n      dup3\n        /* \"#utility.yul\":6376:6380   */\n      dup3\n        /* \"#utility.yul\":6372:6391   */\n      exp\n        /* \"#utility.yul\":6363:6391   */\n      swap1\n      pop\n        /* \"#utility.yul\":6417:6420   */\n      dup4\n        /* \"#utility.yul\":6410:6415   */\n      dup2\n        /* \"#utility.yul\":6407:6421   */\n      gt\n        /* \"#utility.yul\":6404:6406   */\n      iszero\n      tag_160\n      jumpi\n        /* \"#utility.yul\":6424:6442   */\n      tag_161\n      tag_133\n      jump\t// in\n    tag_161:\n        /* \"#utility.yul\":6404:6406   */\n    tag_160:\n        /* \"#utility.yul\":6457:6462   */\n      jump(tag_149)\n        /* \"#utility.yul\":6226:6228   */\n    tag_159:\n        /* \"#utility.yul\":6497:6539   */\n      tag_162\n        /* \"#utility.yul\":6535:6538   */\n      dup5\n        /* \"#utility.yul\":6525:6533   */\n      dup5\n        /* \"#utility.yul\":6519:6523   */\n      dup5\n        /* \"#utility.yul\":6516:6517   */\n      0x01\n        /* \"#utility.yul\":6497:6539   */\n      tag_134\n      jump\t// in\n    tag_162:\n        /* \"#utility.yul\":6482:6539   */\n      swap3\n      pop\n      swap1\n      pop\n        /* \"#utility.yul\":6571:6575   */\n      dup2\n        /* \"#utility.yul\":6566:6569   */\n      dup5\n        /* \"#utility.yul\":6562:6576   */\n      div\n        /* \"#utility.yul\":6555:6560   */\n      dup2\n        /* \"#utility.yul\":6552:6577   */\n      gt\n        /* \"#utility.yul\":6549:6551   */\n      iszero\n      tag_163\n      jumpi\n        /* \"#utility.yul\":6580:6598   */\n      tag_164\n      tag_133\n      jump\t// in\n    tag_164:\n        /* \"#utility.yul\":6549:6551   */\n    tag_163:\n        /* \"#utility.yul\":6629:6633   */\n      dup2\n        /* \"#utility.yul\":6622:6627   */\n      dup2\n        /* \"#utility.yul\":6618:6634   */\n      mul\n        /* \"#utility.yul\":6609:6634   */\n      swap1\n      pop\n        /* \"#utility.yul\":5627:6640   */\n    tag_149:\n      swap4\n      swap3\n      pop\n      pop\n      pop\n      jump\t// out\n        /* \"#utility.yul\":6646:6723   */\n    tag_110:\n        /* \"#utility.yul\":6683:6690   */\n      0x00\n        /* \"#utility.yul\":6712:6717   */\n      dup2\n        /* \"#utility.yul\":6701:6717   */\n      swap1\n      pop\n        /* \"#utility.yul\":6691:6723   */\n      swap2\n      swap1\n      pop\n      jump\t// out\n        /* \"#utility.yul\":6729:6883   */\n    tag_69:\n        /* \"#utility.yul\":6813:6819   */\n      dup3\n        /* \"#utility.yul\":6808:6811   */\n      dup2\n        /* \"#utility.yul\":6803:6806   */\n      dup4\n        /* \"#utility.yul\":6790:6820   */\n      calldatacopy\n        /* \"#utility.yul\":6875:6876   */\n      0x00\n        /* \"#utility.yul\":6866:6872   */\n      dup4\n        /* \"#utility.yul\":6861:6864   */\n      dup4\n        /* \"#utility.yul\":6857:6873   */\n      add\n        /* \"#utility.yul\":6850:6877   */\n      mstore\n        /* \"#utility.yul\":6780:6883   */\n      pop\n      pop\n      pop\n      jump\t// out\n        /* \"#utility.yul\":6889:7196   */\n    tag_104:\n        /* \"#utility.yul\":6957:6958   */\n      0x00\n        /* \"#utility.yul\":6967:7080   */\n    tag_168:\n        /* \"#utility.yul\":6981:6987   */\n      dup4\n        /* \"#utility.yul\":6978:6979   */\n      dup2\n        /* \"#utility.yul\":6975:6988   */\n      lt\n        /* \"#utility.yul\":6967:7080   */\n      iszero\n      tag_170\n      jumpi\n        /* \"#utility.yul\":7066:7067   */\n      dup1\n        /* \"#utility.yul\":7061:7064   */\n      dup3\n        /* \"#utility.yul\":7057:7068   */\n      add\n        /* \"#utility.yul\":7051:7069   */\n      mload\n        /* \"#utility.yul\":7047:7048   */\n      dup2\n        /* \"#utility.yul\":7042:7045   */\n      dup5\n        /* \"#utility.yul\":7038:7049   */\n      add\n        /* \"#utility.yul\":7031:7070   */\n      mstore\n        /* \"#utility.yul\":7003:7005   */\n      0x20\n        /* \"#utility.yul\":7000:7001   */\n      dup2\n        /* \"#utility.yul\":6996:7006   */\n      add\n        /* \"#utility.yul\":6991:7006   */\n      swap1\n      pop\n        /* \"#utility.yul\":6967:7080   */\n      jump(tag_168)\n    tag_170:\n        /* \"#utility.yul\":7098:7104   */\n      dup4\n        /* \"#utility.yul\":7095:7096   */\n      dup2\n        /* \"#utility.yul\":7092:7105   */\n      gt\n        /* \"#utility.yul\":7089:7091   */\n      iszero\n      tag_171\n      jumpi\n        /* \"#utility.yul\":7178:7179   */\n      0x00\n        /* \"#utility.yul\":7169:7175   */\n      dup5\n        /* \"#utility.yul\":7164:7167   */\n      dup5\n        /* \"#utility.yul\":7160:7176   */\n      add\n        /* \"#utility.yul\":7153:7180   */\n      mstore\n        /* \"#utility.yul\":7089:7091   */\n    tag_171:\n        /* \"#utility.yul\":6938:7196   */\n      pop\n      pop\n      pop\n      pop\n      jump\t// out\n        /* \"#utility.yul\":7202:7522   */\n    tag_36:\n        /* \"#utility.yul\":7246:7252   */\n      0x00\n        /* \"#utility.yul\":7283:7284   */\n      0x02\n        /* \"#utility.yul\":7277:7281   */\n      dup3\n        /* \"#utility.yul\":7273:7285   */\n      div\n        /* \"#utility.yul\":7263:7285   */\n      swap1\n      pop\n        /* \"#utility.yul\":7330:7331   */\n      0x01\n        /* \"#utility.yul\":7324:7328   */\n      dup3\n        /* \"#utility.yul\":7320:7332   */\n      and\n        /* \"#utility.yul\":7351:7369   */\n      dup1\n        /* \"#utility.yul\":7341:7343   */\n      tag_173\n      jumpi\n        /* \"#utility.yul\":7407:7411   */\n      0x7f\n        /* \"#utility.yul\":7399:7405   */\n      dup3\n        /* \"#utility.yul\":7395:7412   */\n      and\n        /* \"#utility.yul\":7385:7412   */\n      swap2\n      pop\n        /* \"#utility.yul\":7341:7343   */\n    tag_173:\n        /* \"#utility.yul\":7469:7471   */\n      0x20\n        /* \"#utility.yul\":7461:7467   */\n      dup3\n        /* \"#utility.yul\":7458:7472   */\n      lt\n        /* \"#utility.yul\":7438:7456   */\n      dup2\n        /* \"#utility.yul\":7435:7473   */\n      eq\n        /* \"#utility.yul\":7432:7434   */\n      iszero\n      tag_174\n      jumpi\n        /* \"#utility.yul\":7488:7506   */\n      tag_175\n      tag_176\n      jump\t// in\n    tag_175:\n        /* \"#utility.yul\":7432:7434   */\n    tag_174:\n        /* \"#utility.yul\":7253:7522   */\n      pop\n      swap2\n      swap1\n      pop\n      jump\t// out\n        /* \"#utility.yul\":7528:7809   */\n    tag_119:\n        /* \"#utility.yul\":7611:7638   */\n      tag_178\n        /* \"#utility.yul\":7633:7637   */\n      dup3\n        /* \"#utility.yul\":7611:7638   */\n      tag_106\n      jump\t// in\n    tag_178:\n        /* \"#utility.yul\":7603:7609   */\n      dup2\n        /* \"#utility.yul\":7599:7639   */\n      add\n        /* \"#utility.yul\":7741:7747   */\n      dup2\n        /* \"#utility.yul\":7729:7739   */\n      dup2\n        /* \"#utility.yul\":7726:7748   */\n      lt\n        /* \"#utility.yul\":7705:7723   */\n      0xffffffffffffffff\n        /* \"#utility.yul\":7693:7703   */\n      dup3\n        /* \"#utility.yul\":7690:7724   */\n      gt\n        /* \"#utility.yul\":7687:7749   */\n      or\n        /* \"#utility.yul\":7684:7686   */\n      iszero\n      tag_179\n      jumpi\n        /* \"#utility.yul\":7752:7770   */\n      tag_180\n      tag_124\n      jump\t// in\n    tag_180:\n        /* \"#utility.yul\":7684:7686   */\n    tag_179:\n        /* \"#utility.yul\":7792:7802   */\n      dup1\n        /* \"#utility.yul\":7788:7790   */\n      0x40\n        /* \"#utility.yul\":7781:7803   */\n      mstore\n        /* \"#utility.yul\":7571:7809   */\n      pop\n      pop\n      pop\n      jump\t// out\n        /* \"#utility.yul\":7815:7995   */\n    tag_133:\n        /* \"#utility.yul\":7863:7940   */\n      0x4e487b7100000000000000000000000000000000000000000000000000000000\n        /* \"#utility.yul\":7860:7861   */\n      0x00\n        /* \"#utility.yul\":7853:7941   */\n      mstore\n        /* \"#utility.yul\":7960:7964   */\n      0x11\n        /* \"#utility.yul\":7957:7958   */\n      0x04\n        /* \"#utility.yul\":7950:7965   */\n      mstore\n        /* \"#utility.yul\":7984:7988   */\n      0x24\n        /* \"#utility.yul\":7981:7982   */\n      0x00\n        /* \"#utility.yul\":7974:7989   */\n      revert\n        /* \"#utility.yul\":8001:8181   */\n    tag_176:\n        /* \"#utility.yul\":8049:8126   */\n      0x4e487b7100000000000000000000000000000000000000000000000000000000\n        /* \"#utility.yul\":8046:8047   */\n      0x00\n        /* \"#utility.yul\":8039:8127   */\n      mstore\n        /* \"#utility.yul\":8146:8150   */\n      0x22\n        /* \"#utility.yul\":8143:8144   */\n      0x04\n        /* \"#utility.yul\":8136:8151   */\n      mstore\n        /* \"#utility.yul\":8170:8174   */\n      0x24\n        /* \"#utility.yul\":8167:8168   */\n      0x00\n        /* \"#utility.yul\":8160:8175   */\n      revert\n        /* \"#utility.yul\":8187:8367   */\n    tag_33:\n        /* \"#utility.yul\":8235:8312   */\n      0x4e487b7100000000000000000000000000000000000000000000000000000000\n        /* \"#utility.yul\":8232:8233   */\n      0x00\n        /* \"#utility.yul\":8225:8313   */\n      mstore\n        /* \"#utility.yul\":8332:8336   */\n      0x32\n        /* \"#utility.yul\":8329:8330   */\n      0x04\n        /* \"#utility.yul\":8322:8337   */\n      mstore\n        /* \"#utility.yul\":8356:8360   */\n      0x24\n        /* \"#utility.yul\":8353:8354   */\n      0x00\n        /* \"#utility.yul\":8346:8361   */\n      revert\n        /* \"#utility.yul\":8373:8553   */\n    tag_124:\n        /* \"#utility.yul\":8421:8498   */\n      0x4e487b7100000000000000000000000000000000000000000000000000000000\n        /* \"#utility.yul\":8418:8419   */\n      0x00\n        /* \"#utility.yul\":8411:8499   */\n      mstore\n        /* \"#utility.yul\":8518:8522   */\n      0x41\n        /* \"#utility.yul\":8515:8516   */\n      0x04\n        /* \"#utility.yul\":8508:8523   */\n      mstore\n        /* \"#utility.yul\":8542:8546   */\n      0x24\n        /* \"#utility.yul\":8539:8540   */\n      0x00\n        /* \"#utility.yul\":8532:8547   */\n      revert\n        /* \"#utility.yul\":8559:8676   */\n    tag_74:\n        /* \"#utility.yul\":8668:8669   */\n      0x00\n        /* \"#utility.yul\":8665:8666   */\n      dup1\n        /* \"#utility.yul\":8658:8670   */\n      revert\n        /* \"#utility.yul\":8682:8799   */\n    tag_67:\n        /* \"#utility.yul\":8791:8792   */\n      0x00\n        /* \"#utility.yul\":8788:8789   */\n      dup1\n        /* \"#utility.yul\":8781:8793   */\n      revert\n        /* \"#utility.yul\":8805:8922   */\n    tag_86:\n        /* \"#utility.yul\":8914:8915   */\n      0x00\n        /* \"#utility.yul\":8911:8912   */\n      dup1\n        /* \"#utility.yul\":8904:8916   */\n      revert\n        /* \"#utility.yul\":8928:9045   */\n    tag_83:\n        /* \"#utility.yul\":9037:9038   */\n      0x00\n        /* \"#utility.yul\":9034:9035   */\n      dup1\n        /* \"#utility.yul\":9027:9039   */\n      revert\n        /* \"#utility.yul\":9051:9153   */\n    tag_106:\n        /* \"#utility.yul\":9092:9098   */\n      0x00\n        /* \"#utility.yul\":9143:9145   */\n      0x1f\n        /* \"#utility.yul\":9139:9146   */\n      not\n        /* \"#utility.yul\":9134:9136   */\n      0x1f\n        /* \"#utility.yul\":9127:9132   */\n      dup4\n        /* \"#utility.yul\":9123:9137   */\n      add\n        /* \"#utility.yul\":9119:9147   */\n      and\n        /* \"#utility.yul\":9109:9147   */\n      swap1\n      pop\n        /* \"#utility.yul\":9099:9153   */\n      swap2\n      swap1\n      pop\n      jump\t// out\n        /* \"#utility.yul\":9159:9261   */\n    tag_143:\n        /* \"#utility.yul\":9201:9209   */\n      0x00\n        /* \"#utility.yul\":9248:9253   */\n      dup2\n        /* \"#utility.yul\":9245:9246   */\n      0x01\n        /* \"#utility.yul\":9241:9254   */\n      shr\n        /* \"#utility.yul\":9220:9254   */\n      swap1\n      pop\n        /* \"#utility.yul\":9210:9261   */\n      swap2\n      swap1\n      pop\n      jump\t// out\n        /* \"#utility.yul\":9267:9389   */\n    tag_79:\n        /* \"#utility.yul\":9340:9364   */\n      tag_192\n        /* \"#utility.yul\":9358:9363   */\n      dup2\n        /* \"#utility.yul\":9340:9364   */\n      tag_110\n      jump\t// in\n    tag_192:\n        /* \"#utility.yul\":9333:9338   */\n      dup2\n        /* \"#utility.yul\":9330:9365   */\n      eq\n        /* \"#utility.yul\":9320:9322   */\n      tag_193\n      jumpi\n        /* \"#utility.yul\":9379:9380   */\n      0x00\n        /* \"#utility.yul\":9376:9377   */\n      dup1\n        /* \"#utility.yul\":9369:9381   */\n      revert\n        /* \"#utility.yul\":9320:9322   */\n    tag_193:\n        /* \"#utility.yul\":9310:9389   */\n      pop\n      jump\t// out\n\n    auxdata: 0xa2646970667358221220473a74133dd2c9acdecec82bf97beb90e370b30bb3326141489f53d0b12407a164736f6c63430008060033\n}\n",
				"bytecode": {
					"linkReferences": {},
					"object": "6080604052600a60015534801561001557600080fd5b5061089f806100256000396000f3fe608060405234801561001057600080fd5b506004361061004c5760003560e01c806313bd6e3c14610051578063199c937b1461008157806329137cc3146100b15780637da5096b146100e1575b600080fd5b61006b6004803603810190610066919061038a565b6100fd565b6040516100789190610461565b60405180910390f35b61009b6004803603810190610096919061038a565b610114565b6040516100a8919061043f565b60405180910390f35b6100cb60048036038101906100c691906103b7565b6101c4565b6040516100d89190610461565b60405180910390f35b6100fb60048036038101906100f69190610341565b6101da565b005b60008160015461010d91906104ee565b9050919050565b60606000828154811061012a576101296107c2565b5b90600052602060002001805461013f90610701565b80601f016020809104026020016040519081016040528092919081815260200182805461016b90610701565b80156101b85780601f1061018d576101008083540402835291602001916101b8565b820191906000526020600020905b81548152906001019060200180831161019b57829003601f168201915b50505050509050919050565b600081836101d29190610597565b905092915050565b600081908060018154018082558091505060019003906000526020600020016000909190919091509080519060200190610215929190610219565b5050565b82805461022590610701565b90600052602060002090601f016020900481019282610247576000855561028e565b82601f1061026057805160ff191683800117855561028e565b8280016001018555821561028e579182015b8281111561028d578251825591602001919060010190610272565b5b50905061029b919061029f565b5090565b5b808211156102b85760008160009055506001016102a0565b5090565b60006102cf6102ca846104a1565b61047c565b9050828152602081018484840111156102eb576102ea610825565b5b6102f68482856106bf565b509392505050565b600082601f83011261031357610312610820565b5b81356103238482602086016102bc565b91505092915050565b60008135905061033b81610852565b92915050565b6000602082840312156103575761035661082f565b5b600082013567ffffffffffffffff8111156103755761037461082a565b5b610381848285016102fe565b91505092915050565b6000602082840312156103a05761039f61082f565b5b60006103ae8482850161032c565b91505092915050565b600080604083850312156103ce576103cd61082f565b5b60006103dc8582860161032c565b92505060206103ed8582860161032c565b9150509250929050565b6000610402826104d2565b61040c81856104dd565b935061041c8185602086016106ce565b61042581610834565b840191505092915050565b610439816106b5565b82525050565b6000602082019050818103600083015261045981846103f7565b905092915050565b60006020820190506104766000830184610430565b92915050565b6000610486610497565b90506104928282610733565b919050565b6000604051905090565b600067ffffffffffffffff8211156104bc576104bb6107f1565b5b6104c582610834565b9050602081019050919050565b600081519050919050565b600082825260208201905092915050565b60006104f9826106b5565b9150610504836106b5565b9250827fffffffffffffffffffffffffffffffffffffffffffffffffffffffffffffffff0382111561053957610538610764565b5b828201905092915050565b6000808291508390505b600185111561058e5780860481111561056a57610569610764565b5b60018516156105795780820291505b808102905061058785610845565b945061054e565b94509492505050565b60006105a2826106b5565b91506105ad836106b5565b92506105da7fffffffffffffffffffffffffffffffffffffffffffffffffffffffffffffffff84846105e2565b905092915050565b6000826105f257600190506106ae565b8161060057600090506106ae565b816001811461061657600281146106205761064f565b60019150506106ae565b60ff84111561063257610631610764565b5b8360020a91508482111561064957610648610764565b5b506106ae565b5060208310610133831016604e8410600b84101617156106845782820a90508381111561067f5761067e610764565b5b6106ae565b6106918484846001610544565b925090508184048111156106a8576106a7610764565b5b81810290505b9392505050565b6000819050919050565b82818337600083830152505050565b60005b838110156106ec5780820151818401526020810190506106d1565b838111156106fb576000848401525b50505050565b6000600282049050600182168061071957607f821691505b6020821081141561072d5761072c610793565b5b50919050565b61073c82610834565b810181811067ffffffffffffffff8211171561075b5761075a6107f1565b5b80604052505050565b7f4e487b7100000000000000000000000000000000000000000000000000000000600052601160045260246000fd5b7f4e487b7100000000000000000000000000000000000000000000000000000000600052602260045260246000fd5b7f4e487b7100000000000000000000000000000000000000000000000000000000600052603260045260246000fd5b7f4e487b7100000000000000000000000000000000000000000000000000000000600052604160045260246000fd5b600080fd5b600080fd5b600080fd5b600080fd5b6000601f19601f8301169050919050565b60008160011c9050919050565b61085b816106b5565b811461086657600080fd5b5056fea2646970667358221220473a74133dd2c9acdecec82bf97beb90e370b30bb3326141489f53d0b12407a164736f6c63430008060033",
					"opcodes": "PUSH1 0x80 PUSH1 0x40 MSTORE PUSH1 0xA PUSH1 0x1 SSTORE CALLVALUE DUP1 ISZERO PUSH2 0x15 JUMPI PUSH1 0x0 DUP1 REVERT JUMPDEST POP PUSH2 0x89F DUP1 PUSH2 0x25 PUSH1 0x0 CODECOPY PUSH1 0x0 RETURN INVALID PUSH1 0x80 PUSH1 0x40 MSTORE CALLVALUE DUP1 ISZERO PUSH2 0x10 JUMPI PUSH1 0x0 DUP1 REVERT JUMPDEST POP PUSH1 0x4 CALLDATASIZE LT PUSH2 0x4C JUMPI PUSH1 0x0 CALLDATALOAD PUSH1 0xE0 SHR DUP1 PUSH4 0x13BD6E3C EQ PUSH2 0x51 JUMPI DUP1 PUSH4 0x199C937B EQ PUSH2 0x81 JUMPI DUP1 PUSH4 0x29137CC3 EQ PUSH2 0xB1 JUMPI DUP1 PUSH4 0x7DA5096B EQ PUSH2 0xE1 JUMPI JUMPDEST PUSH1 0x0 DUP1 REVERT JUMPDEST PUSH2 0x6B PUSH1 0x4 DUP1 CALLDATASIZE SUB DUP2 ADD SWAP1 PUSH2 0x66 SWAP2 SWAP1 PUSH2 0x38A JUMP JUMPDEST PUSH2 0xFD JUMP JUMPDEST PUSH1 0x40 MLOAD PUSH2 0x78 SWAP2 SWAP1 PUSH2 0x461 JUMP JUMPDEST PUSH1 0x40 MLOAD DUP1 SWAP2 SUB SWAP1 RETURN JUMPDEST PUSH2 0x9B PUSH1 0x4 DUP1 CALLDATASIZE SUB DUP2 ADD SWAP1 PUSH2 0x96 SWAP2 SWAP1 PUSH2 0x38A JUMP JUMPDEST PUSH2 0x114 JUMP JUMPDEST PUSH1 0x40 MLOAD PUSH2 0xA8 SWAP2 SWAP1 PUSH2 0x43F JUMP JUMPDEST PUSH1 0x40 MLOAD DUP1 SWAP2 SUB SWAP1 RETURN JUMPDEST PUSH2 0xCB PUSH1 0x4 DUP1 CALLDATASIZE SUB DUP2 ADD SWAP1 PUSH2 0xC6 SWAP2 SWAP1 PUSH2 0x3B7 JUMP JUMPDEST PUSH2 0x1C4 JUMP JUMPDEST PUSH1 0x40 MLOAD PUSH2 0xD8 SWAP2 SWAP1 PUSH2 0x461 JUMP JUMPDEST PUSH1 0x40 MLOAD DUP1 SWAP2 SUB SWAP1 RETURN JUMPDEST PUSH2 0xFB PUSH1 0x4 DUP1 CALLDATASIZE SUB DUP2 ADD SWAP1 PUSH2 0xF6 SWAP2 SWAP1 PUSH2 0x341 JUMP JUMPDEST PUSH2 0x1DA JUMP JUMPDEST STOP JUMPDEST PUSH1 0x0 DUP2 PUSH1 0x1 SLOAD PUSH2 0x10D SWAP2 SWAP1 PUSH2 0x4EE JUMP JUMPDEST SWAP1 POP SWAP2 SWAP1 POP JUMP JUMPDEST PUSH1 0x60 PUSH1 0x0 DUP3 DUP2 SLOAD DUP2 LT PUSH2 0x12A JUMPI PUSH2 0x129 PUSH2 0x7C2 JUMP JUMPDEST JUMPDEST SWAP1 PUSH1 0x0 MSTORE PUSH1 0x20 PUSH1 0x0 KECCAK256 ADD DUP1 SLOAD PUSH2 0x13F SWAP1 PUSH2 0x701 JUMP JUMPDEST DUP1 PUSH1 0x1F ADD PUSH1 0x20 DUP1 SWAP2 DIV MUL PUSH1 0x20 ADD PUSH1 0x40 MLOAD SWAP1 DUP2 ADD PUSH1 0x40 MSTORE DUP1 SWAP3 SWAP2 SWAP1 DUP2 DUP2 MSTORE PUSH1 0x20 ADD DUP3 DUP1 SLOAD PUSH2 0x16B SWAP1 PUSH2 0x701 JUMP JUMPDEST DUP1 ISZERO PUSH2 0x1B8 JUMPI DUP1 PUSH1 0x1F LT PUSH2 0x18D JUMPI PUSH2 0x100 DUP1 DUP4 SLOAD DIV MUL DUP4 MSTORE SWAP2 PUSH1 0x20 ADD SWAP2 PUSH2 0x1B8 JUMP JUMPDEST DUP3 ADD SWAP2 SWAP1 PUSH1 0x0 MSTORE PUSH1 0x20 PUSH1 0x0 KECCAK256 SWAP1 JUMPDEST DUP2 SLOAD DUP2 MSTORE SWAP1 PUSH1 0x1 ADD SWAP1 PUSH1 0x20 ADD DUP1 DUP4 GT PUSH2 0x19B JUMPI DUP3 SWAP1 SUB PUSH1 0x1F AND DUP3 ADD SWAP2 JUMPDEST POP POP POP POP POP SWAP1 POP SWAP2 SWAP1 POP JUMP JUMPDEST PUSH1 0x0 DUP2 DUP4 PUSH2 0x1D2 SWAP2 SWAP1 PUSH2 0x597 JUMP JUMPDEST SWAP1 POP SWAP3 SWAP2 POP POP JUMP JUMPDEST PUSH1 0x0 DUP2 SWAP1 DUP1 PUSH1 0x1 DUP2 SLOAD ADD DUP1 DUP3 SSTORE DUP1 SWAP2 POP POP PUSH1 0x1 SWAP1 SUB SWAP1 PUSH1 0x0 MSTORE PUSH1 0x20 PUSH1 0x0 KECCAK256 ADD PUSH1 0x0 SWAP1 SWAP2 SWAP1 SWAP2 SWAP1 SWAP2 POP SWAP1 DUP1 MLOAD SWAP1 PUSH1 0x20 ADD SWAP1 PUSH2 0x215 SWAP3 SWAP2 SWAP1 PUSH2 0x219 JUMP JUMPDEST POP POP JUMP JUMPDEST DUP3 DUP1 SLOAD PUSH2 0x225 SWAP1 PUSH2 0x701 JUMP JUMPDEST SWAP1 PUSH1 0x0 MSTORE PUSH1 0x20 PUSH1 0x0 KECCAK256 SWAP1 PUSH1 0x1F ADD PUSH1 0x20 SWAP1 DIV DUP2 ADD SWAP3 DUP3 PUSH2 0x247 JUMPI PUSH1 0x0 DUP6 SSTORE PUSH2 0x28E JUMP JUMPDEST DUP3 PUSH1 0x1F LT PUSH2 0x260 JUMPI DUP1 MLOAD PUSH1 0xFF NOT AND DUP4 DUP1 ADD OR DUP6 SSTORE PUSH2 0x28E JUMP JUMPDEST DUP3 DUP1 ADD PUSH1 0x1 ADD DUP6 SSTORE DUP3 ISZERO PUSH2 0x28E JUMPI SWAP2 DUP3 ADD JUMPDEST DUP3 DUP2 GT ISZERO PUSH2 0x28D JUMPI DUP3 MLOAD DUP3 SSTORE SWAP2 PUSH1 0x20 ADD SWAP2 SWAP1 PUSH1 0x1 ADD SWAP1 PUSH2 0x272 JUMP JUMPDEST JUMPDEST POP SWAP1 POP PUSH2 0x29B SWAP2 SWAP1 PUSH2 0x29F JUMP JUMPDEST POP SWAP1 JUMP JUMPDEST JUMPDEST DUP1 DUP3 GT ISZERO PUSH2 0x2B8 JUMPI PUSH1 0x0 DUP2 PUSH1 0x0 SWAP1 SSTORE POP PUSH1 0x1 ADD PUSH2 0x2A0 JUMP JUMPDEST POP SWAP1 JUMP JUMPDEST PUSH1 0x0 PUSH2 0x2CF PUSH2 0x2CA DUP5 PUSH2 0x4A1 JUMP JUMPDEST PUSH2 0x47C JUMP JUMPDEST SWAP1 POP DUP3 DUP2 MSTORE PUSH1 0x20 DUP2 ADD DUP5 DUP5 DUP5 ADD GT ISZERO PUSH2 0x2EB JUMPI PUSH2 0x2EA PUSH2 0x825 JUMP JUMPDEST JUMPDEST PUSH2 0x2F6 DUP5 DUP3 DUP6 PUSH2 0x6BF JUMP JUMPDEST POP SWAP4 SWAP3 POP POP POP JUMP JUMPDEST PUSH1 0x0 DUP3 PUSH1 0x1F DUP4 ADD SLT PUSH2 0x313 JUMPI PUSH2 0x312 PUSH2 0x820 JUMP JUMPDEST JUMPDEST DUP2 CALLDATALOAD PUSH2 0x323 DUP5 DUP3 PUSH1 0x20 DUP7 ADD PUSH2 0x2BC JUMP JUMPDEST SWAP2 POP POP SWAP3 SWAP2 POP POP JUMP JUMPDEST PUSH1 0x0 DUP2 CALLDATALOAD SWAP1 POP PUSH2 0x33B DUP2 PUSH2 0x852 JUMP JUMPDEST SWAP3 SWAP2 POP POP JUMP JUMPDEST PUSH1 0x0 PUSH1 0x20 DUP3 DUP5 SUB SLT ISZERO PUSH2 0x357 JUMPI PUSH2 0x356 PUSH2 0x82F JUMP JUMPDEST JUMPDEST PUSH1 0x0 DUP3 ADD CALLDATALOAD PUSH8 0xFFFFFFFFFFFFFFFF DUP2 GT ISZERO PUSH2 0x375 JUMPI PUSH2 0x374 PUSH2 0x82A JUMP JUMPDEST JUMPDEST PUSH2 0x381 DUP5 DUP3 DUP6 ADD PUSH2 0x2FE JUMP JUMPDEST SWAP2 POP POP SWAP3 SWAP2 POP POP JUMP JUMPDEST PUSH1 0x0 PUSH1 0x20 DUP3 DUP5 SUB SLT ISZERO PUSH2 0x3A0 JUMPI PUSH2 0x39F PUSH2 0x82F JUMP JUMPDEST JUMPDEST PUSH1 0x0 PUSH2 0x3AE DUP5 DUP3 DUP6 ADD PUSH2 0x32C JUMP JUMPDEST SWAP2 POP POP SWAP3 SWAP2 POP POP JUMP JUMPDEST PUSH1 0x0 DUP1 PUSH1 0x40 DUP4 DUP6 SUB SLT ISZERO PUSH2 0x3CE JUMPI PUSH2 0x3CD PUSH2 0x82F JUMP JUMPDEST JUMPDEST PUSH1 0x0 PUSH2 0x3DC DUP6 DUP3 DUP7 ADD PUSH2 0x32C JUMP JUMPDEST SWAP3 POP POP PUSH1 0x20 PUSH2 0x3ED DUP6 DUP3 DUP7 ADD PUSH2 0x32C JUMP JUMPDEST SWAP2 POP POP SWAP3 POP SWAP3 SWAP1 POP JUMP JUMPDEST PUSH1 0x0 PUSH2 0x402 DUP3 PUSH2 0x4D2 JUMP JUMPDEST PUSH2 0x40C DUP2 DUP6 PUSH2 0x4DD JUMP JUMPDEST SWAP4 POP PUSH2 0x41C DUP2 DUP6 PUSH1 0x20 DUP7 ADD PUSH2 0x6CE JUMP JUMPDEST PUSH2 0x425 DUP2 PUSH2 0x834 JUMP JUMPDEST DUP5 ADD SWAP2 POP POP SWAP3 SWAP2 POP POP JUMP JUMPDEST PUSH2 0x439 DUP2 PUSH2 0x6B5 JUMP JUMPDEST DUP3 MSTORE POP POP JUMP JUMPDEST PUSH1 0x0 PUSH1 0x20 DUP3 ADD SWAP1 POP DUP2 DUP2 SUB PUSH1 0x0 DUP4 ADD MSTORE PUSH2 0x459 DUP2 DUP5 PUSH2 0x3F7 JUMP JUMPDEST SWAP1 POP SWAP3 SWAP2 POP POP JUMP JUMPDEST PUSH1 0x0 PUSH1 0x20 DUP3 ADD SWAP1 POP PUSH2 0x476 PUSH1 0x0 DUP4 ADD DUP5 PUSH2 0x430 JUMP JUMPDEST SWAP3 SWAP2 POP POP JUMP JUMPDEST PUSH1 0x0 PUSH2 0x486 PUSH2 0x497 JUMP JUMPDEST SWAP1 POP PUSH2 0x492 DUP3 DUP3 PUSH2 0x733 JUMP JUMPDEST SWAP2 SWAP1 POP JUMP JUMPDEST PUSH1 0x0 PUSH1 0x40 MLOAD SWAP1 POP SWAP1 JUMP JUMPDEST PUSH1 0x0 PUSH8 0xFFFFFFFFFFFFFFFF DUP3 GT ISZERO PUSH2 0x4BC JUMPI PUSH2 0x4BB PUSH2 0x7F1 JUMP JUMPDEST JUMPDEST PUSH2 0x4C5 DUP3 PUSH2 0x834 JUMP JUMPDEST SWAP1 POP PUSH1 0x20 DUP2 ADD SWAP1 POP SWAP2 SWAP1 POP JUMP JUMPDEST PUSH1 0x0 DUP2 MLOAD SWAP1 POP SWAP2 SWAP1 POP JUMP JUMPDEST PUSH1 0x0 DUP3 DUP3 MSTORE PUSH1 0x20 DUP3 ADD SWAP1 POP SWAP3 SWAP2 POP POP JUMP JUMPDEST PUSH1 0x0 PUSH2 0x4F9 DUP3 PUSH2 0x6B5 JUMP JUMPDEST SWAP2 POP PUSH2 0x504 DUP4 PUSH2 0x6B5 JUMP JUMPDEST SWAP3 POP DUP3 PUSH32 0xFFFFFFFFFFFFFFFFFFFFFFFFFFFFFFFFFFFFFFFFFFFFFFFFFFFFFFFFFFFFFFFF SUB DUP3 GT ISZERO PUSH2 0x539 JUMPI PUSH2 0x538 PUSH2 0x764 JUMP JUMPDEST JUMPDEST DUP3 DUP3 ADD SWAP1 POP SWAP3 SWAP2 POP POP JUMP JUMPDEST PUSH1 0x0 DUP1 DUP3 SWAP2 POP DUP4 SWAP1 POP JUMPDEST PUSH1 0x1 DUP6 GT ISZERO PUSH2 0x58E JUMPI DUP1 DUP7 DIV DUP2 GT ISZERO PUSH2 0x56A JUMPI PUSH2 0x569 PUSH2 0x764 JUMP JUMPDEST JUMPDEST PUSH1 0x1 DUP6 AND ISZERO PUSH2 0x579 JUMPI DUP1 DUP3 MUL SWAP2 POP JUMPDEST DUP1 DUP2 MUL SWAP1 POP PUSH2 0x587 DUP6 PUSH2 0x845 JUMP JUMPDEST SWAP5 POP PUSH2 0x54E JUMP JUMPDEST SWAP5 POP SWAP5 SWAP3 POP POP POP JUMP JUMPDEST PUSH1 0x0 PUSH2 0x5A2 DUP3 PUSH2 0x6B5 JUMP JUMPDEST SWAP2 POP PUSH2 0x5AD DUP4 PUSH2 0x6B5 JUMP JUMPDEST SWAP3 POP PUSH2 0x5DA PUSH32 0xFFFFFFFFFFFFFFFFFFFFFFFFFFFFFFFFFFFFFFFFFFFFFFFFFFFFFFFFFFFFFFFF DUP5 DUP5 PUSH2 0x5E2 JUMP JUMPDEST SWAP1 POP SWAP3 SWAP2 POP POP JUMP JUMPDEST PUSH1 0x0 DUP3 PUSH2 0x5F2 JUMPI PUSH1 0x1 SWAP1 POP PUSH2 0x6AE JUMP JUMPDEST DUP2 PUSH2 0x600 JUMPI PUSH1 0x0 SWAP1 POP PUSH2 0x6AE JUMP JUMPDEST DUP2 PUSH1 0x1 DUP2 EQ PUSH2 0x616 JUMPI PUSH1 0x2 DUP2 EQ PUSH2 0x620 JUMPI PUSH2 0x64F JUMP JUMPDEST PUSH1 0x1 SWAP2 POP POP PUSH2 0x6AE JUMP JUMPDEST PUSH1 0xFF DUP5 GT ISZERO PUSH2 0x632 JUMPI PUSH2 0x631 PUSH2 0x764 JUMP JUMPDEST JUMPDEST DUP4 PUSH1 0x2 EXP SWAP2 POP DUP5 DUP3 GT ISZERO PUSH2 0x649 JUMPI PUSH2 0x648 PUSH2 0x764 JUMP JUMPDEST JUMPDEST POP PUSH2 0x6AE JUMP JUMPDEST POP PUSH1 0x20 DUP4 LT PUSH2 0x133 DUP4 LT AND PUSH1 0x4E DUP5 LT PUSH1 0xB DUP5 LT AND OR ISZERO PUSH2 0x684 JUMPI DUP3 DUP3 EXP SWAP1 POP DUP4 DUP2 GT ISZERO PUSH2 0x67F JUMPI PUSH2 0x67E PUSH2 0x764 JUMP JUMPDEST JUMPDEST PUSH2 0x6AE JUMP JUMPDEST PUSH2 0x691 DUP5 DUP5 DUP5 PUSH1 0x1 PUSH2 0x544 JUMP JUMPDEST SWAP3 POP SWAP1 POP DUP2 DUP5 DIV DUP2 GT ISZERO PUSH2 0x6A8 JUMPI PUSH2 0x6A7 PUSH2 0x764 JUMP JUMPDEST JUMPDEST DUP2 DUP2 MUL SWAP1 POP JUMPDEST SWAP4 SWAP3 POP POP POP JUMP JUMPDEST PUSH1 0x0 DUP2 SWAP1 POP SWAP2 SWAP1 POP JUMP JUMPDEST DUP3 DUP2 DUP4 CALLDATACOPY PUSH1 0x0 DUP4 DUP4 ADD MSTORE POP POP POP JUMP JUMPDEST PUSH1 0x0 JUMPDEST DUP4 DUP2 LT ISZERO PUSH2 0x6EC JUMPI DUP1 DUP3 ADD MLOAD DUP2 DUP5 ADD MSTORE PUSH1 0x20 DUP2 ADD SWAP1 POP PUSH2 0x6D1 JUMP JUMPDEST DUP4 DUP2 GT ISZERO PUSH2 0x6FB JUMPI PUSH1 0x0 DUP5 DUP5 ADD MSTORE JUMPDEST POP POP POP POP JUMP JUMPDEST PUSH1 0x0 PUSH1 0x2 DUP3 DIV SWAP1 POP PUSH1 0x1 DUP3 AND DUP1 PUSH2 0x719 JUMPI PUSH1 0x7F DUP3 AND SWAP2 POP JUMPDEST PUSH1 0x20 DUP3 LT DUP2 EQ ISZERO PUSH2 0x72D JUMPI PUSH2 0x72C PUSH2 0x793 JUMP JUMPDEST JUMPDEST POP SWAP2 SWAP1 POP JUMP JUMPDEST PUSH2 0x73C DUP3 PUSH2 0x834 JUMP JUMPDEST DUP2 ADD DUP2 DUP2 LT PUSH8 0xFFFFFFFFFFFFFFFF DUP3 GT OR ISZERO PUSH2 0x75B JUMPI PUSH2 0x75A PUSH2 0x7F1 JUMP JUMPDEST JUMPDEST DUP1 PUSH1 0x40 MSTORE POP POP POP JUMP JUMPDEST PUSH32 0x4E487B7100000000000000000000000000000000000000000000000000000000 PUSH1 0x0 MSTORE PUSH1 0x11 PUSH1 0x4 MSTORE PUSH1 0x24 PUSH1 0x0 REVERT JUMPDEST PUSH32 0x4E487B7100000000000000000000000000000000000000000000000000000000 PUSH1 0x0 MSTORE PUSH1 0x22 PUSH1 0x4 MSTORE PUSH1 0x24 PUSH1 0x0 REVERT JUMPDEST PUSH32 0x4E487B7100000000000000000000000000000000000000000000000000000000 PUSH1 0x0 MSTORE PUSH1 0x32 PUSH1 0x4 MSTORE PUSH1 0x24 PUSH1 0x0 REVERT JUMPDEST PUSH32 0x4E487B7100000000000000000000000000000000000000000000000000000000 PUSH1 0x0 MSTORE PUSH1 0x41 PUSH1 0x4 MSTORE PUSH1 0x24 PUSH1 0x0 REVERT JUMPDEST PUSH1 0x0 DUP1 REVERT JUMPDEST PUSH1 0x0 DUP1 REVERT JUMPDEST PUSH1 0x0 DUP1 REVERT JUMPDEST PUSH1 0x0 DUP1 REVERT JUMPDEST PUSH1 0x0 PUSH1 0x1F NOT PUSH1 0x1F DUP4 ADD AND SWAP1 POP SWAP2 SWAP1 POP JUMP JUMPDEST PUSH1 0x0 DUP2 PUSH1 0x1 SHR SWAP1 POP SWAP2 SWAP1 POP JUMP JUMPDEST PUSH2 0x85B DUP2 PUSH2 0x6B5 JUMP JUMPDEST DUP2 EQ PUSH2 0x866 JUMPI PUSH1 0x0 DUP1 REVERT JUMPDEST POP JUMP INVALID LOG2 PUSH5 0x6970667358 0x22 SLT KECCAK256 SELFBALANCE GASPRICE PUSH21 0x133DD2C9ACDECEC82BF97BEB90E370B30BB3326141 0x48 SWAP16 MSTORE8 0xD0 0xB1 0x24 SMOD LOG1 PUSH5 0x736F6C6343 STOP ADDMOD MOD STOP CALLER "
				},
				"gasEstimates": {
					"creation": {
						"codeDepositCost": "441400",
						"executionCost": "22580",
						"totalCost": "463980"
					},
					"external": {
						"getAlumno(uint256)": "infinite",
						"nuevoAlumno(string)": "infinite",
						"potencia(uint256,uint256)": "infinite",
						"sumTox(uint256)": "infinite"
					}
				},
				"methodIdentifiers": {
					"getAlumno(uint256)": "199c937b",
					"nuevoAlumno(string)": "7da5096b",
					"potencia(uint256,uint256)": "29137cc3",
					"sumTox(uint256)": "13bd6e3c"
				}
			},
			"storageLayout": {
				"storage": [
					{
						"astId": 4,
						"contract": "modificadores.sol:ModificadoresFunciones",
						"label": "lista_estudiantes",
						"offset": 0,
						"slot": "0",
						"type": "t_array(t_string_storage)dyn_storage"
					},
					{
						"astId": 31,
						"contract": "modificadores.sol:ModificadoresFunciones",
						"label": "x",
						"offset": 0,
						"slot": "1",
						"type": "t_uint256"
					},
					{
						"astId": 62,
						"contract": "modificadores.sol:ModificadoresFunciones",
						"label": "saldoBilletera",
						"offset": 0,
						"slot": "2",
						"type": "t_mapping(t_address,t_struct(billetera)69_storage)"
					}
				],
				"types": {
					"t_address": {
						"encoding": "inplace",
						"label": "address",
						"numberOfBytes": "20"
					},
					"t_array(t_string_storage)dyn_storage": {
						"base": "t_string_storage",
						"encoding": "dynamic_array",
						"label": "string[]",
						"numberOfBytes": "32"
					},
					"t_mapping(t_address,t_struct(billetera)69_storage)": {
						"encoding": "mapping",
						"key": "t_address",
						"label": "mapping(address => struct ModificadoresFunciones.billetera)",
						"numberOfBytes": "32",
						"value": "t_struct(billetera)69_storage"
					},
					"t_string_storage": {
						"encoding": "bytes",
						"label": "string",
						"numberOfBytes": "32"
					},
					"t_struct(billetera)69_storage": {
						"encoding": "inplace",
						"label": "struct ModificadoresFunciones.billetera",
						"members": [
							{
								"astId": 64,
								"contract": "modificadores.sol:ModificadoresFunciones",
								"label": "nombre",
								"offset": 0,
								"slot": "0",
								"type": "t_string_storage"
							},
							{
								"astId": 66,
								"contract": "modificadores.sol:ModificadoresFunciones",
								"label": "direction",
								"offset": 0,
								"slot": "1",
								"type": "t_address"
							},
							{
								"astId": 68,
								"contract": "modificadores.sol:ModificadoresFunciones",
								"label": "mount",
								"offset": 0,
								"slot": "2",
								"type": "t_uint256"
							}
						],
						"numberOfBytes": "96"
					},
					"t_uint256": {
						"encoding": "inplace",
						"label": "uint256",
						"numberOfBytes": "32"
					}
				}
			},
			"userdoc": {
				"kind": "user",
				"methods": {},
				"version": 1
			}
		}
	}
}