{
	"modificadores.sol": {
		"ModificadoresFunciones": {
			"abi": [
				{
					"inputs": [
						{
							"internalType": "uint256",
							"name": "_posicion",
							"type": "uint256"
						}
					],
					"name": "getAlumno",
					"outputs": [
						{
							"internalType": "string",
							"name": "",
							"type": "string"
						}
					],
					"stateMutability": "view",
					"type": "function"
				},
				{
					"inputs": [
						{
							"internalType": "string",
							"name": "_alumno",
							"type": "string"
						}
					],
					"name": "nuevoAlumno",
					"outputs": [],
					"stateMutability": "nonpayable",
					"type": "function"
				},
				{
					"inputs": [
						{
							"internalType": "uint256",
							"name": "_a",
							"type": "uint256"
						},
						{
							"internalType": "uint256",
							"name": "_b",
							"type": "uint256"
						}
					],
					"name": "potencia",
					"outputs": [
						{
							"internalType": "uint256",
							"name": "",
							"type": "uint256"
						}
					],
					"stateMutability": "nonpayable",
					"type": "function"
				},
				{
					"inputs": [
						{
							"internalType": "uint256",
							"name": "_a",
							"type": "uint256"
						}
					],
					"name": "sumTox",
					"outputs": [
						{
							"internalType": "uint256",
							"name": "",
							"type": "uint256"
						}
					],
					"stateMutability": "view",
					"type": "function"
				}
			],
			"devdoc": {
				"kind": "dev",
				"methods": {},
				"version": 1
			},
			"evm": {
				"assembly": "    /* \"modificadores.sol\":33:567  contract ModificadoresFunciones {... */\n  mstore(0x40, 0x80)\n    /* \"modificadores.sol\":371:373  10 */\n  0x0a\n    /* \"modificadores.sol\":362:373  uint x = 10 */\n  0x01\n  sstore\n    /* \"modificadores.sol\":33:567  contract ModificadoresFunciones {... */\n  callvalue\n  dup1\n  iszero\n  tag_1\n  jumpi\n  0x00\n  dup1\n  revert\ntag_1:\n  pop\n  dataSize(sub_0)\n  dup1\n  dataOffset(sub_0)\n  0x00\n  codecopy\n  0x00\n  return\nstop\n\nsub_0: assembly {\n        /* \"modificadores.sol\":33:567  contract ModificadoresFunciones {... */\n      mstore(0x40, 0x80)\n      callvalue\n      dup1\n      iszero\n      tag_1\n      jumpi\n      0x00\n      dup1\n      revert\n    tag_1:\n      pop\n      jumpi(tag_2, lt(calldatasize, 0x04))\n      shr(0xe0, calldataload(0x00))\n      dup1\n      0x13bd6e3c\n      eq\n      tag_3\n      jumpi\n      dup1\n      0x199c937b\n      eq\n      tag_4\n      jumpi\n      dup1\n      0x29137cc3\n      eq\n      tag_5\n      jumpi\n      dup1\n      0x7da5096b\n      eq\n      tag_6\n      jumpi\n    tag_2:\n      0x00\n      dup1\n      revert\n        /* \"modificadores.sol\":379:460  function sumTox(uint _a) public view returns(uint) {... */\n    tag_3:\n      tag_7\n      0x04\n      dup1\n      calldatasize\n      sub\n      dup2\n      add\n      swap1\n      tag_8\n      swap2\n      swap1\n      tag_9\n      jump\t// in\n    tag_8:\n      tag_10\n      jump\t// in\n    tag_7:\n      mload(0x40)\n      tag_11\n      swap2\n      swap1\n      tag_12\n      jump\t// in\n    tag_11:\n      mload(0x40)\n      dup1\n      swap2\n      sub\n      swap1\n      return\n        /* \"modificadores.sol\":234:356  function getAlumno(uint _posicion) public view returns(string memory) {... */\n    tag_4:\n      tag_13\n      0x04\n      dup1\n      calldatasize\n      sub\n      dup2\n      add\n      swap1\n      tag_14\n      swap2\n      swap1\n      tag_9\n      jump\t// in\n    tag_14:\n      tag_15\n      jump\t// in\n    tag_13:\n      mload(0x40)\n      tag_16\n      swap2\n      swap1\n      tag_17\n      jump\t// in\n    tag_16:\n      mload(0x40)\n      dup1\n      swap2\n      sub\n      swap1\n      return\n        /* \"modificadores.sol\":490:563  function potencia(uint _a, uint _b) public returns(uint) {... */\n    tag_5:\n      tag_18\n      0x04\n      dup1\n      calldatasize\n      sub\n      dup2\n      add\n      swap1\n      tag_19\n      swap2\n      swap1\n      tag_20\n      jump\t// in\n    tag_19:\n      tag_21\n      jump\t// in\n    tag_18:\n      mload(0x40)\n      tag_22\n      swap2\n      swap1\n      tag_12\n      jump\t// in\n    tag_22:\n      mload(0x40)\n      dup1\n      swap2\n      sub\n      swap1\n      return\n        /* \"modificadores.sol\":129:228  function nuevoAlumno(string memory _alumno) public {... */\n    tag_6:\n      tag_23\n      0x04\n      dup1\n      calldatasize\n      sub\n      dup2\n      add\n      swap1\n      tag_24\n      swap2\n      swap1\n      tag_25\n      jump\t// in\n    tag_24:\n      tag_26\n      jump\t// in\n    tag_23:\n      stop\n        /* \"modificadores.sol\":379:460  function sumTox(uint _a) public view returns(uint) {... */\n    tag_10:\n        /* \"modificadores.sol\":424:428  uint */\n      0x00\n        /* \"modificadores.sol\":451:453  _a */\n      dup2\n        /* \"modificadores.sol\":447:448  x */\n      sload(0x01)\n        /* \"modificadores.sol\":447:453  x + _a */\n      tag_28\n      swap2\n      swap1\n      tag_29\n      jump\t// in\n    tag_28:\n        /* \"modificadores.sol\":440:453  return x + _a */\n      swap1\n      pop\n        /* \"modificadores.sol\":379:460  function sumTox(uint _a) public view returns(uint) {... */\n      swap2\n      swap1\n      pop\n      jump\t// out\n        /* \"modificadores.sol\":234:356  function getAlumno(uint _posicion) public view returns(string memory) {... */\n    tag_15:\n        /* \"modificadores.sol\":289:302  string memory */\n      0x60\n        /* \"modificadores.sol\":321:338  lista_estudiantes */\n      0x00\n        /* \"modificadores.sol\":339:348  _posicion */\n      dup3\n        /* \"modificadores.sol\":321:349  lista_estudiantes[_posicion] */\n      dup2\n      sload\n      dup2\n      lt\n      tag_31\n      jumpi\n      tag_32\n      tag_33\n      jump\t// in\n    tag_32:\n    tag_31:\n      swap1\n      0x00\n      mstore\n      keccak256(0x00, 0x20)\n      add\n        /* \"modificadores.sol\":314:349  return lista_estudiantes[_posicion] */\n      dup1\n      sload\n      tag_35\n      swap1\n      tag_36\n      jump\t// in\n    tag_35:\n      dup1\n      0x1f\n      add\n      0x20\n      dup1\n      swap2\n      div\n      mul\n      0x20\n      add\n      mload(0x40)\n      swap1\n      dup2\n      add\n      0x40\n      mstore\n      dup1\n      swap3\n      swap2\n      swap1\n      dup2\n      dup2\n      mstore\n      0x20\n      add\n      dup3\n      dup1\n      sload\n      tag_37\n      swap1\n      tag_36\n      jump\t// in\n    tag_37:\n      dup1\n      iszero\n      tag_38\n      jumpi\n      dup1\n      0x1f\n      lt\n      tag_39\n      jumpi\n      0x0100\n      dup1\n      dup4\n      sload\n      div\n      mul\n      dup4\n      mstore\n      swap2\n      0x20\n      add\n      swap2\n      jump(tag_38)\n    tag_39:\n      dup3\n      add\n      swap2\n      swap1\n      0x00\n      mstore\n      keccak256(0x00, 0x20)\n      swap1\n    tag_40:\n      dup2\n      sload\n      dup2\n      mstore\n      swap1\n      0x01\n      add\n      swap1\n      0x20\n      add\n      dup1\n      dup4\n      gt\n      tag_40\n      jumpi\n      dup3\n      swap1\n      sub\n      0x1f\n      and\n      dup3\n      add\n      swap2\n    tag_38:\n      pop\n      pop\n      pop\n      pop\n      pop\n      swap1\n      pop\n        /* \"modificadores.sol\":234:356  function getAlumno(uint _posicion) public view returns(string memory) {... */\n      swap2\n      swap1\n      pop\n      jump\t// out\n        /* \"modificadores.sol\":490:563  function potencia(uint _a, uint _b) public returns(uint) {... */\n    tag_21:\n        /* \"modificadores.sol\":541:545  uint */\n      0x00\n        /* \"modificadores.sol\":490:563  function potencia(uint _a, uint _b) public returns(uint) {... */\n      swap3\n      swap2\n      pop\n      pop\n      jump\t// out\n        /* \"modificadores.sol\":129:228  function nuevoAlumno(string memory _alumno) public {... */\n    tag_26:\n        /* \"modificadores.sol\":190:207  lista_estudiantes */\n      0x00\n        /* \"modificadores.sol\":213:220  _alumno */\n      dup2\n        /* \"modificadores.sol\":190:221  lista_estudiantes.push(_alumno) */\n      swap1\n      dup1\n      0x01\n      dup2\n      sload\n      add\n      dup1\n      dup3\n      sstore\n      dup1\n      swap2\n      pop\n      pop\n      0x01\n      swap1\n      sub\n      swap1\n      0x00\n      mstore\n      keccak256(0x00, 0x20)\n      add\n      0x00\n      swap1\n      swap2\n      swap1\n      swap2\n      swap1\n      swap2\n      pop\n      swap1\n      dup1\n      mload\n      swap1\n      0x20\n      add\n      swap1\n      tag_44\n      swap3\n      swap2\n      swap1\n      tag_45\n      jump\t// in\n    tag_44:\n      pop\n        /* \"modificadores.sol\":129:228  function nuevoAlumno(string memory _alumno) public {... */\n      pop\n      jump\t// out\n    tag_45:\n      dup3\n      dup1\n      sload\n      tag_46\n      swap1\n      tag_36\n      jump\t// in\n    tag_46:\n      swap1\n      0x00\n      mstore\n      keccak256(0x00, 0x20)\n      swap1\n      0x1f\n      add\n      0x20\n      swap1\n      div\n      dup2\n      add\n      swap3\n      dup3\n      tag_48\n      jumpi\n      0x00\n      dup6\n      sstore\n      jump(tag_47)\n    tag_48:\n      dup3\n      0x1f\n      lt\n      tag_49\n      jumpi\n      dup1\n      mload\n      not(0xff)\n      and\n      dup4\n      dup1\n      add\n      or\n      dup6\n      sstore\n      jump(tag_47)\n    tag_49:\n      dup3\n      dup1\n      add\n      0x01\n      add\n      dup6\n      sstore\n      dup3\n      iszero\n      tag_47\n      jumpi\n      swap2\n      dup3\n      add\n    tag_50:\n      dup3\n      dup2\n      gt\n      iszero\n      tag_51\n      jumpi\n      dup3\n      mload\n      dup3\n      sstore\n      swap2\n      0x20\n      add\n      swap2\n      swap1\n      0x01\n      add\n      swap1\n      jump(tag_50)\n    tag_51:\n    tag_47:\n      pop\n      swap1\n      pop\n      tag_52\n      swap2\n      swap1\n      tag_53\n      jump\t// in\n    tag_52:\n      pop\n      swap1\n      jump\t// out\n    tag_53:\n    tag_54:\n      dup1\n      dup3\n      gt\n      iszero\n      tag_55\n      jumpi\n      0x00\n      dup2\n      0x00\n      swap1\n      sstore\n      pop\n      0x01\n      add\n      jump(tag_54)\n    tag_55:\n      pop\n      swap1\n      jump\t// out\n        /* \"#utility.yul\":7:419   */\n    tag_57:\n        /* \"#utility.yul\":85:90   */\n      0x00\n        /* \"#utility.yul\":110:176   */\n      tag_59\n        /* \"#utility.yul\":126:175   */\n      tag_60\n        /* \"#utility.yul\":168:174   */\n      dup5\n        /* \"#utility.yul\":126:175   */\n      tag_61\n      jump\t// in\n    tag_60:\n        /* \"#utility.yul\":110:176   */\n      tag_62\n      jump\t// in\n    tag_59:\n        /* \"#utility.yul\":101:176   */\n      swap1\n      pop\n        /* \"#utility.yul\":199:205   */\n      dup3\n        /* \"#utility.yul\":192:197   */\n      dup2\n        /* \"#utility.yul\":185:206   */\n      mstore\n        /* \"#utility.yul\":237:241   */\n      0x20\n        /* \"#utility.yul\":230:235   */\n      dup2\n        /* \"#utility.yul\":226:242   */\n      add\n        /* \"#utility.yul\":275:278   */\n      dup5\n        /* \"#utility.yul\":266:272   */\n      dup5\n        /* \"#utility.yul\":261:264   */\n      dup5\n        /* \"#utility.yul\":257:273   */\n      add\n        /* \"#utility.yul\":254:279   */\n      gt\n        /* \"#utility.yul\":251:253   */\n      iszero\n      tag_63\n      jumpi\n        /* \"#utility.yul\":282:361   */\n      tag_64\n      tag_65\n      jump\t// in\n    tag_64:\n        /* \"#utility.yul\":251:253   */\n    tag_63:\n        /* \"#utility.yul\":372:413   */\n      tag_66\n        /* \"#utility.yul\":406:412   */\n      dup5\n        /* \"#utility.yul\":401:404   */\n      dup3\n        /* \"#utility.yul\":396:399   */\n      dup6\n        /* \"#utility.yul\":372:413   */\n      tag_67\n      jump\t// in\n    tag_66:\n        /* \"#utility.yul\":91:419   */\n      pop\n      swap4\n      swap3\n      pop\n      pop\n      pop\n      jump\t// out\n        /* \"#utility.yul\":439:779   */\n    tag_68:\n        /* \"#utility.yul\":495:500   */\n      0x00\n        /* \"#utility.yul\":544:547   */\n      dup3\n        /* \"#utility.yul\":537:541   */\n      0x1f\n        /* \"#utility.yul\":529:535   */\n      dup4\n        /* \"#utility.yul\":525:542   */\n      add\n        /* \"#utility.yul\":521:548   */\n      slt\n        /* \"#utility.yul\":511:513   */\n      tag_70\n      jumpi\n        /* \"#utility.yul\":552:631   */\n      tag_71\n      tag_72\n      jump\t// in\n    tag_71:\n        /* \"#utility.yul\":511:513   */\n    tag_70:\n        /* \"#utility.yul\":669:675   */\n      dup2\n        /* \"#utility.yul\":656:676   */\n      calldataload\n        /* \"#utility.yul\":694:773   */\n      tag_73\n        /* \"#utility.yul\":769:772   */\n      dup5\n        /* \"#utility.yul\":761:767   */\n      dup3\n        /* \"#utility.yul\":754:758   */\n      0x20\n        /* \"#utility.yul\":746:752   */\n      dup7\n        /* \"#utility.yul\":742:759   */\n      add\n        /* \"#utility.yul\":694:773   */\n      tag_57\n      jump\t// in\n    tag_73:\n        /* \"#utility.yul\":685:773   */\n      swap2\n      pop\n        /* \"#utility.yul\":501:779   */\n      pop\n      swap3\n      swap2\n      pop\n      pop\n      jump\t// out\n        /* \"#utility.yul\":785:924   */\n    tag_74:\n        /* \"#utility.yul\":831:836   */\n      0x00\n        /* \"#utility.yul\":869:875   */\n      dup2\n        /* \"#utility.yul\":856:876   */\n      calldataload\n        /* \"#utility.yul\":847:876   */\n      swap1\n      pop\n        /* \"#utility.yul\":885:918   */\n      tag_76\n        /* \"#utility.yul\":912:917   */\n      dup2\n        /* \"#utility.yul\":885:918   */\n      tag_77\n      jump\t// in\n    tag_76:\n        /* \"#utility.yul\":837:924   */\n      swap3\n      swap2\n      pop\n      pop\n      jump\t// out\n        /* \"#utility.yul\":930:1439   */\n    tag_25:\n        /* \"#utility.yul\":999:1005   */\n      0x00\n        /* \"#utility.yul\":1048:1050   */\n      0x20\n        /* \"#utility.yul\":1036:1045   */\n      dup3\n        /* \"#utility.yul\":1027:1034   */\n      dup5\n        /* \"#utility.yul\":1023:1046   */\n      sub\n        /* \"#utility.yul\":1019:1051   */\n      slt\n        /* \"#utility.yul\":1016:1018   */\n      iszero\n      tag_79\n      jumpi\n        /* \"#utility.yul\":1054:1133   */\n      tag_80\n      tag_81\n      jump\t// in\n    tag_80:\n        /* \"#utility.yul\":1016:1018   */\n    tag_79:\n        /* \"#utility.yul\":1202:1203   */\n      0x00\n        /* \"#utility.yul\":1191:1200   */\n      dup3\n        /* \"#utility.yul\":1187:1204   */\n      add\n        /* \"#utility.yul\":1174:1205   */\n      calldataload\n        /* \"#utility.yul\":1232:1250   */\n      0xffffffffffffffff\n        /* \"#utility.yul\":1224:1230   */\n      dup2\n        /* \"#utility.yul\":1221:1251   */\n      gt\n        /* \"#utility.yul\":1218:1220   */\n      iszero\n      tag_82\n      jumpi\n        /* \"#utility.yul\":1254:1333   */\n      tag_83\n      tag_84\n      jump\t// in\n    tag_83:\n        /* \"#utility.yul\":1218:1220   */\n    tag_82:\n        /* \"#utility.yul\":1359:1422   */\n      tag_85\n        /* \"#utility.yul\":1414:1421   */\n      dup5\n        /* \"#utility.yul\":1405:1411   */\n      dup3\n        /* \"#utility.yul\":1394:1403   */\n      dup6\n        /* \"#utility.yul\":1390:1412   */\n      add\n        /* \"#utility.yul\":1359:1422   */\n      tag_68\n      jump\t// in\n    tag_85:\n        /* \"#utility.yul\":1349:1422   */\n      swap2\n      pop\n        /* \"#utility.yul\":1145:1432   */\n      pop\n        /* \"#utility.yul\":1006:1439   */\n      swap3\n      swap2\n      pop\n      pop\n      jump\t// out\n        /* \"#utility.yul\":1445:1774   */\n    tag_9:\n        /* \"#utility.yul\":1504:1510   */\n      0x00\n        /* \"#utility.yul\":1553:1555   */\n      0x20\n        /* \"#utility.yul\":1541:1550   */\n      dup3\n        /* \"#utility.yul\":1532:1539   */\n      dup5\n        /* \"#utility.yul\":1528:1551   */\n      sub\n        /* \"#utility.yul\":1524:1556   */\n      slt\n        /* \"#utility.yul\":1521:1523   */\n      iszero\n      tag_87\n      jumpi\n        /* \"#utility.yul\":1559:1638   */\n      tag_88\n      tag_81\n      jump\t// in\n    tag_88:\n        /* \"#utility.yul\":1521:1523   */\n    tag_87:\n        /* \"#utility.yul\":1679:1680   */\n      0x00\n        /* \"#utility.yul\":1704:1757   */\n      tag_89\n        /* \"#utility.yul\":1749:1756   */\n      dup5\n        /* \"#utility.yul\":1740:1746   */\n      dup3\n        /* \"#utility.yul\":1729:1738   */\n      dup6\n        /* \"#utility.yul\":1725:1747   */\n      add\n        /* \"#utility.yul\":1704:1757   */\n      tag_74\n      jump\t// in\n    tag_89:\n        /* \"#utility.yul\":1694:1757   */\n      swap2\n      pop\n        /* \"#utility.yul\":1650:1767   */\n      pop\n        /* \"#utility.yul\":1511:1774   */\n      swap3\n      swap2\n      pop\n      pop\n      jump\t// out\n        /* \"#utility.yul\":1780:2254   */\n    tag_20:\n        /* \"#utility.yul\":1848:1854   */\n      0x00\n        /* \"#utility.yul\":1856:1862   */\n      dup1\n        /* \"#utility.yul\":1905:1907   */\n      0x40\n        /* \"#utility.yul\":1893:1902   */\n      dup4\n        /* \"#utility.yul\":1884:1891   */\n      dup6\n        /* \"#utility.yul\":1880:1903   */\n      sub\n        /* \"#utility.yul\":1876:1908   */\n      slt\n        /* \"#utility.yul\":1873:1875   */\n      iszero\n      tag_91\n      jumpi\n        /* \"#utility.yul\":1911:1990   */\n      tag_92\n      tag_81\n      jump\t// in\n    tag_92:\n        /* \"#utility.yul\":1873:1875   */\n    tag_91:\n        /* \"#utility.yul\":2031:2032   */\n      0x00\n        /* \"#utility.yul\":2056:2109   */\n      tag_93\n        /* \"#utility.yul\":2101:2108   */\n      dup6\n        /* \"#utility.yul\":2092:2098   */\n      dup3\n        /* \"#utility.yul\":2081:2090   */\n      dup7\n        /* \"#utility.yul\":2077:2099   */\n      add\n        /* \"#utility.yul\":2056:2109   */\n      tag_74\n      jump\t// in\n    tag_93:\n        /* \"#utility.yul\":2046:2109   */\n      swap3\n      pop\n        /* \"#utility.yul\":2002:2119   */\n      pop\n        /* \"#utility.yul\":2158:2160   */\n      0x20\n        /* \"#utility.yul\":2184:2237   */\n      tag_94\n        /* \"#utility.yul\":2229:2236   */\n      dup6\n        /* \"#utility.yul\":2220:2226   */\n      dup3\n        /* \"#utility.yul\":2209:2218   */\n      dup7\n        /* \"#utility.yul\":2205:2227   */\n      add\n        /* \"#utility.yul\":2184:2237   */\n      tag_74\n      jump\t// in\n    tag_94:\n        /* \"#utility.yul\":2174:2237   */\n      swap2\n      pop\n        /* \"#utility.yul\":2129:2247   */\n      pop\n        /* \"#utility.yul\":1863:2254   */\n      swap3\n      pop\n      swap3\n      swap1\n      pop\n      jump\t// out\n        /* \"#utility.yul\":2260:2624   */\n    tag_95:\n        /* \"#utility.yul\":2348:2351   */\n      0x00\n        /* \"#utility.yul\":2376:2415   */\n      tag_97\n        /* \"#utility.yul\":2409:2414   */\n      dup3\n        /* \"#utility.yul\":2376:2415   */\n      tag_98\n      jump\t// in\n    tag_97:\n        /* \"#utility.yul\":2431:2502   */\n      tag_99\n        /* \"#utility.yul\":2495:2501   */\n      dup2\n        /* \"#utility.yul\":2490:2493   */\n      dup6\n        /* \"#utility.yul\":2431:2502   */\n      tag_100\n      jump\t// in\n    tag_99:\n        /* \"#utility.yul\":2424:2502   */\n      swap4\n      pop\n        /* \"#utility.yul\":2511:2563   */\n      tag_101\n        /* \"#utility.yul\":2556:2562   */\n      dup2\n        /* \"#utility.yul\":2551:2554   */\n      dup6\n        /* \"#utility.yul\":2544:2548   */\n      0x20\n        /* \"#utility.yul\":2537:2542   */\n      dup7\n        /* \"#utility.yul\":2533:2549   */\n      add\n        /* \"#utility.yul\":2511:2563   */\n      tag_102\n      jump\t// in\n    tag_101:\n        /* \"#utility.yul\":2588:2617   */\n      tag_103\n        /* \"#utility.yul\":2610:2616   */\n      dup2\n        /* \"#utility.yul\":2588:2617   */\n      tag_104\n      jump\t// in\n    tag_103:\n        /* \"#utility.yul\":2583:2586   */\n      dup5\n        /* \"#utility.yul\":2579:2618   */\n      add\n        /* \"#utility.yul\":2572:2618   */\n      swap2\n      pop\n        /* \"#utility.yul\":2352:2624   */\n      pop\n      swap3\n      swap2\n      pop\n      pop\n      jump\t// out\n        /* \"#utility.yul\":2630:2748   */\n    tag_105:\n        /* \"#utility.yul\":2717:2741   */\n      tag_107\n        /* \"#utility.yul\":2735:2740   */\n      dup2\n        /* \"#utility.yul\":2717:2741   */\n      tag_108\n      jump\t// in\n    tag_107:\n        /* \"#utility.yul\":2712:2715   */\n      dup3\n        /* \"#utility.yul\":2705:2742   */\n      mstore\n        /* \"#utility.yul\":2695:2748   */\n      pop\n      pop\n      jump\t// out\n        /* \"#utility.yul\":2754:3067   */\n    tag_17:\n        /* \"#utility.yul\":2867:2871   */\n      0x00\n        /* \"#utility.yul\":2905:2907   */\n      0x20\n        /* \"#utility.yul\":2894:2903   */\n      dup3\n        /* \"#utility.yul\":2890:2908   */\n      add\n        /* \"#utility.yul\":2882:2908   */\n      swap1\n      pop\n        /* \"#utility.yul\":2954:2963   */\n      dup2\n        /* \"#utility.yul\":2948:2952   */\n      dup2\n        /* \"#utility.yul\":2944:2964   */\n      sub\n        /* \"#utility.yul\":2940:2941   */\n      0x00\n        /* \"#utility.yul\":2929:2938   */\n      dup4\n        /* \"#utility.yul\":2925:2942   */\n      add\n        /* \"#utility.yul\":2918:2965   */\n      mstore\n        /* \"#utility.yul\":2982:3060   */\n      tag_110\n        /* \"#utility.yul\":3055:3059   */\n      dup2\n        /* \"#utility.yul\":3046:3052   */\n      dup5\n        /* \"#utility.yul\":2982:3060   */\n      tag_95\n      jump\t// in\n    tag_110:\n        /* \"#utility.yul\":2974:3060   */\n      swap1\n      pop\n        /* \"#utility.yul\":2872:3067   */\n      swap3\n      swap2\n      pop\n      pop\n      jump\t// out\n        /* \"#utility.yul\":3073:3295   */\n    tag_12:\n        /* \"#utility.yul\":3166:3170   */\n      0x00\n        /* \"#utility.yul\":3204:3206   */\n      0x20\n        /* \"#utility.yul\":3193:3202   */\n      dup3\n        /* \"#utility.yul\":3189:3207   */\n      add\n        /* \"#utility.yul\":3181:3207   */\n      swap1\n      pop\n        /* \"#utility.yul\":3217:3288   */\n      tag_112\n        /* \"#utility.yul\":3285:3286   */\n      0x00\n        /* \"#utility.yul\":3274:3283   */\n      dup4\n        /* \"#utility.yul\":3270:3287   */\n      add\n        /* \"#utility.yul\":3261:3267   */\n      dup5\n        /* \"#utility.yul\":3217:3288   */\n      tag_105\n      jump\t// in\n    tag_112:\n        /* \"#utility.yul\":3171:3295   */\n      swap3\n      swap2\n      pop\n      pop\n      jump\t// out\n        /* \"#utility.yul\":3301:3430   */\n    tag_62:\n        /* \"#utility.yul\":3335:3341   */\n      0x00\n        /* \"#utility.yul\":3362:3382   */\n      tag_114\n      tag_115\n      jump\t// in\n    tag_114:\n        /* \"#utility.yul\":3352:3382   */\n      swap1\n      pop\n        /* \"#utility.yul\":3391:3424   */\n      tag_116\n        /* \"#utility.yul\":3419:3423   */\n      dup3\n        /* \"#utility.yul\":3411:3417   */\n      dup3\n        /* \"#utility.yul\":3391:3424   */\n      tag_117\n      jump\t// in\n    tag_116:\n        /* \"#utility.yul\":3342:3430   */\n      swap2\n      swap1\n      pop\n      jump\t// out\n        /* \"#utility.yul\":3436:3511   */\n    tag_115:\n        /* \"#utility.yul\":3469:3475   */\n      0x00\n        /* \"#utility.yul\":3502:3504   */\n      0x40\n        /* \"#utility.yul\":3496:3505   */\n      mload\n        /* \"#utility.yul\":3486:3505   */\n      swap1\n      pop\n        /* \"#utility.yul\":3476:3511   */\n      swap1\n      jump\t// out\n        /* \"#utility.yul\":3517:3825   */\n    tag_61:\n        /* \"#utility.yul\":3579:3583   */\n      0x00\n        /* \"#utility.yul\":3669:3687   */\n      0xffffffffffffffff\n        /* \"#utility.yul\":3661:3667   */\n      dup3\n        /* \"#utility.yul\":3658:3688   */\n      gt\n        /* \"#utility.yul\":3655:3657   */\n      iszero\n      tag_120\n      jumpi\n        /* \"#utility.yul\":3691:3709   */\n      tag_121\n      tag_122\n      jump\t// in\n    tag_121:\n        /* \"#utility.yul\":3655:3657   */\n    tag_120:\n        /* \"#utility.yul\":3729:3758   */\n      tag_123\n        /* \"#utility.yul\":3751:3757   */\n      dup3\n        /* \"#utility.yul\":3729:3758   */\n      tag_104\n      jump\t// in\n    tag_123:\n        /* \"#utility.yul\":3721:3758   */\n      swap1\n      pop\n        /* \"#utility.yul\":3813:3817   */\n      0x20\n        /* \"#utility.yul\":3807:3811   */\n      dup2\n        /* \"#utility.yul\":3803:3818   */\n      add\n        /* \"#utility.yul\":3795:3818   */\n      swap1\n      pop\n        /* \"#utility.yul\":3584:3825   */\n      swap2\n      swap1\n      pop\n      jump\t// out\n        /* \"#utility.yul\":3831:3930   */\n    tag_98:\n        /* \"#utility.yul\":3883:3889   */\n      0x00\n        /* \"#utility.yul\":3917:3922   */\n      dup2\n        /* \"#utility.yul\":3911:3923   */\n      mload\n        /* \"#utility.yul\":3901:3923   */\n      swap1\n      pop\n        /* \"#utility.yul\":3890:3930   */\n      swap2\n      swap1\n      pop\n      jump\t// out\n        /* \"#utility.yul\":3936:4105   */\n    tag_100:\n        /* \"#utility.yul\":4020:4031   */\n      0x00\n        /* \"#utility.yul\":4054:4060   */\n      dup3\n        /* \"#utility.yul\":4049:4052   */\n      dup3\n        /* \"#utility.yul\":4042:4061   */\n      mstore\n        /* \"#utility.yul\":4094:4098   */\n      0x20\n        /* \"#utility.yul\":4089:4092   */\n      dup3\n        /* \"#utility.yul\":4085:4099   */\n      add\n        /* \"#utility.yul\":4070:4099   */\n      swap1\n      pop\n        /* \"#utility.yul\":4032:4105   */\n      swap3\n      swap2\n      pop\n      pop\n      jump\t// out\n        /* \"#utility.yul\":4111:4416   */\n    tag_29:\n        /* \"#utility.yul\":4151:4154   */\n      0x00\n        /* \"#utility.yul\":4170:4190   */\n      tag_127\n        /* \"#utility.yul\":4188:4189   */\n      dup3\n        /* \"#utility.yul\":4170:4190   */\n      tag_108\n      jump\t// in\n    tag_127:\n        /* \"#utility.yul\":4165:4190   */\n      swap2\n      pop\n        /* \"#utility.yul\":4204:4224   */\n      tag_128\n        /* \"#utility.yul\":4222:4223   */\n      dup4\n        /* \"#utility.yul\":4204:4224   */\n      tag_108\n      jump\t// in\n    tag_128:\n        /* \"#utility.yul\":4199:4224   */\n      swap3\n      pop\n        /* \"#utility.yul\":4358:4359   */\n      dup3\n        /* \"#utility.yul\":4290:4356   */\n      0xffffffffffffffffffffffffffffffffffffffffffffffffffffffffffffffff\n        /* \"#utility.yul\":4286:4360   */\n      sub\n        /* \"#utility.yul\":4283:4284   */\n      dup3\n        /* \"#utility.yul\":4280:4361   */\n      gt\n        /* \"#utility.yul\":4277:4279   */\n      iszero\n      tag_129\n      jumpi\n        /* \"#utility.yul\":4364:4382   */\n      tag_130\n      tag_131\n      jump\t// in\n    tag_130:\n        /* \"#utility.yul\":4277:4279   */\n    tag_129:\n        /* \"#utility.yul\":4408:4409   */\n      dup3\n        /* \"#utility.yul\":4405:4406   */\n      dup3\n        /* \"#utility.yul\":4401:4410   */\n      add\n        /* \"#utility.yul\":4394:4410   */\n      swap1\n      pop\n        /* \"#utility.yul\":4155:4416   */\n      swap3\n      swap2\n      pop\n      pop\n      jump\t// out\n        /* \"#utility.yul\":4422:4499   */\n    tag_108:\n        /* \"#utility.yul\":4459:4466   */\n      0x00\n        /* \"#utility.yul\":4488:4493   */\n      dup2\n        /* \"#utility.yul\":4477:4493   */\n      swap1\n      pop\n        /* \"#utility.yul\":4467:4499   */\n      swap2\n      swap1\n      pop\n      jump\t// out\n        /* \"#utility.yul\":4505:4659   */\n    tag_67:\n        /* \"#utility.yul\":4589:4595   */\n      dup3\n        /* \"#utility.yul\":4584:4587   */\n      dup2\n        /* \"#utility.yul\":4579:4582   */\n      dup4\n        /* \"#utility.yul\":4566:4596   */\n      calldatacopy\n        /* \"#utility.yul\":4651:4652   */\n      0x00\n        /* \"#utility.yul\":4642:4648   */\n      dup4\n        /* \"#utility.yul\":4637:4640   */\n      dup4\n        /* \"#utility.yul\":4633:4649   */\n      add\n        /* \"#utility.yul\":4626:4653   */\n      mstore\n        /* \"#utility.yul\":4556:4659   */\n      pop\n      pop\n      pop\n      jump\t// out\n        /* \"#utility.yul\":4665:4972   */\n    tag_102:\n        /* \"#utility.yul\":4733:4734   */\n      0x00\n        /* \"#utility.yul\":4743:4856   */\n    tag_135:\n        /* \"#utility.yul\":4757:4763   */\n      dup4\n        /* \"#utility.yul\":4754:4755   */\n      dup2\n        /* \"#utility.yul\":4751:4764   */\n      lt\n        /* \"#utility.yul\":4743:4856   */\n      iszero\n      tag_137\n      jumpi\n        /* \"#utility.yul\":4842:4843   */\n      dup1\n        /* \"#utility.yul\":4837:4840   */\n      dup3\n        /* \"#utility.yul\":4833:4844   */\n      add\n        /* \"#utility.yul\":4827:4845   */\n      mload\n        /* \"#utility.yul\":4823:4824   */\n      dup2\n        /* \"#utility.yul\":4818:4821   */\n      dup5\n        /* \"#utility.yul\":4814:4825   */\n      add\n        /* \"#utility.yul\":4807:4846   */\n      mstore\n        /* \"#utility.yul\":4779:4781   */\n      0x20\n        /* \"#utility.yul\":4776:4777   */\n      dup2\n        /* \"#utility.yul\":4772:4782   */\n      add\n        /* \"#utility.yul\":4767:4782   */\n      swap1\n      pop\n        /* \"#utility.yul\":4743:4856   */\n      jump(tag_135)\n    tag_137:\n        /* \"#utility.yul\":4874:4880   */\n      dup4\n        /* \"#utility.yul\":4871:4872   */\n      dup2\n        /* \"#utility.yul\":4868:4881   */\n      gt\n        /* \"#utility.yul\":4865:4867   */\n      iszero\n      tag_138\n      jumpi\n        /* \"#utility.yul\":4954:4955   */\n      0x00\n        /* \"#utility.yul\":4945:4951   */\n      dup5\n        /* \"#utility.yul\":4940:4943   */\n      dup5\n        /* \"#utility.yul\":4936:4952   */\n      add\n        /* \"#utility.yul\":4929:4956   */\n      mstore\n        /* \"#utility.yul\":4865:4867   */\n    tag_138:\n        /* \"#utility.yul\":4714:4972   */\n      pop\n      pop\n      pop\n      pop\n      jump\t// out\n        /* \"#utility.yul\":4978:5298   */\n    tag_36:\n        /* \"#utility.yul\":5022:5028   */\n      0x00\n        /* \"#utility.yul\":5059:5060   */\n      0x02\n        /* \"#utility.yul\":5053:5057   */\n      dup3\n        /* \"#utility.yul\":5049:5061   */\n      div\n        /* \"#utility.yul\":5039:5061   */\n      swap1\n      pop\n        /* \"#utility.yul\":5106:5107   */\n      0x01\n        /* \"#utility.yul\":5100:5104   */\n      dup3\n        /* \"#utility.yul\":5096:5108   */\n      and\n        /* \"#utility.yul\":5127:5145   */\n      dup1\n        /* \"#utility.yul\":5117:5119   */\n      tag_140\n      jumpi\n        /* \"#utility.yul\":5183:5187   */\n      0x7f\n        /* \"#utility.yul\":5175:5181   */\n      dup3\n        /* \"#utility.yul\":5171:5188   */\n      and\n        /* \"#utility.yul\":5161:5188   */\n      swap2\n      pop\n        /* \"#utility.yul\":5117:5119   */\n    tag_140:\n        /* \"#utility.yul\":5245:5247   */\n      0x20\n        /* \"#utility.yul\":5237:5243   */\n      dup3\n        /* \"#utility.yul\":5234:5248   */\n      lt\n        /* \"#utility.yul\":5214:5232   */\n      dup2\n        /* \"#utility.yul\":5211:5249   */\n      eq\n        /* \"#utility.yul\":5208:5210   */\n      iszero\n      tag_141\n      jumpi\n        /* \"#utility.yul\":5264:5282   */\n      tag_142\n      tag_143\n      jump\t// in\n    tag_142:\n        /* \"#utility.yul\":5208:5210   */\n    tag_141:\n        /* \"#utility.yul\":5029:5298   */\n      pop\n      swap2\n      swap1\n      pop\n      jump\t// out\n        /* \"#utility.yul\":5304:5585   */\n    tag_117:\n        /* \"#utility.yul\":5387:5414   */\n      tag_145\n        /* \"#utility.yul\":5409:5413   */\n      dup3\n        /* \"#utility.yul\":5387:5414   */\n      tag_104\n      jump\t// in\n    tag_145:\n        /* \"#utility.yul\":5379:5385   */\n      dup2\n        /* \"#utility.yul\":5375:5415   */\n      add\n        /* \"#utility.yul\":5517:5523   */\n      dup2\n        /* \"#utility.yul\":5505:5515   */\n      dup2\n        /* \"#utility.yul\":5502:5524   */\n      lt\n        /* \"#utility.yul\":5481:5499   */\n      0xffffffffffffffff\n        /* \"#utility.yul\":5469:5479   */\n      dup3\n        /* \"#utility.yul\":5466:5500   */\n      gt\n        /* \"#utility.yul\":5463:5525   */\n      or\n        /* \"#utility.yul\":5460:5462   */\n      iszero\n      tag_146\n      jumpi\n        /* \"#utility.yul\":5528:5546   */\n      tag_147\n      tag_122\n      jump\t// in\n    tag_147:\n        /* \"#utility.yul\":5460:5462   */\n    tag_146:\n        /* \"#utility.yul\":5568:5578   */\n      dup1\n        /* \"#utility.yul\":5564:5566   */\n      0x40\n        /* \"#utility.yul\":5557:5579   */\n      mstore\n        /* \"#utility.yul\":5347:5585   */\n      pop\n      pop\n      pop\n      jump\t// out\n        /* \"#utility.yul\":5591:5771   */\n    tag_131:\n        /* \"#utility.yul\":5639:5716   */\n      0x4e487b7100000000000000000000000000000000000000000000000000000000\n        /* \"#utility.yul\":5636:5637   */\n      0x00\n        /* \"#utility.yul\":5629:5717   */\n      mstore\n        /* \"#utility.yul\":5736:5740   */\n      0x11\n        /* \"#utility.yul\":5733:5734   */\n      0x04\n        /* \"#utility.yul\":5726:5741   */\n      mstore\n        /* \"#utility.yul\":5760:5764   */\n      0x24\n        /* \"#utility.yul\":5757:5758   */\n      0x00\n        /* \"#utility.yul\":5750:5765   */\n      revert\n        /* \"#utility.yul\":5777:5957   */\n    tag_143:\n        /* \"#utility.yul\":5825:5902   */\n      0x4e487b7100000000000000000000000000000000000000000000000000000000\n        /* \"#utility.yul\":5822:5823   */\n      0x00\n        /* \"#utility.yul\":5815:5903   */\n      mstore\n        /* \"#utility.yul\":5922:5926   */\n      0x22\n        /* \"#utility.yul\":5919:5920   */\n      0x04\n        /* \"#utility.yul\":5912:5927   */\n      mstore\n        /* \"#utility.yul\":5946:5950   */\n      0x24\n        /* \"#utility.yul\":5943:5944   */\n      0x00\n        /* \"#utility.yul\":5936:5951   */\n      revert\n        /* \"#utility.yul\":5963:6143   */\n    tag_33:\n        /* \"#utility.yul\":6011:6088   */\n      0x4e487b7100000000000000000000000000000000000000000000000000000000\n        /* \"#utility.yul\":6008:6009   */\n      0x00\n        /* \"#utility.yul\":6001:6089   */\n      mstore\n        /* \"#utility.yul\":6108:6112   */\n      0x32\n        /* \"#utility.yul\":6105:6106   */\n      0x04\n        /* \"#utility.yul\":6098:6113   */\n      mstore\n        /* \"#utility.yul\":6132:6136   */\n      0x24\n        /* \"#utility.yul\":6129:6130   */\n      0x00\n        /* \"#utility.yul\":6122:6137   */\n      revert\n        /* \"#utility.yul\":6149:6329   */\n    tag_122:\n        /* \"#utility.yul\":6197:6274   */\n      0x4e487b7100000000000000000000000000000000000000000000000000000000\n        /* \"#utility.yul\":6194:6195   */\n      0x00\n        /* \"#utility.yul\":6187:6275   */\n      mstore\n        /* \"#utility.yul\":6294:6298   */\n      0x41\n        /* \"#utility.yul\":6291:6292   */\n      0x04\n        /* \"#utility.yul\":6284:6299   */\n      mstore\n        /* \"#utility.yul\":6318:6322   */\n      0x24\n        /* \"#utility.yul\":6315:6316   */\n      0x00\n        /* \"#utility.yul\":6308:6323   */\n      revert\n        /* \"#utility.yul\":6335:6452   */\n    tag_72:\n        /* \"#utility.yul\":6444:6445   */\n      0x00\n        /* \"#utility.yul\":6441:6442   */\n      dup1\n        /* \"#utility.yul\":6434:6446   */\n      revert\n        /* \"#utility.yul\":6458:6575   */\n    tag_65:\n        /* \"#utility.yul\":6567:6568   */\n      0x00\n        /* \"#utility.yul\":6564:6565   */\n      dup1\n        /* \"#utility.yul\":6557:6569   */\n      revert\n        /* \"#utility.yul\":6581:6698   */\n    tag_84:\n        /* \"#utility.yul\":6690:6691   */\n      0x00\n        /* \"#utility.yul\":6687:6688   */\n      dup1\n        /* \"#utility.yul\":6680:6692   */\n      revert\n        /* \"#utility.yul\":6704:6821   */\n    tag_81:\n        /* \"#utility.yul\":6813:6814   */\n      0x00\n        /* \"#utility.yul\":6810:6811   */\n      dup1\n        /* \"#utility.yul\":6803:6815   */\n      revert\n        /* \"#utility.yul\":6827:6929   */\n    tag_104:\n        /* \"#utility.yul\":6868:6874   */\n      0x00\n        /* \"#utility.yul\":6919:6921   */\n      0x1f\n        /* \"#utility.yul\":6915:6922   */\n      not\n        /* \"#utility.yul\":6910:6912   */\n      0x1f\n        /* \"#utility.yul\":6903:6908   */\n      dup4\n        /* \"#utility.yul\":6899:6913   */\n      add\n        /* \"#utility.yul\":6895:6923   */\n      and\n        /* \"#utility.yul\":6885:6923   */\n      swap1\n      pop\n        /* \"#utility.yul\":6875:6929   */\n      swap2\n      swap1\n      pop\n      jump\t// out\n        /* \"#utility.yul\":6935:7057   */\n    tag_77:\n        /* \"#utility.yul\":7008:7032   */\n      tag_158\n        /* \"#utility.yul\":7026:7031   */\n      dup2\n        /* \"#utility.yul\":7008:7032   */\n      tag_108\n      jump\t// in\n    tag_158:\n        /* \"#utility.yul\":7001:7006   */\n      dup2\n        /* \"#utility.yul\":6998:7033   */\n      eq\n        /* \"#utility.yul\":6988:6990   */\n      tag_159\n      jumpi\n        /* \"#utility.yul\":7047:7048   */\n      0x00\n        /* \"#utility.yul\":7044:7045   */\n      dup1\n        /* \"#utility.yul\":7037:7049   */\n      revert\n        /* \"#utility.yul\":6988:6990   */\n    tag_159:\n        /* \"#utility.yul\":6978:7057   */\n      pop\n      jump\t// out\n\n    auxdata: 0xa2646970667358221220c2564b8825900f234776029856b2e0b3825c3ab29fc956e4a4d967345291023264736f6c63430008060033\n}\n",
				"bytecode": {
					"linkReferences": {},
					"object": "6080604052600a60015534801561001557600080fd5b50610713806100256000396000f3fe608060405234801561001057600080fd5b506004361061004c5760003560e01c806313bd6e3c14610051578063199c937b1461008157806329137cc3146100b15780637da5096b146100e1575b600080fd5b61006b6004803603810190610066919061037c565b6100fd565b6040516100789190610453565b60405180910390f35b61009b6004803603810190610096919061037c565b610114565b6040516100a89190610431565b60405180910390f35b6100cb60048036038101906100c691906103a9565b6101c4565b6040516100d89190610453565b60405180910390f35b6100fb60048036038101906100f69190610333565b6101cc565b005b60008160015461010d91906104e0565b9050919050565b60606000828154811061012a57610129610643565b5b90600052602060002001805461013f90610582565b80601f016020809104026020016040519081016040528092919081815260200182805461016b90610582565b80156101b85780601f1061018d576101008083540402835291602001916101b8565b820191906000526020600020905b81548152906001019060200180831161019b57829003601f168201915b50505050509050919050565b600092915050565b60008190806001815401808255809150506001900390600052602060002001600090919091909150908051906020019061020792919061020b565b5050565b82805461021790610582565b90600052602060002090601f0160209004810192826102395760008555610280565b82601f1061025257805160ff1916838001178555610280565b82800160010185558215610280579182015b8281111561027f578251825591602001919060010190610264565b5b50905061028d9190610291565b5090565b5b808211156102aa576000816000905550600101610292565b5090565b60006102c16102bc84610493565b61046e565b9050828152602081018484840111156102dd576102dc6106a6565b5b6102e8848285610540565b509392505050565b600082601f830112610305576103046106a1565b5b81356103158482602086016102ae565b91505092915050565b60008135905061032d816106c6565b92915050565b600060208284031215610349576103486106b0565b5b600082013567ffffffffffffffff811115610367576103666106ab565b5b610373848285016102f0565b91505092915050565b600060208284031215610392576103916106b0565b5b60006103a08482850161031e565b91505092915050565b600080604083850312156103c0576103bf6106b0565b5b60006103ce8582860161031e565b92505060206103df8582860161031e565b9150509250929050565b60006103f4826104c4565b6103fe81856104cf565b935061040e81856020860161054f565b610417816106b5565b840191505092915050565b61042b81610536565b82525050565b6000602082019050818103600083015261044b81846103e9565b905092915050565b60006020820190506104686000830184610422565b92915050565b6000610478610489565b905061048482826105b4565b919050565b6000604051905090565b600067ffffffffffffffff8211156104ae576104ad610672565b5b6104b7826106b5565b9050602081019050919050565b600081519050919050565b600082825260208201905092915050565b60006104eb82610536565b91506104f683610536565b9250827fffffffffffffffffffffffffffffffffffffffffffffffffffffffffffffffff0382111561052b5761052a6105e5565b5b828201905092915050565b6000819050919050565b82818337600083830152505050565b60005b8381101561056d578082015181840152602081019050610552565b8381111561057c576000848401525b50505050565b6000600282049050600182168061059a57607f821691505b602082108114156105ae576105ad610614565b5b50919050565b6105bd826106b5565b810181811067ffffffffffffffff821117156105dc576105db610672565b5b80604052505050565b7f4e487b7100000000000000000000000000000000000000000000000000000000600052601160045260246000fd5b7f4e487b7100000000000000000000000000000000000000000000000000000000600052602260045260246000fd5b7f4e487b7100000000000000000000000000000000000000000000000000000000600052603260045260246000fd5b7f4e487b7100000000000000000000000000000000000000000000000000000000600052604160045260246000fd5b600080fd5b600080fd5b600080fd5b600080fd5b6000601f19601f8301169050919050565b6106cf81610536565b81146106da57600080fd5b5056fea2646970667358221220c2564b8825900f234776029856b2e0b3825c3ab29fc956e4a4d967345291023264736f6c63430008060033",
					"opcodes": "PUSH1 0x80 PUSH1 0x40 MSTORE PUSH1 0xA PUSH1 0x1 SSTORE CALLVALUE DUP1 ISZERO PUSH2 0x15 JUMPI PUSH1 0x0 DUP1 REVERT JUMPDEST POP PUSH2 0x713 DUP1 PUSH2 0x25 PUSH1 0x0 CODECOPY PUSH1 0x0 RETURN INVALID PUSH1 0x80 PUSH1 0x40 MSTORE CALLVALUE DUP1 ISZERO PUSH2 0x10 JUMPI PUSH1 0x0 DUP1 REVERT JUMPDEST POP PUSH1 0x4 CALLDATASIZE LT PUSH2 0x4C JUMPI PUSH1 0x0 CALLDATALOAD PUSH1 0xE0 SHR DUP1 PUSH4 0x13BD6E3C EQ PUSH2 0x51 JUMPI DUP1 PUSH4 0x199C937B EQ PUSH2 0x81 JUMPI DUP1 PUSH4 0x29137CC3 EQ PUSH2 0xB1 JUMPI DUP1 PUSH4 0x7DA5096B EQ PUSH2 0xE1 JUMPI JUMPDEST PUSH1 0x0 DUP1 REVERT JUMPDEST PUSH2 0x6B PUSH1 0x4 DUP1 CALLDATASIZE SUB DUP2 ADD SWAP1 PUSH2 0x66 SWAP2 SWAP1 PUSH2 0x37C JUMP JUMPDEST PUSH2 0xFD JUMP JUMPDEST PUSH1 0x40 MLOAD PUSH2 0x78 SWAP2 SWAP1 PUSH2 0x453 JUMP JUMPDEST PUSH1 0x40 MLOAD DUP1 SWAP2 SUB SWAP1 RETURN JUMPDEST PUSH2 0x9B PUSH1 0x4 DUP1 CALLDATASIZE SUB DUP2 ADD SWAP1 PUSH2 0x96 SWAP2 SWAP1 PUSH2 0x37C JUMP JUMPDEST PUSH2 0x114 JUMP JUMPDEST PUSH1 0x40 MLOAD PUSH2 0xA8 SWAP2 SWAP1 PUSH2 0x431 JUMP JUMPDEST PUSH1 0x40 MLOAD DUP1 SWAP2 SUB SWAP1 RETURN JUMPDEST PUSH2 0xCB PUSH1 0x4 DUP1 CALLDATASIZE SUB DUP2 ADD SWAP1 PUSH2 0xC6 SWAP2 SWAP1 PUSH2 0x3A9 JUMP JUMPDEST PUSH2 0x1C4 JUMP JUMPDEST PUSH1 0x40 MLOAD PUSH2 0xD8 SWAP2 SWAP1 PUSH2 0x453 JUMP JUMPDEST PUSH1 0x40 MLOAD DUP1 SWAP2 SUB SWAP1 RETURN JUMPDEST PUSH2 0xFB PUSH1 0x4 DUP1 CALLDATASIZE SUB DUP2 ADD SWAP1 PUSH2 0xF6 SWAP2 SWAP1 PUSH2 0x333 JUMP JUMPDEST PUSH2 0x1CC JUMP JUMPDEST STOP JUMPDEST PUSH1 0x0 DUP2 PUSH1 0x1 SLOAD PUSH2 0x10D SWAP2 SWAP1 PUSH2 0x4E0 JUMP JUMPDEST SWAP1 POP SWAP2 SWAP1 POP JUMP JUMPDEST PUSH1 0x60 PUSH1 0x0 DUP3 DUP2 SLOAD DUP2 LT PUSH2 0x12A JUMPI PUSH2 0x129 PUSH2 0x643 JUMP JUMPDEST JUMPDEST SWAP1 PUSH1 0x0 MSTORE PUSH1 0x20 PUSH1 0x0 KECCAK256 ADD DUP1 SLOAD PUSH2 0x13F SWAP1 PUSH2 0x582 JUMP JUMPDEST DUP1 PUSH1 0x1F ADD PUSH1 0x20 DUP1 SWAP2 DIV MUL PUSH1 0x20 ADD PUSH1 0x40 MLOAD SWAP1 DUP2 ADD PUSH1 0x40 MSTORE DUP1 SWAP3 SWAP2 SWAP1 DUP2 DUP2 MSTORE PUSH1 0x20 ADD DUP3 DUP1 SLOAD PUSH2 0x16B SWAP1 PUSH2 0x582 JUMP JUMPDEST DUP1 ISZERO PUSH2 0x1B8 JUMPI DUP1 PUSH1 0x1F LT PUSH2 0x18D JUMPI PUSH2 0x100 DUP1 DUP4 SLOAD DIV MUL DUP4 MSTORE SWAP2 PUSH1 0x20 ADD SWAP2 PUSH2 0x1B8 JUMP JUMPDEST DUP3 ADD SWAP2 SWAP1 PUSH1 0x0 MSTORE PUSH1 0x20 PUSH1 0x0 KECCAK256 SWAP1 JUMPDEST DUP2 SLOAD DUP2 MSTORE SWAP1 PUSH1 0x1 ADD SWAP1 PUSH1 0x20 ADD DUP1 DUP4 GT PUSH2 0x19B JUMPI DUP3 SWAP1 SUB PUSH1 0x1F AND DUP3 ADD SWAP2 JUMPDEST POP POP POP POP POP SWAP1 POP SWAP2 SWAP1 POP JUMP JUMPDEST PUSH1 0x0 SWAP3 SWAP2 POP POP JUMP JUMPDEST PUSH1 0x0 DUP2 SWAP1 DUP1 PUSH1 0x1 DUP2 SLOAD ADD DUP1 DUP3 SSTORE DUP1 SWAP2 POP POP PUSH1 0x1 SWAP1 SUB SWAP1 PUSH1 0x0 MSTORE PUSH1 0x20 PUSH1 0x0 KECCAK256 ADD PUSH1 0x0 SWAP1 SWAP2 SWAP1 SWAP2 SWAP1 SWAP2 POP SWAP1 DUP1 MLOAD SWAP1 PUSH1 0x20 ADD SWAP1 PUSH2 0x207 SWAP3 SWAP2 SWAP1 PUSH2 0x20B JUMP JUMPDEST POP POP JUMP JUMPDEST DUP3 DUP1 SLOAD PUSH2 0x217 SWAP1 PUSH2 0x582 JUMP JUMPDEST SWAP1 PUSH1 0x0 MSTORE PUSH1 0x20 PUSH1 0x0 KECCAK256 SWAP1 PUSH1 0x1F ADD PUSH1 0x20 SWAP1 DIV DUP2 ADD SWAP3 DUP3 PUSH2 0x239 JUMPI PUSH1 0x0 DUP6 SSTORE PUSH2 0x280 JUMP JUMPDEST DUP3 PUSH1 0x1F LT PUSH2 0x252 JUMPI DUP1 MLOAD PUSH1 0xFF NOT AND DUP4 DUP1 ADD OR DUP6 SSTORE PUSH2 0x280 JUMP JUMPDEST DUP3 DUP1 ADD PUSH1 0x1 ADD DUP6 SSTORE DUP3 ISZERO PUSH2 0x280 JUMPI SWAP2 DUP3 ADD JUMPDEST DUP3 DUP2 GT ISZERO PUSH2 0x27F JUMPI DUP3 MLOAD DUP3 SSTORE SWAP2 PUSH1 0x20 ADD SWAP2 SWAP1 PUSH1 0x1 ADD SWAP1 PUSH2 0x264 JUMP JUMPDEST JUMPDEST POP SWAP1 POP PUSH2 0x28D SWAP2 SWAP1 PUSH2 0x291 JUMP JUMPDEST POP SWAP1 JUMP JUMPDEST JUMPDEST DUP1 DUP3 GT ISZERO PUSH2 0x2AA JUMPI PUSH1 0x0 DUP2 PUSH1 0x0 SWAP1 SSTORE POP PUSH1 0x1 ADD PUSH2 0x292 JUMP JUMPDEST POP SWAP1 JUMP JUMPDEST PUSH1 0x0 PUSH2 0x2C1 PUSH2 0x2BC DUP5 PUSH2 0x493 JUMP JUMPDEST PUSH2 0x46E JUMP JUMPDEST SWAP1 POP DUP3 DUP2 MSTORE PUSH1 0x20 DUP2 ADD DUP5 DUP5 DUP5 ADD GT ISZERO PUSH2 0x2DD JUMPI PUSH2 0x2DC PUSH2 0x6A6 JUMP JUMPDEST JUMPDEST PUSH2 0x2E8 DUP5 DUP3 DUP6 PUSH2 0x540 JUMP JUMPDEST POP SWAP4 SWAP3 POP POP POP JUMP JUMPDEST PUSH1 0x0 DUP3 PUSH1 0x1F DUP4 ADD SLT PUSH2 0x305 JUMPI PUSH2 0x304 PUSH2 0x6A1 JUMP JUMPDEST JUMPDEST DUP2 CALLDATALOAD PUSH2 0x315 DUP5 DUP3 PUSH1 0x20 DUP7 ADD PUSH2 0x2AE JUMP JUMPDEST SWAP2 POP POP SWAP3 SWAP2 POP POP JUMP JUMPDEST PUSH1 0x0 DUP2 CALLDATALOAD SWAP1 POP PUSH2 0x32D DUP2 PUSH2 0x6C6 JUMP JUMPDEST SWAP3 SWAP2 POP POP JUMP JUMPDEST PUSH1 0x0 PUSH1 0x20 DUP3 DUP5 SUB SLT ISZERO PUSH2 0x349 JUMPI PUSH2 0x348 PUSH2 0x6B0 JUMP JUMPDEST JUMPDEST PUSH1 0x0 DUP3 ADD CALLDATALOAD PUSH8 0xFFFFFFFFFFFFFFFF DUP2 GT ISZERO PUSH2 0x367 JUMPI PUSH2 0x366 PUSH2 0x6AB JUMP JUMPDEST JUMPDEST PUSH2 0x373 DUP5 DUP3 DUP6 ADD PUSH2 0x2F0 JUMP JUMPDEST SWAP2 POP POP SWAP3 SWAP2 POP POP JUMP JUMPDEST PUSH1 0x0 PUSH1 0x20 DUP3 DUP5 SUB SLT ISZERO PUSH2 0x392 JUMPI PUSH2 0x391 PUSH2 0x6B0 JUMP JUMPDEST JUMPDEST PUSH1 0x0 PUSH2 0x3A0 DUP5 DUP3 DUP6 ADD PUSH2 0x31E JUMP JUMPDEST SWAP2 POP POP SWAP3 SWAP2 POP POP JUMP JUMPDEST PUSH1 0x0 DUP1 PUSH1 0x40 DUP4 DUP6 SUB SLT ISZERO PUSH2 0x3C0 JUMPI PUSH2 0x3BF PUSH2 0x6B0 JUMP JUMPDEST JUMPDEST PUSH1 0x0 PUSH2 0x3CE DUP6 DUP3 DUP7 ADD PUSH2 0x31E JUMP JUMPDEST SWAP3 POP POP PUSH1 0x20 PUSH2 0x3DF DUP6 DUP3 DUP7 ADD PUSH2 0x31E JUMP JUMPDEST SWAP2 POP POP SWAP3 POP SWAP3 SWAP1 POP JUMP JUMPDEST PUSH1 0x0 PUSH2 0x3F4 DUP3 PUSH2 0x4C4 JUMP JUMPDEST PUSH2 0x3FE DUP2 DUP6 PUSH2 0x4CF JUMP JUMPDEST SWAP4 POP PUSH2 0x40E DUP2 DUP6 PUSH1 0x20 DUP7 ADD PUSH2 0x54F JUMP JUMPDEST PUSH2 0x417 DUP2 PUSH2 0x6B5 JUMP JUMPDEST DUP5 ADD SWAP2 POP POP SWAP3 SWAP2 POP POP JUMP JUMPDEST PUSH2 0x42B DUP2 PUSH2 0x536 JUMP JUMPDEST DUP3 MSTORE POP POP JUMP JUMPDEST PUSH1 0x0 PUSH1 0x20 DUP3 ADD SWAP1 POP DUP2 DUP2 SUB PUSH1 0x0 DUP4 ADD MSTORE PUSH2 0x44B DUP2 DUP5 PUSH2 0x3E9 JUMP JUMPDEST SWAP1 POP SWAP3 SWAP2 POP POP JUMP JUMPDEST PUSH1 0x0 PUSH1 0x20 DUP3 ADD SWAP1 POP PUSH2 0x468 PUSH1 0x0 DUP4 ADD DUP5 PUSH2 0x422 JUMP JUMPDEST SWAP3 SWAP2 POP POP JUMP JUMPDEST PUSH1 0x0 PUSH2 0x478 PUSH2 0x489 JUMP JUMPDEST SWAP1 POP PUSH2 0x484 DUP3 DUP3 PUSH2 0x5B4 JUMP JUMPDEST SWAP2 SWAP1 POP JUMP JUMPDEST PUSH1 0x0 PUSH1 0x40 MLOAD SWAP1 POP SWAP1 JUMP JUMPDEST PUSH1 0x0 PUSH8 0xFFFFFFFFFFFFFFFF DUP3 GT ISZERO PUSH2 0x4AE JUMPI PUSH2 0x4AD PUSH2 0x672 JUMP JUMPDEST JUMPDEST PUSH2 0x4B7 DUP3 PUSH2 0x6B5 JUMP JUMPDEST SWAP1 POP PUSH1 0x20 DUP2 ADD SWAP1 POP SWAP2 SWAP1 POP JUMP JUMPDEST PUSH1 0x0 DUP2 MLOAD SWAP1 POP SWAP2 SWAP1 POP JUMP JUMPDEST PUSH1 0x0 DUP3 DUP3 MSTORE PUSH1 0x20 DUP3 ADD SWAP1 POP SWAP3 SWAP2 POP POP JUMP JUMPDEST PUSH1 0x0 PUSH2 0x4EB DUP3 PUSH2 0x536 JUMP JUMPDEST SWAP2 POP PUSH2 0x4F6 DUP4 PUSH2 0x536 JUMP JUMPDEST SWAP3 POP DUP3 PUSH32 0xFFFFFFFFFFFFFFFFFFFFFFFFFFFFFFFFFFFFFFFFFFFFFFFFFFFFFFFFFFFFFFFF SUB DUP3 GT ISZERO PUSH2 0x52B JUMPI PUSH2 0x52A PUSH2 0x5E5 JUMP JUMPDEST JUMPDEST DUP3 DUP3 ADD SWAP1 POP SWAP3 SWAP2 POP POP JUMP JUMPDEST PUSH1 0x0 DUP2 SWAP1 POP SWAP2 SWAP1 POP JUMP JUMPDEST DUP3 DUP2 DUP4 CALLDATACOPY PUSH1 0x0 DUP4 DUP4 ADD MSTORE POP POP POP JUMP JUMPDEST PUSH1 0x0 JUMPDEST DUP4 DUP2 LT ISZERO PUSH2 0x56D JUMPI DUP1 DUP3 ADD MLOAD DUP2 DUP5 ADD MSTORE PUSH1 0x20 DUP2 ADD SWAP1 POP PUSH2 0x552 JUMP JUMPDEST DUP4 DUP2 GT ISZERO PUSH2 0x57C JUMPI PUSH1 0x0 DUP5 DUP5 ADD MSTORE JUMPDEST POP POP POP POP JUMP JUMPDEST PUSH1 0x0 PUSH1 0x2 DUP3 DIV SWAP1 POP PUSH1 0x1 DUP3 AND DUP1 PUSH2 0x59A JUMPI PUSH1 0x7F DUP3 AND SWAP2 POP JUMPDEST PUSH1 0x20 DUP3 LT DUP2 EQ ISZERO PUSH2 0x5AE JUMPI PUSH2 0x5AD PUSH2 0x614 JUMP JUMPDEST JUMPDEST POP SWAP2 SWAP1 POP JUMP JUMPDEST PUSH2 0x5BD DUP3 PUSH2 0x6B5 JUMP JUMPDEST DUP2 ADD DUP2 DUP2 LT PUSH8 0xFFFFFFFFFFFFFFFF DUP3 GT OR ISZERO PUSH2 0x5DC JUMPI PUSH2 0x5DB PUSH2 0x672 JUMP JUMPDEST JUMPDEST DUP1 PUSH1 0x40 MSTORE POP POP POP JUMP JUMPDEST PUSH32 0x4E487B7100000000000000000000000000000000000000000000000000000000 PUSH1 0x0 MSTORE PUSH1 0x11 PUSH1 0x4 MSTORE PUSH1 0x24 PUSH1 0x0 REVERT JUMPDEST PUSH32 0x4E487B7100000000000000000000000000000000000000000000000000000000 PUSH1 0x0 MSTORE PUSH1 0x22 PUSH1 0x4 MSTORE PUSH1 0x24 PUSH1 0x0 REVERT JUMPDEST PUSH32 0x4E487B7100000000000000000000000000000000000000000000000000000000 PUSH1 0x0 MSTORE PUSH1 0x32 PUSH1 0x4 MSTORE PUSH1 0x24 PUSH1 0x0 REVERT JUMPDEST PUSH32 0x4E487B7100000000000000000000000000000000000000000000000000000000 PUSH1 0x0 MSTORE PUSH1 0x41 PUSH1 0x4 MSTORE PUSH1 0x24 PUSH1 0x0 REVERT JUMPDEST PUSH1 0x0 DUP1 REVERT JUMPDEST PUSH1 0x0 DUP1 REVERT JUMPDEST PUSH1 0x0 DUP1 REVERT JUMPDEST PUSH1 0x0 DUP1 REVERT JUMPDEST PUSH1 0x0 PUSH1 0x1F NOT PUSH1 0x1F DUP4 ADD AND SWAP1 POP SWAP2 SWAP1 POP JUMP JUMPDEST PUSH2 0x6CF DUP2 PUSH2 0x536 JUMP JUMPDEST DUP2 EQ PUSH2 0x6DA JUMPI PUSH1 0x0 DUP1 REVERT JUMPDEST POP JUMP INVALID LOG2 PUSH5 0x6970667358 0x22 SLT KECCAK256 0xC2 JUMP 0x4B DUP9 0x25 SWAP1 0xF 0x23 SELFBALANCE PUSH23 0x29856B2E0B3825C3AB29FC956E4A4D967345291023264 PUSH20 0x6F6C634300080600330000000000000000000000 "
				},
				"gasEstimates": {
					"creation": {
						"codeDepositCost": "362200",
						"executionCost": "22505",
						"totalCost": "384705"
					},
					"external": {
						"getAlumno(uint256)": "infinite",
						"nuevoAlumno(string)": "infinite",
						"potencia(uint256,uint256)": "infinite",
						"sumTox(uint256)": "infinite"
					}
				},
				"methodIdentifiers": {
					"getAlumno(uint256)": "199c937b",
					"nuevoAlumno(string)": "7da5096b",
					"potencia(uint256,uint256)": "29137cc3",
					"sumTox(uint256)": "13bd6e3c"
				}
			},
			"storageLayout": {
				"storage": [
					{
						"astId": 4,
						"contract": "modificadores.sol:ModificadoresFunciones",
						"label": "lista_estudiantes",
						"offset": 0,
						"slot": "0",
						"type": "t_array(t_string_storage)dyn_storage"
					},
					{
						"astId": 31,
						"contract": "modificadores.sol:ModificadoresFunciones",
						"label": "x",
						"offset": 0,
						"slot": "1",
						"type": "t_uint256"
					}
				],
				"types": {
					"t_array(t_string_storage)dyn_storage": {
						"base": "t_string_storage",
						"encoding": "dynamic_array",
						"label": "string[]",
						"numberOfBytes": "32"
					},
					"t_string_storage": {
						"encoding": "bytes",
						"label": "string",
						"numberOfBytes": "32"
					},
					"t_uint256": {
						"encoding": "inplace",
						"label": "uint256",
						"numberOfBytes": "32"
					}
				}
			},
			"userdoc": {
				"kind": "user",
				"methods": {},
				"version": 1
			}
		}
	}
}