{
	"modificadores.sol": {
		"ModificadoresFunciones": {
			"abi": [
				{
					"inputs": [
						{
							"internalType": "uint256",
							"name": "_posicion",
							"type": "uint256"
						}
					],
					"name": "getAlumno",
					"outputs": [
						{
							"internalType": "string",
							"name": "",
							"type": "string"
						}
					],
					"stateMutability": "view",
					"type": "function"
				},
				{
					"inputs": [
						{
							"internalType": "string",
							"name": "_alumno",
							"type": "string"
						}
					],
					"name": "nuevoAlumno",
					"outputs": [],
					"stateMutability": "nonpayable",
					"type": "function"
				},
				{
					"inputs": [
						{
							"internalType": "string",
							"name": "_nombre",
							"type": "string"
						},
						{
							"internalType": "uint256",
							"name": "_monto",
							"type": "uint256"
						}
					],
					"name": "pagar",
					"outputs": [],
					"stateMutability": "payable",
					"type": "function"
				},
				{
					"inputs": [
						{
							"internalType": "uint256",
							"name": "_a",
							"type": "uint256"
						},
						{
							"internalType": "uint256",
							"name": "_b",
							"type": "uint256"
						}
					],
					"name": "potencia",
					"outputs": [
						{
							"internalType": "uint256",
							"name": "",
							"type": "uint256"
						}
					],
					"stateMutability": "pure",
					"type": "function"
				},
				{
					"inputs": [
						{
							"internalType": "uint256",
							"name": "_a",
							"type": "uint256"
						}
					],
					"name": "sumTox",
					"outputs": [
						{
							"internalType": "uint256",
							"name": "",
							"type": "uint256"
						}
					],
					"stateMutability": "view",
					"type": "function"
				}
			],
			"devdoc": {
				"kind": "dev",
				"methods": {},
				"version": 1
			},
			"evm": {
				"assembly": "    /* \"modificadores.sol\":33:867  contract ModificadoresFunciones {... */\n  mstore(0x40, 0x80)\n    /* \"modificadores.sol\":372:374  10 */\n  0x0a\n    /* \"modificadores.sol\":363:374  uint x = 10 */\n  0x01\n  sstore\n    /* \"modificadores.sol\":33:867  contract ModificadoresFunciones {... */\n  callvalue\n  dup1\n  iszero\n  tag_1\n  jumpi\n  0x00\n  dup1\n  revert\ntag_1:\n  pop\n  dataSize(sub_0)\n  dup1\n  dataOffset(sub_0)\n  0x00\n  codecopy\n  0x00\n  return\nstop\n\nsub_0: assembly {\n        /* \"modificadores.sol\":33:867  contract ModificadoresFunciones {... */\n      mstore(0x40, 0x80)\n      jumpi(tag_1, lt(calldatasize, 0x04))\n      shr(0xe0, calldataload(0x00))\n      dup1\n      0x13bd6e3c\n      eq\n      tag_2\n      jumpi\n      dup1\n      0x199c937b\n      eq\n      tag_3\n      jumpi\n      dup1\n      0x29137cc3\n      eq\n      tag_4\n      jumpi\n      dup1\n      0x7da5096b\n      eq\n      tag_5\n      jumpi\n      dup1\n      0xce574a6d\n      eq\n      tag_6\n      jumpi\n    tag_1:\n      0x00\n      dup1\n      revert\n        /* \"modificadores.sol\":380:461  function sumTox(uint _a) public view returns(uint) {... */\n    tag_2:\n      callvalue\n      dup1\n      iszero\n      tag_7\n      jumpi\n      0x00\n      dup1\n      revert\n    tag_7:\n      pop\n      tag_8\n      0x04\n      dup1\n      calldatasize\n      sub\n      dup2\n      add\n      swap1\n      tag_9\n      swap2\n      swap1\n      tag_10\n      jump\t// in\n    tag_9:\n      tag_11\n      jump\t// in\n    tag_8:\n      mload(0x40)\n      tag_12\n      swap2\n      swap1\n      tag_13\n      jump\t// in\n    tag_12:\n      mload(0x40)\n      dup1\n      swap2\n      sub\n      swap1\n      return\n        /* \"modificadores.sol\":235:357  function getAlumno(uint _posicion) public view returns(string memory) {... */\n    tag_3:\n      callvalue\n      dup1\n      iszero\n      tag_14\n      jumpi\n      0x00\n      dup1\n      revert\n    tag_14:\n      pop\n      tag_15\n      0x04\n      dup1\n      calldatasize\n      sub\n      dup2\n      add\n      swap1\n      tag_16\n      swap2\n      swap1\n      tag_10\n      jump\t// in\n    tag_16:\n      tag_17\n      jump\t// in\n    tag_15:\n      mload(0x40)\n      tag_18\n      swap2\n      swap1\n      tag_19\n      jump\t// in\n    tag_18:\n      mload(0x40)\n      dup1\n      swap2\n      sub\n      swap1\n      return\n        /* \"modificadores.sol\":497:591  function potencia(uint _a, uint _b) public pure returns(uint) {... */\n    tag_4:\n      callvalue\n      dup1\n      iszero\n      tag_20\n      jumpi\n      0x00\n      dup1\n      revert\n    tag_20:\n      pop\n      tag_21\n      0x04\n      dup1\n      calldatasize\n      sub\n      dup2\n      add\n      swap1\n      tag_22\n      swap2\n      swap1\n      tag_23\n      jump\t// in\n    tag_22:\n      tag_24\n      jump\t// in\n    tag_21:\n      mload(0x40)\n      tag_25\n      swap2\n      swap1\n      tag_13\n      jump\t// in\n    tag_25:\n      mload(0x40)\n      dup1\n      swap2\n      sub\n      swap1\n      return\n        /* \"modificadores.sol\":130:229  function nuevoAlumno(string memory _alumno) public {... */\n    tag_5:\n      callvalue\n      dup1\n      iszero\n      tag_26\n      jumpi\n      0x00\n      dup1\n      revert\n    tag_26:\n      pop\n      tag_27\n      0x04\n      dup1\n      calldatasize\n      sub\n      dup2\n      add\n      swap1\n      tag_28\n      swap2\n      swap1\n      tag_29\n      jump\t// in\n    tag_28:\n      tag_30\n      jump\t// in\n    tag_27:\n      stop\n        /* \"modificadores.sol\":781:863  function pagar(string memory _nombre, uint _monto) public payable {... */\n    tag_6:\n      tag_31\n      0x04\n      dup1\n      calldatasize\n      sub\n      dup2\n      add\n      swap1\n      tag_32\n      swap2\n      swap1\n      tag_33\n      jump\t// in\n    tag_32:\n      tag_34\n      jump\t// in\n    tag_31:\n      stop\n        /* \"modificadores.sol\":380:461  function sumTox(uint _a) public view returns(uint) {... */\n    tag_11:\n        /* \"modificadores.sol\":425:429  uint */\n      0x00\n        /* \"modificadores.sol\":452:454  _a */\n      dup2\n        /* \"modificadores.sol\":448:449  x */\n      sload(0x01)\n        /* \"modificadores.sol\":448:454  x + _a */\n      tag_36\n      swap2\n      swap1\n      tag_37\n      jump\t// in\n    tag_36:\n        /* \"modificadores.sol\":441:454  return x + _a */\n      swap1\n      pop\n        /* \"modificadores.sol\":380:461  function sumTox(uint _a) public view returns(uint) {... */\n      swap2\n      swap1\n      pop\n      jump\t// out\n        /* \"modificadores.sol\":235:357  function getAlumno(uint _posicion) public view returns(string memory) {... */\n    tag_17:\n        /* \"modificadores.sol\":290:303  string memory */\n      0x60\n        /* \"modificadores.sol\":322:339  lista_estudiantes */\n      0x00\n        /* \"modificadores.sol\":340:349  _posicion */\n      dup3\n        /* \"modificadores.sol\":322:350  lista_estudiantes[_posicion] */\n      dup2\n      sload\n      dup2\n      lt\n      tag_39\n      jumpi\n      tag_40\n      tag_41\n      jump\t// in\n    tag_40:\n    tag_39:\n      swap1\n      0x00\n      mstore\n      keccak256(0x00, 0x20)\n      add\n        /* \"modificadores.sol\":315:350  return lista_estudiantes[_posicion] */\n      dup1\n      sload\n      tag_43\n      swap1\n      tag_44\n      jump\t// in\n    tag_43:\n      dup1\n      0x1f\n      add\n      0x20\n      dup1\n      swap2\n      div\n      mul\n      0x20\n      add\n      mload(0x40)\n      swap1\n      dup2\n      add\n      0x40\n      mstore\n      dup1\n      swap3\n      swap2\n      swap1\n      dup2\n      dup2\n      mstore\n      0x20\n      add\n      dup3\n      dup1\n      sload\n      tag_45\n      swap1\n      tag_44\n      jump\t// in\n    tag_45:\n      dup1\n      iszero\n      tag_46\n      jumpi\n      dup1\n      0x1f\n      lt\n      tag_47\n      jumpi\n      0x0100\n      dup1\n      dup4\n      sload\n      div\n      mul\n      dup4\n      mstore\n      swap2\n      0x20\n      add\n      swap2\n      jump(tag_46)\n    tag_47:\n      dup3\n      add\n      swap2\n      swap1\n      0x00\n      mstore\n      keccak256(0x00, 0x20)\n      swap1\n    tag_48:\n      dup2\n      sload\n      dup2\n      mstore\n      swap1\n      0x01\n      add\n      swap1\n      0x20\n      add\n      dup1\n      dup4\n      gt\n      tag_48\n      jumpi\n      dup3\n      swap1\n      sub\n      0x1f\n      and\n      dup3\n      add\n      swap2\n    tag_46:\n      pop\n      pop\n      pop\n      pop\n      pop\n      swap1\n      pop\n        /* \"modificadores.sol\":235:357  function getAlumno(uint _posicion) public view returns(string memory) {... */\n      swap2\n      swap1\n      pop\n      jump\t// out\n        /* \"modificadores.sol\":497:591  function potencia(uint _a, uint _b) public pure returns(uint) {... */\n    tag_24:\n        /* \"modificadores.sol\":553:557  uint */\n      0x00\n        /* \"modificadores.sol\":582:584  _b */\n      dup2\n        /* \"modificadores.sol\":576:578  _a */\n      dup4\n        /* \"modificadores.sol\":576:584  _a ** _b */\n      tag_50\n      swap2\n      swap1\n      tag_51\n      jump\t// in\n    tag_50:\n        /* \"modificadores.sol\":569:584  return _a ** _b */\n      swap1\n      pop\n        /* \"modificadores.sol\":497:591  function potencia(uint _a, uint _b) public pure returns(uint) {... */\n      swap3\n      swap2\n      pop\n      pop\n      jump\t// out\n        /* \"modificadores.sol\":130:229  function nuevoAlumno(string memory _alumno) public {... */\n    tag_30:\n        /* \"modificadores.sol\":191:208  lista_estudiantes */\n      0x00\n        /* \"modificadores.sol\":214:221  _alumno */\n      dup2\n        /* \"modificadores.sol\":191:222  lista_estudiantes.push(_alumno) */\n      swap1\n      dup1\n      0x01\n      dup2\n      sload\n      add\n      dup1\n      dup3\n      sstore\n      dup1\n      swap2\n      pop\n      pop\n      0x01\n      swap1\n      sub\n      swap1\n      0x00\n      mstore\n      keccak256(0x00, 0x20)\n      add\n      0x00\n      swap1\n      swap2\n      swap1\n      swap2\n      swap1\n      swap2\n      pop\n      swap1\n      dup1\n      mload\n      swap1\n      0x20\n      add\n      swap1\n      tag_54\n      swap3\n      swap2\n      swap1\n      tag_55\n      jump\t// in\n    tag_54:\n      pop\n        /* \"modificadores.sol\":130:229  function nuevoAlumno(string memory _alumno) public {... */\n      pop\n      jump\t// out\n        /* \"modificadores.sol\":781:863  function pagar(string memory _nombre, uint _monto) public payable {... */\n    tag_34:\n      pop\n      pop\n      jump\t// out\n    tag_55:\n      dup3\n      dup1\n      sload\n      tag_57\n      swap1\n      tag_44\n      jump\t// in\n    tag_57:\n      swap1\n      0x00\n      mstore\n      keccak256(0x00, 0x20)\n      swap1\n      0x1f\n      add\n      0x20\n      swap1\n      div\n      dup2\n      add\n      swap3\n      dup3\n      tag_59\n      jumpi\n      0x00\n      dup6\n      sstore\n      jump(tag_58)\n    tag_59:\n      dup3\n      0x1f\n      lt\n      tag_60\n      jumpi\n      dup1\n      mload\n      not(0xff)\n      and\n      dup4\n      dup1\n      add\n      or\n      dup6\n      sstore\n      jump(tag_58)\n    tag_60:\n      dup3\n      dup1\n      add\n      0x01\n      add\n      dup6\n      sstore\n      dup3\n      iszero\n      tag_58\n      jumpi\n      swap2\n      dup3\n      add\n    tag_61:\n      dup3\n      dup2\n      gt\n      iszero\n      tag_62\n      jumpi\n      dup3\n      mload\n      dup3\n      sstore\n      swap2\n      0x20\n      add\n      swap2\n      swap1\n      0x01\n      add\n      swap1\n      jump(tag_61)\n    tag_62:\n    tag_58:\n      pop\n      swap1\n      pop\n      tag_63\n      swap2\n      swap1\n      tag_64\n      jump\t// in\n    tag_63:\n      pop\n      swap1\n      jump\t// out\n    tag_64:\n    tag_65:\n      dup1\n      dup3\n      gt\n      iszero\n      tag_66\n      jumpi\n      0x00\n      dup2\n      0x00\n      swap1\n      sstore\n      pop\n      0x01\n      add\n      jump(tag_65)\n    tag_66:\n      pop\n      swap1\n      jump\t// out\n        /* \"#utility.yul\":7:419   */\n    tag_68:\n        /* \"#utility.yul\":85:90   */\n      0x00\n        /* \"#utility.yul\":110:176   */\n      tag_70\n        /* \"#utility.yul\":126:175   */\n      tag_71\n        /* \"#utility.yul\":168:174   */\n      dup5\n        /* \"#utility.yul\":126:175   */\n      tag_72\n      jump\t// in\n    tag_71:\n        /* \"#utility.yul\":110:176   */\n      tag_73\n      jump\t// in\n    tag_70:\n        /* \"#utility.yul\":101:176   */\n      swap1\n      pop\n        /* \"#utility.yul\":199:205   */\n      dup3\n        /* \"#utility.yul\":192:197   */\n      dup2\n        /* \"#utility.yul\":185:206   */\n      mstore\n        /* \"#utility.yul\":237:241   */\n      0x20\n        /* \"#utility.yul\":230:235   */\n      dup2\n        /* \"#utility.yul\":226:242   */\n      add\n        /* \"#utility.yul\":275:278   */\n      dup5\n        /* \"#utility.yul\":266:272   */\n      dup5\n        /* \"#utility.yul\":261:264   */\n      dup5\n        /* \"#utility.yul\":257:273   */\n      add\n        /* \"#utility.yul\":254:279   */\n      gt\n        /* \"#utility.yul\":251:253   */\n      iszero\n      tag_74\n      jumpi\n        /* \"#utility.yul\":282:361   */\n      tag_75\n      tag_76\n      jump\t// in\n    tag_75:\n        /* \"#utility.yul\":251:253   */\n    tag_74:\n        /* \"#utility.yul\":372:413   */\n      tag_77\n        /* \"#utility.yul\":406:412   */\n      dup5\n        /* \"#utility.yul\":401:404   */\n      dup3\n        /* \"#utility.yul\":396:399   */\n      dup6\n        /* \"#utility.yul\":372:413   */\n      tag_78\n      jump\t// in\n    tag_77:\n        /* \"#utility.yul\":91:419   */\n      pop\n      swap4\n      swap3\n      pop\n      pop\n      pop\n      jump\t// out\n        /* \"#utility.yul\":439:779   */\n    tag_79:\n        /* \"#utility.yul\":495:500   */\n      0x00\n        /* \"#utility.yul\":544:547   */\n      dup3\n        /* \"#utility.yul\":537:541   */\n      0x1f\n        /* \"#utility.yul\":529:535   */\n      dup4\n        /* \"#utility.yul\":525:542   */\n      add\n        /* \"#utility.yul\":521:548   */\n      slt\n        /* \"#utility.yul\":511:513   */\n      tag_81\n      jumpi\n        /* \"#utility.yul\":552:631   */\n      tag_82\n      tag_83\n      jump\t// in\n    tag_82:\n        /* \"#utility.yul\":511:513   */\n    tag_81:\n        /* \"#utility.yul\":669:675   */\n      dup2\n        /* \"#utility.yul\":656:676   */\n      calldataload\n        /* \"#utility.yul\":694:773   */\n      tag_84\n        /* \"#utility.yul\":769:772   */\n      dup5\n        /* \"#utility.yul\":761:767   */\n      dup3\n        /* \"#utility.yul\":754:758   */\n      0x20\n        /* \"#utility.yul\":746:752   */\n      dup7\n        /* \"#utility.yul\":742:759   */\n      add\n        /* \"#utility.yul\":694:773   */\n      tag_68\n      jump\t// in\n    tag_84:\n        /* \"#utility.yul\":685:773   */\n      swap2\n      pop\n        /* \"#utility.yul\":501:779   */\n      pop\n      swap3\n      swap2\n      pop\n      pop\n      jump\t// out\n        /* \"#utility.yul\":785:924   */\n    tag_85:\n        /* \"#utility.yul\":831:836   */\n      0x00\n        /* \"#utility.yul\":869:875   */\n      dup2\n        /* \"#utility.yul\":856:876   */\n      calldataload\n        /* \"#utility.yul\":847:876   */\n      swap1\n      pop\n        /* \"#utility.yul\":885:918   */\n      tag_87\n        /* \"#utility.yul\":912:917   */\n      dup2\n        /* \"#utility.yul\":885:918   */\n      tag_88\n      jump\t// in\n    tag_87:\n        /* \"#utility.yul\":837:924   */\n      swap3\n      swap2\n      pop\n      pop\n      jump\t// out\n        /* \"#utility.yul\":930:1439   */\n    tag_29:\n        /* \"#utility.yul\":999:1005   */\n      0x00\n        /* \"#utility.yul\":1048:1050   */\n      0x20\n        /* \"#utility.yul\":1036:1045   */\n      dup3\n        /* \"#utility.yul\":1027:1034   */\n      dup5\n        /* \"#utility.yul\":1023:1046   */\n      sub\n        /* \"#utility.yul\":1019:1051   */\n      slt\n        /* \"#utility.yul\":1016:1018   */\n      iszero\n      tag_90\n      jumpi\n        /* \"#utility.yul\":1054:1133   */\n      tag_91\n      tag_92\n      jump\t// in\n    tag_91:\n        /* \"#utility.yul\":1016:1018   */\n    tag_90:\n        /* \"#utility.yul\":1202:1203   */\n      0x00\n        /* \"#utility.yul\":1191:1200   */\n      dup3\n        /* \"#utility.yul\":1187:1204   */\n      add\n        /* \"#utility.yul\":1174:1205   */\n      calldataload\n        /* \"#utility.yul\":1232:1250   */\n      0xffffffffffffffff\n        /* \"#utility.yul\":1224:1230   */\n      dup2\n        /* \"#utility.yul\":1221:1251   */\n      gt\n        /* \"#utility.yul\":1218:1220   */\n      iszero\n      tag_93\n      jumpi\n        /* \"#utility.yul\":1254:1333   */\n      tag_94\n      tag_95\n      jump\t// in\n    tag_94:\n        /* \"#utility.yul\":1218:1220   */\n    tag_93:\n        /* \"#utility.yul\":1359:1422   */\n      tag_96\n        /* \"#utility.yul\":1414:1421   */\n      dup5\n        /* \"#utility.yul\":1405:1411   */\n      dup3\n        /* \"#utility.yul\":1394:1403   */\n      dup6\n        /* \"#utility.yul\":1390:1412   */\n      add\n        /* \"#utility.yul\":1359:1422   */\n      tag_79\n      jump\t// in\n    tag_96:\n        /* \"#utility.yul\":1349:1422   */\n      swap2\n      pop\n        /* \"#utility.yul\":1145:1432   */\n      pop\n        /* \"#utility.yul\":1006:1439   */\n      swap3\n      swap2\n      pop\n      pop\n      jump\t// out\n        /* \"#utility.yul\":1445:2099   */\n    tag_33:\n        /* \"#utility.yul\":1523:1529   */\n      0x00\n        /* \"#utility.yul\":1531:1537   */\n      dup1\n        /* \"#utility.yul\":1580:1582   */\n      0x40\n        /* \"#utility.yul\":1568:1577   */\n      dup4\n        /* \"#utility.yul\":1559:1566   */\n      dup6\n        /* \"#utility.yul\":1555:1578   */\n      sub\n        /* \"#utility.yul\":1551:1583   */\n      slt\n        /* \"#utility.yul\":1548:1550   */\n      iszero\n      tag_98\n      jumpi\n        /* \"#utility.yul\":1586:1665   */\n      tag_99\n      tag_92\n      jump\t// in\n    tag_99:\n        /* \"#utility.yul\":1548:1550   */\n    tag_98:\n        /* \"#utility.yul\":1734:1735   */\n      0x00\n        /* \"#utility.yul\":1723:1732   */\n      dup4\n        /* \"#utility.yul\":1719:1736   */\n      add\n        /* \"#utility.yul\":1706:1737   */\n      calldataload\n        /* \"#utility.yul\":1764:1782   */\n      0xffffffffffffffff\n        /* \"#utility.yul\":1756:1762   */\n      dup2\n        /* \"#utility.yul\":1753:1783   */\n      gt\n        /* \"#utility.yul\":1750:1752   */\n      iszero\n      tag_100\n      jumpi\n        /* \"#utility.yul\":1786:1865   */\n      tag_101\n      tag_95\n      jump\t// in\n    tag_101:\n        /* \"#utility.yul\":1750:1752   */\n    tag_100:\n        /* \"#utility.yul\":1891:1954   */\n      tag_102\n        /* \"#utility.yul\":1946:1953   */\n      dup6\n        /* \"#utility.yul\":1937:1943   */\n      dup3\n        /* \"#utility.yul\":1926:1935   */\n      dup7\n        /* \"#utility.yul\":1922:1944   */\n      add\n        /* \"#utility.yul\":1891:1954   */\n      tag_79\n      jump\t// in\n    tag_102:\n        /* \"#utility.yul\":1881:1954   */\n      swap3\n      pop\n        /* \"#utility.yul\":1677:1964   */\n      pop\n        /* \"#utility.yul\":2003:2005   */\n      0x20\n        /* \"#utility.yul\":2029:2082   */\n      tag_103\n        /* \"#utility.yul\":2074:2081   */\n      dup6\n        /* \"#utility.yul\":2065:2071   */\n      dup3\n        /* \"#utility.yul\":2054:2063   */\n      dup7\n        /* \"#utility.yul\":2050:2072   */\n      add\n        /* \"#utility.yul\":2029:2082   */\n      tag_85\n      jump\t// in\n    tag_103:\n        /* \"#utility.yul\":2019:2082   */\n      swap2\n      pop\n        /* \"#utility.yul\":1974:2092   */\n      pop\n        /* \"#utility.yul\":1538:2099   */\n      swap3\n      pop\n      swap3\n      swap1\n      pop\n      jump\t// out\n        /* \"#utility.yul\":2105:2434   */\n    tag_10:\n        /* \"#utility.yul\":2164:2170   */\n      0x00\n        /* \"#utility.yul\":2213:2215   */\n      0x20\n        /* \"#utility.yul\":2201:2210   */\n      dup3\n        /* \"#utility.yul\":2192:2199   */\n      dup5\n        /* \"#utility.yul\":2188:2211   */\n      sub\n        /* \"#utility.yul\":2184:2216   */\n      slt\n        /* \"#utility.yul\":2181:2183   */\n      iszero\n      tag_105\n      jumpi\n        /* \"#utility.yul\":2219:2298   */\n      tag_106\n      tag_92\n      jump\t// in\n    tag_106:\n        /* \"#utility.yul\":2181:2183   */\n    tag_105:\n        /* \"#utility.yul\":2339:2340   */\n      0x00\n        /* \"#utility.yul\":2364:2417   */\n      tag_107\n        /* \"#utility.yul\":2409:2416   */\n      dup5\n        /* \"#utility.yul\":2400:2406   */\n      dup3\n        /* \"#utility.yul\":2389:2398   */\n      dup6\n        /* \"#utility.yul\":2385:2407   */\n      add\n        /* \"#utility.yul\":2364:2417   */\n      tag_85\n      jump\t// in\n    tag_107:\n        /* \"#utility.yul\":2354:2417   */\n      swap2\n      pop\n        /* \"#utility.yul\":2310:2427   */\n      pop\n        /* \"#utility.yul\":2171:2434   */\n      swap3\n      swap2\n      pop\n      pop\n      jump\t// out\n        /* \"#utility.yul\":2440:2914   */\n    tag_23:\n        /* \"#utility.yul\":2508:2514   */\n      0x00\n        /* \"#utility.yul\":2516:2522   */\n      dup1\n        /* \"#utility.yul\":2565:2567   */\n      0x40\n        /* \"#utility.yul\":2553:2562   */\n      dup4\n        /* \"#utility.yul\":2544:2551   */\n      dup6\n        /* \"#utility.yul\":2540:2563   */\n      sub\n        /* \"#utility.yul\":2536:2568   */\n      slt\n        /* \"#utility.yul\":2533:2535   */\n      iszero\n      tag_109\n      jumpi\n        /* \"#utility.yul\":2571:2650   */\n      tag_110\n      tag_92\n      jump\t// in\n    tag_110:\n        /* \"#utility.yul\":2533:2535   */\n    tag_109:\n        /* \"#utility.yul\":2691:2692   */\n      0x00\n        /* \"#utility.yul\":2716:2769   */\n      tag_111\n        /* \"#utility.yul\":2761:2768   */\n      dup6\n        /* \"#utility.yul\":2752:2758   */\n      dup3\n        /* \"#utility.yul\":2741:2750   */\n      dup7\n        /* \"#utility.yul\":2737:2759   */\n      add\n        /* \"#utility.yul\":2716:2769   */\n      tag_85\n      jump\t// in\n    tag_111:\n        /* \"#utility.yul\":2706:2769   */\n      swap3\n      pop\n        /* \"#utility.yul\":2662:2779   */\n      pop\n        /* \"#utility.yul\":2818:2820   */\n      0x20\n        /* \"#utility.yul\":2844:2897   */\n      tag_112\n        /* \"#utility.yul\":2889:2896   */\n      dup6\n        /* \"#utility.yul\":2880:2886   */\n      dup3\n        /* \"#utility.yul\":2869:2878   */\n      dup7\n        /* \"#utility.yul\":2865:2887   */\n      add\n        /* \"#utility.yul\":2844:2897   */\n      tag_85\n      jump\t// in\n    tag_112:\n        /* \"#utility.yul\":2834:2897   */\n      swap2\n      pop\n        /* \"#utility.yul\":2789:2907   */\n      pop\n        /* \"#utility.yul\":2523:2914   */\n      swap3\n      pop\n      swap3\n      swap1\n      pop\n      jump\t// out\n        /* \"#utility.yul\":2920:3284   */\n    tag_113:\n        /* \"#utility.yul\":3008:3011   */\n      0x00\n        /* \"#utility.yul\":3036:3075   */\n      tag_115\n        /* \"#utility.yul\":3069:3074   */\n      dup3\n        /* \"#utility.yul\":3036:3075   */\n      tag_116\n      jump\t// in\n    tag_115:\n        /* \"#utility.yul\":3091:3162   */\n      tag_117\n        /* \"#utility.yul\":3155:3161   */\n      dup2\n        /* \"#utility.yul\":3150:3153   */\n      dup6\n        /* \"#utility.yul\":3091:3162   */\n      tag_118\n      jump\t// in\n    tag_117:\n        /* \"#utility.yul\":3084:3162   */\n      swap4\n      pop\n        /* \"#utility.yul\":3171:3223   */\n      tag_119\n        /* \"#utility.yul\":3216:3222   */\n      dup2\n        /* \"#utility.yul\":3211:3214   */\n      dup6\n        /* \"#utility.yul\":3204:3208   */\n      0x20\n        /* \"#utility.yul\":3197:3202   */\n      dup7\n        /* \"#utility.yul\":3193:3209   */\n      add\n        /* \"#utility.yul\":3171:3223   */\n      tag_120\n      jump\t// in\n    tag_119:\n        /* \"#utility.yul\":3248:3277   */\n      tag_121\n        /* \"#utility.yul\":3270:3276   */\n      dup2\n        /* \"#utility.yul\":3248:3277   */\n      tag_122\n      jump\t// in\n    tag_121:\n        /* \"#utility.yul\":3243:3246   */\n      dup5\n        /* \"#utility.yul\":3239:3278   */\n      add\n        /* \"#utility.yul\":3232:3278   */\n      swap2\n      pop\n        /* \"#utility.yul\":3012:3284   */\n      pop\n      swap3\n      swap2\n      pop\n      pop\n      jump\t// out\n        /* \"#utility.yul\":3290:3408   */\n    tag_123:\n        /* \"#utility.yul\":3377:3401   */\n      tag_125\n        /* \"#utility.yul\":3395:3400   */\n      dup2\n        /* \"#utility.yul\":3377:3401   */\n      tag_126\n      jump\t// in\n    tag_125:\n        /* \"#utility.yul\":3372:3375   */\n      dup3\n        /* \"#utility.yul\":3365:3402   */\n      mstore\n        /* \"#utility.yul\":3355:3408   */\n      pop\n      pop\n      jump\t// out\n        /* \"#utility.yul\":3414:3727   */\n    tag_19:\n        /* \"#utility.yul\":3527:3531   */\n      0x00\n        /* \"#utility.yul\":3565:3567   */\n      0x20\n        /* \"#utility.yul\":3554:3563   */\n      dup3\n        /* \"#utility.yul\":3550:3568   */\n      add\n        /* \"#utility.yul\":3542:3568   */\n      swap1\n      pop\n        /* \"#utility.yul\":3614:3623   */\n      dup2\n        /* \"#utility.yul\":3608:3612   */\n      dup2\n        /* \"#utility.yul\":3604:3624   */\n      sub\n        /* \"#utility.yul\":3600:3601   */\n      0x00\n        /* \"#utility.yul\":3589:3598   */\n      dup4\n        /* \"#utility.yul\":3585:3602   */\n      add\n        /* \"#utility.yul\":3578:3625   */\n      mstore\n        /* \"#utility.yul\":3642:3720   */\n      tag_128\n        /* \"#utility.yul\":3715:3719   */\n      dup2\n        /* \"#utility.yul\":3706:3712   */\n      dup5\n        /* \"#utility.yul\":3642:3720   */\n      tag_113\n      jump\t// in\n    tag_128:\n        /* \"#utility.yul\":3634:3720   */\n      swap1\n      pop\n        /* \"#utility.yul\":3532:3727   */\n      swap3\n      swap2\n      pop\n      pop\n      jump\t// out\n        /* \"#utility.yul\":3733:3955   */\n    tag_13:\n        /* \"#utility.yul\":3826:3830   */\n      0x00\n        /* \"#utility.yul\":3864:3866   */\n      0x20\n        /* \"#utility.yul\":3853:3862   */\n      dup3\n        /* \"#utility.yul\":3849:3867   */\n      add\n        /* \"#utility.yul\":3841:3867   */\n      swap1\n      pop\n        /* \"#utility.yul\":3877:3948   */\n      tag_130\n        /* \"#utility.yul\":3945:3946   */\n      0x00\n        /* \"#utility.yul\":3934:3943   */\n      dup4\n        /* \"#utility.yul\":3930:3947   */\n      add\n        /* \"#utility.yul\":3921:3927   */\n      dup5\n        /* \"#utility.yul\":3877:3948   */\n      tag_123\n      jump\t// in\n    tag_130:\n        /* \"#utility.yul\":3831:3955   */\n      swap3\n      swap2\n      pop\n      pop\n      jump\t// out\n        /* \"#utility.yul\":3961:4090   */\n    tag_73:\n        /* \"#utility.yul\":3995:4001   */\n      0x00\n        /* \"#utility.yul\":4022:4042   */\n      tag_132\n      tag_133\n      jump\t// in\n    tag_132:\n        /* \"#utility.yul\":4012:4042   */\n      swap1\n      pop\n        /* \"#utility.yul\":4051:4084   */\n      tag_134\n        /* \"#utility.yul\":4079:4083   */\n      dup3\n        /* \"#utility.yul\":4071:4077   */\n      dup3\n        /* \"#utility.yul\":4051:4084   */\n      tag_135\n      jump\t// in\n    tag_134:\n        /* \"#utility.yul\":4002:4090   */\n      swap2\n      swap1\n      pop\n      jump\t// out\n        /* \"#utility.yul\":4096:4171   */\n    tag_133:\n        /* \"#utility.yul\":4129:4135   */\n      0x00\n        /* \"#utility.yul\":4162:4164   */\n      0x40\n        /* \"#utility.yul\":4156:4165   */\n      mload\n        /* \"#utility.yul\":4146:4165   */\n      swap1\n      pop\n        /* \"#utility.yul\":4136:4171   */\n      swap1\n      jump\t// out\n        /* \"#utility.yul\":4177:4485   */\n    tag_72:\n        /* \"#utility.yul\":4239:4243   */\n      0x00\n        /* \"#utility.yul\":4329:4347   */\n      0xffffffffffffffff\n        /* \"#utility.yul\":4321:4327   */\n      dup3\n        /* \"#utility.yul\":4318:4348   */\n      gt\n        /* \"#utility.yul\":4315:4317   */\n      iszero\n      tag_138\n      jumpi\n        /* \"#utility.yul\":4351:4369   */\n      tag_139\n      tag_140\n      jump\t// in\n    tag_139:\n        /* \"#utility.yul\":4315:4317   */\n    tag_138:\n        /* \"#utility.yul\":4389:4418   */\n      tag_141\n        /* \"#utility.yul\":4411:4417   */\n      dup3\n        /* \"#utility.yul\":4389:4418   */\n      tag_122\n      jump\t// in\n    tag_141:\n        /* \"#utility.yul\":4381:4418   */\n      swap1\n      pop\n        /* \"#utility.yul\":4473:4477   */\n      0x20\n        /* \"#utility.yul\":4467:4471   */\n      dup2\n        /* \"#utility.yul\":4463:4478   */\n      add\n        /* \"#utility.yul\":4455:4478   */\n      swap1\n      pop\n        /* \"#utility.yul\":4244:4485   */\n      swap2\n      swap1\n      pop\n      jump\t// out\n        /* \"#utility.yul\":4491:4590   */\n    tag_116:\n        /* \"#utility.yul\":4543:4549   */\n      0x00\n        /* \"#utility.yul\":4577:4582   */\n      dup2\n        /* \"#utility.yul\":4571:4583   */\n      mload\n        /* \"#utility.yul\":4561:4583   */\n      swap1\n      pop\n        /* \"#utility.yul\":4550:4590   */\n      swap2\n      swap1\n      pop\n      jump\t// out\n        /* \"#utility.yul\":4596:4765   */\n    tag_118:\n        /* \"#utility.yul\":4680:4691   */\n      0x00\n        /* \"#utility.yul\":4714:4720   */\n      dup3\n        /* \"#utility.yul\":4709:4712   */\n      dup3\n        /* \"#utility.yul\":4702:4721   */\n      mstore\n        /* \"#utility.yul\":4754:4758   */\n      0x20\n        /* \"#utility.yul\":4749:4752   */\n      dup3\n        /* \"#utility.yul\":4745:4759   */\n      add\n        /* \"#utility.yul\":4730:4759   */\n      swap1\n      pop\n        /* \"#utility.yul\":4692:4765   */\n      swap3\n      swap2\n      pop\n      pop\n      jump\t// out\n        /* \"#utility.yul\":4771:5076   */\n    tag_37:\n        /* \"#utility.yul\":4811:4814   */\n      0x00\n        /* \"#utility.yul\":4830:4850   */\n      tag_145\n        /* \"#utility.yul\":4848:4849   */\n      dup3\n        /* \"#utility.yul\":4830:4850   */\n      tag_126\n      jump\t// in\n    tag_145:\n        /* \"#utility.yul\":4825:4850   */\n      swap2\n      pop\n        /* \"#utility.yul\":4864:4884   */\n      tag_146\n        /* \"#utility.yul\":4882:4883   */\n      dup4\n        /* \"#utility.yul\":4864:4884   */\n      tag_126\n      jump\t// in\n    tag_146:\n        /* \"#utility.yul\":4859:4884   */\n      swap3\n      pop\n        /* \"#utility.yul\":5018:5019   */\n      dup3\n        /* \"#utility.yul\":4950:5016   */\n      0xffffffffffffffffffffffffffffffffffffffffffffffffffffffffffffffff\n        /* \"#utility.yul\":4946:5020   */\n      sub\n        /* \"#utility.yul\":4943:4944   */\n      dup3\n        /* \"#utility.yul\":4940:5021   */\n      gt\n        /* \"#utility.yul\":4937:4939   */\n      iszero\n      tag_147\n      jumpi\n        /* \"#utility.yul\":5024:5042   */\n      tag_148\n      tag_149\n      jump\t// in\n    tag_148:\n        /* \"#utility.yul\":4937:4939   */\n    tag_147:\n        /* \"#utility.yul\":5068:5069   */\n      dup3\n        /* \"#utility.yul\":5065:5066   */\n      dup3\n        /* \"#utility.yul\":5061:5070   */\n      add\n        /* \"#utility.yul\":5054:5070   */\n      swap1\n      pop\n        /* \"#utility.yul\":4815:5076   */\n      swap3\n      swap2\n      pop\n      pop\n      jump\t// out\n        /* \"#utility.yul\":5082:5930   */\n    tag_150:\n        /* \"#utility.yul\":5143:5148   */\n      0x00\n        /* \"#utility.yul\":5150:5154   */\n      dup1\n        /* \"#utility.yul\":5174:5180   */\n      dup3\n        /* \"#utility.yul\":5165:5180   */\n      swap2\n      pop\n        /* \"#utility.yul\":5198:5203   */\n      dup4\n        /* \"#utility.yul\":5189:5203   */\n      swap1\n      pop\n        /* \"#utility.yul\":5212:5924   */\n    tag_152:\n        /* \"#utility.yul\":5233:5234   */\n      0x01\n        /* \"#utility.yul\":5223:5231   */\n      dup6\n        /* \"#utility.yul\":5220:5235   */\n      gt\n        /* \"#utility.yul\":5212:5924   */\n      iszero\n      tag_154\n      jumpi\n        /* \"#utility.yul\":5328:5332   */\n      dup1\n        /* \"#utility.yul\":5323:5326   */\n      dup7\n        /* \"#utility.yul\":5319:5333   */\n      div\n        /* \"#utility.yul\":5313:5317   */\n      dup2\n        /* \"#utility.yul\":5310:5334   */\n      gt\n        /* \"#utility.yul\":5307:5309   */\n      iszero\n      tag_155\n      jumpi\n        /* \"#utility.yul\":5337:5355   */\n      tag_156\n      tag_149\n      jump\t// in\n    tag_156:\n        /* \"#utility.yul\":5307:5309   */\n    tag_155:\n        /* \"#utility.yul\":5387:5388   */\n      0x01\n        /* \"#utility.yul\":5377:5385   */\n      dup6\n        /* \"#utility.yul\":5373:5389   */\n      and\n        /* \"#utility.yul\":5370:5372   */\n      iszero\n      tag_157\n      jumpi\n        /* \"#utility.yul\":5802:5806   */\n      dup1\n        /* \"#utility.yul\":5795:5800   */\n      dup3\n        /* \"#utility.yul\":5791:5807   */\n      mul\n        /* \"#utility.yul\":5782:5807   */\n      swap2\n      pop\n        /* \"#utility.yul\":5370:5372   */\n    tag_157:\n        /* \"#utility.yul\":5852:5856   */\n      dup1\n        /* \"#utility.yul\":5846:5850   */\n      dup2\n        /* \"#utility.yul\":5842:5857   */\n      mul\n        /* \"#utility.yul\":5834:5857   */\n      swap1\n      pop\n        /* \"#utility.yul\":5882:5914   */\n      tag_158\n        /* \"#utility.yul\":5905:5913   */\n      dup6\n        /* \"#utility.yul\":5882:5914   */\n      tag_159\n      jump\t// in\n    tag_158:\n        /* \"#utility.yul\":5870:5914   */\n      swap5\n      pop\n        /* \"#utility.yul\":5212:5924   */\n      jump(tag_152)\n    tag_154:\n        /* \"#utility.yul\":5155:5930   */\n      swap5\n      pop\n      swap5\n      swap3\n      pop\n      pop\n      pop\n      jump\t// out\n        /* \"#utility.yul\":5936:6221   */\n    tag_51:\n        /* \"#utility.yul\":5996:6001   */\n      0x00\n        /* \"#utility.yul\":6020:6043   */\n      tag_161\n        /* \"#utility.yul\":6038:6042   */\n      dup3\n        /* \"#utility.yul\":6020:6043   */\n      tag_126\n      jump\t// in\n    tag_161:\n        /* \"#utility.yul\":6012:6043   */\n      swap2\n      pop\n        /* \"#utility.yul\":6064:6091   */\n      tag_162\n        /* \"#utility.yul\":6082:6090   */\n      dup4\n        /* \"#utility.yul\":6064:6091   */\n      tag_126\n      jump\t// in\n    tag_162:\n        /* \"#utility.yul\":6052:6091   */\n      swap3\n      pop\n        /* \"#utility.yul\":6110:6214   */\n      tag_163\n        /* \"#utility.yul\":6147:6213   */\n      0xffffffffffffffffffffffffffffffffffffffffffffffffffffffffffffffff\n        /* \"#utility.yul\":6137:6145   */\n      dup5\n        /* \"#utility.yul\":6131:6135   */\n      dup5\n        /* \"#utility.yul\":6110:6214   */\n      tag_164\n      jump\t// in\n    tag_163:\n        /* \"#utility.yul\":6101:6214   */\n      swap1\n      pop\n        /* \"#utility.yul\":6002:6221   */\n      swap3\n      swap2\n      pop\n      pop\n      jump\t// out\n        /* \"#utility.yul\":6227:7300   */\n    tag_164:\n        /* \"#utility.yul\":6281:6286   */\n      0x00\n        /* \"#utility.yul\":6472:6480   */\n      dup3\n        /* \"#utility.yul\":6462:6464   */\n      tag_166\n      jumpi\n        /* \"#utility.yul\":6493:6494   */\n      0x01\n        /* \"#utility.yul\":6484:6494   */\n      swap1\n      pop\n        /* \"#utility.yul\":6495:6500   */\n      jump(tag_165)\n        /* \"#utility.yul\":6462:6464   */\n    tag_166:\n        /* \"#utility.yul\":6521:6525   */\n      dup2\n        /* \"#utility.yul\":6511:6513   */\n      tag_167\n      jumpi\n        /* \"#utility.yul\":6538:6539   */\n      0x00\n        /* \"#utility.yul\":6529:6539   */\n      swap1\n      pop\n        /* \"#utility.yul\":6540:6545   */\n      jump(tag_165)\n        /* \"#utility.yul\":6511:6513   */\n    tag_167:\n        /* \"#utility.yul\":6607:6611   */\n      dup2\n        /* \"#utility.yul\":6655:6656   */\n      0x01\n        /* \"#utility.yul\":6650:6677   */\n      dup2\n      eq\n      tag_169\n      jumpi\n        /* \"#utility.yul\":6691:6692   */\n      0x02\n        /* \"#utility.yul\":6686:6877   */\n      dup2\n      eq\n      tag_170\n      jumpi\n        /* \"#utility.yul\":6600:6877   */\n      jump(tag_168)\n        /* \"#utility.yul\":6650:6677   */\n    tag_169:\n        /* \"#utility.yul\":6668:6669   */\n      0x01\n        /* \"#utility.yul\":6659:6669   */\n      swap2\n      pop\n        /* \"#utility.yul\":6670:6675   */\n      pop\n      jump(tag_165)\n        /* \"#utility.yul\":6686:6877   */\n    tag_170:\n        /* \"#utility.yul\":6731:6734   */\n      0xff\n        /* \"#utility.yul\":6721:6729   */\n      dup5\n        /* \"#utility.yul\":6718:6735   */\n      gt\n        /* \"#utility.yul\":6715:6717   */\n      iszero\n      tag_171\n      jumpi\n        /* \"#utility.yul\":6738:6756   */\n      tag_172\n      tag_149\n      jump\t// in\n    tag_172:\n        /* \"#utility.yul\":6715:6717   */\n    tag_171:\n        /* \"#utility.yul\":6787:6795   */\n      dup4\n        /* \"#utility.yul\":6784:6785   */\n      0x02\n        /* \"#utility.yul\":6780:6796   */\n      exp\n        /* \"#utility.yul\":6771:6796   */\n      swap2\n      pop\n        /* \"#utility.yul\":6822:6825   */\n      dup5\n        /* \"#utility.yul\":6815:6820   */\n      dup3\n        /* \"#utility.yul\":6812:6826   */\n      gt\n        /* \"#utility.yul\":6809:6811   */\n      iszero\n      tag_173\n      jumpi\n        /* \"#utility.yul\":6829:6847   */\n      tag_174\n      tag_149\n      jump\t// in\n    tag_174:\n        /* \"#utility.yul\":6809:6811   */\n    tag_173:\n        /* \"#utility.yul\":6862:6867   */\n      pop\n      jump(tag_165)\n        /* \"#utility.yul\":6600:6877   */\n    tag_168:\n      pop\n        /* \"#utility.yul\":6986:6988   */\n      0x20\n        /* \"#utility.yul\":6976:6984   */\n      dup4\n        /* \"#utility.yul\":6973:6989   */\n      lt\n        /* \"#utility.yul\":6967:6970   */\n      0x0133\n        /* \"#utility.yul\":6961:6965   */\n      dup4\n        /* \"#utility.yul\":6958:6971   */\n      lt\n        /* \"#utility.yul\":6954:6990   */\n      and\n        /* \"#utility.yul\":6936:6938   */\n      0x4e\n        /* \"#utility.yul\":6926:6934   */\n      dup5\n        /* \"#utility.yul\":6923:6939   */\n      lt\n        /* \"#utility.yul\":6918:6920   */\n      0x0b\n        /* \"#utility.yul\":6912:6916   */\n      dup5\n        /* \"#utility.yul\":6909:6921   */\n      lt\n        /* \"#utility.yul\":6905:6940   */\n      and\n        /* \"#utility.yul\":6889:7000   */\n      or\n        /* \"#utility.yul\":6886:6888   */\n      iszero\n      tag_175\n      jumpi\n        /* \"#utility.yul\":7042:7050   */\n      dup3\n        /* \"#utility.yul\":7036:7040   */\n      dup3\n        /* \"#utility.yul\":7032:7051   */\n      exp\n        /* \"#utility.yul\":7023:7051   */\n      swap1\n      pop\n        /* \"#utility.yul\":7077:7080   */\n      dup4\n        /* \"#utility.yul\":7070:7075   */\n      dup2\n        /* \"#utility.yul\":7067:7081   */\n      gt\n        /* \"#utility.yul\":7064:7066   */\n      iszero\n      tag_176\n      jumpi\n        /* \"#utility.yul\":7084:7102   */\n      tag_177\n      tag_149\n      jump\t// in\n    tag_177:\n        /* \"#utility.yul\":7064:7066   */\n    tag_176:\n        /* \"#utility.yul\":7117:7122   */\n      jump(tag_165)\n        /* \"#utility.yul\":6886:6888   */\n    tag_175:\n        /* \"#utility.yul\":7157:7199   */\n      tag_178\n        /* \"#utility.yul\":7195:7198   */\n      dup5\n        /* \"#utility.yul\":7185:7193   */\n      dup5\n        /* \"#utility.yul\":7179:7183   */\n      dup5\n        /* \"#utility.yul\":7176:7177   */\n      0x01\n        /* \"#utility.yul\":7157:7199   */\n      tag_150\n      jump\t// in\n    tag_178:\n        /* \"#utility.yul\":7142:7199   */\n      swap3\n      pop\n      swap1\n      pop\n        /* \"#utility.yul\":7231:7235   */\n      dup2\n        /* \"#utility.yul\":7226:7229   */\n      dup5\n        /* \"#utility.yul\":7222:7236   */\n      div\n        /* \"#utility.yul\":7215:7220   */\n      dup2\n        /* \"#utility.yul\":7212:7237   */\n      gt\n        /* \"#utility.yul\":7209:7211   */\n      iszero\n      tag_179\n      jumpi\n        /* \"#utility.yul\":7240:7258   */\n      tag_180\n      tag_149\n      jump\t// in\n    tag_180:\n        /* \"#utility.yul\":7209:7211   */\n    tag_179:\n        /* \"#utility.yul\":7289:7293   */\n      dup2\n        /* \"#utility.yul\":7282:7287   */\n      dup2\n        /* \"#utility.yul\":7278:7294   */\n      mul\n        /* \"#utility.yul\":7269:7294   */\n      swap1\n      pop\n        /* \"#utility.yul\":6287:7300   */\n    tag_165:\n      swap4\n      swap3\n      pop\n      pop\n      pop\n      jump\t// out\n        /* \"#utility.yul\":7306:7383   */\n    tag_126:\n        /* \"#utility.yul\":7343:7350   */\n      0x00\n        /* \"#utility.yul\":7372:7377   */\n      dup2\n        /* \"#utility.yul\":7361:7377   */\n      swap1\n      pop\n        /* \"#utility.yul\":7351:7383   */\n      swap2\n      swap1\n      pop\n      jump\t// out\n        /* \"#utility.yul\":7389:7543   */\n    tag_78:\n        /* \"#utility.yul\":7473:7479   */\n      dup3\n        /* \"#utility.yul\":7468:7471   */\n      dup2\n        /* \"#utility.yul\":7463:7466   */\n      dup4\n        /* \"#utility.yul\":7450:7480   */\n      calldatacopy\n        /* \"#utility.yul\":7535:7536   */\n      0x00\n        /* \"#utility.yul\":7526:7532   */\n      dup4\n        /* \"#utility.yul\":7521:7524   */\n      dup4\n        /* \"#utility.yul\":7517:7533   */\n      add\n        /* \"#utility.yul\":7510:7537   */\n      mstore\n        /* \"#utility.yul\":7440:7543   */\n      pop\n      pop\n      pop\n      jump\t// out\n        /* \"#utility.yul\":7549:7856   */\n    tag_120:\n        /* \"#utility.yul\":7617:7618   */\n      0x00\n        /* \"#utility.yul\":7627:7740   */\n    tag_184:\n        /* \"#utility.yul\":7641:7647   */\n      dup4\n        /* \"#utility.yul\":7638:7639   */\n      dup2\n        /* \"#utility.yul\":7635:7648   */\n      lt\n        /* \"#utility.yul\":7627:7740   */\n      iszero\n      tag_186\n      jumpi\n        /* \"#utility.yul\":7726:7727   */\n      dup1\n        /* \"#utility.yul\":7721:7724   */\n      dup3\n        /* \"#utility.yul\":7717:7728   */\n      add\n        /* \"#utility.yul\":7711:7729   */\n      mload\n        /* \"#utility.yul\":7707:7708   */\n      dup2\n        /* \"#utility.yul\":7702:7705   */\n      dup5\n        /* \"#utility.yul\":7698:7709   */\n      add\n        /* \"#utility.yul\":7691:7730   */\n      mstore\n        /* \"#utility.yul\":7663:7665   */\n      0x20\n        /* \"#utility.yul\":7660:7661   */\n      dup2\n        /* \"#utility.yul\":7656:7666   */\n      add\n        /* \"#utility.yul\":7651:7666   */\n      swap1\n      pop\n        /* \"#utility.yul\":7627:7740   */\n      jump(tag_184)\n    tag_186:\n        /* \"#utility.yul\":7758:7764   */\n      dup4\n        /* \"#utility.yul\":7755:7756   */\n      dup2\n        /* \"#utility.yul\":7752:7765   */\n      gt\n        /* \"#utility.yul\":7749:7751   */\n      iszero\n      tag_187\n      jumpi\n        /* \"#utility.yul\":7838:7839   */\n      0x00\n        /* \"#utility.yul\":7829:7835   */\n      dup5\n        /* \"#utility.yul\":7824:7827   */\n      dup5\n        /* \"#utility.yul\":7820:7836   */\n      add\n        /* \"#utility.yul\":7813:7840   */\n      mstore\n        /* \"#utility.yul\":7749:7751   */\n    tag_187:\n        /* \"#utility.yul\":7598:7856   */\n      pop\n      pop\n      pop\n      pop\n      jump\t// out\n        /* \"#utility.yul\":7862:8182   */\n    tag_44:\n        /* \"#utility.yul\":7906:7912   */\n      0x00\n        /* \"#utility.yul\":7943:7944   */\n      0x02\n        /* \"#utility.yul\":7937:7941   */\n      dup3\n        /* \"#utility.yul\":7933:7945   */\n      div\n        /* \"#utility.yul\":7923:7945   */\n      swap1\n      pop\n        /* \"#utility.yul\":7990:7991   */\n      0x01\n        /* \"#utility.yul\":7984:7988   */\n      dup3\n        /* \"#utility.yul\":7980:7992   */\n      and\n        /* \"#utility.yul\":8011:8029   */\n      dup1\n        /* \"#utility.yul\":8001:8003   */\n      tag_189\n      jumpi\n        /* \"#utility.yul\":8067:8071   */\n      0x7f\n        /* \"#utility.yul\":8059:8065   */\n      dup3\n        /* \"#utility.yul\":8055:8072   */\n      and\n        /* \"#utility.yul\":8045:8072   */\n      swap2\n      pop\n        /* \"#utility.yul\":8001:8003   */\n    tag_189:\n        /* \"#utility.yul\":8129:8131   */\n      0x20\n        /* \"#utility.yul\":8121:8127   */\n      dup3\n        /* \"#utility.yul\":8118:8132   */\n      lt\n        /* \"#utility.yul\":8098:8116   */\n      dup2\n        /* \"#utility.yul\":8095:8133   */\n      eq\n        /* \"#utility.yul\":8092:8094   */\n      iszero\n      tag_190\n      jumpi\n        /* \"#utility.yul\":8148:8166   */\n      tag_191\n      tag_192\n      jump\t// in\n    tag_191:\n        /* \"#utility.yul\":8092:8094   */\n    tag_190:\n        /* \"#utility.yul\":7913:8182   */\n      pop\n      swap2\n      swap1\n      pop\n      jump\t// out\n        /* \"#utility.yul\":8188:8469   */\n    tag_135:\n        /* \"#utility.yul\":8271:8298   */\n      tag_194\n        /* \"#utility.yul\":8293:8297   */\n      dup3\n        /* \"#utility.yul\":8271:8298   */\n      tag_122\n      jump\t// in\n    tag_194:\n        /* \"#utility.yul\":8263:8269   */\n      dup2\n        /* \"#utility.yul\":8259:8299   */\n      add\n        /* \"#utility.yul\":8401:8407   */\n      dup2\n        /* \"#utility.yul\":8389:8399   */\n      dup2\n        /* \"#utility.yul\":8386:8408   */\n      lt\n        /* \"#utility.yul\":8365:8383   */\n      0xffffffffffffffff\n        /* \"#utility.yul\":8353:8363   */\n      dup3\n        /* \"#utility.yul\":8350:8384   */\n      gt\n        /* \"#utility.yul\":8347:8409   */\n      or\n        /* \"#utility.yul\":8344:8346   */\n      iszero\n      tag_195\n      jumpi\n        /* \"#utility.yul\":8412:8430   */\n      tag_196\n      tag_140\n      jump\t// in\n    tag_196:\n        /* \"#utility.yul\":8344:8346   */\n    tag_195:\n        /* \"#utility.yul\":8452:8462   */\n      dup1\n        /* \"#utility.yul\":8448:8450   */\n      0x40\n        /* \"#utility.yul\":8441:8463   */\n      mstore\n        /* \"#utility.yul\":8231:8469   */\n      pop\n      pop\n      pop\n      jump\t// out\n        /* \"#utility.yul\":8475:8655   */\n    tag_149:\n        /* \"#utility.yul\":8523:8600   */\n      0x4e487b7100000000000000000000000000000000000000000000000000000000\n        /* \"#utility.yul\":8520:8521   */\n      0x00\n        /* \"#utility.yul\":8513:8601   */\n      mstore\n        /* \"#utility.yul\":8620:8624   */\n      0x11\n        /* \"#utility.yul\":8617:8618   */\n      0x04\n        /* \"#utility.yul\":8610:8625   */\n      mstore\n        /* \"#utility.yul\":8644:8648   */\n      0x24\n        /* \"#utility.yul\":8641:8642   */\n      0x00\n        /* \"#utility.yul\":8634:8649   */\n      revert\n        /* \"#utility.yul\":8661:8841   */\n    tag_192:\n        /* \"#utility.yul\":8709:8786   */\n      0x4e487b7100000000000000000000000000000000000000000000000000000000\n        /* \"#utility.yul\":8706:8707   */\n      0x00\n        /* \"#utility.yul\":8699:8787   */\n      mstore\n        /* \"#utility.yul\":8806:8810   */\n      0x22\n        /* \"#utility.yul\":8803:8804   */\n      0x04\n        /* \"#utility.yul\":8796:8811   */\n      mstore\n        /* \"#utility.yul\":8830:8834   */\n      0x24\n        /* \"#utility.yul\":8827:8828   */\n      0x00\n        /* \"#utility.yul\":8820:8835   */\n      revert\n        /* \"#utility.yul\":8847:9027   */\n    tag_41:\n        /* \"#utility.yul\":8895:8972   */\n      0x4e487b7100000000000000000000000000000000000000000000000000000000\n        /* \"#utility.yul\":8892:8893   */\n      0x00\n        /* \"#utility.yul\":8885:8973   */\n      mstore\n        /* \"#utility.yul\":8992:8996   */\n      0x32\n        /* \"#utility.yul\":8989:8990   */\n      0x04\n        /* \"#utility.yul\":8982:8997   */\n      mstore\n        /* \"#utility.yul\":9016:9020   */\n      0x24\n        /* \"#utility.yul\":9013:9014   */\n      0x00\n        /* \"#utility.yul\":9006:9021   */\n      revert\n        /* \"#utility.yul\":9033:9213   */\n    tag_140:\n        /* \"#utility.yul\":9081:9158   */\n      0x4e487b7100000000000000000000000000000000000000000000000000000000\n        /* \"#utility.yul\":9078:9079   */\n      0x00\n        /* \"#utility.yul\":9071:9159   */\n      mstore\n        /* \"#utility.yul\":9178:9182   */\n      0x41\n        /* \"#utility.yul\":9175:9176   */\n      0x04\n        /* \"#utility.yul\":9168:9183   */\n      mstore\n        /* \"#utility.yul\":9202:9206   */\n      0x24\n        /* \"#utility.yul\":9199:9200   */\n      0x00\n        /* \"#utility.yul\":9192:9207   */\n      revert\n        /* \"#utility.yul\":9219:9336   */\n    tag_83:\n        /* \"#utility.yul\":9328:9329   */\n      0x00\n        /* \"#utility.yul\":9325:9326   */\n      dup1\n        /* \"#utility.yul\":9318:9330   */\n      revert\n        /* \"#utility.yul\":9342:9459   */\n    tag_76:\n        /* \"#utility.yul\":9451:9452   */\n      0x00\n        /* \"#utility.yul\":9448:9449   */\n      dup1\n        /* \"#utility.yul\":9441:9453   */\n      revert\n        /* \"#utility.yul\":9465:9582   */\n    tag_95:\n        /* \"#utility.yul\":9574:9575   */\n      0x00\n        /* \"#utility.yul\":9571:9572   */\n      dup1\n        /* \"#utility.yul\":9564:9576   */\n      revert\n        /* \"#utility.yul\":9588:9705   */\n    tag_92:\n        /* \"#utility.yul\":9697:9698   */\n      0x00\n        /* \"#utility.yul\":9694:9695   */\n      dup1\n        /* \"#utility.yul\":9687:9699   */\n      revert\n        /* \"#utility.yul\":9711:9813   */\n    tag_122:\n        /* \"#utility.yul\":9752:9758   */\n      0x00\n        /* \"#utility.yul\":9803:9805   */\n      0x1f\n        /* \"#utility.yul\":9799:9806   */\n      not\n        /* \"#utility.yul\":9794:9796   */\n      0x1f\n        /* \"#utility.yul\":9787:9792   */\n      dup4\n        /* \"#utility.yul\":9783:9797   */\n      add\n        /* \"#utility.yul\":9779:9807   */\n      and\n        /* \"#utility.yul\":9769:9807   */\n      swap1\n      pop\n        /* \"#utility.yul\":9759:9813   */\n      swap2\n      swap1\n      pop\n      jump\t// out\n        /* \"#utility.yul\":9819:9921   */\n    tag_159:\n        /* \"#utility.yul\":9861:9869   */\n      0x00\n        /* \"#utility.yul\":9908:9913   */\n      dup2\n        /* \"#utility.yul\":9905:9906   */\n      0x01\n        /* \"#utility.yul\":9901:9914   */\n      shr\n        /* \"#utility.yul\":9880:9914   */\n      swap1\n      pop\n        /* \"#utility.yul\":9870:9921   */\n      swap2\n      swap1\n      pop\n      jump\t// out\n        /* \"#utility.yul\":9927:10049   */\n    tag_88:\n        /* \"#utility.yul\":10000:10024   */\n      tag_208\n        /* \"#utility.yul\":10018:10023   */\n      dup2\n        /* \"#utility.yul\":10000:10024   */\n      tag_126\n      jump\t// in\n    tag_208:\n        /* \"#utility.yul\":9993:9998   */\n      dup2\n        /* \"#utility.yul\":9990:10025   */\n      eq\n        /* \"#utility.yul\":9980:9982   */\n      tag_209\n      jumpi\n        /* \"#utility.yul\":10039:10040   */\n      0x00\n        /* \"#utility.yul\":10036:10037   */\n      dup1\n        /* \"#utility.yul\":10029:10041   */\n      revert\n        /* \"#utility.yul\":9980:9982   */\n    tag_209:\n        /* \"#utility.yul\":9970:10049   */\n      pop\n      jump\t// out\n\n    auxdata: 0xa2646970667358221220be19956a639e5d48b6ab636ac18145608dda250fa272471179f13147aa2e584364736f6c63430008060033\n}\n",
				"bytecode": {
					"linkReferences": {},
					"object": "6080604052600a60015534801561001557600080fd5b5061094d806100256000396000f3fe60806040526004361061004a5760003560e01c806313bd6e3c1461004f578063199c937b1461008c57806329137cc3146100c95780637da5096b14610106578063ce574a6d1461012f575b600080fd5b34801561005b57600080fd5b5061007660048036038101906100719190610438565b61014b565b604051610083919061050f565b60405180910390f35b34801561009857600080fd5b506100b360048036038101906100ae9190610438565b610162565b6040516100c091906104ed565b60405180910390f35b3480156100d557600080fd5b506100f060048036038101906100eb9190610465565b610212565b6040516100fd919061050f565b60405180910390f35b34801561011257600080fd5b5061012d60048036038101906101289190610393565b610228565b005b610149600480360381019061014491906103dc565b610267565b005b60008160015461015b919061059c565b9050919050565b60606000828154811061017857610177610870565b5b90600052602060002001805461018d906107af565b80601f01602080910402602001604051908101604052809291908181526020018280546101b9906107af565b80156102065780601f106101db57610100808354040283529160200191610206565b820191906000526020600020905b8154815290600101906020018083116101e957829003601f168201915b50505050509050919050565b600081836102209190610645565b905092915050565b60008190806001815401808255809150506001900390600052602060002001600090919091909150908051906020019061026392919061026b565b5050565b5050565b828054610277906107af565b90600052602060002090601f01602090048101928261029957600085556102e0565b82601f106102b257805160ff19168380011785556102e0565b828001600101855582156102e0579182015b828111156102df5782518255916020019190600101906102c4565b5b5090506102ed91906102f1565b5090565b5b8082111561030a5760008160009055506001016102f2565b5090565b600061032161031c8461054f565b61052a565b90508281526020810184848401111561033d5761033c6108d3565b5b61034884828561076d565b509392505050565b600082601f830112610365576103646108ce565b5b813561037584826020860161030e565b91505092915050565b60008135905061038d81610900565b92915050565b6000602082840312156103a9576103a86108dd565b5b600082013567ffffffffffffffff8111156103c7576103c66108d8565b5b6103d384828501610350565b91505092915050565b600080604083850312156103f3576103f26108dd565b5b600083013567ffffffffffffffff811115610411576104106108d8565b5b61041d85828601610350565b925050602061042e8582860161037e565b9150509250929050565b60006020828403121561044e5761044d6108dd565b5b600061045c8482850161037e565b91505092915050565b6000806040838503121561047c5761047b6108dd565b5b600061048a8582860161037e565b925050602061049b8582860161037e565b9150509250929050565b60006104b082610580565b6104ba818561058b565b93506104ca81856020860161077c565b6104d3816108e2565b840191505092915050565b6104e781610763565b82525050565b6000602082019050818103600083015261050781846104a5565b905092915050565b600060208201905061052460008301846104de565b92915050565b6000610534610545565b905061054082826107e1565b919050565b6000604051905090565b600067ffffffffffffffff82111561056a5761056961089f565b5b610573826108e2565b9050602081019050919050565b600081519050919050565b600082825260208201905092915050565b60006105a782610763565b91506105b283610763565b9250827fffffffffffffffffffffffffffffffffffffffffffffffffffffffffffffffff038211156105e7576105e6610812565b5b828201905092915050565b6000808291508390505b600185111561063c5780860481111561061857610617610812565b5b60018516156106275780820291505b8081029050610635856108f3565b94506105fc565b94509492505050565b600061065082610763565b915061065b83610763565b92506106887fffffffffffffffffffffffffffffffffffffffffffffffffffffffffffffffff8484610690565b905092915050565b6000826106a0576001905061075c565b816106ae576000905061075c565b81600181146106c457600281146106ce576106fd565b600191505061075c565b60ff8411156106e0576106df610812565b5b8360020a9150848211156106f7576106f6610812565b5b5061075c565b5060208310610133831016604e8410600b84101617156107325782820a90508381111561072d5761072c610812565b5b61075c565b61073f84848460016105f2565b9250905081840481111561075657610755610812565b5b81810290505b9392505050565b6000819050919050565b82818337600083830152505050565b60005b8381101561079a57808201518184015260208101905061077f565b838111156107a9576000848401525b50505050565b600060028204905060018216806107c757607f821691505b602082108114156107db576107da610841565b5b50919050565b6107ea826108e2565b810181811067ffffffffffffffff821117156108095761080861089f565b5b80604052505050565b7f4e487b7100000000000000000000000000000000000000000000000000000000600052601160045260246000fd5b7f4e487b7100000000000000000000000000000000000000000000000000000000600052602260045260246000fd5b7f4e487b7100000000000000000000000000000000000000000000000000000000600052603260045260246000fd5b7f4e487b7100000000000000000000000000000000000000000000000000000000600052604160045260246000fd5b600080fd5b600080fd5b600080fd5b600080fd5b6000601f19601f8301169050919050565b60008160011c9050919050565b61090981610763565b811461091457600080fd5b5056fea2646970667358221220be19956a639e5d48b6ab636ac18145608dda250fa272471179f13147aa2e584364736f6c63430008060033",
					"opcodes": "PUSH1 0x80 PUSH1 0x40 MSTORE PUSH1 0xA PUSH1 0x1 SSTORE CALLVALUE DUP1 ISZERO PUSH2 0x15 JUMPI PUSH1 0x0 DUP1 REVERT JUMPDEST POP PUSH2 0x94D DUP1 PUSH2 0x25 PUSH1 0x0 CODECOPY PUSH1 0x0 RETURN INVALID PUSH1 0x80 PUSH1 0x40 MSTORE PUSH1 0x4 CALLDATASIZE LT PUSH2 0x4A JUMPI PUSH1 0x0 CALLDATALOAD PUSH1 0xE0 SHR DUP1 PUSH4 0x13BD6E3C EQ PUSH2 0x4F JUMPI DUP1 PUSH4 0x199C937B EQ PUSH2 0x8C JUMPI DUP1 PUSH4 0x29137CC3 EQ PUSH2 0xC9 JUMPI DUP1 PUSH4 0x7DA5096B EQ PUSH2 0x106 JUMPI DUP1 PUSH4 0xCE574A6D EQ PUSH2 0x12F JUMPI JUMPDEST PUSH1 0x0 DUP1 REVERT JUMPDEST CALLVALUE DUP1 ISZERO PUSH2 0x5B JUMPI PUSH1 0x0 DUP1 REVERT JUMPDEST POP PUSH2 0x76 PUSH1 0x4 DUP1 CALLDATASIZE SUB DUP2 ADD SWAP1 PUSH2 0x71 SWAP2 SWAP1 PUSH2 0x438 JUMP JUMPDEST PUSH2 0x14B JUMP JUMPDEST PUSH1 0x40 MLOAD PUSH2 0x83 SWAP2 SWAP1 PUSH2 0x50F JUMP JUMPDEST PUSH1 0x40 MLOAD DUP1 SWAP2 SUB SWAP1 RETURN JUMPDEST CALLVALUE DUP1 ISZERO PUSH2 0x98 JUMPI PUSH1 0x0 DUP1 REVERT JUMPDEST POP PUSH2 0xB3 PUSH1 0x4 DUP1 CALLDATASIZE SUB DUP2 ADD SWAP1 PUSH2 0xAE SWAP2 SWAP1 PUSH2 0x438 JUMP JUMPDEST PUSH2 0x162 JUMP JUMPDEST PUSH1 0x40 MLOAD PUSH2 0xC0 SWAP2 SWAP1 PUSH2 0x4ED JUMP JUMPDEST PUSH1 0x40 MLOAD DUP1 SWAP2 SUB SWAP1 RETURN JUMPDEST CALLVALUE DUP1 ISZERO PUSH2 0xD5 JUMPI PUSH1 0x0 DUP1 REVERT JUMPDEST POP PUSH2 0xF0 PUSH1 0x4 DUP1 CALLDATASIZE SUB DUP2 ADD SWAP1 PUSH2 0xEB SWAP2 SWAP1 PUSH2 0x465 JUMP JUMPDEST PUSH2 0x212 JUMP JUMPDEST PUSH1 0x40 MLOAD PUSH2 0xFD SWAP2 SWAP1 PUSH2 0x50F JUMP JUMPDEST PUSH1 0x40 MLOAD DUP1 SWAP2 SUB SWAP1 RETURN JUMPDEST CALLVALUE DUP1 ISZERO PUSH2 0x112 JUMPI PUSH1 0x0 DUP1 REVERT JUMPDEST POP PUSH2 0x12D PUSH1 0x4 DUP1 CALLDATASIZE SUB DUP2 ADD SWAP1 PUSH2 0x128 SWAP2 SWAP1 PUSH2 0x393 JUMP JUMPDEST PUSH2 0x228 JUMP JUMPDEST STOP JUMPDEST PUSH2 0x149 PUSH1 0x4 DUP1 CALLDATASIZE SUB DUP2 ADD SWAP1 PUSH2 0x144 SWAP2 SWAP1 PUSH2 0x3DC JUMP JUMPDEST PUSH2 0x267 JUMP JUMPDEST STOP JUMPDEST PUSH1 0x0 DUP2 PUSH1 0x1 SLOAD PUSH2 0x15B SWAP2 SWAP1 PUSH2 0x59C JUMP JUMPDEST SWAP1 POP SWAP2 SWAP1 POP JUMP JUMPDEST PUSH1 0x60 PUSH1 0x0 DUP3 DUP2 SLOAD DUP2 LT PUSH2 0x178 JUMPI PUSH2 0x177 PUSH2 0x870 JUMP JUMPDEST JUMPDEST SWAP1 PUSH1 0x0 MSTORE PUSH1 0x20 PUSH1 0x0 KECCAK256 ADD DUP1 SLOAD PUSH2 0x18D SWAP1 PUSH2 0x7AF JUMP JUMPDEST DUP1 PUSH1 0x1F ADD PUSH1 0x20 DUP1 SWAP2 DIV MUL PUSH1 0x20 ADD PUSH1 0x40 MLOAD SWAP1 DUP2 ADD PUSH1 0x40 MSTORE DUP1 SWAP3 SWAP2 SWAP1 DUP2 DUP2 MSTORE PUSH1 0x20 ADD DUP3 DUP1 SLOAD PUSH2 0x1B9 SWAP1 PUSH2 0x7AF JUMP JUMPDEST DUP1 ISZERO PUSH2 0x206 JUMPI DUP1 PUSH1 0x1F LT PUSH2 0x1DB JUMPI PUSH2 0x100 DUP1 DUP4 SLOAD DIV MUL DUP4 MSTORE SWAP2 PUSH1 0x20 ADD SWAP2 PUSH2 0x206 JUMP JUMPDEST DUP3 ADD SWAP2 SWAP1 PUSH1 0x0 MSTORE PUSH1 0x20 PUSH1 0x0 KECCAK256 SWAP1 JUMPDEST DUP2 SLOAD DUP2 MSTORE SWAP1 PUSH1 0x1 ADD SWAP1 PUSH1 0x20 ADD DUP1 DUP4 GT PUSH2 0x1E9 JUMPI DUP3 SWAP1 SUB PUSH1 0x1F AND DUP3 ADD SWAP2 JUMPDEST POP POP POP POP POP SWAP1 POP SWAP2 SWAP1 POP JUMP JUMPDEST PUSH1 0x0 DUP2 DUP4 PUSH2 0x220 SWAP2 SWAP1 PUSH2 0x645 JUMP JUMPDEST SWAP1 POP SWAP3 SWAP2 POP POP JUMP JUMPDEST PUSH1 0x0 DUP2 SWAP1 DUP1 PUSH1 0x1 DUP2 SLOAD ADD DUP1 DUP3 SSTORE DUP1 SWAP2 POP POP PUSH1 0x1 SWAP1 SUB SWAP1 PUSH1 0x0 MSTORE PUSH1 0x20 PUSH1 0x0 KECCAK256 ADD PUSH1 0x0 SWAP1 SWAP2 SWAP1 SWAP2 SWAP1 SWAP2 POP SWAP1 DUP1 MLOAD SWAP1 PUSH1 0x20 ADD SWAP1 PUSH2 0x263 SWAP3 SWAP2 SWAP1 PUSH2 0x26B JUMP JUMPDEST POP POP JUMP JUMPDEST POP POP JUMP JUMPDEST DUP3 DUP1 SLOAD PUSH2 0x277 SWAP1 PUSH2 0x7AF JUMP JUMPDEST SWAP1 PUSH1 0x0 MSTORE PUSH1 0x20 PUSH1 0x0 KECCAK256 SWAP1 PUSH1 0x1F ADD PUSH1 0x20 SWAP1 DIV DUP2 ADD SWAP3 DUP3 PUSH2 0x299 JUMPI PUSH1 0x0 DUP6 SSTORE PUSH2 0x2E0 JUMP JUMPDEST DUP3 PUSH1 0x1F LT PUSH2 0x2B2 JUMPI DUP1 MLOAD PUSH1 0xFF NOT AND DUP4 DUP1 ADD OR DUP6 SSTORE PUSH2 0x2E0 JUMP JUMPDEST DUP3 DUP1 ADD PUSH1 0x1 ADD DUP6 SSTORE DUP3 ISZERO PUSH2 0x2E0 JUMPI SWAP2 DUP3 ADD JUMPDEST DUP3 DUP2 GT ISZERO PUSH2 0x2DF JUMPI DUP3 MLOAD DUP3 SSTORE SWAP2 PUSH1 0x20 ADD SWAP2 SWAP1 PUSH1 0x1 ADD SWAP1 PUSH2 0x2C4 JUMP JUMPDEST JUMPDEST POP SWAP1 POP PUSH2 0x2ED SWAP2 SWAP1 PUSH2 0x2F1 JUMP JUMPDEST POP SWAP1 JUMP JUMPDEST JUMPDEST DUP1 DUP3 GT ISZERO PUSH2 0x30A JUMPI PUSH1 0x0 DUP2 PUSH1 0x0 SWAP1 SSTORE POP PUSH1 0x1 ADD PUSH2 0x2F2 JUMP JUMPDEST POP SWAP1 JUMP JUMPDEST PUSH1 0x0 PUSH2 0x321 PUSH2 0x31C DUP5 PUSH2 0x54F JUMP JUMPDEST PUSH2 0x52A JUMP JUMPDEST SWAP1 POP DUP3 DUP2 MSTORE PUSH1 0x20 DUP2 ADD DUP5 DUP5 DUP5 ADD GT ISZERO PUSH2 0x33D JUMPI PUSH2 0x33C PUSH2 0x8D3 JUMP JUMPDEST JUMPDEST PUSH2 0x348 DUP5 DUP3 DUP6 PUSH2 0x76D JUMP JUMPDEST POP SWAP4 SWAP3 POP POP POP JUMP JUMPDEST PUSH1 0x0 DUP3 PUSH1 0x1F DUP4 ADD SLT PUSH2 0x365 JUMPI PUSH2 0x364 PUSH2 0x8CE JUMP JUMPDEST JUMPDEST DUP2 CALLDATALOAD PUSH2 0x375 DUP5 DUP3 PUSH1 0x20 DUP7 ADD PUSH2 0x30E JUMP JUMPDEST SWAP2 POP POP SWAP3 SWAP2 POP POP JUMP JUMPDEST PUSH1 0x0 DUP2 CALLDATALOAD SWAP1 POP PUSH2 0x38D DUP2 PUSH2 0x900 JUMP JUMPDEST SWAP3 SWAP2 POP POP JUMP JUMPDEST PUSH1 0x0 PUSH1 0x20 DUP3 DUP5 SUB SLT ISZERO PUSH2 0x3A9 JUMPI PUSH2 0x3A8 PUSH2 0x8DD JUMP JUMPDEST JUMPDEST PUSH1 0x0 DUP3 ADD CALLDATALOAD PUSH8 0xFFFFFFFFFFFFFFFF DUP2 GT ISZERO PUSH2 0x3C7 JUMPI PUSH2 0x3C6 PUSH2 0x8D8 JUMP JUMPDEST JUMPDEST PUSH2 0x3D3 DUP5 DUP3 DUP6 ADD PUSH2 0x350 JUMP JUMPDEST SWAP2 POP POP SWAP3 SWAP2 POP POP JUMP JUMPDEST PUSH1 0x0 DUP1 PUSH1 0x40 DUP4 DUP6 SUB SLT ISZERO PUSH2 0x3F3 JUMPI PUSH2 0x3F2 PUSH2 0x8DD JUMP JUMPDEST JUMPDEST PUSH1 0x0 DUP4 ADD CALLDATALOAD PUSH8 0xFFFFFFFFFFFFFFFF DUP2 GT ISZERO PUSH2 0x411 JUMPI PUSH2 0x410 PUSH2 0x8D8 JUMP JUMPDEST JUMPDEST PUSH2 0x41D DUP6 DUP3 DUP7 ADD PUSH2 0x350 JUMP JUMPDEST SWAP3 POP POP PUSH1 0x20 PUSH2 0x42E DUP6 DUP3 DUP7 ADD PUSH2 0x37E JUMP JUMPDEST SWAP2 POP POP SWAP3 POP SWAP3 SWAP1 POP JUMP JUMPDEST PUSH1 0x0 PUSH1 0x20 DUP3 DUP5 SUB SLT ISZERO PUSH2 0x44E JUMPI PUSH2 0x44D PUSH2 0x8DD JUMP JUMPDEST JUMPDEST PUSH1 0x0 PUSH2 0x45C DUP5 DUP3 DUP6 ADD PUSH2 0x37E JUMP JUMPDEST SWAP2 POP POP SWAP3 SWAP2 POP POP JUMP JUMPDEST PUSH1 0x0 DUP1 PUSH1 0x40 DUP4 DUP6 SUB SLT ISZERO PUSH2 0x47C JUMPI PUSH2 0x47B PUSH2 0x8DD JUMP JUMPDEST JUMPDEST PUSH1 0x0 PUSH2 0x48A DUP6 DUP3 DUP7 ADD PUSH2 0x37E JUMP JUMPDEST SWAP3 POP POP PUSH1 0x20 PUSH2 0x49B DUP6 DUP3 DUP7 ADD PUSH2 0x37E JUMP JUMPDEST SWAP2 POP POP SWAP3 POP SWAP3 SWAP1 POP JUMP JUMPDEST PUSH1 0x0 PUSH2 0x4B0 DUP3 PUSH2 0x580 JUMP JUMPDEST PUSH2 0x4BA DUP2 DUP6 PUSH2 0x58B JUMP JUMPDEST SWAP4 POP PUSH2 0x4CA DUP2 DUP6 PUSH1 0x20 DUP7 ADD PUSH2 0x77C JUMP JUMPDEST PUSH2 0x4D3 DUP2 PUSH2 0x8E2 JUMP JUMPDEST DUP5 ADD SWAP2 POP POP SWAP3 SWAP2 POP POP JUMP JUMPDEST PUSH2 0x4E7 DUP2 PUSH2 0x763 JUMP JUMPDEST DUP3 MSTORE POP POP JUMP JUMPDEST PUSH1 0x0 PUSH1 0x20 DUP3 ADD SWAP1 POP DUP2 DUP2 SUB PUSH1 0x0 DUP4 ADD MSTORE PUSH2 0x507 DUP2 DUP5 PUSH2 0x4A5 JUMP JUMPDEST SWAP1 POP SWAP3 SWAP2 POP POP JUMP JUMPDEST PUSH1 0x0 PUSH1 0x20 DUP3 ADD SWAP1 POP PUSH2 0x524 PUSH1 0x0 DUP4 ADD DUP5 PUSH2 0x4DE JUMP JUMPDEST SWAP3 SWAP2 POP POP JUMP JUMPDEST PUSH1 0x0 PUSH2 0x534 PUSH2 0x545 JUMP JUMPDEST SWAP1 POP PUSH2 0x540 DUP3 DUP3 PUSH2 0x7E1 JUMP JUMPDEST SWAP2 SWAP1 POP JUMP JUMPDEST PUSH1 0x0 PUSH1 0x40 MLOAD SWAP1 POP SWAP1 JUMP JUMPDEST PUSH1 0x0 PUSH8 0xFFFFFFFFFFFFFFFF DUP3 GT ISZERO PUSH2 0x56A JUMPI PUSH2 0x569 PUSH2 0x89F JUMP JUMPDEST JUMPDEST PUSH2 0x573 DUP3 PUSH2 0x8E2 JUMP JUMPDEST SWAP1 POP PUSH1 0x20 DUP2 ADD SWAP1 POP SWAP2 SWAP1 POP JUMP JUMPDEST PUSH1 0x0 DUP2 MLOAD SWAP1 POP SWAP2 SWAP1 POP JUMP JUMPDEST PUSH1 0x0 DUP3 DUP3 MSTORE PUSH1 0x20 DUP3 ADD SWAP1 POP SWAP3 SWAP2 POP POP JUMP JUMPDEST PUSH1 0x0 PUSH2 0x5A7 DUP3 PUSH2 0x763 JUMP JUMPDEST SWAP2 POP PUSH2 0x5B2 DUP4 PUSH2 0x763 JUMP JUMPDEST SWAP3 POP DUP3 PUSH32 0xFFFFFFFFFFFFFFFFFFFFFFFFFFFFFFFFFFFFFFFFFFFFFFFFFFFFFFFFFFFFFFFF SUB DUP3 GT ISZERO PUSH2 0x5E7 JUMPI PUSH2 0x5E6 PUSH2 0x812 JUMP JUMPDEST JUMPDEST DUP3 DUP3 ADD SWAP1 POP SWAP3 SWAP2 POP POP JUMP JUMPDEST PUSH1 0x0 DUP1 DUP3 SWAP2 POP DUP4 SWAP1 POP JUMPDEST PUSH1 0x1 DUP6 GT ISZERO PUSH2 0x63C JUMPI DUP1 DUP7 DIV DUP2 GT ISZERO PUSH2 0x618 JUMPI PUSH2 0x617 PUSH2 0x812 JUMP JUMPDEST JUMPDEST PUSH1 0x1 DUP6 AND ISZERO PUSH2 0x627 JUMPI DUP1 DUP3 MUL SWAP2 POP JUMPDEST DUP1 DUP2 MUL SWAP1 POP PUSH2 0x635 DUP6 PUSH2 0x8F3 JUMP JUMPDEST SWAP5 POP PUSH2 0x5FC JUMP JUMPDEST SWAP5 POP SWAP5 SWAP3 POP POP POP JUMP JUMPDEST PUSH1 0x0 PUSH2 0x650 DUP3 PUSH2 0x763 JUMP JUMPDEST SWAP2 POP PUSH2 0x65B DUP4 PUSH2 0x763 JUMP JUMPDEST SWAP3 POP PUSH2 0x688 PUSH32 0xFFFFFFFFFFFFFFFFFFFFFFFFFFFFFFFFFFFFFFFFFFFFFFFFFFFFFFFFFFFFFFFF DUP5 DUP5 PUSH2 0x690 JUMP JUMPDEST SWAP1 POP SWAP3 SWAP2 POP POP JUMP JUMPDEST PUSH1 0x0 DUP3 PUSH2 0x6A0 JUMPI PUSH1 0x1 SWAP1 POP PUSH2 0x75C JUMP JUMPDEST DUP2 PUSH2 0x6AE JUMPI PUSH1 0x0 SWAP1 POP PUSH2 0x75C JUMP JUMPDEST DUP2 PUSH1 0x1 DUP2 EQ PUSH2 0x6C4 JUMPI PUSH1 0x2 DUP2 EQ PUSH2 0x6CE JUMPI PUSH2 0x6FD JUMP JUMPDEST PUSH1 0x1 SWAP2 POP POP PUSH2 0x75C JUMP JUMPDEST PUSH1 0xFF DUP5 GT ISZERO PUSH2 0x6E0 JUMPI PUSH2 0x6DF PUSH2 0x812 JUMP JUMPDEST JUMPDEST DUP4 PUSH1 0x2 EXP SWAP2 POP DUP5 DUP3 GT ISZERO PUSH2 0x6F7 JUMPI PUSH2 0x6F6 PUSH2 0x812 JUMP JUMPDEST JUMPDEST POP PUSH2 0x75C JUMP JUMPDEST POP PUSH1 0x20 DUP4 LT PUSH2 0x133 DUP4 LT AND PUSH1 0x4E DUP5 LT PUSH1 0xB DUP5 LT AND OR ISZERO PUSH2 0x732 JUMPI DUP3 DUP3 EXP SWAP1 POP DUP4 DUP2 GT ISZERO PUSH2 0x72D JUMPI PUSH2 0x72C PUSH2 0x812 JUMP JUMPDEST JUMPDEST PUSH2 0x75C JUMP JUMPDEST PUSH2 0x73F DUP5 DUP5 DUP5 PUSH1 0x1 PUSH2 0x5F2 JUMP JUMPDEST SWAP3 POP SWAP1 POP DUP2 DUP5 DIV DUP2 GT ISZERO PUSH2 0x756 JUMPI PUSH2 0x755 PUSH2 0x812 JUMP JUMPDEST JUMPDEST DUP2 DUP2 MUL SWAP1 POP JUMPDEST SWAP4 SWAP3 POP POP POP JUMP JUMPDEST PUSH1 0x0 DUP2 SWAP1 POP SWAP2 SWAP1 POP JUMP JUMPDEST DUP3 DUP2 DUP4 CALLDATACOPY PUSH1 0x0 DUP4 DUP4 ADD MSTORE POP POP POP JUMP JUMPDEST PUSH1 0x0 JUMPDEST DUP4 DUP2 LT ISZERO PUSH2 0x79A JUMPI DUP1 DUP3 ADD MLOAD DUP2 DUP5 ADD MSTORE PUSH1 0x20 DUP2 ADD SWAP1 POP PUSH2 0x77F JUMP JUMPDEST DUP4 DUP2 GT ISZERO PUSH2 0x7A9 JUMPI PUSH1 0x0 DUP5 DUP5 ADD MSTORE JUMPDEST POP POP POP POP JUMP JUMPDEST PUSH1 0x0 PUSH1 0x2 DUP3 DIV SWAP1 POP PUSH1 0x1 DUP3 AND DUP1 PUSH2 0x7C7 JUMPI PUSH1 0x7F DUP3 AND SWAP2 POP JUMPDEST PUSH1 0x20 DUP3 LT DUP2 EQ ISZERO PUSH2 0x7DB JUMPI PUSH2 0x7DA PUSH2 0x841 JUMP JUMPDEST JUMPDEST POP SWAP2 SWAP1 POP JUMP JUMPDEST PUSH2 0x7EA DUP3 PUSH2 0x8E2 JUMP JUMPDEST DUP2 ADD DUP2 DUP2 LT PUSH8 0xFFFFFFFFFFFFFFFF DUP3 GT OR ISZERO PUSH2 0x809 JUMPI PUSH2 0x808 PUSH2 0x89F JUMP JUMPDEST JUMPDEST DUP1 PUSH1 0x40 MSTORE POP POP POP JUMP JUMPDEST PUSH32 0x4E487B7100000000000000000000000000000000000000000000000000000000 PUSH1 0x0 MSTORE PUSH1 0x11 PUSH1 0x4 MSTORE PUSH1 0x24 PUSH1 0x0 REVERT JUMPDEST PUSH32 0x4E487B7100000000000000000000000000000000000000000000000000000000 PUSH1 0x0 MSTORE PUSH1 0x22 PUSH1 0x4 MSTORE PUSH1 0x24 PUSH1 0x0 REVERT JUMPDEST PUSH32 0x4E487B7100000000000000000000000000000000000000000000000000000000 PUSH1 0x0 MSTORE PUSH1 0x32 PUSH1 0x4 MSTORE PUSH1 0x24 PUSH1 0x0 REVERT JUMPDEST PUSH32 0x4E487B7100000000000000000000000000000000000000000000000000000000 PUSH1 0x0 MSTORE PUSH1 0x41 PUSH1 0x4 MSTORE PUSH1 0x24 PUSH1 0x0 REVERT JUMPDEST PUSH1 0x0 DUP1 REVERT JUMPDEST PUSH1 0x0 DUP1 REVERT JUMPDEST PUSH1 0x0 DUP1 REVERT JUMPDEST PUSH1 0x0 DUP1 REVERT JUMPDEST PUSH1 0x0 PUSH1 0x1F NOT PUSH1 0x1F DUP4 ADD AND SWAP1 POP SWAP2 SWAP1 POP JUMP JUMPDEST PUSH1 0x0 DUP2 PUSH1 0x1 SHR SWAP1 POP SWAP2 SWAP1 POP JUMP JUMPDEST PUSH2 0x909 DUP2 PUSH2 0x763 JUMP JUMPDEST DUP2 EQ PUSH2 0x914 JUMPI PUSH1 0x0 DUP1 REVERT JUMPDEST POP JUMP INVALID LOG2 PUSH5 0x6970667358 0x22 SLT KECCAK256 0xBE NOT SWAP6 PUSH11 0x639E5D48B6AB636AC18145 PUSH1 0x8D 0xDA 0x25 0xF LOG2 PUSH19 0x471179F13147AA2E584364736F6C6343000806 STOP CALLER "
				},
				"gasEstimates": {
					"creation": {
						"codeDepositCost": "476200",
						"executionCost": "22617",
						"totalCost": "498817"
					},
					"external": {
						"getAlumno(uint256)": "infinite",
						"nuevoAlumno(string)": "infinite",
						"pagar(string,uint256)": "infinite",
						"potencia(uint256,uint256)": "infinite",
						"sumTox(uint256)": "infinite"
					}
				},
				"methodIdentifiers": {
					"getAlumno(uint256)": "199c937b",
					"nuevoAlumno(string)": "7da5096b",
					"pagar(string,uint256)": "ce574a6d",
					"potencia(uint256,uint256)": "29137cc3",
					"sumTox(uint256)": "13bd6e3c"
				}
			},
			"storageLayout": {
				"storage": [
					{
						"astId": 4,
						"contract": "modificadores.sol:ModificadoresFunciones",
						"label": "lista_estudiantes",
						"offset": 0,
						"slot": "0",
						"type": "t_array(t_string_storage)dyn_storage"
					},
					{
						"astId": 31,
						"contract": "modificadores.sol:ModificadoresFunciones",
						"label": "x",
						"offset": 0,
						"slot": "1",
						"type": "t_uint256"
					},
					{
						"astId": 62,
						"contract": "modificadores.sol:ModificadoresFunciones",
						"label": "saldoBilletera",
						"offset": 0,
						"slot": "2",
						"type": "t_mapping(t_address,t_struct(billetera)69_storage)"
					}
				],
				"types": {
					"t_address": {
						"encoding": "inplace",
						"label": "address",
						"numberOfBytes": "20"
					},
					"t_array(t_string_storage)dyn_storage": {
						"base": "t_string_storage",
						"encoding": "dynamic_array",
						"label": "string[]",
						"numberOfBytes": "32"
					},
					"t_mapping(t_address,t_struct(billetera)69_storage)": {
						"encoding": "mapping",
						"key": "t_address",
						"label": "mapping(address => struct ModificadoresFunciones.billetera)",
						"numberOfBytes": "32",
						"value": "t_struct(billetera)69_storage"
					},
					"t_string_storage": {
						"encoding": "bytes",
						"label": "string",
						"numberOfBytes": "32"
					},
					"t_struct(billetera)69_storage": {
						"encoding": "inplace",
						"label": "struct ModificadoresFunciones.billetera",
						"members": [
							{
								"astId": 64,
								"contract": "modificadores.sol:ModificadoresFunciones",
								"label": "nombre",
								"offset": 0,
								"slot": "0",
								"type": "t_string_storage"
							},
							{
								"astId": 66,
								"contract": "modificadores.sol:ModificadoresFunciones",
								"label": "direccion",
								"offset": 0,
								"slot": "1",
								"type": "t_address"
							},
							{
								"astId": 68,
								"contract": "modificadores.sol:ModificadoresFunciones",
								"label": "saldo",
								"offset": 0,
								"slot": "2",
								"type": "t_uint256"
							}
						],
						"numberOfBytes": "96"
					},
					"t_uint256": {
						"encoding": "inplace",
						"label": "uint256",
						"numberOfBytes": "32"
					}
				}
			},
			"userdoc": {
				"kind": "user",
				"methods": {},
				"version": 1
			}
		}
	}
}