{
	"Funciones/eventos.sol": {
		"Eventos": {
			"abi": [
				{
					"anonymous": false,
					"inputs": [
						{
							"indexed": false,
							"internalType": "string",
							"name": "_nombrePersona",
							"type": "string"
						}
					],
					"name": "evento1",
					"type": "event"
				},
				{
					"anonymous": false,
					"inputs": [
						{
							"indexed": false,
							"internalType": "string",
							"name": "_nombrePersona",
							"type": "string"
						},
						{
							"indexed": false,
							"internalType": "uint256",
							"name": "_edadPersona",
							"type": "uint256"
						}
					],
					"name": "evento2",
					"type": "event"
				},
				{
					"anonymous": false,
					"inputs": [
						{
							"indexed": false,
							"internalType": "string",
							"name": "",
							"type": "string"
						},
						{
							"indexed": false,
							"internalType": "uint256",
							"name": "",
							"type": "uint256"
						},
						{
							"indexed": false,
							"internalType": "address",
							"name": "",
							"type": "address"
						},
						{
							"indexed": false,
							"internalType": "bytes32",
							"name": "",
							"type": "bytes32"
						}
					],
					"name": "evento3",
					"type": "event"
				},
				{
					"inputs": [
						{
							"internalType": "string",
							"name": "_nombrePersona",
							"type": "string"
						}
					],
					"name": "emitirEvento1",
					"outputs": [],
					"stateMutability": "nonpayable",
					"type": "function"
				},
				{
					"inputs": [
						{
							"internalType": "string",
							"name": "_nombrePersona",
							"type": "string"
						},
						{
							"internalType": "uint256",
							"name": "_edadPersona",
							"type": "uint256"
						}
					],
					"name": "emitirEvento2",
					"outputs": [],
					"stateMutability": "nonpayable",
					"type": "function"
				}
			],
			"devdoc": {
				"kind": "dev",
				"methods": {},
				"version": 1
			},
			"evm": {
				"assembly": "    /* \"Funciones/eventos.sol\":33:508  contract Eventos {... */\n  mstore(0x40, 0x80)\n  callvalue\n  dup1\n  iszero\n  tag_1\n  jumpi\n  0x00\n  dup1\n  revert\ntag_1:\n  pop\n  dataSize(sub_0)\n  dup1\n  dataOffset(sub_0)\n  0x00\n  codecopy\n  0x00\n  return\nstop\n\nsub_0: assembly {\n        /* \"Funciones/eventos.sol\":33:508  contract Eventos {... */\n      mstore(0x40, 0x80)\n      callvalue\n      dup1\n      iszero\n      tag_1\n      jumpi\n      0x00\n      dup1\n      revert\n    tag_1:\n      pop\n      jumpi(tag_2, lt(calldatasize, 0x04))\n      shr(0xe0, calldataload(0x00))\n      dup1\n      0x7cf1103d\n      eq\n      tag_3\n      jumpi\n      dup1\n      0x7f4f0f35\n      eq\n      tag_4\n      jumpi\n    tag_2:\n      0x00\n      dup1\n      revert\n        /* \"Funciones/eventos.sol\":256:361  function emitirEvento1(string memory _nombrePersona) public {... */\n    tag_3:\n      tag_5\n      0x04\n      dup1\n      calldatasize\n      sub\n      dup2\n      add\n      swap1\n      tag_6\n      swap2\n      swap1\n      tag_7\n      jump\t// in\n    tag_6:\n      tag_8\n      jump\t// in\n    tag_5:\n      stop\n        /* \"Funciones/eventos.sol\":367:505  function emitirEvento2(string memory _nombrePersona, uint _edadPersona) public {... */\n    tag_4:\n      tag_9\n      0x04\n      dup1\n      calldatasize\n      sub\n      dup2\n      add\n      swap1\n      tag_10\n      swap2\n      swap1\n      tag_11\n      jump\t// in\n    tag_10:\n      tag_12\n      jump\t// in\n    tag_9:\n      stop\n        /* \"Funciones/eventos.sol\":256:361  function emitirEvento1(string memory _nombrePersona) public {... */\n    tag_8:\n        /* \"Funciones/eventos.sol\":331:354  evento1(_nombrePersona) */\n      0xbb9feca183dbd63d27399e01607802b8663d1c6d1b7a331ed919063ea22675a2\n        /* \"Funciones/eventos.sol\":339:353  _nombrePersona */\n      dup2\n        /* \"Funciones/eventos.sol\":331:354  evento1(_nombrePersona) */\n      mload(0x40)\n      tag_14\n      swap2\n      swap1\n      tag_15\n      jump\t// in\n    tag_14:\n      mload(0x40)\n      dup1\n      swap2\n      sub\n      swap1\n      log1\n        /* \"Funciones/eventos.sol\":256:361  function emitirEvento1(string memory _nombrePersona) public {... */\n      pop\n      jump\t// out\n        /* \"Funciones/eventos.sol\":367:505  function emitirEvento2(string memory _nombrePersona, uint _edadPersona) public {... */\n    tag_12:\n        /* \"Funciones/eventos.sol\":461:498  evento2(_nombrePersona, _edadPersona) */\n      0x2abcdd8402d13cddfdae95d2581c51409054966b88de81287628c3e06235d8b0\n        /* \"Funciones/eventos.sol\":469:483  _nombrePersona */\n      dup3\n        /* \"Funciones/eventos.sol\":485:497  _edadPersona */\n      dup3\n        /* \"Funciones/eventos.sol\":461:498  evento2(_nombrePersona, _edadPersona) */\n      mload(0x40)\n      tag_17\n      swap3\n      swap2\n      swap1\n      tag_18\n      jump\t// in\n    tag_17:\n      mload(0x40)\n      dup1\n      swap2\n      sub\n      swap1\n      log1\n        /* \"Funciones/eventos.sol\":367:505  function emitirEvento2(string memory _nombrePersona, uint _edadPersona) public {... */\n      pop\n      pop\n      jump\t// out\n        /* \"#utility.yul\":7:419   */\n    tag_20:\n        /* \"#utility.yul\":85:90   */\n      0x00\n        /* \"#utility.yul\":110:176   */\n      tag_22\n        /* \"#utility.yul\":126:175   */\n      tag_23\n        /* \"#utility.yul\":168:174   */\n      dup5\n        /* \"#utility.yul\":126:175   */\n      tag_24\n      jump\t// in\n    tag_23:\n        /* \"#utility.yul\":110:176   */\n      tag_25\n      jump\t// in\n    tag_22:\n        /* \"#utility.yul\":101:176   */\n      swap1\n      pop\n        /* \"#utility.yul\":199:205   */\n      dup3\n        /* \"#utility.yul\":192:197   */\n      dup2\n        /* \"#utility.yul\":185:206   */\n      mstore\n        /* \"#utility.yul\":237:241   */\n      0x20\n        /* \"#utility.yul\":230:235   */\n      dup2\n        /* \"#utility.yul\":226:242   */\n      add\n        /* \"#utility.yul\":275:278   */\n      dup5\n        /* \"#utility.yul\":266:272   */\n      dup5\n        /* \"#utility.yul\":261:264   */\n      dup5\n        /* \"#utility.yul\":257:273   */\n      add\n        /* \"#utility.yul\":254:279   */\n      gt\n        /* \"#utility.yul\":251:253   */\n      iszero\n      tag_26\n      jumpi\n        /* \"#utility.yul\":282:361   */\n      tag_27\n      tag_28\n      jump\t// in\n    tag_27:\n        /* \"#utility.yul\":251:253   */\n    tag_26:\n        /* \"#utility.yul\":372:413   */\n      tag_29\n        /* \"#utility.yul\":406:412   */\n      dup5\n        /* \"#utility.yul\":401:404   */\n      dup3\n        /* \"#utility.yul\":396:399   */\n      dup6\n        /* \"#utility.yul\":372:413   */\n      tag_30\n      jump\t// in\n    tag_29:\n        /* \"#utility.yul\":91:419   */\n      pop\n      swap4\n      swap3\n      pop\n      pop\n      pop\n      jump\t// out\n        /* \"#utility.yul\":439:779   */\n    tag_31:\n        /* \"#utility.yul\":495:500   */\n      0x00\n        /* \"#utility.yul\":544:547   */\n      dup3\n        /* \"#utility.yul\":537:541   */\n      0x1f\n        /* \"#utility.yul\":529:535   */\n      dup4\n        /* \"#utility.yul\":525:542   */\n      add\n        /* \"#utility.yul\":521:548   */\n      slt\n        /* \"#utility.yul\":511:513   */\n      tag_33\n      jumpi\n        /* \"#utility.yul\":552:631   */\n      tag_34\n      tag_35\n      jump\t// in\n    tag_34:\n        /* \"#utility.yul\":511:513   */\n    tag_33:\n        /* \"#utility.yul\":669:675   */\n      dup2\n        /* \"#utility.yul\":656:676   */\n      calldataload\n        /* \"#utility.yul\":694:773   */\n      tag_36\n        /* \"#utility.yul\":769:772   */\n      dup5\n        /* \"#utility.yul\":761:767   */\n      dup3\n        /* \"#utility.yul\":754:758   */\n      0x20\n        /* \"#utility.yul\":746:752   */\n      dup7\n        /* \"#utility.yul\":742:759   */\n      add\n        /* \"#utility.yul\":694:773   */\n      tag_20\n      jump\t// in\n    tag_36:\n        /* \"#utility.yul\":685:773   */\n      swap2\n      pop\n        /* \"#utility.yul\":501:779   */\n      pop\n      swap3\n      swap2\n      pop\n      pop\n      jump\t// out\n        /* \"#utility.yul\":785:924   */\n    tag_37:\n        /* \"#utility.yul\":831:836   */\n      0x00\n        /* \"#utility.yul\":869:875   */\n      dup2\n        /* \"#utility.yul\":856:876   */\n      calldataload\n        /* \"#utility.yul\":847:876   */\n      swap1\n      pop\n        /* \"#utility.yul\":885:918   */\n      tag_39\n        /* \"#utility.yul\":912:917   */\n      dup2\n        /* \"#utility.yul\":885:918   */\n      tag_40\n      jump\t// in\n    tag_39:\n        /* \"#utility.yul\":837:924   */\n      swap3\n      swap2\n      pop\n      pop\n      jump\t// out\n        /* \"#utility.yul\":930:1439   */\n    tag_7:\n        /* \"#utility.yul\":999:1005   */\n      0x00\n        /* \"#utility.yul\":1048:1050   */\n      0x20\n        /* \"#utility.yul\":1036:1045   */\n      dup3\n        /* \"#utility.yul\":1027:1034   */\n      dup5\n        /* \"#utility.yul\":1023:1046   */\n      sub\n        /* \"#utility.yul\":1019:1051   */\n      slt\n        /* \"#utility.yul\":1016:1018   */\n      iszero\n      tag_42\n      jumpi\n        /* \"#utility.yul\":1054:1133   */\n      tag_43\n      tag_44\n      jump\t// in\n    tag_43:\n        /* \"#utility.yul\":1016:1018   */\n    tag_42:\n        /* \"#utility.yul\":1202:1203   */\n      0x00\n        /* \"#utility.yul\":1191:1200   */\n      dup3\n        /* \"#utility.yul\":1187:1204   */\n      add\n        /* \"#utility.yul\":1174:1205   */\n      calldataload\n        /* \"#utility.yul\":1232:1250   */\n      0xffffffffffffffff\n        /* \"#utility.yul\":1224:1230   */\n      dup2\n        /* \"#utility.yul\":1221:1251   */\n      gt\n        /* \"#utility.yul\":1218:1220   */\n      iszero\n      tag_45\n      jumpi\n        /* \"#utility.yul\":1254:1333   */\n      tag_46\n      tag_47\n      jump\t// in\n    tag_46:\n        /* \"#utility.yul\":1218:1220   */\n    tag_45:\n        /* \"#utility.yul\":1359:1422   */\n      tag_48\n        /* \"#utility.yul\":1414:1421   */\n      dup5\n        /* \"#utility.yul\":1405:1411   */\n      dup3\n        /* \"#utility.yul\":1394:1403   */\n      dup6\n        /* \"#utility.yul\":1390:1412   */\n      add\n        /* \"#utility.yul\":1359:1422   */\n      tag_31\n      jump\t// in\n    tag_48:\n        /* \"#utility.yul\":1349:1422   */\n      swap2\n      pop\n        /* \"#utility.yul\":1145:1432   */\n      pop\n        /* \"#utility.yul\":1006:1439   */\n      swap3\n      swap2\n      pop\n      pop\n      jump\t// out\n        /* \"#utility.yul\":1445:2099   */\n    tag_11:\n        /* \"#utility.yul\":1523:1529   */\n      0x00\n        /* \"#utility.yul\":1531:1537   */\n      dup1\n        /* \"#utility.yul\":1580:1582   */\n      0x40\n        /* \"#utility.yul\":1568:1577   */\n      dup4\n        /* \"#utility.yul\":1559:1566   */\n      dup6\n        /* \"#utility.yul\":1555:1578   */\n      sub\n        /* \"#utility.yul\":1551:1583   */\n      slt\n        /* \"#utility.yul\":1548:1550   */\n      iszero\n      tag_50\n      jumpi\n        /* \"#utility.yul\":1586:1665   */\n      tag_51\n      tag_44\n      jump\t// in\n    tag_51:\n        /* \"#utility.yul\":1548:1550   */\n    tag_50:\n        /* \"#utility.yul\":1734:1735   */\n      0x00\n        /* \"#utility.yul\":1723:1732   */\n      dup4\n        /* \"#utility.yul\":1719:1736   */\n      add\n        /* \"#utility.yul\":1706:1737   */\n      calldataload\n        /* \"#utility.yul\":1764:1782   */\n      0xffffffffffffffff\n        /* \"#utility.yul\":1756:1762   */\n      dup2\n        /* \"#utility.yul\":1753:1783   */\n      gt\n        /* \"#utility.yul\":1750:1752   */\n      iszero\n      tag_52\n      jumpi\n        /* \"#utility.yul\":1786:1865   */\n      tag_53\n      tag_47\n      jump\t// in\n    tag_53:\n        /* \"#utility.yul\":1750:1752   */\n    tag_52:\n        /* \"#utility.yul\":1891:1954   */\n      tag_54\n        /* \"#utility.yul\":1946:1953   */\n      dup6\n        /* \"#utility.yul\":1937:1943   */\n      dup3\n        /* \"#utility.yul\":1926:1935   */\n      dup7\n        /* \"#utility.yul\":1922:1944   */\n      add\n        /* \"#utility.yul\":1891:1954   */\n      tag_31\n      jump\t// in\n    tag_54:\n        /* \"#utility.yul\":1881:1954   */\n      swap3\n      pop\n        /* \"#utility.yul\":1677:1964   */\n      pop\n        /* \"#utility.yul\":2003:2005   */\n      0x20\n        /* \"#utility.yul\":2029:2082   */\n      tag_55\n        /* \"#utility.yul\":2074:2081   */\n      dup6\n        /* \"#utility.yul\":2065:2071   */\n      dup3\n        /* \"#utility.yul\":2054:2063   */\n      dup7\n        /* \"#utility.yul\":2050:2072   */\n      add\n        /* \"#utility.yul\":2029:2082   */\n      tag_37\n      jump\t// in\n    tag_55:\n        /* \"#utility.yul\":2019:2082   */\n      swap2\n      pop\n        /* \"#utility.yul\":1974:2092   */\n      pop\n        /* \"#utility.yul\":1538:2099   */\n      swap3\n      pop\n      swap3\n      swap1\n      pop\n      jump\t// out\n        /* \"#utility.yul\":2105:2469   */\n    tag_56:\n        /* \"#utility.yul\":2193:2196   */\n      0x00\n        /* \"#utility.yul\":2221:2260   */\n      tag_58\n        /* \"#utility.yul\":2254:2259   */\n      dup3\n        /* \"#utility.yul\":2221:2260   */\n      tag_59\n      jump\t// in\n    tag_58:\n        /* \"#utility.yul\":2276:2347   */\n      tag_60\n        /* \"#utility.yul\":2340:2346   */\n      dup2\n        /* \"#utility.yul\":2335:2338   */\n      dup6\n        /* \"#utility.yul\":2276:2347   */\n      tag_61\n      jump\t// in\n    tag_60:\n        /* \"#utility.yul\":2269:2347   */\n      swap4\n      pop\n        /* \"#utility.yul\":2356:2408   */\n      tag_62\n        /* \"#utility.yul\":2401:2407   */\n      dup2\n        /* \"#utility.yul\":2396:2399   */\n      dup6\n        /* \"#utility.yul\":2389:2393   */\n      0x20\n        /* \"#utility.yul\":2382:2387   */\n      dup7\n        /* \"#utility.yul\":2378:2394   */\n      add\n        /* \"#utility.yul\":2356:2408   */\n      tag_63\n      jump\t// in\n    tag_62:\n        /* \"#utility.yul\":2433:2462   */\n      tag_64\n        /* \"#utility.yul\":2455:2461   */\n      dup2\n        /* \"#utility.yul\":2433:2462   */\n      tag_65\n      jump\t// in\n    tag_64:\n        /* \"#utility.yul\":2428:2431   */\n      dup5\n        /* \"#utility.yul\":2424:2463   */\n      add\n        /* \"#utility.yul\":2417:2463   */\n      swap2\n      pop\n        /* \"#utility.yul\":2197:2469   */\n      pop\n      swap3\n      swap2\n      pop\n      pop\n      jump\t// out\n        /* \"#utility.yul\":2475:2593   */\n    tag_66:\n        /* \"#utility.yul\":2562:2586   */\n      tag_68\n        /* \"#utility.yul\":2580:2585   */\n      dup2\n        /* \"#utility.yul\":2562:2586   */\n      tag_69\n      jump\t// in\n    tag_68:\n        /* \"#utility.yul\":2557:2560   */\n      dup3\n        /* \"#utility.yul\":2550:2587   */\n      mstore\n        /* \"#utility.yul\":2540:2593   */\n      pop\n      pop\n      jump\t// out\n        /* \"#utility.yul\":2599:2912   */\n    tag_15:\n        /* \"#utility.yul\":2712:2716   */\n      0x00\n        /* \"#utility.yul\":2750:2752   */\n      0x20\n        /* \"#utility.yul\":2739:2748   */\n      dup3\n        /* \"#utility.yul\":2735:2753   */\n      add\n        /* \"#utility.yul\":2727:2753   */\n      swap1\n      pop\n        /* \"#utility.yul\":2799:2808   */\n      dup2\n        /* \"#utility.yul\":2793:2797   */\n      dup2\n        /* \"#utility.yul\":2789:2809   */\n      sub\n        /* \"#utility.yul\":2785:2786   */\n      0x00\n        /* \"#utility.yul\":2774:2783   */\n      dup4\n        /* \"#utility.yul\":2770:2787   */\n      add\n        /* \"#utility.yul\":2763:2810   */\n      mstore\n        /* \"#utility.yul\":2827:2905   */\n      tag_71\n        /* \"#utility.yul\":2900:2904   */\n      dup2\n        /* \"#utility.yul\":2891:2897   */\n      dup5\n        /* \"#utility.yul\":2827:2905   */\n      tag_56\n      jump\t// in\n    tag_71:\n        /* \"#utility.yul\":2819:2905   */\n      swap1\n      pop\n        /* \"#utility.yul\":2717:2912   */\n      swap3\n      swap2\n      pop\n      pop\n      jump\t// out\n        /* \"#utility.yul\":2918:3341   */\n    tag_18:\n        /* \"#utility.yul\":3059:3063   */\n      0x00\n        /* \"#utility.yul\":3097:3099   */\n      0x40\n        /* \"#utility.yul\":3086:3095   */\n      dup3\n        /* \"#utility.yul\":3082:3100   */\n      add\n        /* \"#utility.yul\":3074:3100   */\n      swap1\n      pop\n        /* \"#utility.yul\":3146:3155   */\n      dup2\n        /* \"#utility.yul\":3140:3144   */\n      dup2\n        /* \"#utility.yul\":3136:3156   */\n      sub\n        /* \"#utility.yul\":3132:3133   */\n      0x00\n        /* \"#utility.yul\":3121:3130   */\n      dup4\n        /* \"#utility.yul\":3117:3134   */\n      add\n        /* \"#utility.yul\":3110:3157   */\n      mstore\n        /* \"#utility.yul\":3174:3252   */\n      tag_73\n        /* \"#utility.yul\":3247:3251   */\n      dup2\n        /* \"#utility.yul\":3238:3244   */\n      dup6\n        /* \"#utility.yul\":3174:3252   */\n      tag_56\n      jump\t// in\n    tag_73:\n        /* \"#utility.yul\":3166:3252   */\n      swap1\n      pop\n        /* \"#utility.yul\":3262:3334   */\n      tag_74\n        /* \"#utility.yul\":3330:3332   */\n      0x20\n        /* \"#utility.yul\":3319:3328   */\n      dup4\n        /* \"#utility.yul\":3315:3333   */\n      add\n        /* \"#utility.yul\":3306:3312   */\n      dup5\n        /* \"#utility.yul\":3262:3334   */\n      tag_66\n      jump\t// in\n    tag_74:\n        /* \"#utility.yul\":3064:3341   */\n      swap4\n      swap3\n      pop\n      pop\n      pop\n      jump\t// out\n        /* \"#utility.yul\":3347:3476   */\n    tag_25:\n        /* \"#utility.yul\":3381:3387   */\n      0x00\n        /* \"#utility.yul\":3408:3428   */\n      tag_76\n      tag_77\n      jump\t// in\n    tag_76:\n        /* \"#utility.yul\":3398:3428   */\n      swap1\n      pop\n        /* \"#utility.yul\":3437:3470   */\n      tag_78\n        /* \"#utility.yul\":3465:3469   */\n      dup3\n        /* \"#utility.yul\":3457:3463   */\n      dup3\n        /* \"#utility.yul\":3437:3470   */\n      tag_79\n      jump\t// in\n    tag_78:\n        /* \"#utility.yul\":3388:3476   */\n      swap2\n      swap1\n      pop\n      jump\t// out\n        /* \"#utility.yul\":3482:3557   */\n    tag_77:\n        /* \"#utility.yul\":3515:3521   */\n      0x00\n        /* \"#utility.yul\":3548:3550   */\n      0x40\n        /* \"#utility.yul\":3542:3551   */\n      mload\n        /* \"#utility.yul\":3532:3551   */\n      swap1\n      pop\n        /* \"#utility.yul\":3522:3557   */\n      swap1\n      jump\t// out\n        /* \"#utility.yul\":3563:3871   */\n    tag_24:\n        /* \"#utility.yul\":3625:3629   */\n      0x00\n        /* \"#utility.yul\":3715:3733   */\n      0xffffffffffffffff\n        /* \"#utility.yul\":3707:3713   */\n      dup3\n        /* \"#utility.yul\":3704:3734   */\n      gt\n        /* \"#utility.yul\":3701:3703   */\n      iszero\n      tag_82\n      jumpi\n        /* \"#utility.yul\":3737:3755   */\n      tag_83\n      tag_84\n      jump\t// in\n    tag_83:\n        /* \"#utility.yul\":3701:3703   */\n    tag_82:\n        /* \"#utility.yul\":3775:3804   */\n      tag_85\n        /* \"#utility.yul\":3797:3803   */\n      dup3\n        /* \"#utility.yul\":3775:3804   */\n      tag_65\n      jump\t// in\n    tag_85:\n        /* \"#utility.yul\":3767:3804   */\n      swap1\n      pop\n        /* \"#utility.yul\":3859:3863   */\n      0x20\n        /* \"#utility.yul\":3853:3857   */\n      dup2\n        /* \"#utility.yul\":3849:3864   */\n      add\n        /* \"#utility.yul\":3841:3864   */\n      swap1\n      pop\n        /* \"#utility.yul\":3630:3871   */\n      swap2\n      swap1\n      pop\n      jump\t// out\n        /* \"#utility.yul\":3877:3976   */\n    tag_59:\n        /* \"#utility.yul\":3929:3935   */\n      0x00\n        /* \"#utility.yul\":3963:3968   */\n      dup2\n        /* \"#utility.yul\":3957:3969   */\n      mload\n        /* \"#utility.yul\":3947:3969   */\n      swap1\n      pop\n        /* \"#utility.yul\":3936:3976   */\n      swap2\n      swap1\n      pop\n      jump\t// out\n        /* \"#utility.yul\":3982:4151   */\n    tag_61:\n        /* \"#utility.yul\":4066:4077   */\n      0x00\n        /* \"#utility.yul\":4100:4106   */\n      dup3\n        /* \"#utility.yul\":4095:4098   */\n      dup3\n        /* \"#utility.yul\":4088:4107   */\n      mstore\n        /* \"#utility.yul\":4140:4144   */\n      0x20\n        /* \"#utility.yul\":4135:4138   */\n      dup3\n        /* \"#utility.yul\":4131:4145   */\n      add\n        /* \"#utility.yul\":4116:4145   */\n      swap1\n      pop\n        /* \"#utility.yul\":4078:4151   */\n      swap3\n      swap2\n      pop\n      pop\n      jump\t// out\n        /* \"#utility.yul\":4157:4234   */\n    tag_69:\n        /* \"#utility.yul\":4194:4201   */\n      0x00\n        /* \"#utility.yul\":4223:4228   */\n      dup2\n        /* \"#utility.yul\":4212:4228   */\n      swap1\n      pop\n        /* \"#utility.yul\":4202:4234   */\n      swap2\n      swap1\n      pop\n      jump\t// out\n        /* \"#utility.yul\":4240:4394   */\n    tag_30:\n        /* \"#utility.yul\":4324:4330   */\n      dup3\n        /* \"#utility.yul\":4319:4322   */\n      dup2\n        /* \"#utility.yul\":4314:4317   */\n      dup4\n        /* \"#utility.yul\":4301:4331   */\n      calldatacopy\n        /* \"#utility.yul\":4386:4387   */\n      0x00\n        /* \"#utility.yul\":4377:4383   */\n      dup4\n        /* \"#utility.yul\":4372:4375   */\n      dup4\n        /* \"#utility.yul\":4368:4384   */\n      add\n        /* \"#utility.yul\":4361:4388   */\n      mstore\n        /* \"#utility.yul\":4291:4394   */\n      pop\n      pop\n      pop\n      jump\t// out\n        /* \"#utility.yul\":4400:4707   */\n    tag_63:\n        /* \"#utility.yul\":4468:4469   */\n      0x00\n        /* \"#utility.yul\":4478:4591   */\n    tag_91:\n        /* \"#utility.yul\":4492:4498   */\n      dup4\n        /* \"#utility.yul\":4489:4490   */\n      dup2\n        /* \"#utility.yul\":4486:4499   */\n      lt\n        /* \"#utility.yul\":4478:4591   */\n      iszero\n      tag_93\n      jumpi\n        /* \"#utility.yul\":4577:4578   */\n      dup1\n        /* \"#utility.yul\":4572:4575   */\n      dup3\n        /* \"#utility.yul\":4568:4579   */\n      add\n        /* \"#utility.yul\":4562:4580   */\n      mload\n        /* \"#utility.yul\":4558:4559   */\n      dup2\n        /* \"#utility.yul\":4553:4556   */\n      dup5\n        /* \"#utility.yul\":4549:4560   */\n      add\n        /* \"#utility.yul\":4542:4581   */\n      mstore\n        /* \"#utility.yul\":4514:4516   */\n      0x20\n        /* \"#utility.yul\":4511:4512   */\n      dup2\n        /* \"#utility.yul\":4507:4517   */\n      add\n        /* \"#utility.yul\":4502:4517   */\n      swap1\n      pop\n        /* \"#utility.yul\":4478:4591   */\n      jump(tag_91)\n    tag_93:\n        /* \"#utility.yul\":4609:4615   */\n      dup4\n        /* \"#utility.yul\":4606:4607   */\n      dup2\n        /* \"#utility.yul\":4603:4616   */\n      gt\n        /* \"#utility.yul\":4600:4602   */\n      iszero\n      tag_94\n      jumpi\n        /* \"#utility.yul\":4689:4690   */\n      0x00\n        /* \"#utility.yul\":4680:4686   */\n      dup5\n        /* \"#utility.yul\":4675:4678   */\n      dup5\n        /* \"#utility.yul\":4671:4687   */\n      add\n        /* \"#utility.yul\":4664:4691   */\n      mstore\n        /* \"#utility.yul\":4600:4602   */\n    tag_94:\n        /* \"#utility.yul\":4449:4707   */\n      pop\n      pop\n      pop\n      pop\n      jump\t// out\n        /* \"#utility.yul\":4713:4994   */\n    tag_79:\n        /* \"#utility.yul\":4796:4823   */\n      tag_96\n        /* \"#utility.yul\":4818:4822   */\n      dup3\n        /* \"#utility.yul\":4796:4823   */\n      tag_65\n      jump\t// in\n    tag_96:\n        /* \"#utility.yul\":4788:4794   */\n      dup2\n        /* \"#utility.yul\":4784:4824   */\n      add\n        /* \"#utility.yul\":4926:4932   */\n      dup2\n        /* \"#utility.yul\":4914:4924   */\n      dup2\n        /* \"#utility.yul\":4911:4933   */\n      lt\n        /* \"#utility.yul\":4890:4908   */\n      0xffffffffffffffff\n        /* \"#utility.yul\":4878:4888   */\n      dup3\n        /* \"#utility.yul\":4875:4909   */\n      gt\n        /* \"#utility.yul\":4872:4934   */\n      or\n        /* \"#utility.yul\":4869:4871   */\n      iszero\n      tag_97\n      jumpi\n        /* \"#utility.yul\":4937:4955   */\n      tag_98\n      tag_84\n      jump\t// in\n    tag_98:\n        /* \"#utility.yul\":4869:4871   */\n    tag_97:\n        /* \"#utility.yul\":4977:4987   */\n      dup1\n        /* \"#utility.yul\":4973:4975   */\n      0x40\n        /* \"#utility.yul\":4966:4988   */\n      mstore\n        /* \"#utility.yul\":4756:4994   */\n      pop\n      pop\n      pop\n      jump\t// out\n        /* \"#utility.yul\":5000:5180   */\n    tag_84:\n        /* \"#utility.yul\":5048:5125   */\n      0x4e487b7100000000000000000000000000000000000000000000000000000000\n        /* \"#utility.yul\":5045:5046   */\n      0x00\n        /* \"#utility.yul\":5038:5126   */\n      mstore\n        /* \"#utility.yul\":5145:5149   */\n      0x41\n        /* \"#utility.yul\":5142:5143   */\n      0x04\n        /* \"#utility.yul\":5135:5150   */\n      mstore\n        /* \"#utility.yul\":5169:5173   */\n      0x24\n        /* \"#utility.yul\":5166:5167   */\n      0x00\n        /* \"#utility.yul\":5159:5174   */\n      revert\n        /* \"#utility.yul\":5186:5303   */\n    tag_35:\n        /* \"#utility.yul\":5295:5296   */\n      0x00\n        /* \"#utility.yul\":5292:5293   */\n      dup1\n        /* \"#utility.yul\":5285:5297   */\n      revert\n        /* \"#utility.yul\":5309:5426   */\n    tag_28:\n        /* \"#utility.yul\":5418:5419   */\n      0x00\n        /* \"#utility.yul\":5415:5416   */\n      dup1\n        /* \"#utility.yul\":5408:5420   */\n      revert\n        /* \"#utility.yul\":5432:5549   */\n    tag_47:\n        /* \"#utility.yul\":5541:5542   */\n      0x00\n        /* \"#utility.yul\":5538:5539   */\n      dup1\n        /* \"#utility.yul\":5531:5543   */\n      revert\n        /* \"#utility.yul\":5555:5672   */\n    tag_44:\n        /* \"#utility.yul\":5664:5665   */\n      0x00\n        /* \"#utility.yul\":5661:5662   */\n      dup1\n        /* \"#utility.yul\":5654:5666   */\n      revert\n        /* \"#utility.yul\":5678:5780   */\n    tag_65:\n        /* \"#utility.yul\":5719:5725   */\n      0x00\n        /* \"#utility.yul\":5770:5772   */\n      0x1f\n        /* \"#utility.yul\":5766:5773   */\n      not\n        /* \"#utility.yul\":5761:5763   */\n      0x1f\n        /* \"#utility.yul\":5754:5759   */\n      dup4\n        /* \"#utility.yul\":5750:5764   */\n      add\n        /* \"#utility.yul\":5746:5774   */\n      and\n        /* \"#utility.yul\":5736:5774   */\n      swap1\n      pop\n        /* \"#utility.yul\":5726:5780   */\n      swap2\n      swap1\n      pop\n      jump\t// out\n        /* \"#utility.yul\":5786:5908   */\n    tag_40:\n        /* \"#utility.yul\":5859:5883   */\n      tag_106\n        /* \"#utility.yul\":5877:5882   */\n      dup2\n        /* \"#utility.yul\":5859:5883   */\n      tag_69\n      jump\t// in\n    tag_106:\n        /* \"#utility.yul\":5852:5857   */\n      dup2\n        /* \"#utility.yul\":5849:5884   */\n      eq\n        /* \"#utility.yul\":5839:5841   */\n      tag_107\n      jumpi\n        /* \"#utility.yul\":5898:5899   */\n      0x00\n        /* \"#utility.yul\":5895:5896   */\n      dup1\n        /* \"#utility.yul\":5888:5900   */\n      revert\n        /* \"#utility.yul\":5839:5841   */\n    tag_107:\n        /* \"#utility.yul\":5829:5908   */\n      pop\n      jump\t// out\n\n    auxdata: 0xa26469706673582212205c9f50707d8a14e2d72f8b46e59c47979f702315b6755155cc502c578f97992e64736f6c63430008060033\n}\n",
				"bytecode": {
					"linkReferences": {},
					"object": "608060405234801561001057600080fd5b5061043e806100206000396000f3fe608060405234801561001057600080fd5b50600436106100365760003560e01c80637cf1103d1461003b5780637f4f0f3514610057575b600080fd5b6100556004803603810190610050919061016f565b610073565b005b610071600480360381019061006c91906101b8565b6100ad565b005b7fbb9feca183dbd63d27399e01607802b8663d1c6d1b7a331ed919063ea22675a2816040516100a2919061025c565b60405180910390a150565b7f2abcdd8402d13cddfdae95d2581c51409054966b88de81287628c3e06235d8b082826040516100de92919061027e565b60405180910390a15050565b60006100fd6100f8846102d3565b6102ae565b905082815260208101848484011115610119576101186103d1565b5b61012484828561032a565b509392505050565b600082601f830112610141576101406103cc565b5b81356101518482602086016100ea565b91505092915050565b600081359050610169816103f1565b92915050565b600060208284031215610185576101846103db565b5b600082013567ffffffffffffffff8111156101a3576101a26103d6565b5b6101af8482850161012c565b91505092915050565b600080604083850312156101cf576101ce6103db565b5b600083013567ffffffffffffffff8111156101ed576101ec6103d6565b5b6101f98582860161012c565b925050602061020a8582860161015a565b9150509250929050565b600061021f82610304565b610229818561030f565b9350610239818560208601610339565b610242816103e0565b840191505092915050565b61025681610320565b82525050565b600060208201905081810360008301526102768184610214565b905092915050565b600060408201905081810360008301526102988185610214565b90506102a7602083018461024d565b9392505050565b60006102b86102c9565b90506102c4828261036c565b919050565b6000604051905090565b600067ffffffffffffffff8211156102ee576102ed61039d565b5b6102f7826103e0565b9050602081019050919050565b600081519050919050565b600082825260208201905092915050565b6000819050919050565b82818337600083830152505050565b60005b8381101561035757808201518184015260208101905061033c565b83811115610366576000848401525b50505050565b610375826103e0565b810181811067ffffffffffffffff821117156103945761039361039d565b5b80604052505050565b7f4e487b7100000000000000000000000000000000000000000000000000000000600052604160045260246000fd5b600080fd5b600080fd5b600080fd5b600080fd5b6000601f19601f8301169050919050565b6103fa81610320565b811461040557600080fd5b5056fea26469706673582212205c9f50707d8a14e2d72f8b46e59c47979f702315b6755155cc502c578f97992e64736f6c63430008060033",
					"opcodes": "PUSH1 0x80 PUSH1 0x40 MSTORE CALLVALUE DUP1 ISZERO PUSH2 0x10 JUMPI PUSH1 0x0 DUP1 REVERT JUMPDEST POP PUSH2 0x43E DUP1 PUSH2 0x20 PUSH1 0x0 CODECOPY PUSH1 0x0 RETURN INVALID PUSH1 0x80 PUSH1 0x40 MSTORE CALLVALUE DUP1 ISZERO PUSH2 0x10 JUMPI PUSH1 0x0 DUP1 REVERT JUMPDEST POP PUSH1 0x4 CALLDATASIZE LT PUSH2 0x36 JUMPI PUSH1 0x0 CALLDATALOAD PUSH1 0xE0 SHR DUP1 PUSH4 0x7CF1103D EQ PUSH2 0x3B JUMPI DUP1 PUSH4 0x7F4F0F35 EQ PUSH2 0x57 JUMPI JUMPDEST PUSH1 0x0 DUP1 REVERT JUMPDEST PUSH2 0x55 PUSH1 0x4 DUP1 CALLDATASIZE SUB DUP2 ADD SWAP1 PUSH2 0x50 SWAP2 SWAP1 PUSH2 0x16F JUMP JUMPDEST PUSH2 0x73 JUMP JUMPDEST STOP JUMPDEST PUSH2 0x71 PUSH1 0x4 DUP1 CALLDATASIZE SUB DUP2 ADD SWAP1 PUSH2 0x6C SWAP2 SWAP1 PUSH2 0x1B8 JUMP JUMPDEST PUSH2 0xAD JUMP JUMPDEST STOP JUMPDEST PUSH32 0xBB9FECA183DBD63D27399E01607802B8663D1C6D1B7A331ED919063EA22675A2 DUP2 PUSH1 0x40 MLOAD PUSH2 0xA2 SWAP2 SWAP1 PUSH2 0x25C JUMP JUMPDEST PUSH1 0x40 MLOAD DUP1 SWAP2 SUB SWAP1 LOG1 POP JUMP JUMPDEST PUSH32 0x2ABCDD8402D13CDDFDAE95D2581C51409054966B88DE81287628C3E06235D8B0 DUP3 DUP3 PUSH1 0x40 MLOAD PUSH2 0xDE SWAP3 SWAP2 SWAP1 PUSH2 0x27E JUMP JUMPDEST PUSH1 0x40 MLOAD DUP1 SWAP2 SUB SWAP1 LOG1 POP POP JUMP JUMPDEST PUSH1 0x0 PUSH2 0xFD PUSH2 0xF8 DUP5 PUSH2 0x2D3 JUMP JUMPDEST PUSH2 0x2AE JUMP JUMPDEST SWAP1 POP DUP3 DUP2 MSTORE PUSH1 0x20 DUP2 ADD DUP5 DUP5 DUP5 ADD GT ISZERO PUSH2 0x119 JUMPI PUSH2 0x118 PUSH2 0x3D1 JUMP JUMPDEST JUMPDEST PUSH2 0x124 DUP5 DUP3 DUP6 PUSH2 0x32A JUMP JUMPDEST POP SWAP4 SWAP3 POP POP POP JUMP JUMPDEST PUSH1 0x0 DUP3 PUSH1 0x1F DUP4 ADD SLT PUSH2 0x141 JUMPI PUSH2 0x140 PUSH2 0x3CC JUMP JUMPDEST JUMPDEST DUP2 CALLDATALOAD PUSH2 0x151 DUP5 DUP3 PUSH1 0x20 DUP7 ADD PUSH2 0xEA JUMP JUMPDEST SWAP2 POP POP SWAP3 SWAP2 POP POP JUMP JUMPDEST PUSH1 0x0 DUP2 CALLDATALOAD SWAP1 POP PUSH2 0x169 DUP2 PUSH2 0x3F1 JUMP JUMPDEST SWAP3 SWAP2 POP POP JUMP JUMPDEST PUSH1 0x0 PUSH1 0x20 DUP3 DUP5 SUB SLT ISZERO PUSH2 0x185 JUMPI PUSH2 0x184 PUSH2 0x3DB JUMP JUMPDEST JUMPDEST PUSH1 0x0 DUP3 ADD CALLDATALOAD PUSH8 0xFFFFFFFFFFFFFFFF DUP2 GT ISZERO PUSH2 0x1A3 JUMPI PUSH2 0x1A2 PUSH2 0x3D6 JUMP JUMPDEST JUMPDEST PUSH2 0x1AF DUP5 DUP3 DUP6 ADD PUSH2 0x12C JUMP JUMPDEST SWAP2 POP POP SWAP3 SWAP2 POP POP JUMP JUMPDEST PUSH1 0x0 DUP1 PUSH1 0x40 DUP4 DUP6 SUB SLT ISZERO PUSH2 0x1CF JUMPI PUSH2 0x1CE PUSH2 0x3DB JUMP JUMPDEST JUMPDEST PUSH1 0x0 DUP4 ADD CALLDATALOAD PUSH8 0xFFFFFFFFFFFFFFFF DUP2 GT ISZERO PUSH2 0x1ED JUMPI PUSH2 0x1EC PUSH2 0x3D6 JUMP JUMPDEST JUMPDEST PUSH2 0x1F9 DUP6 DUP3 DUP7 ADD PUSH2 0x12C JUMP JUMPDEST SWAP3 POP POP PUSH1 0x20 PUSH2 0x20A DUP6 DUP3 DUP7 ADD PUSH2 0x15A JUMP JUMPDEST SWAP2 POP POP SWAP3 POP SWAP3 SWAP1 POP JUMP JUMPDEST PUSH1 0x0 PUSH2 0x21F DUP3 PUSH2 0x304 JUMP JUMPDEST PUSH2 0x229 DUP2 DUP6 PUSH2 0x30F JUMP JUMPDEST SWAP4 POP PUSH2 0x239 DUP2 DUP6 PUSH1 0x20 DUP7 ADD PUSH2 0x339 JUMP JUMPDEST PUSH2 0x242 DUP2 PUSH2 0x3E0 JUMP JUMPDEST DUP5 ADD SWAP2 POP POP SWAP3 SWAP2 POP POP JUMP JUMPDEST PUSH2 0x256 DUP2 PUSH2 0x320 JUMP JUMPDEST DUP3 MSTORE POP POP JUMP JUMPDEST PUSH1 0x0 PUSH1 0x20 DUP3 ADD SWAP1 POP DUP2 DUP2 SUB PUSH1 0x0 DUP4 ADD MSTORE PUSH2 0x276 DUP2 DUP5 PUSH2 0x214 JUMP JUMPDEST SWAP1 POP SWAP3 SWAP2 POP POP JUMP JUMPDEST PUSH1 0x0 PUSH1 0x40 DUP3 ADD SWAP1 POP DUP2 DUP2 SUB PUSH1 0x0 DUP4 ADD MSTORE PUSH2 0x298 DUP2 DUP6 PUSH2 0x214 JUMP JUMPDEST SWAP1 POP PUSH2 0x2A7 PUSH1 0x20 DUP4 ADD DUP5 PUSH2 0x24D JUMP JUMPDEST SWAP4 SWAP3 POP POP POP JUMP JUMPDEST PUSH1 0x0 PUSH2 0x2B8 PUSH2 0x2C9 JUMP JUMPDEST SWAP1 POP PUSH2 0x2C4 DUP3 DUP3 PUSH2 0x36C JUMP JUMPDEST SWAP2 SWAP1 POP JUMP JUMPDEST PUSH1 0x0 PUSH1 0x40 MLOAD SWAP1 POP SWAP1 JUMP JUMPDEST PUSH1 0x0 PUSH8 0xFFFFFFFFFFFFFFFF DUP3 GT ISZERO PUSH2 0x2EE JUMPI PUSH2 0x2ED PUSH2 0x39D JUMP JUMPDEST JUMPDEST PUSH2 0x2F7 DUP3 PUSH2 0x3E0 JUMP JUMPDEST SWAP1 POP PUSH1 0x20 DUP2 ADD SWAP1 POP SWAP2 SWAP1 POP JUMP JUMPDEST PUSH1 0x0 DUP2 MLOAD SWAP1 POP SWAP2 SWAP1 POP JUMP JUMPDEST PUSH1 0x0 DUP3 DUP3 MSTORE PUSH1 0x20 DUP3 ADD SWAP1 POP SWAP3 SWAP2 POP POP JUMP JUMPDEST PUSH1 0x0 DUP2 SWAP1 POP SWAP2 SWAP1 POP JUMP JUMPDEST DUP3 DUP2 DUP4 CALLDATACOPY PUSH1 0x0 DUP4 DUP4 ADD MSTORE POP POP POP JUMP JUMPDEST PUSH1 0x0 JUMPDEST DUP4 DUP2 LT ISZERO PUSH2 0x357 JUMPI DUP1 DUP3 ADD MLOAD DUP2 DUP5 ADD MSTORE PUSH1 0x20 DUP2 ADD SWAP1 POP PUSH2 0x33C JUMP JUMPDEST DUP4 DUP2 GT ISZERO PUSH2 0x366 JUMPI PUSH1 0x0 DUP5 DUP5 ADD MSTORE JUMPDEST POP POP POP POP JUMP JUMPDEST PUSH2 0x375 DUP3 PUSH2 0x3E0 JUMP JUMPDEST DUP2 ADD DUP2 DUP2 LT PUSH8 0xFFFFFFFFFFFFFFFF DUP3 GT OR ISZERO PUSH2 0x394 JUMPI PUSH2 0x393 PUSH2 0x39D JUMP JUMPDEST JUMPDEST DUP1 PUSH1 0x40 MSTORE POP POP POP JUMP JUMPDEST PUSH32 0x4E487B7100000000000000000000000000000000000000000000000000000000 PUSH1 0x0 MSTORE PUSH1 0x41 PUSH1 0x4 MSTORE PUSH1 0x24 PUSH1 0x0 REVERT JUMPDEST PUSH1 0x0 DUP1 REVERT JUMPDEST PUSH1 0x0 DUP1 REVERT JUMPDEST PUSH1 0x0 DUP1 REVERT JUMPDEST PUSH1 0x0 DUP1 REVERT JUMPDEST PUSH1 0x0 PUSH1 0x1F NOT PUSH1 0x1F DUP4 ADD AND SWAP1 POP SWAP2 SWAP1 POP JUMP JUMPDEST PUSH2 0x3FA DUP2 PUSH2 0x320 JUMP JUMPDEST DUP2 EQ PUSH2 0x405 JUMPI PUSH1 0x0 DUP1 REVERT JUMPDEST POP JUMP INVALID LOG2 PUSH5 0x6970667358 0x22 SLT KECCAK256 0x5C SWAP16 POP PUSH17 0x7D8A14E2D72F8B46E59C47979F702315B6 PUSH22 0x5155CC502C578F97992E64736F6C6343000806003300 "
				},
				"gasEstimates": {
					"creation": {
						"codeDepositCost": "217200",
						"executionCost": "257",
						"totalCost": "217457"
					},
					"external": {
						"emitirEvento1(string)": "infinite",
						"emitirEvento2(string,uint256)": "infinite"
					}
				},
				"methodIdentifiers": {
					"emitirEvento1(string)": "7cf1103d",
					"emitirEvento2(string,uint256)": "7f4f0f35"
				}
			},
			"storageLayout": {
				"storage": [],
				"types": null
			},
			"userdoc": {
				"kind": "user",
				"methods": {},
				"version": 1
			}
		}
	}
}