{
	"Funciones/causas_beneficas.sol": {
		"CausasBeneficas": {
			"abi": [
				{
					"inputs": [
						{
							"internalType": "string",
							"name": "_nombre",
							"type": "string"
						},
						{
							"internalType": "uint256",
							"name": "_montoObjetivo",
							"type": "uint256"
						}
					],
					"name": "agregarCausa",
					"outputs": [],
					"stateMutability": "payable",
					"type": "function"
				},
				{
					"inputs": [
						{
							"internalType": "string",
							"name": "_nombreCausa",
							"type": "string"
						},
						{
							"internalType": "uint256",
							"name": "_montoDonacion",
							"type": "uint256"
						}
					],
					"name": "donar",
					"outputs": [
						{
							"internalType": "bool",
							"name": "",
							"type": "bool"
						}
					],
					"stateMutability": "payable",
					"type": "function"
				}
			],
			"devdoc": {
				"kind": "dev",
				"methods": {},
				"version": 1
			},
			"evm": {
				"assembly": "    /* \"Funciones/causas_beneficas.sol\":33:861  contract CausasBeneficas {... */\n  mstore(0x40, 0x80)\n    /* \"Funciones/causas_beneficas.sol\":210:211  0 */\n  0x00\n    /* \"Funciones/causas_beneficas.sol\":188:211  uint contadorCausas = 0 */\n  dup1\n  sstore\n    /* \"Funciones/causas_beneficas.sol\":33:861  contract CausasBeneficas {... */\n  callvalue\n  dup1\n  iszero\n  tag_1\n  jumpi\n  0x00\n  dup1\n  revert\ntag_1:\n  pop\n  dataSize(sub_0)\n  dup1\n  dataOffset(sub_0)\n  0x00\n  codecopy\n  0x00\n  return\nstop\n\nsub_0: assembly {\n        /* \"Funciones/causas_beneficas.sol\":33:861  contract CausasBeneficas {... */\n      mstore(0x40, 0x80)\n      jumpi(tag_1, lt(calldatasize, 0x04))\n      shr(0xe0, calldataload(0x00))\n      dup1\n      0x2e2a713f\n      eq\n      tag_2\n      jumpi\n      dup1\n      0x45cd81b3\n      eq\n      tag_3\n      jumpi\n    tag_1:\n      0x00\n      dup1\n      revert\n        /* \"Funciones/causas_beneficas.sol\":312:507  function agregarCausa(string memory _nombre, uint _montoObjetivo) public payable {... */\n    tag_2:\n      tag_4\n      0x04\n      dup1\n      calldatasize\n      sub\n      dup2\n      add\n      swap1\n      tag_5\n      swap2\n      swap1\n      tag_6\n      jump\t// in\n    tag_5:\n      tag_7\n      jump\t// in\n    tag_4:\n      stop\n        /* \"Funciones/causas_beneficas.sol\":564:858  function donar(string memory _nombreCausa, uint _montoDonacion) public payable returns(bool) {... */\n    tag_3:\n      tag_8\n      0x04\n      dup1\n      calldatasize\n      sub\n      dup2\n      add\n      swap1\n      tag_9\n      swap2\n      swap1\n      tag_6\n      jump\t// in\n    tag_9:\n      tag_10\n      jump\t// in\n    tag_8:\n      mload(0x40)\n      tag_11\n      swap2\n      swap1\n      tag_12\n      jump\t// in\n    tag_11:\n      mload(0x40)\n      dup1\n      swap2\n      sub\n      swap1\n      return\n        /* \"Funciones/causas_beneficas.sol\":312:507  function agregarCausa(string memory _nombre, uint _montoObjetivo) public payable {... */\n    tag_7:\n        /* \"Funciones/causas_beneficas.sol\":421:422  1 */\n      0x01\n        /* \"Funciones/causas_beneficas.sol\":403:417  contadorCausas */\n      0x00\n      dup1\n        /* \"Funciones/causas_beneficas.sol\":403:422  contadorCausas += 1 */\n      dup3\n      dup3\n      sload\n      tag_14\n      swap2\n      swap1\n      tag_15\n      jump\t// in\n    tag_14:\n      swap3\n      pop\n      pop\n      dup2\n      swap1\n      sstore\n      pop\n        /* \"Funciones/causas_beneficas.sol\":450:499  causa(contadorCausas, _nombre, _montoObjetivo, 0) */\n      mload(0x40)\n      dup1\n      0x80\n      add\n      0x40\n      mstore\n      dup1\n        /* \"Funciones/causas_beneficas.sol\":456:470  contadorCausas */\n      sload(0x00)\n        /* \"Funciones/causas_beneficas.sol\":450:499  causa(contadorCausas, _nombre, _montoObjetivo, 0) */\n      dup2\n      mstore\n      0x20\n      add\n        /* \"Funciones/causas_beneficas.sol\":472:479  _nombre */\n      dup4\n        /* \"Funciones/causas_beneficas.sol\":450:499  causa(contadorCausas, _nombre, _montoObjetivo, 0) */\n      dup2\n      mstore\n      0x20\n      add\n        /* \"Funciones/causas_beneficas.sol\":481:495  _montoObjetivo */\n      dup3\n        /* \"Funciones/causas_beneficas.sol\":450:499  causa(contadorCausas, _nombre, _montoObjetivo, 0) */\n      dup2\n      mstore\n      0x20\n      add\n        /* \"Funciones/causas_beneficas.sol\":497:498  0 */\n      0x00\n        /* \"Funciones/causas_beneficas.sol\":450:499  causa(contadorCausas, _nombre, _montoObjetivo, 0) */\n      dup2\n      mstore\n      pop\n        /* \"Funciones/causas_beneficas.sol\":432:438  causas */\n      0x01\n        /* \"Funciones/causas_beneficas.sol\":439:446  _nombre */\n      dup4\n        /* \"Funciones/causas_beneficas.sol\":432:447  causas[_nombre] */\n      mload(0x40)\n      tag_16\n      swap2\n      swap1\n      tag_17\n      jump\t// in\n    tag_16:\n      swap1\n      dup2\n      mstore\n      0x20\n      add\n      mload(0x40)\n      dup1\n      swap2\n      sub\n      swap1\n      keccak256\n        /* \"Funciones/causas_beneficas.sol\":432:499  causas[_nombre] = causa(contadorCausas, _nombre, _montoObjetivo, 0) */\n      0x00\n      dup3\n      add\n      mload\n      dup2\n      0x00\n      add\n      sstore\n      0x20\n      dup3\n      add\n      mload\n      dup2\n      0x01\n      add\n      swap1\n      dup1\n      mload\n      swap1\n      0x20\n      add\n      swap1\n      tag_18\n      swap3\n      swap2\n      swap1\n      tag_19\n      jump\t// in\n    tag_18:\n      pop\n      0x40\n      dup3\n      add\n      mload\n      dup2\n      0x02\n      add\n      sstore\n      0x60\n      dup3\n      add\n      mload\n      dup2\n      0x03\n      add\n      sstore\n      swap1\n      pop\n      pop\n        /* \"Funciones/causas_beneficas.sol\":312:507  function agregarCausa(string memory _nombre, uint _montoObjetivo) public payable {... */\n      pop\n      pop\n      jump\t// out\n        /* \"Funciones/causas_beneficas.sol\":564:858  function donar(string memory _nombreCausa, uint _montoDonacion) public payable returns(bool) {... */\n    tag_10:\n        /* \"Funciones/causas_beneficas.sol\":651:655  bool */\n      0x00\n        /* \"Funciones/causas_beneficas.sol\":804:810  causas */\n      0x01\n        /* \"Funciones/causas_beneficas.sol\":811:823  _nombreCausa */\n      dup4\n        /* \"Funciones/causas_beneficas.sol\":804:824  causas[_nombreCausa] */\n      mload(0x40)\n      tag_21\n      swap2\n      swap1\n      tag_17\n      jump\t// in\n    tag_21:\n      swap1\n      dup2\n      mstore\n      0x20\n      add\n      mload(0x40)\n      dup1\n      swap2\n      sub\n      swap1\n      keccak256\n        /* \"Funciones/causas_beneficas.sol\":804:838  causas[_nombreCausa].montoObjetivo */\n      0x02\n      add\n      sload\n        /* \"Funciones/causas_beneficas.sol\":785:799  _montoDonacion */\n      dup3\n        /* \"Funciones/causas_beneficas.sol\":747:753  causas */\n      0x01\n        /* \"Funciones/causas_beneficas.sol\":754:766  _nombreCausa */\n      dup6\n        /* \"Funciones/causas_beneficas.sol\":747:767  causas[_nombreCausa] */\n      mload(0x40)\n      tag_22\n      swap2\n      swap1\n      tag_17\n      jump\t// in\n    tag_22:\n      swap1\n      dup2\n      mstore\n      0x20\n      add\n      mload(0x40)\n      dup1\n      swap2\n      sub\n      swap1\n      keccak256\n        /* \"Funciones/causas_beneficas.sol\":747:782  causas[_nombreCausa].montoRecaudado */\n      0x03\n      add\n      sload\n        /* \"Funciones/causas_beneficas.sol\":747:799  causas[_nombreCausa].montoRecaudado + _montoDonacion */\n      tag_23\n      swap2\n      swap1\n      tag_15\n      jump\t// in\n    tag_23:\n        /* \"Funciones/causas_beneficas.sol\":746:838  (causas[_nombreCausa].montoRecaudado + _montoDonacion) <= causas[_nombreCausa].montoObjetivo */\n      pop\n      pop\n        /* \"Funciones/causas_beneficas.sol\":564:858  function donar(string memory _nombreCausa, uint _montoDonacion) public payable returns(bool) {... */\n      swap3\n      swap2\n      pop\n      pop\n      jump\t// out\n    tag_19:\n      dup3\n      dup1\n      sload\n      tag_25\n      swap1\n      tag_26\n      jump\t// in\n    tag_25:\n      swap1\n      0x00\n      mstore\n      keccak256(0x00, 0x20)\n      swap1\n      0x1f\n      add\n      0x20\n      swap1\n      div\n      dup2\n      add\n      swap3\n      dup3\n      tag_28\n      jumpi\n      0x00\n      dup6\n      sstore\n      jump(tag_27)\n    tag_28:\n      dup3\n      0x1f\n      lt\n      tag_29\n      jumpi\n      dup1\n      mload\n      not(0xff)\n      and\n      dup4\n      dup1\n      add\n      or\n      dup6\n      sstore\n      jump(tag_27)\n    tag_29:\n      dup3\n      dup1\n      add\n      0x01\n      add\n      dup6\n      sstore\n      dup3\n      iszero\n      tag_27\n      jumpi\n      swap2\n      dup3\n      add\n    tag_30:\n      dup3\n      dup2\n      gt\n      iszero\n      tag_31\n      jumpi\n      dup3\n      mload\n      dup3\n      sstore\n      swap2\n      0x20\n      add\n      swap2\n      swap1\n      0x01\n      add\n      swap1\n      jump(tag_30)\n    tag_31:\n    tag_27:\n      pop\n      swap1\n      pop\n      tag_32\n      swap2\n      swap1\n      tag_33\n      jump\t// in\n    tag_32:\n      pop\n      swap1\n      jump\t// out\n    tag_33:\n    tag_34:\n      dup1\n      dup3\n      gt\n      iszero\n      tag_35\n      jumpi\n      0x00\n      dup2\n      0x00\n      swap1\n      sstore\n      pop\n      0x01\n      add\n      jump(tag_34)\n    tag_35:\n      pop\n      swap1\n      jump\t// out\n        /* \"#utility.yul\":7:419   */\n    tag_37:\n        /* \"#utility.yul\":85:90   */\n      0x00\n        /* \"#utility.yul\":110:176   */\n      tag_39\n        /* \"#utility.yul\":126:175   */\n      tag_40\n        /* \"#utility.yul\":168:174   */\n      dup5\n        /* \"#utility.yul\":126:175   */\n      tag_41\n      jump\t// in\n    tag_40:\n        /* \"#utility.yul\":110:176   */\n      tag_42\n      jump\t// in\n    tag_39:\n        /* \"#utility.yul\":101:176   */\n      swap1\n      pop\n        /* \"#utility.yul\":199:205   */\n      dup3\n        /* \"#utility.yul\":192:197   */\n      dup2\n        /* \"#utility.yul\":185:206   */\n      mstore\n        /* \"#utility.yul\":237:241   */\n      0x20\n        /* \"#utility.yul\":230:235   */\n      dup2\n        /* \"#utility.yul\":226:242   */\n      add\n        /* \"#utility.yul\":275:278   */\n      dup5\n        /* \"#utility.yul\":266:272   */\n      dup5\n        /* \"#utility.yul\":261:264   */\n      dup5\n        /* \"#utility.yul\":257:273   */\n      add\n        /* \"#utility.yul\":254:279   */\n      gt\n        /* \"#utility.yul\":251:253   */\n      iszero\n      tag_43\n      jumpi\n        /* \"#utility.yul\":282:361   */\n      tag_44\n      tag_45\n      jump\t// in\n    tag_44:\n        /* \"#utility.yul\":251:253   */\n    tag_43:\n        /* \"#utility.yul\":372:413   */\n      tag_46\n        /* \"#utility.yul\":406:412   */\n      dup5\n        /* \"#utility.yul\":401:404   */\n      dup3\n        /* \"#utility.yul\":396:399   */\n      dup6\n        /* \"#utility.yul\":372:413   */\n      tag_47\n      jump\t// in\n    tag_46:\n        /* \"#utility.yul\":91:419   */\n      pop\n      swap4\n      swap3\n      pop\n      pop\n      pop\n      jump\t// out\n        /* \"#utility.yul\":439:779   */\n    tag_48:\n        /* \"#utility.yul\":495:500   */\n      0x00\n        /* \"#utility.yul\":544:547   */\n      dup3\n        /* \"#utility.yul\":537:541   */\n      0x1f\n        /* \"#utility.yul\":529:535   */\n      dup4\n        /* \"#utility.yul\":525:542   */\n      add\n        /* \"#utility.yul\":521:548   */\n      slt\n        /* \"#utility.yul\":511:513   */\n      tag_50\n      jumpi\n        /* \"#utility.yul\":552:631   */\n      tag_51\n      tag_52\n      jump\t// in\n    tag_51:\n        /* \"#utility.yul\":511:513   */\n    tag_50:\n        /* \"#utility.yul\":669:675   */\n      dup2\n        /* \"#utility.yul\":656:676   */\n      calldataload\n        /* \"#utility.yul\":694:773   */\n      tag_53\n        /* \"#utility.yul\":769:772   */\n      dup5\n        /* \"#utility.yul\":761:767   */\n      dup3\n        /* \"#utility.yul\":754:758   */\n      0x20\n        /* \"#utility.yul\":746:752   */\n      dup7\n        /* \"#utility.yul\":742:759   */\n      add\n        /* \"#utility.yul\":694:773   */\n      tag_37\n      jump\t// in\n    tag_53:\n        /* \"#utility.yul\":685:773   */\n      swap2\n      pop\n        /* \"#utility.yul\":501:779   */\n      pop\n      swap3\n      swap2\n      pop\n      pop\n      jump\t// out\n        /* \"#utility.yul\":785:924   */\n    tag_54:\n        /* \"#utility.yul\":831:836   */\n      0x00\n        /* \"#utility.yul\":869:875   */\n      dup2\n        /* \"#utility.yul\":856:876   */\n      calldataload\n        /* \"#utility.yul\":847:876   */\n      swap1\n      pop\n        /* \"#utility.yul\":885:918   */\n      tag_56\n        /* \"#utility.yul\":912:917   */\n      dup2\n        /* \"#utility.yul\":885:918   */\n      tag_57\n      jump\t// in\n    tag_56:\n        /* \"#utility.yul\":837:924   */\n      swap3\n      swap2\n      pop\n      pop\n      jump\t// out\n        /* \"#utility.yul\":930:1584   */\n    tag_6:\n        /* \"#utility.yul\":1008:1014   */\n      0x00\n        /* \"#utility.yul\":1016:1022   */\n      dup1\n        /* \"#utility.yul\":1065:1067   */\n      0x40\n        /* \"#utility.yul\":1053:1062   */\n      dup4\n        /* \"#utility.yul\":1044:1051   */\n      dup6\n        /* \"#utility.yul\":1040:1063   */\n      sub\n        /* \"#utility.yul\":1036:1068   */\n      slt\n        /* \"#utility.yul\":1033:1035   */\n      iszero\n      tag_59\n      jumpi\n        /* \"#utility.yul\":1071:1150   */\n      tag_60\n      tag_61\n      jump\t// in\n    tag_60:\n        /* \"#utility.yul\":1033:1035   */\n    tag_59:\n        /* \"#utility.yul\":1219:1220   */\n      0x00\n        /* \"#utility.yul\":1208:1217   */\n      dup4\n        /* \"#utility.yul\":1204:1221   */\n      add\n        /* \"#utility.yul\":1191:1222   */\n      calldataload\n        /* \"#utility.yul\":1249:1267   */\n      0xffffffffffffffff\n        /* \"#utility.yul\":1241:1247   */\n      dup2\n        /* \"#utility.yul\":1238:1268   */\n      gt\n        /* \"#utility.yul\":1235:1237   */\n      iszero\n      tag_62\n      jumpi\n        /* \"#utility.yul\":1271:1350   */\n      tag_63\n      tag_64\n      jump\t// in\n    tag_63:\n        /* \"#utility.yul\":1235:1237   */\n    tag_62:\n        /* \"#utility.yul\":1376:1439   */\n      tag_65\n        /* \"#utility.yul\":1431:1438   */\n      dup6\n        /* \"#utility.yul\":1422:1428   */\n      dup3\n        /* \"#utility.yul\":1411:1420   */\n      dup7\n        /* \"#utility.yul\":1407:1429   */\n      add\n        /* \"#utility.yul\":1376:1439   */\n      tag_48\n      jump\t// in\n    tag_65:\n        /* \"#utility.yul\":1366:1439   */\n      swap3\n      pop\n        /* \"#utility.yul\":1162:1449   */\n      pop\n        /* \"#utility.yul\":1488:1490   */\n      0x20\n        /* \"#utility.yul\":1514:1567   */\n      tag_66\n        /* \"#utility.yul\":1559:1566   */\n      dup6\n        /* \"#utility.yul\":1550:1556   */\n      dup3\n        /* \"#utility.yul\":1539:1548   */\n      dup7\n        /* \"#utility.yul\":1535:1557   */\n      add\n        /* \"#utility.yul\":1514:1567   */\n      tag_54\n      jump\t// in\n    tag_66:\n        /* \"#utility.yul\":1504:1567   */\n      swap2\n      pop\n        /* \"#utility.yul\":1459:1577   */\n      pop\n        /* \"#utility.yul\":1023:1584   */\n      swap3\n      pop\n      swap3\n      swap1\n      pop\n      jump\t// out\n        /* \"#utility.yul\":1590:1699   */\n    tag_67:\n        /* \"#utility.yul\":1671:1692   */\n      tag_69\n        /* \"#utility.yul\":1686:1691   */\n      dup2\n        /* \"#utility.yul\":1671:1692   */\n      tag_70\n      jump\t// in\n    tag_69:\n        /* \"#utility.yul\":1666:1669   */\n      dup3\n        /* \"#utility.yul\":1659:1693   */\n      mstore\n        /* \"#utility.yul\":1649:1699   */\n      pop\n      pop\n      jump\t// out\n        /* \"#utility.yul\":1705:2082   */\n    tag_71:\n        /* \"#utility.yul\":1811:1814   */\n      0x00\n        /* \"#utility.yul\":1839:1878   */\n      tag_73\n        /* \"#utility.yul\":1872:1877   */\n      dup3\n        /* \"#utility.yul\":1839:1878   */\n      tag_74\n      jump\t// in\n    tag_73:\n        /* \"#utility.yul\":1894:1983   */\n      tag_75\n        /* \"#utility.yul\":1976:1982   */\n      dup2\n        /* \"#utility.yul\":1971:1974   */\n      dup6\n        /* \"#utility.yul\":1894:1983   */\n      tag_76\n      jump\t// in\n    tag_75:\n        /* \"#utility.yul\":1887:1983   */\n      swap4\n      pop\n        /* \"#utility.yul\":1992:2044   */\n      tag_77\n        /* \"#utility.yul\":2037:2043   */\n      dup2\n        /* \"#utility.yul\":2032:2035   */\n      dup6\n        /* \"#utility.yul\":2025:2029   */\n      0x20\n        /* \"#utility.yul\":2018:2023   */\n      dup7\n        /* \"#utility.yul\":2014:2030   */\n      add\n        /* \"#utility.yul\":1992:2044   */\n      tag_78\n      jump\t// in\n    tag_77:\n        /* \"#utility.yul\":2069:2075   */\n      dup1\n        /* \"#utility.yul\":2064:2067   */\n      dup5\n        /* \"#utility.yul\":2060:2076   */\n      add\n        /* \"#utility.yul\":2053:2076   */\n      swap2\n      pop\n        /* \"#utility.yul\":1815:2082   */\n      pop\n      swap3\n      swap2\n      pop\n      pop\n      jump\t// out\n        /* \"#utility.yul\":2088:2363   */\n    tag_17:\n        /* \"#utility.yul\":2220:2223   */\n      0x00\n        /* \"#utility.yul\":2242:2337   */\n      tag_80\n        /* \"#utility.yul\":2333:2336   */\n      dup3\n        /* \"#utility.yul\":2324:2330   */\n      dup5\n        /* \"#utility.yul\":2242:2337   */\n      tag_71\n      jump\t// in\n    tag_80:\n        /* \"#utility.yul\":2235:2337   */\n      swap2\n      pop\n        /* \"#utility.yul\":2354:2357   */\n      dup2\n        /* \"#utility.yul\":2347:2357   */\n      swap1\n      pop\n        /* \"#utility.yul\":2224:2363   */\n      swap3\n      swap2\n      pop\n      pop\n      jump\t// out\n        /* \"#utility.yul\":2369:2579   */\n    tag_12:\n        /* \"#utility.yul\":2456:2460   */\n      0x00\n        /* \"#utility.yul\":2494:2496   */\n      0x20\n        /* \"#utility.yul\":2483:2492   */\n      dup3\n        /* \"#utility.yul\":2479:2497   */\n      add\n        /* \"#utility.yul\":2471:2497   */\n      swap1\n      pop\n        /* \"#utility.yul\":2507:2572   */\n      tag_82\n        /* \"#utility.yul\":2569:2570   */\n      0x00\n        /* \"#utility.yul\":2558:2567   */\n      dup4\n        /* \"#utility.yul\":2554:2571   */\n      add\n        /* \"#utility.yul\":2545:2551   */\n      dup5\n        /* \"#utility.yul\":2507:2572   */\n      tag_67\n      jump\t// in\n    tag_82:\n        /* \"#utility.yul\":2461:2579   */\n      swap3\n      swap2\n      pop\n      pop\n      jump\t// out\n        /* \"#utility.yul\":2585:2714   */\n    tag_42:\n        /* \"#utility.yul\":2619:2625   */\n      0x00\n        /* \"#utility.yul\":2646:2666   */\n      tag_84\n      tag_85\n      jump\t// in\n    tag_84:\n        /* \"#utility.yul\":2636:2666   */\n      swap1\n      pop\n        /* \"#utility.yul\":2675:2708   */\n      tag_86\n        /* \"#utility.yul\":2703:2707   */\n      dup3\n        /* \"#utility.yul\":2695:2701   */\n      dup3\n        /* \"#utility.yul\":2675:2708   */\n      tag_87\n      jump\t// in\n    tag_86:\n        /* \"#utility.yul\":2626:2714   */\n      swap2\n      swap1\n      pop\n      jump\t// out\n        /* \"#utility.yul\":2720:2795   */\n    tag_85:\n        /* \"#utility.yul\":2753:2759   */\n      0x00\n        /* \"#utility.yul\":2786:2788   */\n      0x40\n        /* \"#utility.yul\":2780:2789   */\n      mload\n        /* \"#utility.yul\":2770:2789   */\n      swap1\n      pop\n        /* \"#utility.yul\":2760:2795   */\n      swap1\n      jump\t// out\n        /* \"#utility.yul\":2801:3109   */\n    tag_41:\n        /* \"#utility.yul\":2863:2867   */\n      0x00\n        /* \"#utility.yul\":2953:2971   */\n      0xffffffffffffffff\n        /* \"#utility.yul\":2945:2951   */\n      dup3\n        /* \"#utility.yul\":2942:2972   */\n      gt\n        /* \"#utility.yul\":2939:2941   */\n      iszero\n      tag_90\n      jumpi\n        /* \"#utility.yul\":2975:2993   */\n      tag_91\n      tag_92\n      jump\t// in\n    tag_91:\n        /* \"#utility.yul\":2939:2941   */\n    tag_90:\n        /* \"#utility.yul\":3013:3042   */\n      tag_93\n        /* \"#utility.yul\":3035:3041   */\n      dup3\n        /* \"#utility.yul\":3013:3042   */\n      tag_94\n      jump\t// in\n    tag_93:\n        /* \"#utility.yul\":3005:3042   */\n      swap1\n      pop\n        /* \"#utility.yul\":3097:3101   */\n      0x20\n        /* \"#utility.yul\":3091:3095   */\n      dup2\n        /* \"#utility.yul\":3087:3102   */\n      add\n        /* \"#utility.yul\":3079:3102   */\n      swap1\n      pop\n        /* \"#utility.yul\":2868:3109   */\n      swap2\n      swap1\n      pop\n      jump\t// out\n        /* \"#utility.yul\":3115:3214   */\n    tag_74:\n        /* \"#utility.yul\":3167:3173   */\n      0x00\n        /* \"#utility.yul\":3201:3206   */\n      dup2\n        /* \"#utility.yul\":3195:3207   */\n      mload\n        /* \"#utility.yul\":3185:3207   */\n      swap1\n      pop\n        /* \"#utility.yul\":3174:3214   */\n      swap2\n      swap1\n      pop\n      jump\t// out\n        /* \"#utility.yul\":3220:3368   */\n    tag_76:\n        /* \"#utility.yul\":3322:3333   */\n      0x00\n        /* \"#utility.yul\":3359:3362   */\n      dup2\n        /* \"#utility.yul\":3344:3362   */\n      swap1\n      pop\n        /* \"#utility.yul\":3334:3368   */\n      swap3\n      swap2\n      pop\n      pop\n      jump\t// out\n        /* \"#utility.yul\":3374:3679   */\n    tag_15:\n        /* \"#utility.yul\":3414:3417   */\n      0x00\n        /* \"#utility.yul\":3433:3453   */\n      tag_98\n        /* \"#utility.yul\":3451:3452   */\n      dup3\n        /* \"#utility.yul\":3433:3453   */\n      tag_99\n      jump\t// in\n    tag_98:\n        /* \"#utility.yul\":3428:3453   */\n      swap2\n      pop\n        /* \"#utility.yul\":3467:3487   */\n      tag_100\n        /* \"#utility.yul\":3485:3486   */\n      dup4\n        /* \"#utility.yul\":3467:3487   */\n      tag_99\n      jump\t// in\n    tag_100:\n        /* \"#utility.yul\":3462:3487   */\n      swap3\n      pop\n        /* \"#utility.yul\":3621:3622   */\n      dup3\n        /* \"#utility.yul\":3553:3619   */\n      0xffffffffffffffffffffffffffffffffffffffffffffffffffffffffffffffff\n        /* \"#utility.yul\":3549:3623   */\n      sub\n        /* \"#utility.yul\":3546:3547   */\n      dup3\n        /* \"#utility.yul\":3543:3624   */\n      gt\n        /* \"#utility.yul\":3540:3542   */\n      iszero\n      tag_101\n      jumpi\n        /* \"#utility.yul\":3627:3645   */\n      tag_102\n      tag_103\n      jump\t// in\n    tag_102:\n        /* \"#utility.yul\":3540:3542   */\n    tag_101:\n        /* \"#utility.yul\":3671:3672   */\n      dup3\n        /* \"#utility.yul\":3668:3669   */\n      dup3\n        /* \"#utility.yul\":3664:3673   */\n      add\n        /* \"#utility.yul\":3657:3673   */\n      swap1\n      pop\n        /* \"#utility.yul\":3418:3679   */\n      swap3\n      swap2\n      pop\n      pop\n      jump\t// out\n        /* \"#utility.yul\":3685:3775   */\n    tag_70:\n        /* \"#utility.yul\":3719:3726   */\n      0x00\n        /* \"#utility.yul\":3762:3767   */\n      dup2\n        /* \"#utility.yul\":3755:3768   */\n      iszero\n        /* \"#utility.yul\":3748:3769   */\n      iszero\n        /* \"#utility.yul\":3737:3769   */\n      swap1\n      pop\n        /* \"#utility.yul\":3727:3775   */\n      swap2\n      swap1\n      pop\n      jump\t// out\n        /* \"#utility.yul\":3781:3858   */\n    tag_99:\n        /* \"#utility.yul\":3818:3825   */\n      0x00\n        /* \"#utility.yul\":3847:3852   */\n      dup2\n        /* \"#utility.yul\":3836:3852   */\n      swap1\n      pop\n        /* \"#utility.yul\":3826:3858   */\n      swap2\n      swap1\n      pop\n      jump\t// out\n        /* \"#utility.yul\":3864:4018   */\n    tag_47:\n        /* \"#utility.yul\":3948:3954   */\n      dup3\n        /* \"#utility.yul\":3943:3946   */\n      dup2\n        /* \"#utility.yul\":3938:3941   */\n      dup4\n        /* \"#utility.yul\":3925:3955   */\n      calldatacopy\n        /* \"#utility.yul\":4010:4011   */\n      0x00\n        /* \"#utility.yul\":4001:4007   */\n      dup4\n        /* \"#utility.yul\":3996:3999   */\n      dup4\n        /* \"#utility.yul\":3992:4008   */\n      add\n        /* \"#utility.yul\":3985:4012   */\n      mstore\n        /* \"#utility.yul\":3915:4018   */\n      pop\n      pop\n      pop\n      jump\t// out\n        /* \"#utility.yul\":4024:4331   */\n    tag_78:\n        /* \"#utility.yul\":4092:4093   */\n      0x00\n        /* \"#utility.yul\":4102:4215   */\n    tag_108:\n        /* \"#utility.yul\":4116:4122   */\n      dup4\n        /* \"#utility.yul\":4113:4114   */\n      dup2\n        /* \"#utility.yul\":4110:4123   */\n      lt\n        /* \"#utility.yul\":4102:4215   */\n      iszero\n      tag_110\n      jumpi\n        /* \"#utility.yul\":4201:4202   */\n      dup1\n        /* \"#utility.yul\":4196:4199   */\n      dup3\n        /* \"#utility.yul\":4192:4203   */\n      add\n        /* \"#utility.yul\":4186:4204   */\n      mload\n        /* \"#utility.yul\":4182:4183   */\n      dup2\n        /* \"#utility.yul\":4177:4180   */\n      dup5\n        /* \"#utility.yul\":4173:4184   */\n      add\n        /* \"#utility.yul\":4166:4205   */\n      mstore\n        /* \"#utility.yul\":4138:4140   */\n      0x20\n        /* \"#utility.yul\":4135:4136   */\n      dup2\n        /* \"#utility.yul\":4131:4141   */\n      add\n        /* \"#utility.yul\":4126:4141   */\n      swap1\n      pop\n        /* \"#utility.yul\":4102:4215   */\n      jump(tag_108)\n    tag_110:\n        /* \"#utility.yul\":4233:4239   */\n      dup4\n        /* \"#utility.yul\":4230:4231   */\n      dup2\n        /* \"#utility.yul\":4227:4240   */\n      gt\n        /* \"#utility.yul\":4224:4226   */\n      iszero\n      tag_111\n      jumpi\n        /* \"#utility.yul\":4313:4314   */\n      0x00\n        /* \"#utility.yul\":4304:4310   */\n      dup5\n        /* \"#utility.yul\":4299:4302   */\n      dup5\n        /* \"#utility.yul\":4295:4311   */\n      add\n        /* \"#utility.yul\":4288:4315   */\n      mstore\n        /* \"#utility.yul\":4224:4226   */\n    tag_111:\n        /* \"#utility.yul\":4073:4331   */\n      pop\n      pop\n      pop\n      pop\n      jump\t// out\n        /* \"#utility.yul\":4337:4657   */\n    tag_26:\n        /* \"#utility.yul\":4381:4387   */\n      0x00\n        /* \"#utility.yul\":4418:4419   */\n      0x02\n        /* \"#utility.yul\":4412:4416   */\n      dup3\n        /* \"#utility.yul\":4408:4420   */\n      div\n        /* \"#utility.yul\":4398:4420   */\n      swap1\n      pop\n        /* \"#utility.yul\":4465:4466   */\n      0x01\n        /* \"#utility.yul\":4459:4463   */\n      dup3\n        /* \"#utility.yul\":4455:4467   */\n      and\n        /* \"#utility.yul\":4486:4504   */\n      dup1\n        /* \"#utility.yul\":4476:4478   */\n      tag_113\n      jumpi\n        /* \"#utility.yul\":4542:4546   */\n      0x7f\n        /* \"#utility.yul\":4534:4540   */\n      dup3\n        /* \"#utility.yul\":4530:4547   */\n      and\n        /* \"#utility.yul\":4520:4547   */\n      swap2\n      pop\n        /* \"#utility.yul\":4476:4478   */\n    tag_113:\n        /* \"#utility.yul\":4604:4606   */\n      0x20\n        /* \"#utility.yul\":4596:4602   */\n      dup3\n        /* \"#utility.yul\":4593:4607   */\n      lt\n        /* \"#utility.yul\":4573:4591   */\n      dup2\n        /* \"#utility.yul\":4570:4608   */\n      eq\n        /* \"#utility.yul\":4567:4569   */\n      iszero\n      tag_114\n      jumpi\n        /* \"#utility.yul\":4623:4641   */\n      tag_115\n      tag_116\n      jump\t// in\n    tag_115:\n        /* \"#utility.yul\":4567:4569   */\n    tag_114:\n        /* \"#utility.yul\":4388:4657   */\n      pop\n      swap2\n      swap1\n      pop\n      jump\t// out\n        /* \"#utility.yul\":4663:4944   */\n    tag_87:\n        /* \"#utility.yul\":4746:4773   */\n      tag_118\n        /* \"#utility.yul\":4768:4772   */\n      dup3\n        /* \"#utility.yul\":4746:4773   */\n      tag_94\n      jump\t// in\n    tag_118:\n        /* \"#utility.yul\":4738:4744   */\n      dup2\n        /* \"#utility.yul\":4734:4774   */\n      add\n        /* \"#utility.yul\":4876:4882   */\n      dup2\n        /* \"#utility.yul\":4864:4874   */\n      dup2\n        /* \"#utility.yul\":4861:4883   */\n      lt\n        /* \"#utility.yul\":4840:4858   */\n      0xffffffffffffffff\n        /* \"#utility.yul\":4828:4838   */\n      dup3\n        /* \"#utility.yul\":4825:4859   */\n      gt\n        /* \"#utility.yul\":4822:4884   */\n      or\n        /* \"#utility.yul\":4819:4821   */\n      iszero\n      tag_119\n      jumpi\n        /* \"#utility.yul\":4887:4905   */\n      tag_120\n      tag_92\n      jump\t// in\n    tag_120:\n        /* \"#utility.yul\":4819:4821   */\n    tag_119:\n        /* \"#utility.yul\":4927:4937   */\n      dup1\n        /* \"#utility.yul\":4923:4925   */\n      0x40\n        /* \"#utility.yul\":4916:4938   */\n      mstore\n        /* \"#utility.yul\":4706:4944   */\n      pop\n      pop\n      pop\n      jump\t// out\n        /* \"#utility.yul\":4950:5130   */\n    tag_103:\n        /* \"#utility.yul\":4998:5075   */\n      0x4e487b7100000000000000000000000000000000000000000000000000000000\n        /* \"#utility.yul\":4995:4996   */\n      0x00\n        /* \"#utility.yul\":4988:5076   */\n      mstore\n        /* \"#utility.yul\":5095:5099   */\n      0x11\n        /* \"#utility.yul\":5092:5093   */\n      0x04\n        /* \"#utility.yul\":5085:5100   */\n      mstore\n        /* \"#utility.yul\":5119:5123   */\n      0x24\n        /* \"#utility.yul\":5116:5117   */\n      0x00\n        /* \"#utility.yul\":5109:5124   */\n      revert\n        /* \"#utility.yul\":5136:5316   */\n    tag_116:\n        /* \"#utility.yul\":5184:5261   */\n      0x4e487b7100000000000000000000000000000000000000000000000000000000\n        /* \"#utility.yul\":5181:5182   */\n      0x00\n        /* \"#utility.yul\":5174:5262   */\n      mstore\n        /* \"#utility.yul\":5281:5285   */\n      0x22\n        /* \"#utility.yul\":5278:5279   */\n      0x04\n        /* \"#utility.yul\":5271:5286   */\n      mstore\n        /* \"#utility.yul\":5305:5309   */\n      0x24\n        /* \"#utility.yul\":5302:5303   */\n      0x00\n        /* \"#utility.yul\":5295:5310   */\n      revert\n        /* \"#utility.yul\":5322:5502   */\n    tag_92:\n        /* \"#utility.yul\":5370:5447   */\n      0x4e487b7100000000000000000000000000000000000000000000000000000000\n        /* \"#utility.yul\":5367:5368   */\n      0x00\n        /* \"#utility.yul\":5360:5448   */\n      mstore\n        /* \"#utility.yul\":5467:5471   */\n      0x41\n        /* \"#utility.yul\":5464:5465   */\n      0x04\n        /* \"#utility.yul\":5457:5472   */\n      mstore\n        /* \"#utility.yul\":5491:5495   */\n      0x24\n        /* \"#utility.yul\":5488:5489   */\n      0x00\n        /* \"#utility.yul\":5481:5496   */\n      revert\n        /* \"#utility.yul\":5508:5625   */\n    tag_52:\n        /* \"#utility.yul\":5617:5618   */\n      0x00\n        /* \"#utility.yul\":5614:5615   */\n      dup1\n        /* \"#utility.yul\":5607:5619   */\n      revert\n        /* \"#utility.yul\":5631:5748   */\n    tag_45:\n        /* \"#utility.yul\":5740:5741   */\n      0x00\n        /* \"#utility.yul\":5737:5738   */\n      dup1\n        /* \"#utility.yul\":5730:5742   */\n      revert\n        /* \"#utility.yul\":5754:5871   */\n    tag_64:\n        /* \"#utility.yul\":5863:5864   */\n      0x00\n        /* \"#utility.yul\":5860:5861   */\n      dup1\n        /* \"#utility.yul\":5853:5865   */\n      revert\n        /* \"#utility.yul\":5877:5994   */\n    tag_61:\n        /* \"#utility.yul\":5986:5987   */\n      0x00\n        /* \"#utility.yul\":5983:5984   */\n      dup1\n        /* \"#utility.yul\":5976:5988   */\n      revert\n        /* \"#utility.yul\":6000:6102   */\n    tag_94:\n        /* \"#utility.yul\":6041:6047   */\n      0x00\n        /* \"#utility.yul\":6092:6094   */\n      0x1f\n        /* \"#utility.yul\":6088:6095   */\n      not\n        /* \"#utility.yul\":6083:6085   */\n      0x1f\n        /* \"#utility.yul\":6076:6081   */\n      dup4\n        /* \"#utility.yul\":6072:6086   */\n      add\n        /* \"#utility.yul\":6068:6096   */\n      and\n        /* \"#utility.yul\":6058:6096   */\n      swap1\n      pop\n        /* \"#utility.yul\":6048:6102   */\n      swap2\n      swap1\n      pop\n      jump\t// out\n        /* \"#utility.yul\":6108:6230   */\n    tag_57:\n        /* \"#utility.yul\":6181:6205   */\n      tag_130\n        /* \"#utility.yul\":6199:6204   */\n      dup2\n        /* \"#utility.yul\":6181:6205   */\n      tag_99\n      jump\t// in\n    tag_130:\n        /* \"#utility.yul\":6174:6179   */\n      dup2\n        /* \"#utility.yul\":6171:6206   */\n      eq\n        /* \"#utility.yul\":6161:6163   */\n      tag_131\n      jumpi\n        /* \"#utility.yul\":6220:6221   */\n      0x00\n        /* \"#utility.yul\":6217:6218   */\n      dup1\n        /* \"#utility.yul\":6210:6222   */\n      revert\n        /* \"#utility.yul\":6161:6163   */\n    tag_131:\n        /* \"#utility.yul\":6151:6230   */\n      pop\n      jump\t// out\n\n    auxdata: 0xa264697066735822122001759a8efc67eab40fe52540fb0d566210e6e556fe3eea69d97595dcc96e5c9264736f6c63430008060033\n}\n",
				"bytecode": {
					"linkReferences": {},
					"object": "60806040526000805534801561001457600080fd5b506105e2806100246000396000f3fe6080604052600436106100295760003560e01c80632e2a713f1461002e57806345cd81b31461004a575b600080fd5b61004860048036038101906100439190610298565b61007a565b005b610064600480360381019061005f9190610298565b610117565b604051610071919061034b565b60405180910390f35b600160008082825461008c91906103d2565b925050819055506040518060800160405280600054815260200183815260200182815260200160008152506001836040516100c79190610334565b90815260200160405180910390206000820151816000015560208201518160010190805190602001906100fb929190610170565b5060408201518160020155606082015181600301559050505050565b60006001836040516101299190610334565b9081526020016040518091039020600201548260018560405161014c9190610334565b90815260200160405180910390206003015461016891906103d2565b505092915050565b82805461017c90610480565b90600052602060002090601f01602090048101928261019e57600085556101e5565b82601f106101b757805160ff19168380011785556101e5565b828001600101855582156101e5579182015b828111156101e45782518255916020019190600101906101c9565b5b5090506101f291906101f6565b5090565b5b8082111561020f5760008160009055506001016101f7565b5090565b60006102266102218461038b565b610366565b90508281526020810184848401111561024257610241610575565b5b61024d84828561043e565b509392505050565b600082601f83011261026a57610269610570565b5b813561027a848260208601610213565b91505092915050565b60008135905061029281610595565b92915050565b600080604083850312156102af576102ae61057f565b5b600083013567ffffffffffffffff8111156102cd576102cc61057a565b5b6102d985828601610255565b92505060206102ea85828601610283565b9150509250929050565b6102fd81610428565b82525050565b600061030e826103bc565b61031881856103c7565b935061032881856020860161044d565b80840191505092915050565b60006103408284610303565b915081905092915050565b600060208201905061036060008301846102f4565b92915050565b6000610370610381565b905061037c82826104b2565b919050565b6000604051905090565b600067ffffffffffffffff8211156103a6576103a5610541565b5b6103af82610584565b9050602081019050919050565b600081519050919050565b600081905092915050565b60006103dd82610434565b91506103e883610434565b9250827fffffffffffffffffffffffffffffffffffffffffffffffffffffffffffffffff0382111561041d5761041c6104e3565b5b828201905092915050565b60008115159050919050565b6000819050919050565b82818337600083830152505050565b60005b8381101561046b578082015181840152602081019050610450565b8381111561047a576000848401525b50505050565b6000600282049050600182168061049857607f821691505b602082108114156104ac576104ab610512565b5b50919050565b6104bb82610584565b810181811067ffffffffffffffff821117156104da576104d9610541565b5b80604052505050565b7f4e487b7100000000000000000000000000000000000000000000000000000000600052601160045260246000fd5b7f4e487b7100000000000000000000000000000000000000000000000000000000600052602260045260246000fd5b7f4e487b7100000000000000000000000000000000000000000000000000000000600052604160045260246000fd5b600080fd5b600080fd5b600080fd5b600080fd5b6000601f19601f8301169050919050565b61059e81610434565b81146105a957600080fd5b5056fea264697066735822122001759a8efc67eab40fe52540fb0d566210e6e556fe3eea69d97595dcc96e5c9264736f6c63430008060033",
					"opcodes": "PUSH1 0x80 PUSH1 0x40 MSTORE PUSH1 0x0 DUP1 SSTORE CALLVALUE DUP1 ISZERO PUSH2 0x14 JUMPI PUSH1 0x0 DUP1 REVERT JUMPDEST POP PUSH2 0x5E2 DUP1 PUSH2 0x24 PUSH1 0x0 CODECOPY PUSH1 0x0 RETURN INVALID PUSH1 0x80 PUSH1 0x40 MSTORE PUSH1 0x4 CALLDATASIZE LT PUSH2 0x29 JUMPI PUSH1 0x0 CALLDATALOAD PUSH1 0xE0 SHR DUP1 PUSH4 0x2E2A713F EQ PUSH2 0x2E JUMPI DUP1 PUSH4 0x45CD81B3 EQ PUSH2 0x4A JUMPI JUMPDEST PUSH1 0x0 DUP1 REVERT JUMPDEST PUSH2 0x48 PUSH1 0x4 DUP1 CALLDATASIZE SUB DUP2 ADD SWAP1 PUSH2 0x43 SWAP2 SWAP1 PUSH2 0x298 JUMP JUMPDEST PUSH2 0x7A JUMP JUMPDEST STOP JUMPDEST PUSH2 0x64 PUSH1 0x4 DUP1 CALLDATASIZE SUB DUP2 ADD SWAP1 PUSH2 0x5F SWAP2 SWAP1 PUSH2 0x298 JUMP JUMPDEST PUSH2 0x117 JUMP JUMPDEST PUSH1 0x40 MLOAD PUSH2 0x71 SWAP2 SWAP1 PUSH2 0x34B JUMP JUMPDEST PUSH1 0x40 MLOAD DUP1 SWAP2 SUB SWAP1 RETURN JUMPDEST PUSH1 0x1 PUSH1 0x0 DUP1 DUP3 DUP3 SLOAD PUSH2 0x8C SWAP2 SWAP1 PUSH2 0x3D2 JUMP JUMPDEST SWAP3 POP POP DUP2 SWAP1 SSTORE POP PUSH1 0x40 MLOAD DUP1 PUSH1 0x80 ADD PUSH1 0x40 MSTORE DUP1 PUSH1 0x0 SLOAD DUP2 MSTORE PUSH1 0x20 ADD DUP4 DUP2 MSTORE PUSH1 0x20 ADD DUP3 DUP2 MSTORE PUSH1 0x20 ADD PUSH1 0x0 DUP2 MSTORE POP PUSH1 0x1 DUP4 PUSH1 0x40 MLOAD PUSH2 0xC7 SWAP2 SWAP1 PUSH2 0x334 JUMP JUMPDEST SWAP1 DUP2 MSTORE PUSH1 0x20 ADD PUSH1 0x40 MLOAD DUP1 SWAP2 SUB SWAP1 KECCAK256 PUSH1 0x0 DUP3 ADD MLOAD DUP2 PUSH1 0x0 ADD SSTORE PUSH1 0x20 DUP3 ADD MLOAD DUP2 PUSH1 0x1 ADD SWAP1 DUP1 MLOAD SWAP1 PUSH1 0x20 ADD SWAP1 PUSH2 0xFB SWAP3 SWAP2 SWAP1 PUSH2 0x170 JUMP JUMPDEST POP PUSH1 0x40 DUP3 ADD MLOAD DUP2 PUSH1 0x2 ADD SSTORE PUSH1 0x60 DUP3 ADD MLOAD DUP2 PUSH1 0x3 ADD SSTORE SWAP1 POP POP POP POP JUMP JUMPDEST PUSH1 0x0 PUSH1 0x1 DUP4 PUSH1 0x40 MLOAD PUSH2 0x129 SWAP2 SWAP1 PUSH2 0x334 JUMP JUMPDEST SWAP1 DUP2 MSTORE PUSH1 0x20 ADD PUSH1 0x40 MLOAD DUP1 SWAP2 SUB SWAP1 KECCAK256 PUSH1 0x2 ADD SLOAD DUP3 PUSH1 0x1 DUP6 PUSH1 0x40 MLOAD PUSH2 0x14C SWAP2 SWAP1 PUSH2 0x334 JUMP JUMPDEST SWAP1 DUP2 MSTORE PUSH1 0x20 ADD PUSH1 0x40 MLOAD DUP1 SWAP2 SUB SWAP1 KECCAK256 PUSH1 0x3 ADD SLOAD PUSH2 0x168 SWAP2 SWAP1 PUSH2 0x3D2 JUMP JUMPDEST POP POP SWAP3 SWAP2 POP POP JUMP JUMPDEST DUP3 DUP1 SLOAD PUSH2 0x17C SWAP1 PUSH2 0x480 JUMP JUMPDEST SWAP1 PUSH1 0x0 MSTORE PUSH1 0x20 PUSH1 0x0 KECCAK256 SWAP1 PUSH1 0x1F ADD PUSH1 0x20 SWAP1 DIV DUP2 ADD SWAP3 DUP3 PUSH2 0x19E JUMPI PUSH1 0x0 DUP6 SSTORE PUSH2 0x1E5 JUMP JUMPDEST DUP3 PUSH1 0x1F LT PUSH2 0x1B7 JUMPI DUP1 MLOAD PUSH1 0xFF NOT AND DUP4 DUP1 ADD OR DUP6 SSTORE PUSH2 0x1E5 JUMP JUMPDEST DUP3 DUP1 ADD PUSH1 0x1 ADD DUP6 SSTORE DUP3 ISZERO PUSH2 0x1E5 JUMPI SWAP2 DUP3 ADD JUMPDEST DUP3 DUP2 GT ISZERO PUSH2 0x1E4 JUMPI DUP3 MLOAD DUP3 SSTORE SWAP2 PUSH1 0x20 ADD SWAP2 SWAP1 PUSH1 0x1 ADD SWAP1 PUSH2 0x1C9 JUMP JUMPDEST JUMPDEST POP SWAP1 POP PUSH2 0x1F2 SWAP2 SWAP1 PUSH2 0x1F6 JUMP JUMPDEST POP SWAP1 JUMP JUMPDEST JUMPDEST DUP1 DUP3 GT ISZERO PUSH2 0x20F JUMPI PUSH1 0x0 DUP2 PUSH1 0x0 SWAP1 SSTORE POP PUSH1 0x1 ADD PUSH2 0x1F7 JUMP JUMPDEST POP SWAP1 JUMP JUMPDEST PUSH1 0x0 PUSH2 0x226 PUSH2 0x221 DUP5 PUSH2 0x38B JUMP JUMPDEST PUSH2 0x366 JUMP JUMPDEST SWAP1 POP DUP3 DUP2 MSTORE PUSH1 0x20 DUP2 ADD DUP5 DUP5 DUP5 ADD GT ISZERO PUSH2 0x242 JUMPI PUSH2 0x241 PUSH2 0x575 JUMP JUMPDEST JUMPDEST PUSH2 0x24D DUP5 DUP3 DUP6 PUSH2 0x43E JUMP JUMPDEST POP SWAP4 SWAP3 POP POP POP JUMP JUMPDEST PUSH1 0x0 DUP3 PUSH1 0x1F DUP4 ADD SLT PUSH2 0x26A JUMPI PUSH2 0x269 PUSH2 0x570 JUMP JUMPDEST JUMPDEST DUP2 CALLDATALOAD PUSH2 0x27A DUP5 DUP3 PUSH1 0x20 DUP7 ADD PUSH2 0x213 JUMP JUMPDEST SWAP2 POP POP SWAP3 SWAP2 POP POP JUMP JUMPDEST PUSH1 0x0 DUP2 CALLDATALOAD SWAP1 POP PUSH2 0x292 DUP2 PUSH2 0x595 JUMP JUMPDEST SWAP3 SWAP2 POP POP JUMP JUMPDEST PUSH1 0x0 DUP1 PUSH1 0x40 DUP4 DUP6 SUB SLT ISZERO PUSH2 0x2AF JUMPI PUSH2 0x2AE PUSH2 0x57F JUMP JUMPDEST JUMPDEST PUSH1 0x0 DUP4 ADD CALLDATALOAD PUSH8 0xFFFFFFFFFFFFFFFF DUP2 GT ISZERO PUSH2 0x2CD JUMPI PUSH2 0x2CC PUSH2 0x57A JUMP JUMPDEST JUMPDEST PUSH2 0x2D9 DUP6 DUP3 DUP7 ADD PUSH2 0x255 JUMP JUMPDEST SWAP3 POP POP PUSH1 0x20 PUSH2 0x2EA DUP6 DUP3 DUP7 ADD PUSH2 0x283 JUMP JUMPDEST SWAP2 POP POP SWAP3 POP SWAP3 SWAP1 POP JUMP JUMPDEST PUSH2 0x2FD DUP2 PUSH2 0x428 JUMP JUMPDEST DUP3 MSTORE POP POP JUMP JUMPDEST PUSH1 0x0 PUSH2 0x30E DUP3 PUSH2 0x3BC JUMP JUMPDEST PUSH2 0x318 DUP2 DUP6 PUSH2 0x3C7 JUMP JUMPDEST SWAP4 POP PUSH2 0x328 DUP2 DUP6 PUSH1 0x20 DUP7 ADD PUSH2 0x44D JUMP JUMPDEST DUP1 DUP5 ADD SWAP2 POP POP SWAP3 SWAP2 POP POP JUMP JUMPDEST PUSH1 0x0 PUSH2 0x340 DUP3 DUP5 PUSH2 0x303 JUMP JUMPDEST SWAP2 POP DUP2 SWAP1 POP SWAP3 SWAP2 POP POP JUMP JUMPDEST PUSH1 0x0 PUSH1 0x20 DUP3 ADD SWAP1 POP PUSH2 0x360 PUSH1 0x0 DUP4 ADD DUP5 PUSH2 0x2F4 JUMP JUMPDEST SWAP3 SWAP2 POP POP JUMP JUMPDEST PUSH1 0x0 PUSH2 0x370 PUSH2 0x381 JUMP JUMPDEST SWAP1 POP PUSH2 0x37C DUP3 DUP3 PUSH2 0x4B2 JUMP JUMPDEST SWAP2 SWAP1 POP JUMP JUMPDEST PUSH1 0x0 PUSH1 0x40 MLOAD SWAP1 POP SWAP1 JUMP JUMPDEST PUSH1 0x0 PUSH8 0xFFFFFFFFFFFFFFFF DUP3 GT ISZERO PUSH2 0x3A6 JUMPI PUSH2 0x3A5 PUSH2 0x541 JUMP JUMPDEST JUMPDEST PUSH2 0x3AF DUP3 PUSH2 0x584 JUMP JUMPDEST SWAP1 POP PUSH1 0x20 DUP2 ADD SWAP1 POP SWAP2 SWAP1 POP JUMP JUMPDEST PUSH1 0x0 DUP2 MLOAD SWAP1 POP SWAP2 SWAP1 POP JUMP JUMPDEST PUSH1 0x0 DUP2 SWAP1 POP SWAP3 SWAP2 POP POP JUMP JUMPDEST PUSH1 0x0 PUSH2 0x3DD DUP3 PUSH2 0x434 JUMP JUMPDEST SWAP2 POP PUSH2 0x3E8 DUP4 PUSH2 0x434 JUMP JUMPDEST SWAP3 POP DUP3 PUSH32 0xFFFFFFFFFFFFFFFFFFFFFFFFFFFFFFFFFFFFFFFFFFFFFFFFFFFFFFFFFFFFFFFF SUB DUP3 GT ISZERO PUSH2 0x41D JUMPI PUSH2 0x41C PUSH2 0x4E3 JUMP JUMPDEST JUMPDEST DUP3 DUP3 ADD SWAP1 POP SWAP3 SWAP2 POP POP JUMP JUMPDEST PUSH1 0x0 DUP2 ISZERO ISZERO SWAP1 POP SWAP2 SWAP1 POP JUMP JUMPDEST PUSH1 0x0 DUP2 SWAP1 POP SWAP2 SWAP1 POP JUMP JUMPDEST DUP3 DUP2 DUP4 CALLDATACOPY PUSH1 0x0 DUP4 DUP4 ADD MSTORE POP POP POP JUMP JUMPDEST PUSH1 0x0 JUMPDEST DUP4 DUP2 LT ISZERO PUSH2 0x46B JUMPI DUP1 DUP3 ADD MLOAD DUP2 DUP5 ADD MSTORE PUSH1 0x20 DUP2 ADD SWAP1 POP PUSH2 0x450 JUMP JUMPDEST DUP4 DUP2 GT ISZERO PUSH2 0x47A JUMPI PUSH1 0x0 DUP5 DUP5 ADD MSTORE JUMPDEST POP POP POP POP JUMP JUMPDEST PUSH1 0x0 PUSH1 0x2 DUP3 DIV SWAP1 POP PUSH1 0x1 DUP3 AND DUP1 PUSH2 0x498 JUMPI PUSH1 0x7F DUP3 AND SWAP2 POP JUMPDEST PUSH1 0x20 DUP3 LT DUP2 EQ ISZERO PUSH2 0x4AC JUMPI PUSH2 0x4AB PUSH2 0x512 JUMP JUMPDEST JUMPDEST POP SWAP2 SWAP1 POP JUMP JUMPDEST PUSH2 0x4BB DUP3 PUSH2 0x584 JUMP JUMPDEST DUP2 ADD DUP2 DUP2 LT PUSH8 0xFFFFFFFFFFFFFFFF DUP3 GT OR ISZERO PUSH2 0x4DA JUMPI PUSH2 0x4D9 PUSH2 0x541 JUMP JUMPDEST JUMPDEST DUP1 PUSH1 0x40 MSTORE POP POP POP JUMP JUMPDEST PUSH32 0x4E487B7100000000000000000000000000000000000000000000000000000000 PUSH1 0x0 MSTORE PUSH1 0x11 PUSH1 0x4 MSTORE PUSH1 0x24 PUSH1 0x0 REVERT JUMPDEST PUSH32 0x4E487B7100000000000000000000000000000000000000000000000000000000 PUSH1 0x0 MSTORE PUSH1 0x22 PUSH1 0x4 MSTORE PUSH1 0x24 PUSH1 0x0 REVERT JUMPDEST PUSH32 0x4E487B7100000000000000000000000000000000000000000000000000000000 PUSH1 0x0 MSTORE PUSH1 0x41 PUSH1 0x4 MSTORE PUSH1 0x24 PUSH1 0x0 REVERT JUMPDEST PUSH1 0x0 DUP1 REVERT JUMPDEST PUSH1 0x0 DUP1 REVERT JUMPDEST PUSH1 0x0 DUP1 REVERT JUMPDEST PUSH1 0x0 DUP1 REVERT JUMPDEST PUSH1 0x0 PUSH1 0x1F NOT PUSH1 0x1F DUP4 ADD AND SWAP1 POP SWAP2 SWAP1 POP JUMP JUMPDEST PUSH2 0x59E DUP2 PUSH2 0x434 JUMP JUMPDEST DUP2 EQ PUSH2 0x5A9 JUMPI PUSH1 0x0 DUP1 REVERT JUMPDEST POP JUMP INVALID LOG2 PUSH5 0x6970667358 0x22 SLT KECCAK256 ADD PUSH22 0x9A8EFC67EAB40FE52540FB0D566210E6E556FE3EEA69 0xD9 PUSH22 0x95DCC96E5C9264736F6C634300080600330000000000 "
				},
				"gasEstimates": {
					"creation": {
						"codeDepositCost": "301200",
						"executionCost": "5349",
						"totalCost": "306549"
					},
					"external": {
						"agregarCausa(string,uint256)": "infinite",
						"donar(string,uint256)": "infinite"
					}
				},
				"methodIdentifiers": {
					"agregarCausa(string,uint256)": "2e2a713f",
					"donar(string,uint256)": "45cd81b3"
				}
			},
			"storageLayout": {
				"storage": [
					{
						"astId": 13,
						"contract": "Funciones/causas_beneficas.sol:CausasBeneficas",
						"label": "contadorCausas",
						"offset": 0,
						"slot": "0",
						"type": "t_uint256"
					},
					{
						"astId": 18,
						"contract": "Funciones/causas_beneficas.sol:CausasBeneficas",
						"label": "causas",
						"offset": 0,
						"slot": "1",
						"type": "t_mapping(t_string_memory_ptr,t_struct(causa)10_storage)"
					}
				],
				"types": {
					"t_mapping(t_string_memory_ptr,t_struct(causa)10_storage)": {
						"encoding": "mapping",
						"key": "t_string_memory_ptr",
						"label": "mapping(string => struct CausasBeneficas.causa)",
						"numberOfBytes": "32",
						"value": "t_struct(causa)10_storage"
					},
					"t_string_memory_ptr": {
						"encoding": "bytes",
						"label": "string",
						"numberOfBytes": "32"
					},
					"t_string_storage": {
						"encoding": "bytes",
						"label": "string",
						"numberOfBytes": "32"
					},
					"t_struct(causa)10_storage": {
						"encoding": "inplace",
						"label": "struct CausasBeneficas.causa",
						"members": [
							{
								"astId": 3,
								"contract": "Funciones/causas_beneficas.sol:CausasBeneficas",
								"label": "id",
								"offset": 0,
								"slot": "0",
								"type": "t_uint256"
							},
							{
								"astId": 5,
								"contract": "Funciones/causas_beneficas.sol:CausasBeneficas",
								"label": "nombre",
								"offset": 0,
								"slot": "1",
								"type": "t_string_storage"
							},
							{
								"astId": 7,
								"contract": "Funciones/causas_beneficas.sol:CausasBeneficas",
								"label": "montoObjetivo",
								"offset": 0,
								"slot": "2",
								"type": "t_uint256"
							},
							{
								"astId": 9,
								"contract": "Funciones/causas_beneficas.sol:CausasBeneficas",
								"label": "montoRecaudado",
								"offset": 0,
								"slot": "3",
								"type": "t_uint256"
							}
						],
						"numberOfBytes": "128"
					},
					"t_uint256": {
						"encoding": "inplace",
						"label": "uint256",
						"numberOfBytes": "32"
					}
				}
			},
			"userdoc": {
				"kind": "user",
				"methods": {},
				"version": 1
			}
		}
	}
}