{
	"Funciones/eventos.sol": {
		"Eventos": {
			"abi": [
				{
					"anonymous": false,
					"inputs": [
						{
							"indexed": false,
							"internalType": "string",
							"name": "_nombrePersona",
							"type": "string"
						}
					],
					"name": "evento1",
					"type": "event"
				},
				{
					"anonymous": false,
					"inputs": [
						{
							"indexed": false,
							"internalType": "string",
							"name": "_nombrePersona",
							"type": "string"
						},
						{
							"indexed": false,
							"internalType": "uint256",
							"name": "_edadPersona",
							"type": "uint256"
						}
					],
					"name": "evento2",
					"type": "event"
				},
				{
					"inputs": [
						{
							"internalType": "string",
							"name": "_nombrePersona",
							"type": "string"
						}
					],
					"name": "emitirEvento1",
					"outputs": [],
					"stateMutability": "nonpayable",
					"type": "function"
				},
				{
					"inputs": [
						{
							"internalType": "string",
							"name": "_nombrePersona",
							"type": "string"
						},
						{
							"internalType": "uint256",
							"name": "_edadPersona",
							"type": "uint256"
						}
					],
					"name": "emitirEvento2",
					"outputs": [],
					"stateMutability": "nonpayable",
					"type": "function"
				}
			],
			"devdoc": {
				"kind": "dev",
				"methods": {},
				"version": 1
			},
			"evm": {
				"assembly": "    /* \"Funciones/eventos.sol\":33:442  contract Eventos {... */\n  mstore(0x40, 0x80)\n  callvalue\n  dup1\n  iszero\n  tag_1\n  jumpi\n  0x00\n  dup1\n  revert\ntag_1:\n  pop\n  dataSize(sub_0)\n  dup1\n  dataOffset(sub_0)\n  0x00\n  codecopy\n  0x00\n  return\nstop\n\nsub_0: assembly {\n        /* \"Funciones/eventos.sol\":33:442  contract Eventos {... */\n      mstore(0x40, 0x80)\n      callvalue\n      dup1\n      iszero\n      tag_1\n      jumpi\n      0x00\n      dup1\n      revert\n    tag_1:\n      pop\n      jumpi(tag_2, lt(calldatasize, 0x04))\n      shr(0xe0, calldataload(0x00))\n      dup1\n      0x7cf1103d\n      eq\n      tag_3\n      jumpi\n      dup1\n      0x7f4f0f35\n      eq\n      tag_4\n      jumpi\n    tag_2:\n      0x00\n      dup1\n      revert\n        /* \"Funciones/eventos.sol\":204:309  function emitirEvento1(string memory _nombrePersona) public {... */\n    tag_3:\n      tag_5\n      0x04\n      dup1\n      calldatasize\n      sub\n      dup2\n      add\n      swap1\n      tag_6\n      swap2\n      swap1\n      tag_7\n      jump\t// in\n    tag_6:\n      tag_8\n      jump\t// in\n    tag_5:\n      stop\n        /* \"Funciones/eventos.sol\":315:439  function emitirEvento2(string memory _nombrePersona, uint _edadPersona) public {... */\n    tag_4:\n      tag_9\n      0x04\n      dup1\n      calldatasize\n      sub\n      dup2\n      add\n      swap1\n      tag_10\n      swap2\n      swap1\n      tag_11\n      jump\t// in\n    tag_10:\n      tag_12\n      jump\t// in\n    tag_9:\n      stop\n        /* \"Funciones/eventos.sol\":204:309  function emitirEvento1(string memory _nombrePersona) public {... */\n    tag_8:\n        /* \"Funciones/eventos.sol\":279:302  evento1(_nombrePersona) */\n      0xbb9feca183dbd63d27399e01607802b8663d1c6d1b7a331ed919063ea22675a2\n        /* \"Funciones/eventos.sol\":287:301  _nombrePersona */\n      dup2\n        /* \"Funciones/eventos.sol\":279:302  evento1(_nombrePersona) */\n      mload(0x40)\n      tag_14\n      swap2\n      swap1\n      tag_15\n      jump\t// in\n    tag_14:\n      mload(0x40)\n      dup1\n      swap2\n      sub\n      swap1\n      log1\n        /* \"Funciones/eventos.sol\":204:309  function emitirEvento1(string memory _nombrePersona) public {... */\n      pop\n      jump\t// out\n        /* \"Funciones/eventos.sol\":315:439  function emitirEvento2(string memory _nombrePersona, uint _edadPersona) public {... */\n    tag_12:\n        /* \"Funciones/eventos.sol\":409:432  evento1(_nombrePersona) */\n      0xbb9feca183dbd63d27399e01607802b8663d1c6d1b7a331ed919063ea22675a2\n        /* \"Funciones/eventos.sol\":417:431  _nombrePersona */\n      dup3\n        /* \"Funciones/eventos.sol\":409:432  evento1(_nombrePersona) */\n      mload(0x40)\n      tag_17\n      swap2\n      swap1\n      tag_15\n      jump\t// in\n    tag_17:\n      mload(0x40)\n      dup1\n      swap2\n      sub\n      swap1\n      log1\n        /* \"Funciones/eventos.sol\":315:439  function emitirEvento2(string memory _nombrePersona, uint _edadPersona) public {... */\n      pop\n      pop\n      jump\t// out\n        /* \"#utility.yul\":7:419   */\n    tag_19:\n        /* \"#utility.yul\":85:90   */\n      0x00\n        /* \"#utility.yul\":110:176   */\n      tag_21\n        /* \"#utility.yul\":126:175   */\n      tag_22\n        /* \"#utility.yul\":168:174   */\n      dup5\n        /* \"#utility.yul\":126:175   */\n      tag_23\n      jump\t// in\n    tag_22:\n        /* \"#utility.yul\":110:176   */\n      tag_24\n      jump\t// in\n    tag_21:\n        /* \"#utility.yul\":101:176   */\n      swap1\n      pop\n        /* \"#utility.yul\":199:205   */\n      dup3\n        /* \"#utility.yul\":192:197   */\n      dup2\n        /* \"#utility.yul\":185:206   */\n      mstore\n        /* \"#utility.yul\":237:241   */\n      0x20\n        /* \"#utility.yul\":230:235   */\n      dup2\n        /* \"#utility.yul\":226:242   */\n      add\n        /* \"#utility.yul\":275:278   */\n      dup5\n        /* \"#utility.yul\":266:272   */\n      dup5\n        /* \"#utility.yul\":261:264   */\n      dup5\n        /* \"#utility.yul\":257:273   */\n      add\n        /* \"#utility.yul\":254:279   */\n      gt\n        /* \"#utility.yul\":251:253   */\n      iszero\n      tag_25\n      jumpi\n        /* \"#utility.yul\":282:361   */\n      tag_26\n      tag_27\n      jump\t// in\n    tag_26:\n        /* \"#utility.yul\":251:253   */\n    tag_25:\n        /* \"#utility.yul\":372:413   */\n      tag_28\n        /* \"#utility.yul\":406:412   */\n      dup5\n        /* \"#utility.yul\":401:404   */\n      dup3\n        /* \"#utility.yul\":396:399   */\n      dup6\n        /* \"#utility.yul\":372:413   */\n      tag_29\n      jump\t// in\n    tag_28:\n        /* \"#utility.yul\":91:419   */\n      pop\n      swap4\n      swap3\n      pop\n      pop\n      pop\n      jump\t// out\n        /* \"#utility.yul\":439:779   */\n    tag_30:\n        /* \"#utility.yul\":495:500   */\n      0x00\n        /* \"#utility.yul\":544:547   */\n      dup3\n        /* \"#utility.yul\":537:541   */\n      0x1f\n        /* \"#utility.yul\":529:535   */\n      dup4\n        /* \"#utility.yul\":525:542   */\n      add\n        /* \"#utility.yul\":521:548   */\n      slt\n        /* \"#utility.yul\":511:513   */\n      tag_32\n      jumpi\n        /* \"#utility.yul\":552:631   */\n      tag_33\n      tag_34\n      jump\t// in\n    tag_33:\n        /* \"#utility.yul\":511:513   */\n    tag_32:\n        /* \"#utility.yul\":669:675   */\n      dup2\n        /* \"#utility.yul\":656:676   */\n      calldataload\n        /* \"#utility.yul\":694:773   */\n      tag_35\n        /* \"#utility.yul\":769:772   */\n      dup5\n        /* \"#utility.yul\":761:767   */\n      dup3\n        /* \"#utility.yul\":754:758   */\n      0x20\n        /* \"#utility.yul\":746:752   */\n      dup7\n        /* \"#utility.yul\":742:759   */\n      add\n        /* \"#utility.yul\":694:773   */\n      tag_19\n      jump\t// in\n    tag_35:\n        /* \"#utility.yul\":685:773   */\n      swap2\n      pop\n        /* \"#utility.yul\":501:779   */\n      pop\n      swap3\n      swap2\n      pop\n      pop\n      jump\t// out\n        /* \"#utility.yul\":785:924   */\n    tag_36:\n        /* \"#utility.yul\":831:836   */\n      0x00\n        /* \"#utility.yul\":869:875   */\n      dup2\n        /* \"#utility.yul\":856:876   */\n      calldataload\n        /* \"#utility.yul\":847:876   */\n      swap1\n      pop\n        /* \"#utility.yul\":885:918   */\n      tag_38\n        /* \"#utility.yul\":912:917   */\n      dup2\n        /* \"#utility.yul\":885:918   */\n      tag_39\n      jump\t// in\n    tag_38:\n        /* \"#utility.yul\":837:924   */\n      swap3\n      swap2\n      pop\n      pop\n      jump\t// out\n        /* \"#utility.yul\":930:1439   */\n    tag_7:\n        /* \"#utility.yul\":999:1005   */\n      0x00\n        /* \"#utility.yul\":1048:1050   */\n      0x20\n        /* \"#utility.yul\":1036:1045   */\n      dup3\n        /* \"#utility.yul\":1027:1034   */\n      dup5\n        /* \"#utility.yul\":1023:1046   */\n      sub\n        /* \"#utility.yul\":1019:1051   */\n      slt\n        /* \"#utility.yul\":1016:1018   */\n      iszero\n      tag_41\n      jumpi\n        /* \"#utility.yul\":1054:1133   */\n      tag_42\n      tag_43\n      jump\t// in\n    tag_42:\n        /* \"#utility.yul\":1016:1018   */\n    tag_41:\n        /* \"#utility.yul\":1202:1203   */\n      0x00\n        /* \"#utility.yul\":1191:1200   */\n      dup3\n        /* \"#utility.yul\":1187:1204   */\n      add\n        /* \"#utility.yul\":1174:1205   */\n      calldataload\n        /* \"#utility.yul\":1232:1250   */\n      0xffffffffffffffff\n        /* \"#utility.yul\":1224:1230   */\n      dup2\n        /* \"#utility.yul\":1221:1251   */\n      gt\n        /* \"#utility.yul\":1218:1220   */\n      iszero\n      tag_44\n      jumpi\n        /* \"#utility.yul\":1254:1333   */\n      tag_45\n      tag_46\n      jump\t// in\n    tag_45:\n        /* \"#utility.yul\":1218:1220   */\n    tag_44:\n        /* \"#utility.yul\":1359:1422   */\n      tag_47\n        /* \"#utility.yul\":1414:1421   */\n      dup5\n        /* \"#utility.yul\":1405:1411   */\n      dup3\n        /* \"#utility.yul\":1394:1403   */\n      dup6\n        /* \"#utility.yul\":1390:1412   */\n      add\n        /* \"#utility.yul\":1359:1422   */\n      tag_30\n      jump\t// in\n    tag_47:\n        /* \"#utility.yul\":1349:1422   */\n      swap2\n      pop\n        /* \"#utility.yul\":1145:1432   */\n      pop\n        /* \"#utility.yul\":1006:1439   */\n      swap3\n      swap2\n      pop\n      pop\n      jump\t// out\n        /* \"#utility.yul\":1445:2099   */\n    tag_11:\n        /* \"#utility.yul\":1523:1529   */\n      0x00\n        /* \"#utility.yul\":1531:1537   */\n      dup1\n        /* \"#utility.yul\":1580:1582   */\n      0x40\n        /* \"#utility.yul\":1568:1577   */\n      dup4\n        /* \"#utility.yul\":1559:1566   */\n      dup6\n        /* \"#utility.yul\":1555:1578   */\n      sub\n        /* \"#utility.yul\":1551:1583   */\n      slt\n        /* \"#utility.yul\":1548:1550   */\n      iszero\n      tag_49\n      jumpi\n        /* \"#utility.yul\":1586:1665   */\n      tag_50\n      tag_43\n      jump\t// in\n    tag_50:\n        /* \"#utility.yul\":1548:1550   */\n    tag_49:\n        /* \"#utility.yul\":1734:1735   */\n      0x00\n        /* \"#utility.yul\":1723:1732   */\n      dup4\n        /* \"#utility.yul\":1719:1736   */\n      add\n        /* \"#utility.yul\":1706:1737   */\n      calldataload\n        /* \"#utility.yul\":1764:1782   */\n      0xffffffffffffffff\n        /* \"#utility.yul\":1756:1762   */\n      dup2\n        /* \"#utility.yul\":1753:1783   */\n      gt\n        /* \"#utility.yul\":1750:1752   */\n      iszero\n      tag_51\n      jumpi\n        /* \"#utility.yul\":1786:1865   */\n      tag_52\n      tag_46\n      jump\t// in\n    tag_52:\n        /* \"#utility.yul\":1750:1752   */\n    tag_51:\n        /* \"#utility.yul\":1891:1954   */\n      tag_53\n        /* \"#utility.yul\":1946:1953   */\n      dup6\n        /* \"#utility.yul\":1937:1943   */\n      dup3\n        /* \"#utility.yul\":1926:1935   */\n      dup7\n        /* \"#utility.yul\":1922:1944   */\n      add\n        /* \"#utility.yul\":1891:1954   */\n      tag_30\n      jump\t// in\n    tag_53:\n        /* \"#utility.yul\":1881:1954   */\n      swap3\n      pop\n        /* \"#utility.yul\":1677:1964   */\n      pop\n        /* \"#utility.yul\":2003:2005   */\n      0x20\n        /* \"#utility.yul\":2029:2082   */\n      tag_54\n        /* \"#utility.yul\":2074:2081   */\n      dup6\n        /* \"#utility.yul\":2065:2071   */\n      dup3\n        /* \"#utility.yul\":2054:2063   */\n      dup7\n        /* \"#utility.yul\":2050:2072   */\n      add\n        /* \"#utility.yul\":2029:2082   */\n      tag_36\n      jump\t// in\n    tag_54:\n        /* \"#utility.yul\":2019:2082   */\n      swap2\n      pop\n        /* \"#utility.yul\":1974:2092   */\n      pop\n        /* \"#utility.yul\":1538:2099   */\n      swap3\n      pop\n      swap3\n      swap1\n      pop\n      jump\t// out\n        /* \"#utility.yul\":2105:2469   */\n    tag_55:\n        /* \"#utility.yul\":2193:2196   */\n      0x00\n        /* \"#utility.yul\":2221:2260   */\n      tag_57\n        /* \"#utility.yul\":2254:2259   */\n      dup3\n        /* \"#utility.yul\":2221:2260   */\n      tag_58\n      jump\t// in\n    tag_57:\n        /* \"#utility.yul\":2276:2347   */\n      tag_59\n        /* \"#utility.yul\":2340:2346   */\n      dup2\n        /* \"#utility.yul\":2335:2338   */\n      dup6\n        /* \"#utility.yul\":2276:2347   */\n      tag_60\n      jump\t// in\n    tag_59:\n        /* \"#utility.yul\":2269:2347   */\n      swap4\n      pop\n        /* \"#utility.yul\":2356:2408   */\n      tag_61\n        /* \"#utility.yul\":2401:2407   */\n      dup2\n        /* \"#utility.yul\":2396:2399   */\n      dup6\n        /* \"#utility.yul\":2389:2393   */\n      0x20\n        /* \"#utility.yul\":2382:2387   */\n      dup7\n        /* \"#utility.yul\":2378:2394   */\n      add\n        /* \"#utility.yul\":2356:2408   */\n      tag_62\n      jump\t// in\n    tag_61:\n        /* \"#utility.yul\":2433:2462   */\n      tag_63\n        /* \"#utility.yul\":2455:2461   */\n      dup2\n        /* \"#utility.yul\":2433:2462   */\n      tag_64\n      jump\t// in\n    tag_63:\n        /* \"#utility.yul\":2428:2431   */\n      dup5\n        /* \"#utility.yul\":2424:2463   */\n      add\n        /* \"#utility.yul\":2417:2463   */\n      swap2\n      pop\n        /* \"#utility.yul\":2197:2469   */\n      pop\n      swap3\n      swap2\n      pop\n      pop\n      jump\t// out\n        /* \"#utility.yul\":2475:2788   */\n    tag_15:\n        /* \"#utility.yul\":2588:2592   */\n      0x00\n        /* \"#utility.yul\":2626:2628   */\n      0x20\n        /* \"#utility.yul\":2615:2624   */\n      dup3\n        /* \"#utility.yul\":2611:2629   */\n      add\n        /* \"#utility.yul\":2603:2629   */\n      swap1\n      pop\n        /* \"#utility.yul\":2675:2684   */\n      dup2\n        /* \"#utility.yul\":2669:2673   */\n      dup2\n        /* \"#utility.yul\":2665:2685   */\n      sub\n        /* \"#utility.yul\":2661:2662   */\n      0x00\n        /* \"#utility.yul\":2650:2659   */\n      dup4\n        /* \"#utility.yul\":2646:2663   */\n      add\n        /* \"#utility.yul\":2639:2686   */\n      mstore\n        /* \"#utility.yul\":2703:2781   */\n      tag_66\n        /* \"#utility.yul\":2776:2780   */\n      dup2\n        /* \"#utility.yul\":2767:2773   */\n      dup5\n        /* \"#utility.yul\":2703:2781   */\n      tag_55\n      jump\t// in\n    tag_66:\n        /* \"#utility.yul\":2695:2781   */\n      swap1\n      pop\n        /* \"#utility.yul\":2593:2788   */\n      swap3\n      swap2\n      pop\n      pop\n      jump\t// out\n        /* \"#utility.yul\":2794:2923   */\n    tag_24:\n        /* \"#utility.yul\":2828:2834   */\n      0x00\n        /* \"#utility.yul\":2855:2875   */\n      tag_68\n      tag_69\n      jump\t// in\n    tag_68:\n        /* \"#utility.yul\":2845:2875   */\n      swap1\n      pop\n        /* \"#utility.yul\":2884:2917   */\n      tag_70\n        /* \"#utility.yul\":2912:2916   */\n      dup3\n        /* \"#utility.yul\":2904:2910   */\n      dup3\n        /* \"#utility.yul\":2884:2917   */\n      tag_71\n      jump\t// in\n    tag_70:\n        /* \"#utility.yul\":2835:2923   */\n      swap2\n      swap1\n      pop\n      jump\t// out\n        /* \"#utility.yul\":2929:3004   */\n    tag_69:\n        /* \"#utility.yul\":2962:2968   */\n      0x00\n        /* \"#utility.yul\":2995:2997   */\n      0x40\n        /* \"#utility.yul\":2989:2998   */\n      mload\n        /* \"#utility.yul\":2979:2998   */\n      swap1\n      pop\n        /* \"#utility.yul\":2969:3004   */\n      swap1\n      jump\t// out\n        /* \"#utility.yul\":3010:3318   */\n    tag_23:\n        /* \"#utility.yul\":3072:3076   */\n      0x00\n        /* \"#utility.yul\":3162:3180   */\n      0xffffffffffffffff\n        /* \"#utility.yul\":3154:3160   */\n      dup3\n        /* \"#utility.yul\":3151:3181   */\n      gt\n        /* \"#utility.yul\":3148:3150   */\n      iszero\n      tag_74\n      jumpi\n        /* \"#utility.yul\":3184:3202   */\n      tag_75\n      tag_76\n      jump\t// in\n    tag_75:\n        /* \"#utility.yul\":3148:3150   */\n    tag_74:\n        /* \"#utility.yul\":3222:3251   */\n      tag_77\n        /* \"#utility.yul\":3244:3250   */\n      dup3\n        /* \"#utility.yul\":3222:3251   */\n      tag_64\n      jump\t// in\n    tag_77:\n        /* \"#utility.yul\":3214:3251   */\n      swap1\n      pop\n        /* \"#utility.yul\":3306:3310   */\n      0x20\n        /* \"#utility.yul\":3300:3304   */\n      dup2\n        /* \"#utility.yul\":3296:3311   */\n      add\n        /* \"#utility.yul\":3288:3311   */\n      swap1\n      pop\n        /* \"#utility.yul\":3077:3318   */\n      swap2\n      swap1\n      pop\n      jump\t// out\n        /* \"#utility.yul\":3324:3423   */\n    tag_58:\n        /* \"#utility.yul\":3376:3382   */\n      0x00\n        /* \"#utility.yul\":3410:3415   */\n      dup2\n        /* \"#utility.yul\":3404:3416   */\n      mload\n        /* \"#utility.yul\":3394:3416   */\n      swap1\n      pop\n        /* \"#utility.yul\":3383:3423   */\n      swap2\n      swap1\n      pop\n      jump\t// out\n        /* \"#utility.yul\":3429:3598   */\n    tag_60:\n        /* \"#utility.yul\":3513:3524   */\n      0x00\n        /* \"#utility.yul\":3547:3553   */\n      dup3\n        /* \"#utility.yul\":3542:3545   */\n      dup3\n        /* \"#utility.yul\":3535:3554   */\n      mstore\n        /* \"#utility.yul\":3587:3591   */\n      0x20\n        /* \"#utility.yul\":3582:3585   */\n      dup3\n        /* \"#utility.yul\":3578:3592   */\n      add\n        /* \"#utility.yul\":3563:3592   */\n      swap1\n      pop\n        /* \"#utility.yul\":3525:3598   */\n      swap3\n      swap2\n      pop\n      pop\n      jump\t// out\n        /* \"#utility.yul\":3604:3681   */\n    tag_80:\n        /* \"#utility.yul\":3641:3648   */\n      0x00\n        /* \"#utility.yul\":3670:3675   */\n      dup2\n        /* \"#utility.yul\":3659:3675   */\n      swap1\n      pop\n        /* \"#utility.yul\":3649:3681   */\n      swap2\n      swap1\n      pop\n      jump\t// out\n        /* \"#utility.yul\":3687:3841   */\n    tag_29:\n        /* \"#utility.yul\":3771:3777   */\n      dup3\n        /* \"#utility.yul\":3766:3769   */\n      dup2\n        /* \"#utility.yul\":3761:3764   */\n      dup4\n        /* \"#utility.yul\":3748:3778   */\n      calldatacopy\n        /* \"#utility.yul\":3833:3834   */\n      0x00\n        /* \"#utility.yul\":3824:3830   */\n      dup4\n        /* \"#utility.yul\":3819:3822   */\n      dup4\n        /* \"#utility.yul\":3815:3831   */\n      add\n        /* \"#utility.yul\":3808:3835   */\n      mstore\n        /* \"#utility.yul\":3738:3841   */\n      pop\n      pop\n      pop\n      jump\t// out\n        /* \"#utility.yul\":3847:4154   */\n    tag_62:\n        /* \"#utility.yul\":3915:3916   */\n      0x00\n        /* \"#utility.yul\":3925:4038   */\n    tag_84:\n        /* \"#utility.yul\":3939:3945   */\n      dup4\n        /* \"#utility.yul\":3936:3937   */\n      dup2\n        /* \"#utility.yul\":3933:3946   */\n      lt\n        /* \"#utility.yul\":3925:4038   */\n      iszero\n      tag_86\n      jumpi\n        /* \"#utility.yul\":4024:4025   */\n      dup1\n        /* \"#utility.yul\":4019:4022   */\n      dup3\n        /* \"#utility.yul\":4015:4026   */\n      add\n        /* \"#utility.yul\":4009:4027   */\n      mload\n        /* \"#utility.yul\":4005:4006   */\n      dup2\n        /* \"#utility.yul\":4000:4003   */\n      dup5\n        /* \"#utility.yul\":3996:4007   */\n      add\n        /* \"#utility.yul\":3989:4028   */\n      mstore\n        /* \"#utility.yul\":3961:3963   */\n      0x20\n        /* \"#utility.yul\":3958:3959   */\n      dup2\n        /* \"#utility.yul\":3954:3964   */\n      add\n        /* \"#utility.yul\":3949:3964   */\n      swap1\n      pop\n        /* \"#utility.yul\":3925:4038   */\n      jump(tag_84)\n    tag_86:\n        /* \"#utility.yul\":4056:4062   */\n      dup4\n        /* \"#utility.yul\":4053:4054   */\n      dup2\n        /* \"#utility.yul\":4050:4063   */\n      gt\n        /* \"#utility.yul\":4047:4049   */\n      iszero\n      tag_87\n      jumpi\n        /* \"#utility.yul\":4136:4137   */\n      0x00\n        /* \"#utility.yul\":4127:4133   */\n      dup5\n        /* \"#utility.yul\":4122:4125   */\n      dup5\n        /* \"#utility.yul\":4118:4134   */\n      add\n        /* \"#utility.yul\":4111:4138   */\n      mstore\n        /* \"#utility.yul\":4047:4049   */\n    tag_87:\n        /* \"#utility.yul\":3896:4154   */\n      pop\n      pop\n      pop\n      pop\n      jump\t// out\n        /* \"#utility.yul\":4160:4441   */\n    tag_71:\n        /* \"#utility.yul\":4243:4270   */\n      tag_89\n        /* \"#utility.yul\":4265:4269   */\n      dup3\n        /* \"#utility.yul\":4243:4270   */\n      tag_64\n      jump\t// in\n    tag_89:\n        /* \"#utility.yul\":4235:4241   */\n      dup2\n        /* \"#utility.yul\":4231:4271   */\n      add\n        /* \"#utility.yul\":4373:4379   */\n      dup2\n        /* \"#utility.yul\":4361:4371   */\n      dup2\n        /* \"#utility.yul\":4358:4380   */\n      lt\n        /* \"#utility.yul\":4337:4355   */\n      0xffffffffffffffff\n        /* \"#utility.yul\":4325:4335   */\n      dup3\n        /* \"#utility.yul\":4322:4356   */\n      gt\n        /* \"#utility.yul\":4319:4381   */\n      or\n        /* \"#utility.yul\":4316:4318   */\n      iszero\n      tag_90\n      jumpi\n        /* \"#utility.yul\":4384:4402   */\n      tag_91\n      tag_76\n      jump\t// in\n    tag_91:\n        /* \"#utility.yul\":4316:4318   */\n    tag_90:\n        /* \"#utility.yul\":4424:4434   */\n      dup1\n        /* \"#utility.yul\":4420:4422   */\n      0x40\n        /* \"#utility.yul\":4413:4435   */\n      mstore\n        /* \"#utility.yul\":4203:4441   */\n      pop\n      pop\n      pop\n      jump\t// out\n        /* \"#utility.yul\":4447:4627   */\n    tag_76:\n        /* \"#utility.yul\":4495:4572   */\n      0x4e487b7100000000000000000000000000000000000000000000000000000000\n        /* \"#utility.yul\":4492:4493   */\n      0x00\n        /* \"#utility.yul\":4485:4573   */\n      mstore\n        /* \"#utility.yul\":4592:4596   */\n      0x41\n        /* \"#utility.yul\":4589:4590   */\n      0x04\n        /* \"#utility.yul\":4582:4597   */\n      mstore\n        /* \"#utility.yul\":4616:4620   */\n      0x24\n        /* \"#utility.yul\":4613:4614   */\n      0x00\n        /* \"#utility.yul\":4606:4621   */\n      revert\n        /* \"#utility.yul\":4633:4750   */\n    tag_34:\n        /* \"#utility.yul\":4742:4743   */\n      0x00\n        /* \"#utility.yul\":4739:4740   */\n      dup1\n        /* \"#utility.yul\":4732:4744   */\n      revert\n        /* \"#utility.yul\":4756:4873   */\n    tag_27:\n        /* \"#utility.yul\":4865:4866   */\n      0x00\n        /* \"#utility.yul\":4862:4863   */\n      dup1\n        /* \"#utility.yul\":4855:4867   */\n      revert\n        /* \"#utility.yul\":4879:4996   */\n    tag_46:\n        /* \"#utility.yul\":4988:4989   */\n      0x00\n        /* \"#utility.yul\":4985:4986   */\n      dup1\n        /* \"#utility.yul\":4978:4990   */\n      revert\n        /* \"#utility.yul\":5002:5119   */\n    tag_43:\n        /* \"#utility.yul\":5111:5112   */\n      0x00\n        /* \"#utility.yul\":5108:5109   */\n      dup1\n        /* \"#utility.yul\":5101:5113   */\n      revert\n        /* \"#utility.yul\":5125:5227   */\n    tag_64:\n        /* \"#utility.yul\":5166:5172   */\n      0x00\n        /* \"#utility.yul\":5217:5219   */\n      0x1f\n        /* \"#utility.yul\":5213:5220   */\n      not\n        /* \"#utility.yul\":5208:5210   */\n      0x1f\n        /* \"#utility.yul\":5201:5206   */\n      dup4\n        /* \"#utility.yul\":5197:5211   */\n      add\n        /* \"#utility.yul\":5193:5221   */\n      and\n        /* \"#utility.yul\":5183:5221   */\n      swap1\n      pop\n        /* \"#utility.yul\":5173:5227   */\n      swap2\n      swap1\n      pop\n      jump\t// out\n        /* \"#utility.yul\":5233:5355   */\n    tag_39:\n        /* \"#utility.yul\":5306:5330   */\n      tag_99\n        /* \"#utility.yul\":5324:5329   */\n      dup2\n        /* \"#utility.yul\":5306:5330   */\n      tag_80\n      jump\t// in\n    tag_99:\n        /* \"#utility.yul\":5299:5304   */\n      dup2\n        /* \"#utility.yul\":5296:5331   */\n      eq\n        /* \"#utility.yul\":5286:5288   */\n      tag_100\n      jumpi\n        /* \"#utility.yul\":5345:5346   */\n      0x00\n        /* \"#utility.yul\":5342:5343   */\n      dup1\n        /* \"#utility.yul\":5335:5347   */\n      revert\n        /* \"#utility.yul\":5286:5288   */\n    tag_100:\n        /* \"#utility.yul\":5276:5355   */\n      pop\n      jump\t// out\n\n    auxdata: 0xa2646970667358221220bff5bf61081415648f51d1930d591fcea995d0db0c7855aca4d411b2605ee22964736f6c63430008060033\n}\n",
				"bytecode": {
					"linkReferences": {},
					"object": "608060405234801561001057600080fd5b506103fd806100206000396000f3fe608060405234801561001057600080fd5b50600436106100365760003560e01c80637cf1103d1461003b5780637f4f0f3514610057575b600080fd5b6100556004803603810190610050919061016d565b610073565b005b610071600480360381019061006c91906101b6565b6100ad565b005b7fbb9feca183dbd63d27399e01607802b8663d1c6d1b7a331ed919063ea22675a2816040516100a2919061024b565b60405180910390a150565b7fbb9feca183dbd63d27399e01607802b8663d1c6d1b7a331ed919063ea22675a2826040516100dc919061024b565b60405180910390a15050565b60006100fb6100f684610292565b61026d565b90508281526020810184848401111561011757610116610390565b5b6101228482856102e9565b509392505050565b600082601f83011261013f5761013e61038b565b5b813561014f8482602086016100e8565b91505092915050565b600081359050610167816103b0565b92915050565b6000602082840312156101835761018261039a565b5b600082013567ffffffffffffffff8111156101a1576101a0610395565b5b6101ad8482850161012a565b91505092915050565b600080604083850312156101cd576101cc61039a565b5b600083013567ffffffffffffffff8111156101eb576101ea610395565b5b6101f78582860161012a565b925050602061020885828601610158565b9150509250929050565b600061021d826102c3565b61022781856102ce565b93506102378185602086016102f8565b6102408161039f565b840191505092915050565b600060208201905081810360008301526102658184610212565b905092915050565b6000610277610288565b9050610283828261032b565b919050565b6000604051905090565b600067ffffffffffffffff8211156102ad576102ac61035c565b5b6102b68261039f565b9050602081019050919050565b600081519050919050565b600082825260208201905092915050565b6000819050919050565b82818337600083830152505050565b60005b838110156103165780820151818401526020810190506102fb565b83811115610325576000848401525b50505050565b6103348261039f565b810181811067ffffffffffffffff821117156103535761035261035c565b5b80604052505050565b7f4e487b7100000000000000000000000000000000000000000000000000000000600052604160045260246000fd5b600080fd5b600080fd5b600080fd5b600080fd5b6000601f19601f8301169050919050565b6103b9816102df565b81146103c457600080fd5b5056fea2646970667358221220bff5bf61081415648f51d1930d591fcea995d0db0c7855aca4d411b2605ee22964736f6c63430008060033",
					"opcodes": "PUSH1 0x80 PUSH1 0x40 MSTORE CALLVALUE DUP1 ISZERO PUSH2 0x10 JUMPI PUSH1 0x0 DUP1 REVERT JUMPDEST POP PUSH2 0x3FD DUP1 PUSH2 0x20 PUSH1 0x0 CODECOPY PUSH1 0x0 RETURN INVALID PUSH1 0x80 PUSH1 0x40 MSTORE CALLVALUE DUP1 ISZERO PUSH2 0x10 JUMPI PUSH1 0x0 DUP1 REVERT JUMPDEST POP PUSH1 0x4 CALLDATASIZE LT PUSH2 0x36 JUMPI PUSH1 0x0 CALLDATALOAD PUSH1 0xE0 SHR DUP1 PUSH4 0x7CF1103D EQ PUSH2 0x3B JUMPI DUP1 PUSH4 0x7F4F0F35 EQ PUSH2 0x57 JUMPI JUMPDEST PUSH1 0x0 DUP1 REVERT JUMPDEST PUSH2 0x55 PUSH1 0x4 DUP1 CALLDATASIZE SUB DUP2 ADD SWAP1 PUSH2 0x50 SWAP2 SWAP1 PUSH2 0x16D JUMP JUMPDEST PUSH2 0x73 JUMP JUMPDEST STOP JUMPDEST PUSH2 0x71 PUSH1 0x4 DUP1 CALLDATASIZE SUB DUP2 ADD SWAP1 PUSH2 0x6C SWAP2 SWAP1 PUSH2 0x1B6 JUMP JUMPDEST PUSH2 0xAD JUMP JUMPDEST STOP JUMPDEST PUSH32 0xBB9FECA183DBD63D27399E01607802B8663D1C6D1B7A331ED919063EA22675A2 DUP2 PUSH1 0x40 MLOAD PUSH2 0xA2 SWAP2 SWAP1 PUSH2 0x24B JUMP JUMPDEST PUSH1 0x40 MLOAD DUP1 SWAP2 SUB SWAP1 LOG1 POP JUMP JUMPDEST PUSH32 0xBB9FECA183DBD63D27399E01607802B8663D1C6D1B7A331ED919063EA22675A2 DUP3 PUSH1 0x40 MLOAD PUSH2 0xDC SWAP2 SWAP1 PUSH2 0x24B JUMP JUMPDEST PUSH1 0x40 MLOAD DUP1 SWAP2 SUB SWAP1 LOG1 POP POP JUMP JUMPDEST PUSH1 0x0 PUSH2 0xFB PUSH2 0xF6 DUP5 PUSH2 0x292 JUMP JUMPDEST PUSH2 0x26D JUMP JUMPDEST SWAP1 POP DUP3 DUP2 MSTORE PUSH1 0x20 DUP2 ADD DUP5 DUP5 DUP5 ADD GT ISZERO PUSH2 0x117 JUMPI PUSH2 0x116 PUSH2 0x390 JUMP JUMPDEST JUMPDEST PUSH2 0x122 DUP5 DUP3 DUP6 PUSH2 0x2E9 JUMP JUMPDEST POP SWAP4 SWAP3 POP POP POP JUMP JUMPDEST PUSH1 0x0 DUP3 PUSH1 0x1F DUP4 ADD SLT PUSH2 0x13F JUMPI PUSH2 0x13E PUSH2 0x38B JUMP JUMPDEST JUMPDEST DUP2 CALLDATALOAD PUSH2 0x14F DUP5 DUP3 PUSH1 0x20 DUP7 ADD PUSH2 0xE8 JUMP JUMPDEST SWAP2 POP POP SWAP3 SWAP2 POP POP JUMP JUMPDEST PUSH1 0x0 DUP2 CALLDATALOAD SWAP1 POP PUSH2 0x167 DUP2 PUSH2 0x3B0 JUMP JUMPDEST SWAP3 SWAP2 POP POP JUMP JUMPDEST PUSH1 0x0 PUSH1 0x20 DUP3 DUP5 SUB SLT ISZERO PUSH2 0x183 JUMPI PUSH2 0x182 PUSH2 0x39A JUMP JUMPDEST JUMPDEST PUSH1 0x0 DUP3 ADD CALLDATALOAD PUSH8 0xFFFFFFFFFFFFFFFF DUP2 GT ISZERO PUSH2 0x1A1 JUMPI PUSH2 0x1A0 PUSH2 0x395 JUMP JUMPDEST JUMPDEST PUSH2 0x1AD DUP5 DUP3 DUP6 ADD PUSH2 0x12A JUMP JUMPDEST SWAP2 POP POP SWAP3 SWAP2 POP POP JUMP JUMPDEST PUSH1 0x0 DUP1 PUSH1 0x40 DUP4 DUP6 SUB SLT ISZERO PUSH2 0x1CD JUMPI PUSH2 0x1CC PUSH2 0x39A JUMP JUMPDEST JUMPDEST PUSH1 0x0 DUP4 ADD CALLDATALOAD PUSH8 0xFFFFFFFFFFFFFFFF DUP2 GT ISZERO PUSH2 0x1EB JUMPI PUSH2 0x1EA PUSH2 0x395 JUMP JUMPDEST JUMPDEST PUSH2 0x1F7 DUP6 DUP3 DUP7 ADD PUSH2 0x12A JUMP JUMPDEST SWAP3 POP POP PUSH1 0x20 PUSH2 0x208 DUP6 DUP3 DUP7 ADD PUSH2 0x158 JUMP JUMPDEST SWAP2 POP POP SWAP3 POP SWAP3 SWAP1 POP JUMP JUMPDEST PUSH1 0x0 PUSH2 0x21D DUP3 PUSH2 0x2C3 JUMP JUMPDEST PUSH2 0x227 DUP2 DUP6 PUSH2 0x2CE JUMP JUMPDEST SWAP4 POP PUSH2 0x237 DUP2 DUP6 PUSH1 0x20 DUP7 ADD PUSH2 0x2F8 JUMP JUMPDEST PUSH2 0x240 DUP2 PUSH2 0x39F JUMP JUMPDEST DUP5 ADD SWAP2 POP POP SWAP3 SWAP2 POP POP JUMP JUMPDEST PUSH1 0x0 PUSH1 0x20 DUP3 ADD SWAP1 POP DUP2 DUP2 SUB PUSH1 0x0 DUP4 ADD MSTORE PUSH2 0x265 DUP2 DUP5 PUSH2 0x212 JUMP JUMPDEST SWAP1 POP SWAP3 SWAP2 POP POP JUMP JUMPDEST PUSH1 0x0 PUSH2 0x277 PUSH2 0x288 JUMP JUMPDEST SWAP1 POP PUSH2 0x283 DUP3 DUP3 PUSH2 0x32B JUMP JUMPDEST SWAP2 SWAP1 POP JUMP JUMPDEST PUSH1 0x0 PUSH1 0x40 MLOAD SWAP1 POP SWAP1 JUMP JUMPDEST PUSH1 0x0 PUSH8 0xFFFFFFFFFFFFFFFF DUP3 GT ISZERO PUSH2 0x2AD JUMPI PUSH2 0x2AC PUSH2 0x35C JUMP JUMPDEST JUMPDEST PUSH2 0x2B6 DUP3 PUSH2 0x39F JUMP JUMPDEST SWAP1 POP PUSH1 0x20 DUP2 ADD SWAP1 POP SWAP2 SWAP1 POP JUMP JUMPDEST PUSH1 0x0 DUP2 MLOAD SWAP1 POP SWAP2 SWAP1 POP JUMP JUMPDEST PUSH1 0x0 DUP3 DUP3 MSTORE PUSH1 0x20 DUP3 ADD SWAP1 POP SWAP3 SWAP2 POP POP JUMP JUMPDEST PUSH1 0x0 DUP2 SWAP1 POP SWAP2 SWAP1 POP JUMP JUMPDEST DUP3 DUP2 DUP4 CALLDATACOPY PUSH1 0x0 DUP4 DUP4 ADD MSTORE POP POP POP JUMP JUMPDEST PUSH1 0x0 JUMPDEST DUP4 DUP2 LT ISZERO PUSH2 0x316 JUMPI DUP1 DUP3 ADD MLOAD DUP2 DUP5 ADD MSTORE PUSH1 0x20 DUP2 ADD SWAP1 POP PUSH2 0x2FB JUMP JUMPDEST DUP4 DUP2 GT ISZERO PUSH2 0x325 JUMPI PUSH1 0x0 DUP5 DUP5 ADD MSTORE JUMPDEST POP POP POP POP JUMP JUMPDEST PUSH2 0x334 DUP3 PUSH2 0x39F JUMP JUMPDEST DUP2 ADD DUP2 DUP2 LT PUSH8 0xFFFFFFFFFFFFFFFF DUP3 GT OR ISZERO PUSH2 0x353 JUMPI PUSH2 0x352 PUSH2 0x35C JUMP JUMPDEST JUMPDEST DUP1 PUSH1 0x40 MSTORE POP POP POP JUMP JUMPDEST PUSH32 0x4E487B7100000000000000000000000000000000000000000000000000000000 PUSH1 0x0 MSTORE PUSH1 0x41 PUSH1 0x4 MSTORE PUSH1 0x24 PUSH1 0x0 REVERT JUMPDEST PUSH1 0x0 DUP1 REVERT JUMPDEST PUSH1 0x0 DUP1 REVERT JUMPDEST PUSH1 0x0 DUP1 REVERT JUMPDEST PUSH1 0x0 DUP1 REVERT JUMPDEST PUSH1 0x0 PUSH1 0x1F NOT PUSH1 0x1F DUP4 ADD AND SWAP1 POP SWAP2 SWAP1 POP JUMP JUMPDEST PUSH2 0x3B9 DUP2 PUSH2 0x2DF JUMP JUMPDEST DUP2 EQ PUSH2 0x3C4 JUMPI PUSH1 0x0 DUP1 REVERT JUMPDEST POP JUMP INVALID LOG2 PUSH5 0x6970667358 0x22 SLT KECCAK256 0xBF CREATE2 0xBF PUSH2 0x814 ISZERO PUSH5 0x8F51D1930D MSIZE 0x1F 0xCE 0xA9 SWAP6 0xD0 0xDB 0xC PUSH25 0x55ACA4D411B2605EE22964736F6C6343000806003300000000 "
				},
				"gasEstimates": {
					"creation": {
						"codeDepositCost": "204200",
						"executionCost": "245",
						"totalCost": "204445"
					},
					"external": {
						"emitirEvento1(string)": "infinite",
						"emitirEvento2(string,uint256)": "infinite"
					}
				},
				"methodIdentifiers": {
					"emitirEvento1(string)": "7cf1103d",
					"emitirEvento2(string,uint256)": "7f4f0f35"
				}
			},
			"storageLayout": {
				"storage": [],
				"types": null
			},
			"userdoc": {
				"kind": "user",
				"methods": {},
				"version": 1
			}
		}
	}
}