{
	"Funciones/causas_beneficas.sol": {
		"CausasBeneficas": {
			"abi": [
				{
					"inputs": [
						{
							"internalType": "string",
							"name": "_nombre",
							"type": "string"
						},
						{
							"internalType": "uint256",
							"name": "_montoObjetivo",
							"type": "uint256"
						}
					],
					"name": "agregar",
					"outputs": [],
					"stateMutability": "payable",
					"type": "function"
				},
				{
					"inputs": [
						{
							"internalType": "string",
							"name": "_nombre",
							"type": "string"
						}
					],
					"name": "comprobar",
					"outputs": [
						{
							"internalType": "bool",
							"name": "",
							"type": "bool"
						},
						{
							"internalType": "uint256",
							"name": "",
							"type": "uint256"
						}
					],
					"stateMutability": "nonpayable",
					"type": "function"
				},
				{
					"inputs": [
						{
							"internalType": "string",
							"name": "_nombreCausa",
							"type": "string"
						},
						{
							"internalType": "uint256",
							"name": "_montoDonacion",
							"type": "uint256"
						}
					],
					"name": "donar",
					"outputs": [
						{
							"internalType": "bool",
							"name": "",
							"type": "bool"
						}
					],
					"stateMutability": "payable",
					"type": "function"
				}
			],
			"devdoc": {
				"kind": "dev",
				"methods": {},
				"version": 1
			},
			"evm": {
				"assembly": "    /* \"Funciones/causas_beneficas.sol\":33:1109  contract CausasBeneficas {... */\n  mstore(0x40, 0x80)\n    /* \"Funciones/causas_beneficas.sol\":210:211  0 */\n  0x00\n    /* \"Funciones/causas_beneficas.sol\":188:211  uint contadorCausas = 0 */\n  dup1\n  sstore\n    /* \"Funciones/causas_beneficas.sol\":33:1109  contract CausasBeneficas {... */\n  callvalue\n  dup1\n  iszero\n  tag_1\n  jumpi\n  0x00\n  dup1\n  revert\ntag_1:\n  pop\n  dataSize(sub_0)\n  dup1\n  dataOffset(sub_0)\n  0x00\n  codecopy\n  0x00\n  return\nstop\n\nsub_0: assembly {\n        /* \"Funciones/causas_beneficas.sol\":33:1109  contract CausasBeneficas {... */\n      mstore(0x40, 0x80)\n      jumpi(tag_1, lt(calldatasize, 0x04))\n      shr(0xe0, calldataload(0x00))\n      dup1\n      0x04c5b78f\n      eq\n      tag_2\n      jumpi\n      dup1\n      0x45cd81b3\n      eq\n      tag_3\n      jumpi\n      dup1\n      0xc6c8e11a\n      eq\n      tag_4\n      jumpi\n    tag_1:\n      0x00\n      dup1\n      revert\n        /* \"Funciones/causas_beneficas.sol\":1021:1106  function comprobar(string memory _nombre) public returns(bool, uint) {... */\n    tag_2:\n      callvalue\n      dup1\n      iszero\n      tag_5\n      jumpi\n      0x00\n      dup1\n      revert\n    tag_5:\n      pop\n      tag_6\n      0x04\n      dup1\n      calldatasize\n      sub\n      dup2\n      add\n      swap1\n      tag_7\n      swap2\n      swap1\n      tag_8\n      jump\t// in\n    tag_7:\n      tag_9\n      jump\t// in\n    tag_6:\n      mload(0x40)\n      tag_10\n      swap3\n      swap2\n      swap1\n      tag_11\n      jump\t// in\n    tag_10:\n      mload(0x40)\n      dup1\n      swap2\n      sub\n      swap1\n      return\n        /* \"Funciones/causas_beneficas.sol\":559:950  function donar(string memory _nombreCausa, uint _montoDonacion) public payable returns(bool) {... */\n    tag_3:\n      tag_12\n      0x04\n      dup1\n      calldatasize\n      sub\n      dup2\n      add\n      swap1\n      tag_13\n      swap2\n      swap1\n      tag_14\n      jump\t// in\n    tag_13:\n      tag_15\n      jump\t// in\n    tag_12:\n      mload(0x40)\n      tag_16\n      swap2\n      swap1\n      tag_17\n      jump\t// in\n    tag_16:\n      mload(0x40)\n      dup1\n      swap2\n      sub\n      swap1\n      return\n        /* \"Funciones/causas_beneficas.sol\":312:502  function agregar(string memory _nombre, uint _montoObjetivo) public payable {... */\n    tag_4:\n      tag_18\n      0x04\n      dup1\n      calldatasize\n      sub\n      dup2\n      add\n      swap1\n      tag_19\n      swap2\n      swap1\n      tag_14\n      jump\t// in\n    tag_19:\n      tag_20\n      jump\t// in\n    tag_18:\n      stop\n        /* \"Funciones/causas_beneficas.sol\":1021:1106  function comprobar(string memory _nombre) public returns(bool, uint) {... */\n    tag_9:\n        /* \"Funciones/causas_beneficas.sol\":1078:1082  bool */\n      0x00\n        /* \"Funciones/causas_beneficas.sol\":1084:1088  uint */\n      dup1\n        /* \"Funciones/causas_beneficas.sol\":1021:1106  function comprobar(string memory _nombre) public returns(bool, uint) {... */\n      swap2\n      pop\n      swap2\n      jump\t// out\n        /* \"Funciones/causas_beneficas.sol\":559:950  function donar(string memory _nombreCausa, uint _montoDonacion) public payable returns(bool) {... */\n    tag_15:\n        /* \"Funciones/causas_beneficas.sol\":646:650  bool */\n      0x00\n        /* \"Funciones/causas_beneficas.sol\":662:681  bool aceptaDonacion */\n      dup1\n        /* \"Funciones/causas_beneficas.sol\":684:689  false */\n      0x00\n        /* \"Funciones/causas_beneficas.sol\":662:689  bool aceptaDonacion = false */\n      swap1\n      pop\n        /* \"Funciones/causas_beneficas.sol\":763:769  causas */\n      0x01\n        /* \"Funciones/causas_beneficas.sol\":770:782  _nombreCausa */\n      dup5\n        /* \"Funciones/causas_beneficas.sol\":763:783  causas[_nombreCausa] */\n      mload(0x40)\n      tag_23\n      swap2\n      swap1\n      tag_24\n      jump\t// in\n    tag_23:\n      swap1\n      dup2\n      mstore\n      0x20\n      add\n      mload(0x40)\n      dup1\n      swap2\n      sub\n      swap1\n      keccak256\n        /* \"Funciones/causas_beneficas.sol\":763:797  causas[_nombreCausa].montoObjetivo */\n      0x02\n      add\n      sload\n        /* \"Funciones/causas_beneficas.sol\":744:758  _montoDonacion */\n      dup4\n        /* \"Funciones/causas_beneficas.sol\":706:712  causas */\n      0x01\n        /* \"Funciones/causas_beneficas.sol\":713:725  _nombreCausa */\n      dup7\n        /* \"Funciones/causas_beneficas.sol\":706:726  causas[_nombreCausa] */\n      mload(0x40)\n      tag_25\n      swap2\n      swap1\n      tag_24\n      jump\t// in\n    tag_25:\n      swap1\n      dup2\n      mstore\n      0x20\n      add\n      mload(0x40)\n      dup1\n      swap2\n      sub\n      swap1\n      keccak256\n        /* \"Funciones/causas_beneficas.sol\":706:741  causas[_nombreCausa].montoRecaudado */\n      0x03\n      add\n      sload\n        /* \"Funciones/causas_beneficas.sol\":706:758  causas[_nombreCausa].montoRecaudado + _montoDonacion */\n      tag_26\n      swap2\n      swap1\n      tag_27\n      jump\t// in\n    tag_26:\n        /* \"Funciones/causas_beneficas.sol\":705:797  (causas[_nombreCausa].montoRecaudado + _montoDonacion) <= causas[_nombreCausa].montoObjetivo */\n      gt\n        /* \"Funciones/causas_beneficas.sol\":700:912  if ( (causas[_nombreCausa].montoRecaudado + _montoDonacion) <= causas[_nombreCausa].montoObjetivo) {... */\n      tag_28\n      jumpi\n        /* \"Funciones/causas_beneficas.sol\":852:866  _montoDonacion */\n      dup3\n        /* \"Funciones/causas_beneficas.sol\":813:819  causas */\n      0x01\n        /* \"Funciones/causas_beneficas.sol\":820:832  _nombreCausa */\n      dup6\n        /* \"Funciones/causas_beneficas.sol\":813:833  causas[_nombreCausa] */\n      mload(0x40)\n      tag_29\n      swap2\n      swap1\n      tag_24\n      jump\t// in\n    tag_29:\n      swap1\n      dup2\n      mstore\n      0x20\n      add\n      mload(0x40)\n      dup1\n      swap2\n      sub\n      swap1\n      keccak256\n        /* \"Funciones/causas_beneficas.sol\":813:848  causas[_nombreCausa].montoRecaudado */\n      0x03\n      add\n      0x00\n        /* \"Funciones/causas_beneficas.sol\":813:866  causas[_nombreCausa].montoRecaudado += _montoDonacion */\n      dup3\n      dup3\n      sload\n      tag_30\n      swap2\n      swap1\n      tag_27\n      jump\t// in\n    tag_30:\n      swap3\n      pop\n      pop\n      dup2\n      swap1\n      sstore\n      pop\n        /* \"Funciones/causas_beneficas.sol\":897:901  true */\n      0x01\n        /* \"Funciones/causas_beneficas.sol\":880:901  aceptaDonacion = true */\n      swap1\n      pop\n        /* \"Funciones/causas_beneficas.sol\":700:912  if ( (causas[_nombreCausa].montoRecaudado + _montoDonacion) <= causas[_nombreCausa].montoObjetivo) {... */\n    tag_28:\n        /* \"Funciones/causas_beneficas.sol\":929:943  aceptaDonacion */\n      dup1\n        /* \"Funciones/causas_beneficas.sol\":922:943  return aceptaDonacion */\n      swap2\n      pop\n      pop\n        /* \"Funciones/causas_beneficas.sol\":559:950  function donar(string memory _nombreCausa, uint _montoDonacion) public payable returns(bool) {... */\n      swap3\n      swap2\n      pop\n      pop\n      jump\t// out\n        /* \"Funciones/causas_beneficas.sol\":312:502  function agregar(string memory _nombre, uint _montoObjetivo) public payable {... */\n    tag_20:\n        /* \"Funciones/causas_beneficas.sol\":416:417  1 */\n      0x01\n        /* \"Funciones/causas_beneficas.sol\":398:412  contadorCausas */\n      0x00\n      dup1\n        /* \"Funciones/causas_beneficas.sol\":398:417  contadorCausas += 1 */\n      dup3\n      dup3\n      sload\n      tag_32\n      swap2\n      swap1\n      tag_27\n      jump\t// in\n    tag_32:\n      swap3\n      pop\n      pop\n      dup2\n      swap1\n      sstore\n      pop\n        /* \"Funciones/causas_beneficas.sol\":445:494  causa(contadorCausas, _nombre, _montoObjetivo, 0) */\n      mload(0x40)\n      dup1\n      0x80\n      add\n      0x40\n      mstore\n      dup1\n        /* \"Funciones/causas_beneficas.sol\":451:465  contadorCausas */\n      sload(0x00)\n        /* \"Funciones/causas_beneficas.sol\":445:494  causa(contadorCausas, _nombre, _montoObjetivo, 0) */\n      dup2\n      mstore\n      0x20\n      add\n        /* \"Funciones/causas_beneficas.sol\":467:474  _nombre */\n      dup4\n        /* \"Funciones/causas_beneficas.sol\":445:494  causa(contadorCausas, _nombre, _montoObjetivo, 0) */\n      dup2\n      mstore\n      0x20\n      add\n        /* \"Funciones/causas_beneficas.sol\":476:490  _montoObjetivo */\n      dup3\n        /* \"Funciones/causas_beneficas.sol\":445:494  causa(contadorCausas, _nombre, _montoObjetivo, 0) */\n      dup2\n      mstore\n      0x20\n      add\n        /* \"Funciones/causas_beneficas.sol\":492:493  0 */\n      0x00\n        /* \"Funciones/causas_beneficas.sol\":445:494  causa(contadorCausas, _nombre, _montoObjetivo, 0) */\n      dup2\n      mstore\n      pop\n        /* \"Funciones/causas_beneficas.sol\":427:433  causas */\n      0x01\n        /* \"Funciones/causas_beneficas.sol\":434:441  _nombre */\n      dup4\n        /* \"Funciones/causas_beneficas.sol\":427:442  causas[_nombre] */\n      mload(0x40)\n      tag_33\n      swap2\n      swap1\n      tag_24\n      jump\t// in\n    tag_33:\n      swap1\n      dup2\n      mstore\n      0x20\n      add\n      mload(0x40)\n      dup1\n      swap2\n      sub\n      swap1\n      keccak256\n        /* \"Funciones/causas_beneficas.sol\":427:494  causas[_nombre] = causa(contadorCausas, _nombre, _montoObjetivo, 0) */\n      0x00\n      dup3\n      add\n      mload\n      dup2\n      0x00\n      add\n      sstore\n      0x20\n      dup3\n      add\n      mload\n      dup2\n      0x01\n      add\n      swap1\n      dup1\n      mload\n      swap1\n      0x20\n      add\n      swap1\n      tag_34\n      swap3\n      swap2\n      swap1\n      tag_35\n      jump\t// in\n    tag_34:\n      pop\n      0x40\n      dup3\n      add\n      mload\n      dup2\n      0x02\n      add\n      sstore\n      0x60\n      dup3\n      add\n      mload\n      dup2\n      0x03\n      add\n      sstore\n      swap1\n      pop\n      pop\n        /* \"Funciones/causas_beneficas.sol\":312:502  function agregar(string memory _nombre, uint _montoObjetivo) public payable {... */\n      pop\n      pop\n      jump\t// out\n    tag_35:\n      dup3\n      dup1\n      sload\n      tag_36\n      swap1\n      tag_37\n      jump\t// in\n    tag_36:\n      swap1\n      0x00\n      mstore\n      keccak256(0x00, 0x20)\n      swap1\n      0x1f\n      add\n      0x20\n      swap1\n      div\n      dup2\n      add\n      swap3\n      dup3\n      tag_39\n      jumpi\n      0x00\n      dup6\n      sstore\n      jump(tag_38)\n    tag_39:\n      dup3\n      0x1f\n      lt\n      tag_40\n      jumpi\n      dup1\n      mload\n      not(0xff)\n      and\n      dup4\n      dup1\n      add\n      or\n      dup6\n      sstore\n      jump(tag_38)\n    tag_40:\n      dup3\n      dup1\n      add\n      0x01\n      add\n      dup6\n      sstore\n      dup3\n      iszero\n      tag_38\n      jumpi\n      swap2\n      dup3\n      add\n    tag_41:\n      dup3\n      dup2\n      gt\n      iszero\n      tag_42\n      jumpi\n      dup3\n      mload\n      dup3\n      sstore\n      swap2\n      0x20\n      add\n      swap2\n      swap1\n      0x01\n      add\n      swap1\n      jump(tag_41)\n    tag_42:\n    tag_38:\n      pop\n      swap1\n      pop\n      tag_43\n      swap2\n      swap1\n      tag_44\n      jump\t// in\n    tag_43:\n      pop\n      swap1\n      jump\t// out\n    tag_44:\n    tag_45:\n      dup1\n      dup3\n      gt\n      iszero\n      tag_46\n      jumpi\n      0x00\n      dup2\n      0x00\n      swap1\n      sstore\n      pop\n      0x01\n      add\n      jump(tag_45)\n    tag_46:\n      pop\n      swap1\n      jump\t// out\n        /* \"#utility.yul\":7:419   */\n    tag_48:\n        /* \"#utility.yul\":85:90   */\n      0x00\n        /* \"#utility.yul\":110:176   */\n      tag_50\n        /* \"#utility.yul\":126:175   */\n      tag_51\n        /* \"#utility.yul\":168:174   */\n      dup5\n        /* \"#utility.yul\":126:175   */\n      tag_52\n      jump\t// in\n    tag_51:\n        /* \"#utility.yul\":110:176   */\n      tag_53\n      jump\t// in\n    tag_50:\n        /* \"#utility.yul\":101:176   */\n      swap1\n      pop\n        /* \"#utility.yul\":199:205   */\n      dup3\n        /* \"#utility.yul\":192:197   */\n      dup2\n        /* \"#utility.yul\":185:206   */\n      mstore\n        /* \"#utility.yul\":237:241   */\n      0x20\n        /* \"#utility.yul\":230:235   */\n      dup2\n        /* \"#utility.yul\":226:242   */\n      add\n        /* \"#utility.yul\":275:278   */\n      dup5\n        /* \"#utility.yul\":266:272   */\n      dup5\n        /* \"#utility.yul\":261:264   */\n      dup5\n        /* \"#utility.yul\":257:273   */\n      add\n        /* \"#utility.yul\":254:279   */\n      gt\n        /* \"#utility.yul\":251:253   */\n      iszero\n      tag_54\n      jumpi\n        /* \"#utility.yul\":282:361   */\n      tag_55\n      tag_56\n      jump\t// in\n    tag_55:\n        /* \"#utility.yul\":251:253   */\n    tag_54:\n        /* \"#utility.yul\":372:413   */\n      tag_57\n        /* \"#utility.yul\":406:412   */\n      dup5\n        /* \"#utility.yul\":401:404   */\n      dup3\n        /* \"#utility.yul\":396:399   */\n      dup6\n        /* \"#utility.yul\":372:413   */\n      tag_58\n      jump\t// in\n    tag_57:\n        /* \"#utility.yul\":91:419   */\n      pop\n      swap4\n      swap3\n      pop\n      pop\n      pop\n      jump\t// out\n        /* \"#utility.yul\":439:779   */\n    tag_59:\n        /* \"#utility.yul\":495:500   */\n      0x00\n        /* \"#utility.yul\":544:547   */\n      dup3\n        /* \"#utility.yul\":537:541   */\n      0x1f\n        /* \"#utility.yul\":529:535   */\n      dup4\n        /* \"#utility.yul\":525:542   */\n      add\n        /* \"#utility.yul\":521:548   */\n      slt\n        /* \"#utility.yul\":511:513   */\n      tag_61\n      jumpi\n        /* \"#utility.yul\":552:631   */\n      tag_62\n      tag_63\n      jump\t// in\n    tag_62:\n        /* \"#utility.yul\":511:513   */\n    tag_61:\n        /* \"#utility.yul\":669:675   */\n      dup2\n        /* \"#utility.yul\":656:676   */\n      calldataload\n        /* \"#utility.yul\":694:773   */\n      tag_64\n        /* \"#utility.yul\":769:772   */\n      dup5\n        /* \"#utility.yul\":761:767   */\n      dup3\n        /* \"#utility.yul\":754:758   */\n      0x20\n        /* \"#utility.yul\":746:752   */\n      dup7\n        /* \"#utility.yul\":742:759   */\n      add\n        /* \"#utility.yul\":694:773   */\n      tag_48\n      jump\t// in\n    tag_64:\n        /* \"#utility.yul\":685:773   */\n      swap2\n      pop\n        /* \"#utility.yul\":501:779   */\n      pop\n      swap3\n      swap2\n      pop\n      pop\n      jump\t// out\n        /* \"#utility.yul\":785:924   */\n    tag_65:\n        /* \"#utility.yul\":831:836   */\n      0x00\n        /* \"#utility.yul\":869:875   */\n      dup2\n        /* \"#utility.yul\":856:876   */\n      calldataload\n        /* \"#utility.yul\":847:876   */\n      swap1\n      pop\n        /* \"#utility.yul\":885:918   */\n      tag_67\n        /* \"#utility.yul\":912:917   */\n      dup2\n        /* \"#utility.yul\":885:918   */\n      tag_68\n      jump\t// in\n    tag_67:\n        /* \"#utility.yul\":837:924   */\n      swap3\n      swap2\n      pop\n      pop\n      jump\t// out\n        /* \"#utility.yul\":930:1439   */\n    tag_8:\n        /* \"#utility.yul\":999:1005   */\n      0x00\n        /* \"#utility.yul\":1048:1050   */\n      0x20\n        /* \"#utility.yul\":1036:1045   */\n      dup3\n        /* \"#utility.yul\":1027:1034   */\n      dup5\n        /* \"#utility.yul\":1023:1046   */\n      sub\n        /* \"#utility.yul\":1019:1051   */\n      slt\n        /* \"#utility.yul\":1016:1018   */\n      iszero\n      tag_70\n      jumpi\n        /* \"#utility.yul\":1054:1133   */\n      tag_71\n      tag_72\n      jump\t// in\n    tag_71:\n        /* \"#utility.yul\":1016:1018   */\n    tag_70:\n        /* \"#utility.yul\":1202:1203   */\n      0x00\n        /* \"#utility.yul\":1191:1200   */\n      dup3\n        /* \"#utility.yul\":1187:1204   */\n      add\n        /* \"#utility.yul\":1174:1205   */\n      calldataload\n        /* \"#utility.yul\":1232:1250   */\n      0xffffffffffffffff\n        /* \"#utility.yul\":1224:1230   */\n      dup2\n        /* \"#utility.yul\":1221:1251   */\n      gt\n        /* \"#utility.yul\":1218:1220   */\n      iszero\n      tag_73\n      jumpi\n        /* \"#utility.yul\":1254:1333   */\n      tag_74\n      tag_75\n      jump\t// in\n    tag_74:\n        /* \"#utility.yul\":1218:1220   */\n    tag_73:\n        /* \"#utility.yul\":1359:1422   */\n      tag_76\n        /* \"#utility.yul\":1414:1421   */\n      dup5\n        /* \"#utility.yul\":1405:1411   */\n      dup3\n        /* \"#utility.yul\":1394:1403   */\n      dup6\n        /* \"#utility.yul\":1390:1412   */\n      add\n        /* \"#utility.yul\":1359:1422   */\n      tag_59\n      jump\t// in\n    tag_76:\n        /* \"#utility.yul\":1349:1422   */\n      swap2\n      pop\n        /* \"#utility.yul\":1145:1432   */\n      pop\n        /* \"#utility.yul\":1006:1439   */\n      swap3\n      swap2\n      pop\n      pop\n      jump\t// out\n        /* \"#utility.yul\":1445:2099   */\n    tag_14:\n        /* \"#utility.yul\":1523:1529   */\n      0x00\n        /* \"#utility.yul\":1531:1537   */\n      dup1\n        /* \"#utility.yul\":1580:1582   */\n      0x40\n        /* \"#utility.yul\":1568:1577   */\n      dup4\n        /* \"#utility.yul\":1559:1566   */\n      dup6\n        /* \"#utility.yul\":1555:1578   */\n      sub\n        /* \"#utility.yul\":1551:1583   */\n      slt\n        /* \"#utility.yul\":1548:1550   */\n      iszero\n      tag_78\n      jumpi\n        /* \"#utility.yul\":1586:1665   */\n      tag_79\n      tag_72\n      jump\t// in\n    tag_79:\n        /* \"#utility.yul\":1548:1550   */\n    tag_78:\n        /* \"#utility.yul\":1734:1735   */\n      0x00\n        /* \"#utility.yul\":1723:1732   */\n      dup4\n        /* \"#utility.yul\":1719:1736   */\n      add\n        /* \"#utility.yul\":1706:1737   */\n      calldataload\n        /* \"#utility.yul\":1764:1782   */\n      0xffffffffffffffff\n        /* \"#utility.yul\":1756:1762   */\n      dup2\n        /* \"#utility.yul\":1753:1783   */\n      gt\n        /* \"#utility.yul\":1750:1752   */\n      iszero\n      tag_80\n      jumpi\n        /* \"#utility.yul\":1786:1865   */\n      tag_81\n      tag_75\n      jump\t// in\n    tag_81:\n        /* \"#utility.yul\":1750:1752   */\n    tag_80:\n        /* \"#utility.yul\":1891:1954   */\n      tag_82\n        /* \"#utility.yul\":1946:1953   */\n      dup6\n        /* \"#utility.yul\":1937:1943   */\n      dup3\n        /* \"#utility.yul\":1926:1935   */\n      dup7\n        /* \"#utility.yul\":1922:1944   */\n      add\n        /* \"#utility.yul\":1891:1954   */\n      tag_59\n      jump\t// in\n    tag_82:\n        /* \"#utility.yul\":1881:1954   */\n      swap3\n      pop\n        /* \"#utility.yul\":1677:1964   */\n      pop\n        /* \"#utility.yul\":2003:2005   */\n      0x20\n        /* \"#utility.yul\":2029:2082   */\n      tag_83\n        /* \"#utility.yul\":2074:2081   */\n      dup6\n        /* \"#utility.yul\":2065:2071   */\n      dup3\n        /* \"#utility.yul\":2054:2063   */\n      dup7\n        /* \"#utility.yul\":2050:2072   */\n      add\n        /* \"#utility.yul\":2029:2082   */\n      tag_65\n      jump\t// in\n    tag_83:\n        /* \"#utility.yul\":2019:2082   */\n      swap2\n      pop\n        /* \"#utility.yul\":1974:2092   */\n      pop\n        /* \"#utility.yul\":1538:2099   */\n      swap3\n      pop\n      swap3\n      swap1\n      pop\n      jump\t// out\n        /* \"#utility.yul\":2105:2214   */\n    tag_84:\n        /* \"#utility.yul\":2186:2207   */\n      tag_86\n        /* \"#utility.yul\":2201:2206   */\n      dup2\n        /* \"#utility.yul\":2186:2207   */\n      tag_87\n      jump\t// in\n    tag_86:\n        /* \"#utility.yul\":2181:2184   */\n      dup3\n        /* \"#utility.yul\":2174:2208   */\n      mstore\n        /* \"#utility.yul\":2164:2214   */\n      pop\n      pop\n      jump\t// out\n        /* \"#utility.yul\":2220:2597   */\n    tag_88:\n        /* \"#utility.yul\":2326:2329   */\n      0x00\n        /* \"#utility.yul\":2354:2393   */\n      tag_90\n        /* \"#utility.yul\":2387:2392   */\n      dup3\n        /* \"#utility.yul\":2354:2393   */\n      tag_91\n      jump\t// in\n    tag_90:\n        /* \"#utility.yul\":2409:2498   */\n      tag_92\n        /* \"#utility.yul\":2491:2497   */\n      dup2\n        /* \"#utility.yul\":2486:2489   */\n      dup6\n        /* \"#utility.yul\":2409:2498   */\n      tag_93\n      jump\t// in\n    tag_92:\n        /* \"#utility.yul\":2402:2498   */\n      swap4\n      pop\n        /* \"#utility.yul\":2507:2559   */\n      tag_94\n        /* \"#utility.yul\":2552:2558   */\n      dup2\n        /* \"#utility.yul\":2547:2550   */\n      dup6\n        /* \"#utility.yul\":2540:2544   */\n      0x20\n        /* \"#utility.yul\":2533:2538   */\n      dup7\n        /* \"#utility.yul\":2529:2545   */\n      add\n        /* \"#utility.yul\":2507:2559   */\n      tag_95\n      jump\t// in\n    tag_94:\n        /* \"#utility.yul\":2584:2590   */\n      dup1\n        /* \"#utility.yul\":2579:2582   */\n      dup5\n        /* \"#utility.yul\":2575:2591   */\n      add\n        /* \"#utility.yul\":2568:2591   */\n      swap2\n      pop\n        /* \"#utility.yul\":2330:2597   */\n      pop\n      swap3\n      swap2\n      pop\n      pop\n      jump\t// out\n        /* \"#utility.yul\":2603:2721   */\n    tag_96:\n        /* \"#utility.yul\":2690:2714   */\n      tag_98\n        /* \"#utility.yul\":2708:2713   */\n      dup2\n        /* \"#utility.yul\":2690:2714   */\n      tag_99\n      jump\t// in\n    tag_98:\n        /* \"#utility.yul\":2685:2688   */\n      dup3\n        /* \"#utility.yul\":2678:2715   */\n      mstore\n        /* \"#utility.yul\":2668:2721   */\n      pop\n      pop\n      jump\t// out\n        /* \"#utility.yul\":2727:3002   */\n    tag_24:\n        /* \"#utility.yul\":2859:2862   */\n      0x00\n        /* \"#utility.yul\":2881:2976   */\n      tag_101\n        /* \"#utility.yul\":2972:2975   */\n      dup3\n        /* \"#utility.yul\":2963:2969   */\n      dup5\n        /* \"#utility.yul\":2881:2976   */\n      tag_88\n      jump\t// in\n    tag_101:\n        /* \"#utility.yul\":2874:2976   */\n      swap2\n      pop\n        /* \"#utility.yul\":2993:2996   */\n      dup2\n        /* \"#utility.yul\":2986:2996   */\n      swap1\n      pop\n        /* \"#utility.yul\":2863:3002   */\n      swap3\n      swap2\n      pop\n      pop\n      jump\t// out\n        /* \"#utility.yul\":3008:3218   */\n    tag_17:\n        /* \"#utility.yul\":3095:3099   */\n      0x00\n        /* \"#utility.yul\":3133:3135   */\n      0x20\n        /* \"#utility.yul\":3122:3131   */\n      dup3\n        /* \"#utility.yul\":3118:3136   */\n      add\n        /* \"#utility.yul\":3110:3136   */\n      swap1\n      pop\n        /* \"#utility.yul\":3146:3211   */\n      tag_103\n        /* \"#utility.yul\":3208:3209   */\n      0x00\n        /* \"#utility.yul\":3197:3206   */\n      dup4\n        /* \"#utility.yul\":3193:3210   */\n      add\n        /* \"#utility.yul\":3184:3190   */\n      dup5\n        /* \"#utility.yul\":3146:3211   */\n      tag_84\n      jump\t// in\n    tag_103:\n        /* \"#utility.yul\":3100:3218   */\n      swap3\n      swap2\n      pop\n      pop\n      jump\t// out\n        /* \"#utility.yul\":3224:3544   */\n    tag_11:\n        /* \"#utility.yul\":3339:3343   */\n      0x00\n        /* \"#utility.yul\":3377:3379   */\n      0x40\n        /* \"#utility.yul\":3366:3375   */\n      dup3\n        /* \"#utility.yul\":3362:3380   */\n      add\n        /* \"#utility.yul\":3354:3380   */\n      swap1\n      pop\n        /* \"#utility.yul\":3390:3455   */\n      tag_105\n        /* \"#utility.yul\":3452:3453   */\n      0x00\n        /* \"#utility.yul\":3441:3450   */\n      dup4\n        /* \"#utility.yul\":3437:3454   */\n      add\n        /* \"#utility.yul\":3428:3434   */\n      dup6\n        /* \"#utility.yul\":3390:3455   */\n      tag_84\n      jump\t// in\n    tag_105:\n        /* \"#utility.yul\":3465:3537   */\n      tag_106\n        /* \"#utility.yul\":3533:3535   */\n      0x20\n        /* \"#utility.yul\":3522:3531   */\n      dup4\n        /* \"#utility.yul\":3518:3536   */\n      add\n        /* \"#utility.yul\":3509:3515   */\n      dup5\n        /* \"#utility.yul\":3465:3537   */\n      tag_96\n      jump\t// in\n    tag_106:\n        /* \"#utility.yul\":3344:3544   */\n      swap4\n      swap3\n      pop\n      pop\n      pop\n      jump\t// out\n        /* \"#utility.yul\":3550:3679   */\n    tag_53:\n        /* \"#utility.yul\":3584:3590   */\n      0x00\n        /* \"#utility.yul\":3611:3631   */\n      tag_108\n      tag_109\n      jump\t// in\n    tag_108:\n        /* \"#utility.yul\":3601:3631   */\n      swap1\n      pop\n        /* \"#utility.yul\":3640:3673   */\n      tag_110\n        /* \"#utility.yul\":3668:3672   */\n      dup3\n        /* \"#utility.yul\":3660:3666   */\n      dup3\n        /* \"#utility.yul\":3640:3673   */\n      tag_111\n      jump\t// in\n    tag_110:\n        /* \"#utility.yul\":3591:3679   */\n      swap2\n      swap1\n      pop\n      jump\t// out\n        /* \"#utility.yul\":3685:3760   */\n    tag_109:\n        /* \"#utility.yul\":3718:3724   */\n      0x00\n        /* \"#utility.yul\":3751:3753   */\n      0x40\n        /* \"#utility.yul\":3745:3754   */\n      mload\n        /* \"#utility.yul\":3735:3754   */\n      swap1\n      pop\n        /* \"#utility.yul\":3725:3760   */\n      swap1\n      jump\t// out\n        /* \"#utility.yul\":3766:4074   */\n    tag_52:\n        /* \"#utility.yul\":3828:3832   */\n      0x00\n        /* \"#utility.yul\":3918:3936   */\n      0xffffffffffffffff\n        /* \"#utility.yul\":3910:3916   */\n      dup3\n        /* \"#utility.yul\":3907:3937   */\n      gt\n        /* \"#utility.yul\":3904:3906   */\n      iszero\n      tag_114\n      jumpi\n        /* \"#utility.yul\":3940:3958   */\n      tag_115\n      tag_116\n      jump\t// in\n    tag_115:\n        /* \"#utility.yul\":3904:3906   */\n    tag_114:\n        /* \"#utility.yul\":3978:4007   */\n      tag_117\n        /* \"#utility.yul\":4000:4006   */\n      dup3\n        /* \"#utility.yul\":3978:4007   */\n      tag_118\n      jump\t// in\n    tag_117:\n        /* \"#utility.yul\":3970:4007   */\n      swap1\n      pop\n        /* \"#utility.yul\":4062:4066   */\n      0x20\n        /* \"#utility.yul\":4056:4060   */\n      dup2\n        /* \"#utility.yul\":4052:4067   */\n      add\n        /* \"#utility.yul\":4044:4067   */\n      swap1\n      pop\n        /* \"#utility.yul\":3833:4074   */\n      swap2\n      swap1\n      pop\n      jump\t// out\n        /* \"#utility.yul\":4080:4179   */\n    tag_91:\n        /* \"#utility.yul\":4132:4138   */\n      0x00\n        /* \"#utility.yul\":4166:4171   */\n      dup2\n        /* \"#utility.yul\":4160:4172   */\n      mload\n        /* \"#utility.yul\":4150:4172   */\n      swap1\n      pop\n        /* \"#utility.yul\":4139:4179   */\n      swap2\n      swap1\n      pop\n      jump\t// out\n        /* \"#utility.yul\":4185:4333   */\n    tag_93:\n        /* \"#utility.yul\":4287:4298   */\n      0x00\n        /* \"#utility.yul\":4324:4327   */\n      dup2\n        /* \"#utility.yul\":4309:4327   */\n      swap1\n      pop\n        /* \"#utility.yul\":4299:4333   */\n      swap3\n      swap2\n      pop\n      pop\n      jump\t// out\n        /* \"#utility.yul\":4339:4644   */\n    tag_27:\n        /* \"#utility.yul\":4379:4382   */\n      0x00\n        /* \"#utility.yul\":4398:4418   */\n      tag_122\n        /* \"#utility.yul\":4416:4417   */\n      dup3\n        /* \"#utility.yul\":4398:4418   */\n      tag_99\n      jump\t// in\n    tag_122:\n        /* \"#utility.yul\":4393:4418   */\n      swap2\n      pop\n        /* \"#utility.yul\":4432:4452   */\n      tag_123\n        /* \"#utility.yul\":4450:4451   */\n      dup4\n        /* \"#utility.yul\":4432:4452   */\n      tag_99\n      jump\t// in\n    tag_123:\n        /* \"#utility.yul\":4427:4452   */\n      swap3\n      pop\n        /* \"#utility.yul\":4586:4587   */\n      dup3\n        /* \"#utility.yul\":4518:4584   */\n      0xffffffffffffffffffffffffffffffffffffffffffffffffffffffffffffffff\n        /* \"#utility.yul\":4514:4588   */\n      sub\n        /* \"#utility.yul\":4511:4512   */\n      dup3\n        /* \"#utility.yul\":4508:4589   */\n      gt\n        /* \"#utility.yul\":4505:4507   */\n      iszero\n      tag_124\n      jumpi\n        /* \"#utility.yul\":4592:4610   */\n      tag_125\n      tag_126\n      jump\t// in\n    tag_125:\n        /* \"#utility.yul\":4505:4507   */\n    tag_124:\n        /* \"#utility.yul\":4636:4637   */\n      dup3\n        /* \"#utility.yul\":4633:4634   */\n      dup3\n        /* \"#utility.yul\":4629:4638   */\n      add\n        /* \"#utility.yul\":4622:4638   */\n      swap1\n      pop\n        /* \"#utility.yul\":4383:4644   */\n      swap3\n      swap2\n      pop\n      pop\n      jump\t// out\n        /* \"#utility.yul\":4650:4740   */\n    tag_87:\n        /* \"#utility.yul\":4684:4691   */\n      0x00\n        /* \"#utility.yul\":4727:4732   */\n      dup2\n        /* \"#utility.yul\":4720:4733   */\n      iszero\n        /* \"#utility.yul\":4713:4734   */\n      iszero\n        /* \"#utility.yul\":4702:4734   */\n      swap1\n      pop\n        /* \"#utility.yul\":4692:4740   */\n      swap2\n      swap1\n      pop\n      jump\t// out\n        /* \"#utility.yul\":4746:4823   */\n    tag_99:\n        /* \"#utility.yul\":4783:4790   */\n      0x00\n        /* \"#utility.yul\":4812:4817   */\n      dup2\n        /* \"#utility.yul\":4801:4817   */\n      swap1\n      pop\n        /* \"#utility.yul\":4791:4823   */\n      swap2\n      swap1\n      pop\n      jump\t// out\n        /* \"#utility.yul\":4829:4983   */\n    tag_58:\n        /* \"#utility.yul\":4913:4919   */\n      dup3\n        /* \"#utility.yul\":4908:4911   */\n      dup2\n        /* \"#utility.yul\":4903:4906   */\n      dup4\n        /* \"#utility.yul\":4890:4920   */\n      calldatacopy\n        /* \"#utility.yul\":4975:4976   */\n      0x00\n        /* \"#utility.yul\":4966:4972   */\n      dup4\n        /* \"#utility.yul\":4961:4964   */\n      dup4\n        /* \"#utility.yul\":4957:4973   */\n      add\n        /* \"#utility.yul\":4950:4977   */\n      mstore\n        /* \"#utility.yul\":4880:4983   */\n      pop\n      pop\n      pop\n      jump\t// out\n        /* \"#utility.yul\":4989:5296   */\n    tag_95:\n        /* \"#utility.yul\":5057:5058   */\n      0x00\n        /* \"#utility.yul\":5067:5180   */\n    tag_131:\n        /* \"#utility.yul\":5081:5087   */\n      dup4\n        /* \"#utility.yul\":5078:5079   */\n      dup2\n        /* \"#utility.yul\":5075:5088   */\n      lt\n        /* \"#utility.yul\":5067:5180   */\n      iszero\n      tag_133\n      jumpi\n        /* \"#utility.yul\":5166:5167   */\n      dup1\n        /* \"#utility.yul\":5161:5164   */\n      dup3\n        /* \"#utility.yul\":5157:5168   */\n      add\n        /* \"#utility.yul\":5151:5169   */\n      mload\n        /* \"#utility.yul\":5147:5148   */\n      dup2\n        /* \"#utility.yul\":5142:5145   */\n      dup5\n        /* \"#utility.yul\":5138:5149   */\n      add\n        /* \"#utility.yul\":5131:5170   */\n      mstore\n        /* \"#utility.yul\":5103:5105   */\n      0x20\n        /* \"#utility.yul\":5100:5101   */\n      dup2\n        /* \"#utility.yul\":5096:5106   */\n      add\n        /* \"#utility.yul\":5091:5106   */\n      swap1\n      pop\n        /* \"#utility.yul\":5067:5180   */\n      jump(tag_131)\n    tag_133:\n        /* \"#utility.yul\":5198:5204   */\n      dup4\n        /* \"#utility.yul\":5195:5196   */\n      dup2\n        /* \"#utility.yul\":5192:5205   */\n      gt\n        /* \"#utility.yul\":5189:5191   */\n      iszero\n      tag_134\n      jumpi\n        /* \"#utility.yul\":5278:5279   */\n      0x00\n        /* \"#utility.yul\":5269:5275   */\n      dup5\n        /* \"#utility.yul\":5264:5267   */\n      dup5\n        /* \"#utility.yul\":5260:5276   */\n      add\n        /* \"#utility.yul\":5253:5280   */\n      mstore\n        /* \"#utility.yul\":5189:5191   */\n    tag_134:\n        /* \"#utility.yul\":5038:5296   */\n      pop\n      pop\n      pop\n      pop\n      jump\t// out\n        /* \"#utility.yul\":5302:5622   */\n    tag_37:\n        /* \"#utility.yul\":5346:5352   */\n      0x00\n        /* \"#utility.yul\":5383:5384   */\n      0x02\n        /* \"#utility.yul\":5377:5381   */\n      dup3\n        /* \"#utility.yul\":5373:5385   */\n      div\n        /* \"#utility.yul\":5363:5385   */\n      swap1\n      pop\n        /* \"#utility.yul\":5430:5431   */\n      0x01\n        /* \"#utility.yul\":5424:5428   */\n      dup3\n        /* \"#utility.yul\":5420:5432   */\n      and\n        /* \"#utility.yul\":5451:5469   */\n      dup1\n        /* \"#utility.yul\":5441:5443   */\n      tag_136\n      jumpi\n        /* \"#utility.yul\":5507:5511   */\n      0x7f\n        /* \"#utility.yul\":5499:5505   */\n      dup3\n        /* \"#utility.yul\":5495:5512   */\n      and\n        /* \"#utility.yul\":5485:5512   */\n      swap2\n      pop\n        /* \"#utility.yul\":5441:5443   */\n    tag_136:\n        /* \"#utility.yul\":5569:5571   */\n      0x20\n        /* \"#utility.yul\":5561:5567   */\n      dup3\n        /* \"#utility.yul\":5558:5572   */\n      lt\n        /* \"#utility.yul\":5538:5556   */\n      dup2\n        /* \"#utility.yul\":5535:5573   */\n      eq\n        /* \"#utility.yul\":5532:5534   */\n      iszero\n      tag_137\n      jumpi\n        /* \"#utility.yul\":5588:5606   */\n      tag_138\n      tag_139\n      jump\t// in\n    tag_138:\n        /* \"#utility.yul\":5532:5534   */\n    tag_137:\n        /* \"#utility.yul\":5353:5622   */\n      pop\n      swap2\n      swap1\n      pop\n      jump\t// out\n        /* \"#utility.yul\":5628:5909   */\n    tag_111:\n        /* \"#utility.yul\":5711:5738   */\n      tag_141\n        /* \"#utility.yul\":5733:5737   */\n      dup3\n        /* \"#utility.yul\":5711:5738   */\n      tag_118\n      jump\t// in\n    tag_141:\n        /* \"#utility.yul\":5703:5709   */\n      dup2\n        /* \"#utility.yul\":5699:5739   */\n      add\n        /* \"#utility.yul\":5841:5847   */\n      dup2\n        /* \"#utility.yul\":5829:5839   */\n      dup2\n        /* \"#utility.yul\":5826:5848   */\n      lt\n        /* \"#utility.yul\":5805:5823   */\n      0xffffffffffffffff\n        /* \"#utility.yul\":5793:5803   */\n      dup3\n        /* \"#utility.yul\":5790:5824   */\n      gt\n        /* \"#utility.yul\":5787:5849   */\n      or\n        /* \"#utility.yul\":5784:5786   */\n      iszero\n      tag_142\n      jumpi\n        /* \"#utility.yul\":5852:5870   */\n      tag_143\n      tag_116\n      jump\t// in\n    tag_143:\n        /* \"#utility.yul\":5784:5786   */\n    tag_142:\n        /* \"#utility.yul\":5892:5902   */\n      dup1\n        /* \"#utility.yul\":5888:5890   */\n      0x40\n        /* \"#utility.yul\":5881:5903   */\n      mstore\n        /* \"#utility.yul\":5671:5909   */\n      pop\n      pop\n      pop\n      jump\t// out\n        /* \"#utility.yul\":5915:6095   */\n    tag_126:\n        /* \"#utility.yul\":5963:6040   */\n      0x4e487b7100000000000000000000000000000000000000000000000000000000\n        /* \"#utility.yul\":5960:5961   */\n      0x00\n        /* \"#utility.yul\":5953:6041   */\n      mstore\n        /* \"#utility.yul\":6060:6064   */\n      0x11\n        /* \"#utility.yul\":6057:6058   */\n      0x04\n        /* \"#utility.yul\":6050:6065   */\n      mstore\n        /* \"#utility.yul\":6084:6088   */\n      0x24\n        /* \"#utility.yul\":6081:6082   */\n      0x00\n        /* \"#utility.yul\":6074:6089   */\n      revert\n        /* \"#utility.yul\":6101:6281   */\n    tag_139:\n        /* \"#utility.yul\":6149:6226   */\n      0x4e487b7100000000000000000000000000000000000000000000000000000000\n        /* \"#utility.yul\":6146:6147   */\n      0x00\n        /* \"#utility.yul\":6139:6227   */\n      mstore\n        /* \"#utility.yul\":6246:6250   */\n      0x22\n        /* \"#utility.yul\":6243:6244   */\n      0x04\n        /* \"#utility.yul\":6236:6251   */\n      mstore\n        /* \"#utility.yul\":6270:6274   */\n      0x24\n        /* \"#utility.yul\":6267:6268   */\n      0x00\n        /* \"#utility.yul\":6260:6275   */\n      revert\n        /* \"#utility.yul\":6287:6467   */\n    tag_116:\n        /* \"#utility.yul\":6335:6412   */\n      0x4e487b7100000000000000000000000000000000000000000000000000000000\n        /* \"#utility.yul\":6332:6333   */\n      0x00\n        /* \"#utility.yul\":6325:6413   */\n      mstore\n        /* \"#utility.yul\":6432:6436   */\n      0x41\n        /* \"#utility.yul\":6429:6430   */\n      0x04\n        /* \"#utility.yul\":6422:6437   */\n      mstore\n        /* \"#utility.yul\":6456:6460   */\n      0x24\n        /* \"#utility.yul\":6453:6454   */\n      0x00\n        /* \"#utility.yul\":6446:6461   */\n      revert\n        /* \"#utility.yul\":6473:6590   */\n    tag_63:\n        /* \"#utility.yul\":6582:6583   */\n      0x00\n        /* \"#utility.yul\":6579:6580   */\n      dup1\n        /* \"#utility.yul\":6572:6584   */\n      revert\n        /* \"#utility.yul\":6596:6713   */\n    tag_56:\n        /* \"#utility.yul\":6705:6706   */\n      0x00\n        /* \"#utility.yul\":6702:6703   */\n      dup1\n        /* \"#utility.yul\":6695:6707   */\n      revert\n        /* \"#utility.yul\":6719:6836   */\n    tag_75:\n        /* \"#utility.yul\":6828:6829   */\n      0x00\n        /* \"#utility.yul\":6825:6826   */\n      dup1\n        /* \"#utility.yul\":6818:6830   */\n      revert\n        /* \"#utility.yul\":6842:6959   */\n    tag_72:\n        /* \"#utility.yul\":6951:6952   */\n      0x00\n        /* \"#utility.yul\":6948:6949   */\n      dup1\n        /* \"#utility.yul\":6941:6953   */\n      revert\n        /* \"#utility.yul\":6965:7067   */\n    tag_118:\n        /* \"#utility.yul\":7006:7012   */\n      0x00\n        /* \"#utility.yul\":7057:7059   */\n      0x1f\n        /* \"#utility.yul\":7053:7060   */\n      not\n        /* \"#utility.yul\":7048:7050   */\n      0x1f\n        /* \"#utility.yul\":7041:7046   */\n      dup4\n        /* \"#utility.yul\":7037:7051   */\n      add\n        /* \"#utility.yul\":7033:7061   */\n      and\n        /* \"#utility.yul\":7023:7061   */\n      swap1\n      pop\n        /* \"#utility.yul\":7013:7067   */\n      swap2\n      swap1\n      pop\n      jump\t// out\n        /* \"#utility.yul\":7073:7195   */\n    tag_68:\n        /* \"#utility.yul\":7146:7170   */\n      tag_153\n        /* \"#utility.yul\":7164:7169   */\n      dup2\n        /* \"#utility.yul\":7146:7170   */\n      tag_99\n      jump\t// in\n    tag_153:\n        /* \"#utility.yul\":7139:7144   */\n      dup2\n        /* \"#utility.yul\":7136:7171   */\n      eq\n        /* \"#utility.yul\":7126:7128   */\n      tag_154\n      jumpi\n        /* \"#utility.yul\":7185:7186   */\n      0x00\n        /* \"#utility.yul\":7182:7183   */\n      dup1\n        /* \"#utility.yul\":7175:7187   */\n      revert\n        /* \"#utility.yul\":7126:7128   */\n    tag_154:\n        /* \"#utility.yul\":7116:7195   */\n      pop\n      jump\t// out\n\n    auxdata: 0xa2646970667358221220047845c80d69975f2b886f123728e5faf8ee8b5282ed54f3ca727a7d724d1b5a64736f6c63430008060033\n}\n",
				"bytecode": {
					"linkReferences": {},
					"object": "60806040526000805534801561001457600080fd5b506106fd806100246000396000f3fe6080604052600436106100345760003560e01c806304c5b78f1461003957806345cd81b314610077578063c6c8e11a146100a7575b600080fd5b34801561004557600080fd5b50610060600480360381019061005b9190610332565b6100c3565b60405161006e929190610458565b60405180910390f35b610091600480360381019061008c919061037b565b6100cb565b60405161009e919061043d565b60405180910390f35b6100c160048036038101906100bc919061037b565b61016d565b005b600080915091565b600080600090506001846040516100e29190610426565b908152602001604051809103902060020154836001866040516101059190610426565b90815260200160405180910390206003015461012191906104ed565b1161016357826001856040516101379190610426565b9081526020016040518091039020600301600082825461015791906104ed565b92505081905550600190505b8091505092915050565b600160008082825461017f91906104ed565b925050819055506040518060800160405280600054815260200183815260200182815260200160008152506001836040516101ba9190610426565b90815260200160405180910390206000820151816000015560208201518160010190805190602001906101ee92919061020a565b5060408201518160020155606082015181600301559050505050565b8280546102169061059b565b90600052602060002090601f016020900481019282610238576000855561027f565b82601f1061025157805160ff191683800117855561027f565b8280016001018555821561027f579182015b8281111561027e578251825591602001919060010190610263565b5b50905061028c9190610290565b5090565b5b808211156102a9576000816000905550600101610291565b5090565b60006102c06102bb846104a6565b610481565b9050828152602081018484840111156102dc576102db610690565b5b6102e7848285610559565b509392505050565b600082601f8301126103045761030361068b565b5b81356103148482602086016102ad565b91505092915050565b60008135905061032c816106b0565b92915050565b6000602082840312156103485761034761069a565b5b600082013567ffffffffffffffff81111561036657610365610695565b5b610372848285016102ef565b91505092915050565b600080604083850312156103925761039161069a565b5b600083013567ffffffffffffffff8111156103b0576103af610695565b5b6103bc858286016102ef565b92505060206103cd8582860161031d565b9150509250929050565b6103e081610543565b82525050565b60006103f1826104d7565b6103fb81856104e2565b935061040b818560208601610568565b80840191505092915050565b6104208161054f565b82525050565b600061043282846103e6565b915081905092915050565b600060208201905061045260008301846103d7565b92915050565b600060408201905061046d60008301856103d7565b61047a6020830184610417565b9392505050565b600061048b61049c565b905061049782826105cd565b919050565b6000604051905090565b600067ffffffffffffffff8211156104c1576104c061065c565b5b6104ca8261069f565b9050602081019050919050565b600081519050919050565b600081905092915050565b60006104f88261054f565b91506105038361054f565b9250827fffffffffffffffffffffffffffffffffffffffffffffffffffffffffffffffff03821115610538576105376105fe565b5b828201905092915050565b60008115159050919050565b6000819050919050565b82818337600083830152505050565b60005b8381101561058657808201518184015260208101905061056b565b83811115610595576000848401525b50505050565b600060028204905060018216806105b357607f821691505b602082108114156105c7576105c661062d565b5b50919050565b6105d68261069f565b810181811067ffffffffffffffff821117156105f5576105f461065c565b5b80604052505050565b7f4e487b7100000000000000000000000000000000000000000000000000000000600052601160045260246000fd5b7f4e487b7100000000000000000000000000000000000000000000000000000000600052602260045260246000fd5b7f4e487b7100000000000000000000000000000000000000000000000000000000600052604160045260246000fd5b600080fd5b600080fd5b600080fd5b600080fd5b6000601f19601f8301169050919050565b6106b98161054f565b81146106c457600080fd5b5056fea2646970667358221220047845c80d69975f2b886f123728e5faf8ee8b5282ed54f3ca727a7d724d1b5a64736f6c63430008060033",
					"opcodes": "PUSH1 0x80 PUSH1 0x40 MSTORE PUSH1 0x0 DUP1 SSTORE CALLVALUE DUP1 ISZERO PUSH2 0x14 JUMPI PUSH1 0x0 DUP1 REVERT JUMPDEST POP PUSH2 0x6FD DUP1 PUSH2 0x24 PUSH1 0x0 CODECOPY PUSH1 0x0 RETURN INVALID PUSH1 0x80 PUSH1 0x40 MSTORE PUSH1 0x4 CALLDATASIZE LT PUSH2 0x34 JUMPI PUSH1 0x0 CALLDATALOAD PUSH1 0xE0 SHR DUP1 PUSH4 0x4C5B78F EQ PUSH2 0x39 JUMPI DUP1 PUSH4 0x45CD81B3 EQ PUSH2 0x77 JUMPI DUP1 PUSH4 0xC6C8E11A EQ PUSH2 0xA7 JUMPI JUMPDEST PUSH1 0x0 DUP1 REVERT JUMPDEST CALLVALUE DUP1 ISZERO PUSH2 0x45 JUMPI PUSH1 0x0 DUP1 REVERT JUMPDEST POP PUSH2 0x60 PUSH1 0x4 DUP1 CALLDATASIZE SUB DUP2 ADD SWAP1 PUSH2 0x5B SWAP2 SWAP1 PUSH2 0x332 JUMP JUMPDEST PUSH2 0xC3 JUMP JUMPDEST PUSH1 0x40 MLOAD PUSH2 0x6E SWAP3 SWAP2 SWAP1 PUSH2 0x458 JUMP JUMPDEST PUSH1 0x40 MLOAD DUP1 SWAP2 SUB SWAP1 RETURN JUMPDEST PUSH2 0x91 PUSH1 0x4 DUP1 CALLDATASIZE SUB DUP2 ADD SWAP1 PUSH2 0x8C SWAP2 SWAP1 PUSH2 0x37B JUMP JUMPDEST PUSH2 0xCB JUMP JUMPDEST PUSH1 0x40 MLOAD PUSH2 0x9E SWAP2 SWAP1 PUSH2 0x43D JUMP JUMPDEST PUSH1 0x40 MLOAD DUP1 SWAP2 SUB SWAP1 RETURN JUMPDEST PUSH2 0xC1 PUSH1 0x4 DUP1 CALLDATASIZE SUB DUP2 ADD SWAP1 PUSH2 0xBC SWAP2 SWAP1 PUSH2 0x37B JUMP JUMPDEST PUSH2 0x16D JUMP JUMPDEST STOP JUMPDEST PUSH1 0x0 DUP1 SWAP2 POP SWAP2 JUMP JUMPDEST PUSH1 0x0 DUP1 PUSH1 0x0 SWAP1 POP PUSH1 0x1 DUP5 PUSH1 0x40 MLOAD PUSH2 0xE2 SWAP2 SWAP1 PUSH2 0x426 JUMP JUMPDEST SWAP1 DUP2 MSTORE PUSH1 0x20 ADD PUSH1 0x40 MLOAD DUP1 SWAP2 SUB SWAP1 KECCAK256 PUSH1 0x2 ADD SLOAD DUP4 PUSH1 0x1 DUP7 PUSH1 0x40 MLOAD PUSH2 0x105 SWAP2 SWAP1 PUSH2 0x426 JUMP JUMPDEST SWAP1 DUP2 MSTORE PUSH1 0x20 ADD PUSH1 0x40 MLOAD DUP1 SWAP2 SUB SWAP1 KECCAK256 PUSH1 0x3 ADD SLOAD PUSH2 0x121 SWAP2 SWAP1 PUSH2 0x4ED JUMP JUMPDEST GT PUSH2 0x163 JUMPI DUP3 PUSH1 0x1 DUP6 PUSH1 0x40 MLOAD PUSH2 0x137 SWAP2 SWAP1 PUSH2 0x426 JUMP JUMPDEST SWAP1 DUP2 MSTORE PUSH1 0x20 ADD PUSH1 0x40 MLOAD DUP1 SWAP2 SUB SWAP1 KECCAK256 PUSH1 0x3 ADD PUSH1 0x0 DUP3 DUP3 SLOAD PUSH2 0x157 SWAP2 SWAP1 PUSH2 0x4ED JUMP JUMPDEST SWAP3 POP POP DUP2 SWAP1 SSTORE POP PUSH1 0x1 SWAP1 POP JUMPDEST DUP1 SWAP2 POP POP SWAP3 SWAP2 POP POP JUMP JUMPDEST PUSH1 0x1 PUSH1 0x0 DUP1 DUP3 DUP3 SLOAD PUSH2 0x17F SWAP2 SWAP1 PUSH2 0x4ED JUMP JUMPDEST SWAP3 POP POP DUP2 SWAP1 SSTORE POP PUSH1 0x40 MLOAD DUP1 PUSH1 0x80 ADD PUSH1 0x40 MSTORE DUP1 PUSH1 0x0 SLOAD DUP2 MSTORE PUSH1 0x20 ADD DUP4 DUP2 MSTORE PUSH1 0x20 ADD DUP3 DUP2 MSTORE PUSH1 0x20 ADD PUSH1 0x0 DUP2 MSTORE POP PUSH1 0x1 DUP4 PUSH1 0x40 MLOAD PUSH2 0x1BA SWAP2 SWAP1 PUSH2 0x426 JUMP JUMPDEST SWAP1 DUP2 MSTORE PUSH1 0x20 ADD PUSH1 0x40 MLOAD DUP1 SWAP2 SUB SWAP1 KECCAK256 PUSH1 0x0 DUP3 ADD MLOAD DUP2 PUSH1 0x0 ADD SSTORE PUSH1 0x20 DUP3 ADD MLOAD DUP2 PUSH1 0x1 ADD SWAP1 DUP1 MLOAD SWAP1 PUSH1 0x20 ADD SWAP1 PUSH2 0x1EE SWAP3 SWAP2 SWAP1 PUSH2 0x20A JUMP JUMPDEST POP PUSH1 0x40 DUP3 ADD MLOAD DUP2 PUSH1 0x2 ADD SSTORE PUSH1 0x60 DUP3 ADD MLOAD DUP2 PUSH1 0x3 ADD SSTORE SWAP1 POP POP POP POP JUMP JUMPDEST DUP3 DUP1 SLOAD PUSH2 0x216 SWAP1 PUSH2 0x59B JUMP JUMPDEST SWAP1 PUSH1 0x0 MSTORE PUSH1 0x20 PUSH1 0x0 KECCAK256 SWAP1 PUSH1 0x1F ADD PUSH1 0x20 SWAP1 DIV DUP2 ADD SWAP3 DUP3 PUSH2 0x238 JUMPI PUSH1 0x0 DUP6 SSTORE PUSH2 0x27F JUMP JUMPDEST DUP3 PUSH1 0x1F LT PUSH2 0x251 JUMPI DUP1 MLOAD PUSH1 0xFF NOT AND DUP4 DUP1 ADD OR DUP6 SSTORE PUSH2 0x27F JUMP JUMPDEST DUP3 DUP1 ADD PUSH1 0x1 ADD DUP6 SSTORE DUP3 ISZERO PUSH2 0x27F JUMPI SWAP2 DUP3 ADD JUMPDEST DUP3 DUP2 GT ISZERO PUSH2 0x27E JUMPI DUP3 MLOAD DUP3 SSTORE SWAP2 PUSH1 0x20 ADD SWAP2 SWAP1 PUSH1 0x1 ADD SWAP1 PUSH2 0x263 JUMP JUMPDEST JUMPDEST POP SWAP1 POP PUSH2 0x28C SWAP2 SWAP1 PUSH2 0x290 JUMP JUMPDEST POP SWAP1 JUMP JUMPDEST JUMPDEST DUP1 DUP3 GT ISZERO PUSH2 0x2A9 JUMPI PUSH1 0x0 DUP2 PUSH1 0x0 SWAP1 SSTORE POP PUSH1 0x1 ADD PUSH2 0x291 JUMP JUMPDEST POP SWAP1 JUMP JUMPDEST PUSH1 0x0 PUSH2 0x2C0 PUSH2 0x2BB DUP5 PUSH2 0x4A6 JUMP JUMPDEST PUSH2 0x481 JUMP JUMPDEST SWAP1 POP DUP3 DUP2 MSTORE PUSH1 0x20 DUP2 ADD DUP5 DUP5 DUP5 ADD GT ISZERO PUSH2 0x2DC JUMPI PUSH2 0x2DB PUSH2 0x690 JUMP JUMPDEST JUMPDEST PUSH2 0x2E7 DUP5 DUP3 DUP6 PUSH2 0x559 JUMP JUMPDEST POP SWAP4 SWAP3 POP POP POP JUMP JUMPDEST PUSH1 0x0 DUP3 PUSH1 0x1F DUP4 ADD SLT PUSH2 0x304 JUMPI PUSH2 0x303 PUSH2 0x68B JUMP JUMPDEST JUMPDEST DUP2 CALLDATALOAD PUSH2 0x314 DUP5 DUP3 PUSH1 0x20 DUP7 ADD PUSH2 0x2AD JUMP JUMPDEST SWAP2 POP POP SWAP3 SWAP2 POP POP JUMP JUMPDEST PUSH1 0x0 DUP2 CALLDATALOAD SWAP1 POP PUSH2 0x32C DUP2 PUSH2 0x6B0 JUMP JUMPDEST SWAP3 SWAP2 POP POP JUMP JUMPDEST PUSH1 0x0 PUSH1 0x20 DUP3 DUP5 SUB SLT ISZERO PUSH2 0x348 JUMPI PUSH2 0x347 PUSH2 0x69A JUMP JUMPDEST JUMPDEST PUSH1 0x0 DUP3 ADD CALLDATALOAD PUSH8 0xFFFFFFFFFFFFFFFF DUP2 GT ISZERO PUSH2 0x366 JUMPI PUSH2 0x365 PUSH2 0x695 JUMP JUMPDEST JUMPDEST PUSH2 0x372 DUP5 DUP3 DUP6 ADD PUSH2 0x2EF JUMP JUMPDEST SWAP2 POP POP SWAP3 SWAP2 POP POP JUMP JUMPDEST PUSH1 0x0 DUP1 PUSH1 0x40 DUP4 DUP6 SUB SLT ISZERO PUSH2 0x392 JUMPI PUSH2 0x391 PUSH2 0x69A JUMP JUMPDEST JUMPDEST PUSH1 0x0 DUP4 ADD CALLDATALOAD PUSH8 0xFFFFFFFFFFFFFFFF DUP2 GT ISZERO PUSH2 0x3B0 JUMPI PUSH2 0x3AF PUSH2 0x695 JUMP JUMPDEST JUMPDEST PUSH2 0x3BC DUP6 DUP3 DUP7 ADD PUSH2 0x2EF JUMP JUMPDEST SWAP3 POP POP PUSH1 0x20 PUSH2 0x3CD DUP6 DUP3 DUP7 ADD PUSH2 0x31D JUMP JUMPDEST SWAP2 POP POP SWAP3 POP SWAP3 SWAP1 POP JUMP JUMPDEST PUSH2 0x3E0 DUP2 PUSH2 0x543 JUMP JUMPDEST DUP3 MSTORE POP POP JUMP JUMPDEST PUSH1 0x0 PUSH2 0x3F1 DUP3 PUSH2 0x4D7 JUMP JUMPDEST PUSH2 0x3FB DUP2 DUP6 PUSH2 0x4E2 JUMP JUMPDEST SWAP4 POP PUSH2 0x40B DUP2 DUP6 PUSH1 0x20 DUP7 ADD PUSH2 0x568 JUMP JUMPDEST DUP1 DUP5 ADD SWAP2 POP POP SWAP3 SWAP2 POP POP JUMP JUMPDEST PUSH2 0x420 DUP2 PUSH2 0x54F JUMP JUMPDEST DUP3 MSTORE POP POP JUMP JUMPDEST PUSH1 0x0 PUSH2 0x432 DUP3 DUP5 PUSH2 0x3E6 JUMP JUMPDEST SWAP2 POP DUP2 SWAP1 POP SWAP3 SWAP2 POP POP JUMP JUMPDEST PUSH1 0x0 PUSH1 0x20 DUP3 ADD SWAP1 POP PUSH2 0x452 PUSH1 0x0 DUP4 ADD DUP5 PUSH2 0x3D7 JUMP JUMPDEST SWAP3 SWAP2 POP POP JUMP JUMPDEST PUSH1 0x0 PUSH1 0x40 DUP3 ADD SWAP1 POP PUSH2 0x46D PUSH1 0x0 DUP4 ADD DUP6 PUSH2 0x3D7 JUMP JUMPDEST PUSH2 0x47A PUSH1 0x20 DUP4 ADD DUP5 PUSH2 0x417 JUMP JUMPDEST SWAP4 SWAP3 POP POP POP JUMP JUMPDEST PUSH1 0x0 PUSH2 0x48B PUSH2 0x49C JUMP JUMPDEST SWAP1 POP PUSH2 0x497 DUP3 DUP3 PUSH2 0x5CD JUMP JUMPDEST SWAP2 SWAP1 POP JUMP JUMPDEST PUSH1 0x0 PUSH1 0x40 MLOAD SWAP1 POP SWAP1 JUMP JUMPDEST PUSH1 0x0 PUSH8 0xFFFFFFFFFFFFFFFF DUP3 GT ISZERO PUSH2 0x4C1 JUMPI PUSH2 0x4C0 PUSH2 0x65C JUMP JUMPDEST JUMPDEST PUSH2 0x4CA DUP3 PUSH2 0x69F JUMP JUMPDEST SWAP1 POP PUSH1 0x20 DUP2 ADD SWAP1 POP SWAP2 SWAP1 POP JUMP JUMPDEST PUSH1 0x0 DUP2 MLOAD SWAP1 POP SWAP2 SWAP1 POP JUMP JUMPDEST PUSH1 0x0 DUP2 SWAP1 POP SWAP3 SWAP2 POP POP JUMP JUMPDEST PUSH1 0x0 PUSH2 0x4F8 DUP3 PUSH2 0x54F JUMP JUMPDEST SWAP2 POP PUSH2 0x503 DUP4 PUSH2 0x54F JUMP JUMPDEST SWAP3 POP DUP3 PUSH32 0xFFFFFFFFFFFFFFFFFFFFFFFFFFFFFFFFFFFFFFFFFFFFFFFFFFFFFFFFFFFFFFFF SUB DUP3 GT ISZERO PUSH2 0x538 JUMPI PUSH2 0x537 PUSH2 0x5FE JUMP JUMPDEST JUMPDEST DUP3 DUP3 ADD SWAP1 POP SWAP3 SWAP2 POP POP JUMP JUMPDEST PUSH1 0x0 DUP2 ISZERO ISZERO SWAP1 POP SWAP2 SWAP1 POP JUMP JUMPDEST PUSH1 0x0 DUP2 SWAP1 POP SWAP2 SWAP1 POP JUMP JUMPDEST DUP3 DUP2 DUP4 CALLDATACOPY PUSH1 0x0 DUP4 DUP4 ADD MSTORE POP POP POP JUMP JUMPDEST PUSH1 0x0 JUMPDEST DUP4 DUP2 LT ISZERO PUSH2 0x586 JUMPI DUP1 DUP3 ADD MLOAD DUP2 DUP5 ADD MSTORE PUSH1 0x20 DUP2 ADD SWAP1 POP PUSH2 0x56B JUMP JUMPDEST DUP4 DUP2 GT ISZERO PUSH2 0x595 JUMPI PUSH1 0x0 DUP5 DUP5 ADD MSTORE JUMPDEST POP POP POP POP JUMP JUMPDEST PUSH1 0x0 PUSH1 0x2 DUP3 DIV SWAP1 POP PUSH1 0x1 DUP3 AND DUP1 PUSH2 0x5B3 JUMPI PUSH1 0x7F DUP3 AND SWAP2 POP JUMPDEST PUSH1 0x20 DUP3 LT DUP2 EQ ISZERO PUSH2 0x5C7 JUMPI PUSH2 0x5C6 PUSH2 0x62D JUMP JUMPDEST JUMPDEST POP SWAP2 SWAP1 POP JUMP JUMPDEST PUSH2 0x5D6 DUP3 PUSH2 0x69F JUMP JUMPDEST DUP2 ADD DUP2 DUP2 LT PUSH8 0xFFFFFFFFFFFFFFFF DUP3 GT OR ISZERO PUSH2 0x5F5 JUMPI PUSH2 0x5F4 PUSH2 0x65C JUMP JUMPDEST JUMPDEST DUP1 PUSH1 0x40 MSTORE POP POP POP JUMP JUMPDEST PUSH32 0x4E487B7100000000000000000000000000000000000000000000000000000000 PUSH1 0x0 MSTORE PUSH1 0x11 PUSH1 0x4 MSTORE PUSH1 0x24 PUSH1 0x0 REVERT JUMPDEST PUSH32 0x4E487B7100000000000000000000000000000000000000000000000000000000 PUSH1 0x0 MSTORE PUSH1 0x22 PUSH1 0x4 MSTORE PUSH1 0x24 PUSH1 0x0 REVERT JUMPDEST PUSH32 0x4E487B7100000000000000000000000000000000000000000000000000000000 PUSH1 0x0 MSTORE PUSH1 0x41 PUSH1 0x4 MSTORE PUSH1 0x24 PUSH1 0x0 REVERT JUMPDEST PUSH1 0x0 DUP1 REVERT JUMPDEST PUSH1 0x0 DUP1 REVERT JUMPDEST PUSH1 0x0 DUP1 REVERT JUMPDEST PUSH1 0x0 DUP1 REVERT JUMPDEST PUSH1 0x0 PUSH1 0x1F NOT PUSH1 0x1F DUP4 ADD AND SWAP1 POP SWAP2 SWAP1 POP JUMP JUMPDEST PUSH2 0x6B9 DUP2 PUSH2 0x54F JUMP JUMPDEST DUP2 EQ PUSH2 0x6C4 JUMPI PUSH1 0x0 DUP1 REVERT JUMPDEST POP JUMP INVALID LOG2 PUSH5 0x6970667358 0x22 SLT KECCAK256 DIV PUSH25 0x45C80D69975F2B886F123728E5FAF8EE8B5282ED54F3CA727A PUSH30 0x724D1B5A64736F6C63430008060033000000000000000000000000000000 "
				},
				"gasEstimates": {
					"creation": {
						"codeDepositCost": "357800",
						"executionCost": "5399",
						"totalCost": "363199"
					},
					"external": {
						"agregar(string,uint256)": "infinite",
						"comprobar(string)": "infinite",
						"donar(string,uint256)": "infinite"
					}
				},
				"methodIdentifiers": {
					"agregar(string,uint256)": "c6c8e11a",
					"comprobar(string)": "04c5b78f",
					"donar(string,uint256)": "45cd81b3"
				}
			},
			"storageLayout": {
				"storage": [
					{
						"astId": 13,
						"contract": "Funciones/causas_beneficas.sol:CausasBeneficas",
						"label": "contadorCausas",
						"offset": 0,
						"slot": "0",
						"type": "t_uint256"
					},
					{
						"astId": 18,
						"contract": "Funciones/causas_beneficas.sol:CausasBeneficas",
						"label": "causas",
						"offset": 0,
						"slot": "1",
						"type": "t_mapping(t_string_memory_ptr,t_struct(causa)10_storage)"
					}
				],
				"types": {
					"t_mapping(t_string_memory_ptr,t_struct(causa)10_storage)": {
						"encoding": "mapping",
						"key": "t_string_memory_ptr",
						"label": "mapping(string => struct CausasBeneficas.causa)",
						"numberOfBytes": "32",
						"value": "t_struct(causa)10_storage"
					},
					"t_string_memory_ptr": {
						"encoding": "bytes",
						"label": "string",
						"numberOfBytes": "32"
					},
					"t_string_storage": {
						"encoding": "bytes",
						"label": "string",
						"numberOfBytes": "32"
					},
					"t_struct(causa)10_storage": {
						"encoding": "inplace",
						"label": "struct CausasBeneficas.causa",
						"members": [
							{
								"astId": 3,
								"contract": "Funciones/causas_beneficas.sol:CausasBeneficas",
								"label": "id",
								"offset": 0,
								"slot": "0",
								"type": "t_uint256"
							},
							{
								"astId": 5,
								"contract": "Funciones/causas_beneficas.sol:CausasBeneficas",
								"label": "nombre",
								"offset": 0,
								"slot": "1",
								"type": "t_string_storage"
							},
							{
								"astId": 7,
								"contract": "Funciones/causas_beneficas.sol:CausasBeneficas",
								"label": "montoObjetivo",
								"offset": 0,
								"slot": "2",
								"type": "t_uint256"
							},
							{
								"astId": 9,
								"contract": "Funciones/causas_beneficas.sol:CausasBeneficas",
								"label": "montoRecaudado",
								"offset": 0,
								"slot": "3",
								"type": "t_uint256"
							}
						],
						"numberOfBytes": "128"
					},
					"t_uint256": {
						"encoding": "inplace",
						"label": "uint256",
						"numberOfBytes": "32"
					}
				}
			},
			"userdoc": {
				"kind": "user",
				"methods": {},
				"version": 1
			}
		}
	}
}