{
	"Funciones/causas_beneficas.sol": {
		"CausasBeneficas": {
			"abi": [
				{
					"inputs": [
						{
							"internalType": "string",
							"name": "_nombre",
							"type": "string"
						},
						{
							"internalType": "uint256",
							"name": "_montoObjetivo",
							"type": "uint256"
						}
					],
					"name": "agregarCausa",
					"outputs": [],
					"stateMutability": "nonpayable",
					"type": "function"
				}
			],
			"devdoc": {
				"kind": "dev",
				"methods": {},
				"version": 1
			},
			"evm": {
				"assembly": "    /* \"Funciones/causas_beneficas.sol\":33:511  contract CausasBeneficas {... */\n  mstore(0x40, 0x80)\n    /* \"Funciones/causas_beneficas.sol\":210:211  0 */\n  0x00\n    /* \"Funciones/causas_beneficas.sol\":188:211  uint contadorCausas = 0 */\n  dup1\n  sstore\n    /* \"Funciones/causas_beneficas.sol\":33:511  contract CausasBeneficas {... */\n  callvalue\n  dup1\n  iszero\n  tag_1\n  jumpi\n  0x00\n  dup1\n  revert\ntag_1:\n  pop\n  dataSize(sub_0)\n  dup1\n  dataOffset(sub_0)\n  0x00\n  codecopy\n  0x00\n  return\nstop\n\nsub_0: assembly {\n        /* \"Funciones/causas_beneficas.sol\":33:511  contract CausasBeneficas {... */\n      mstore(0x40, 0x80)\n      callvalue\n      dup1\n      iszero\n      tag_1\n      jumpi\n      0x00\n      dup1\n      revert\n    tag_1:\n      pop\n      jumpi(tag_2, lt(calldatasize, 0x04))\n      shr(0xe0, calldataload(0x00))\n      dup1\n      0x2e2a713f\n      eq\n      tag_3\n      jumpi\n    tag_2:\n      0x00\n      dup1\n      revert\n        /* \"Funciones/causas_beneficas.sol\":312:499  function agregarCausa(string memory _nombre, uint _montoObjetivo) public {... */\n    tag_3:\n      tag_4\n      0x04\n      dup1\n      calldatasize\n      sub\n      dup2\n      add\n      swap1\n      tag_5\n      swap2\n      swap1\n      tag_6\n      jump\t// in\n    tag_5:\n      tag_7\n      jump\t// in\n    tag_4:\n      stop\n    tag_7:\n        /* \"Funciones/causas_beneficas.sol\":413:414  1 */\n      0x01\n        /* \"Funciones/causas_beneficas.sol\":395:409  contadorCausas */\n      0x00\n      dup1\n        /* \"Funciones/causas_beneficas.sol\":395:414  contadorCausas += 1 */\n      dup3\n      dup3\n      sload\n      tag_9\n      swap2\n      swap1\n      tag_10\n      jump\t// in\n    tag_9:\n      swap3\n      pop\n      pop\n      dup2\n      swap1\n      sstore\n      pop\n        /* \"Funciones/causas_beneficas.sol\":442:491  causa(contadorCausas, _nombre, _montoObjetivo, 0) */\n      mload(0x40)\n      dup1\n      0x80\n      add\n      0x40\n      mstore\n      dup1\n        /* \"Funciones/causas_beneficas.sol\":448:462  contadorCausas */\n      sload(0x00)\n        /* \"Funciones/causas_beneficas.sol\":442:491  causa(contadorCausas, _nombre, _montoObjetivo, 0) */\n      dup2\n      mstore\n      0x20\n      add\n        /* \"Funciones/causas_beneficas.sol\":464:471  _nombre */\n      dup4\n        /* \"Funciones/causas_beneficas.sol\":442:491  causa(contadorCausas, _nombre, _montoObjetivo, 0) */\n      dup2\n      mstore\n      0x20\n      add\n        /* \"Funciones/causas_beneficas.sol\":473:487  _montoObjetivo */\n      dup3\n        /* \"Funciones/causas_beneficas.sol\":442:491  causa(contadorCausas, _nombre, _montoObjetivo, 0) */\n      dup2\n      mstore\n      0x20\n      add\n        /* \"Funciones/causas_beneficas.sol\":489:490  0 */\n      0x00\n        /* \"Funciones/causas_beneficas.sol\":442:491  causa(contadorCausas, _nombre, _montoObjetivo, 0) */\n      dup2\n      mstore\n      pop\n        /* \"Funciones/causas_beneficas.sol\":424:430  causas */\n      0x01\n        /* \"Funciones/causas_beneficas.sol\":431:438  _nombre */\n      dup4\n        /* \"Funciones/causas_beneficas.sol\":424:439  causas[_nombre] */\n      mload(0x40)\n      tag_11\n      swap2\n      swap1\n      tag_12\n      jump\t// in\n    tag_11:\n      swap1\n      dup2\n      mstore\n      0x20\n      add\n      mload(0x40)\n      dup1\n      swap2\n      sub\n      swap1\n      keccak256\n        /* \"Funciones/causas_beneficas.sol\":424:491  causas[_nombre] = causa(contadorCausas, _nombre, _montoObjetivo, 0) */\n      0x00\n      dup3\n      add\n      mload\n      dup2\n      0x00\n      add\n      sstore\n      0x20\n      dup3\n      add\n      mload\n      dup2\n      0x01\n      add\n      swap1\n      dup1\n      mload\n      swap1\n      0x20\n      add\n      swap1\n      tag_13\n      swap3\n      swap2\n      swap1\n      tag_14\n      jump\t// in\n    tag_13:\n      pop\n      0x40\n      dup3\n      add\n      mload\n      dup2\n      0x02\n      add\n      sstore\n      0x60\n      dup3\n      add\n      mload\n      dup2\n      0x03\n      add\n      sstore\n      swap1\n      pop\n      pop\n        /* \"Funciones/causas_beneficas.sol\":312:499  function agregarCausa(string memory _nombre, uint _montoObjetivo) public {... */\n      pop\n      pop\n      jump\t// out\n    tag_14:\n      dup3\n      dup1\n      sload\n      tag_15\n      swap1\n      tag_16\n      jump\t// in\n    tag_15:\n      swap1\n      0x00\n      mstore\n      keccak256(0x00, 0x20)\n      swap1\n      0x1f\n      add\n      0x20\n      swap1\n      div\n      dup2\n      add\n      swap3\n      dup3\n      tag_18\n      jumpi\n      0x00\n      dup6\n      sstore\n      jump(tag_17)\n    tag_18:\n      dup3\n      0x1f\n      lt\n      tag_19\n      jumpi\n      dup1\n      mload\n      not(0xff)\n      and\n      dup4\n      dup1\n      add\n      or\n      dup6\n      sstore\n      jump(tag_17)\n    tag_19:\n      dup3\n      dup1\n      add\n      0x01\n      add\n      dup6\n      sstore\n      dup3\n      iszero\n      tag_17\n      jumpi\n      swap2\n      dup3\n      add\n    tag_20:\n      dup3\n      dup2\n      gt\n      iszero\n      tag_21\n      jumpi\n      dup3\n      mload\n      dup3\n      sstore\n      swap2\n      0x20\n      add\n      swap2\n      swap1\n      0x01\n      add\n      swap1\n      jump(tag_20)\n    tag_21:\n    tag_17:\n      pop\n      swap1\n      pop\n      tag_22\n      swap2\n      swap1\n      tag_23\n      jump\t// in\n    tag_22:\n      pop\n      swap1\n      jump\t// out\n    tag_23:\n    tag_24:\n      dup1\n      dup3\n      gt\n      iszero\n      tag_25\n      jumpi\n      0x00\n      dup2\n      0x00\n      swap1\n      sstore\n      pop\n      0x01\n      add\n      jump(tag_24)\n    tag_25:\n      pop\n      swap1\n      jump\t// out\n        /* \"#utility.yul\":7:419   */\n    tag_27:\n        /* \"#utility.yul\":85:90   */\n      0x00\n        /* \"#utility.yul\":110:176   */\n      tag_29\n        /* \"#utility.yul\":126:175   */\n      tag_30\n        /* \"#utility.yul\":168:174   */\n      dup5\n        /* \"#utility.yul\":126:175   */\n      tag_31\n      jump\t// in\n    tag_30:\n        /* \"#utility.yul\":110:176   */\n      tag_32\n      jump\t// in\n    tag_29:\n        /* \"#utility.yul\":101:176   */\n      swap1\n      pop\n        /* \"#utility.yul\":199:205   */\n      dup3\n        /* \"#utility.yul\":192:197   */\n      dup2\n        /* \"#utility.yul\":185:206   */\n      mstore\n        /* \"#utility.yul\":237:241   */\n      0x20\n        /* \"#utility.yul\":230:235   */\n      dup2\n        /* \"#utility.yul\":226:242   */\n      add\n        /* \"#utility.yul\":275:278   */\n      dup5\n        /* \"#utility.yul\":266:272   */\n      dup5\n        /* \"#utility.yul\":261:264   */\n      dup5\n        /* \"#utility.yul\":257:273   */\n      add\n        /* \"#utility.yul\":254:279   */\n      gt\n        /* \"#utility.yul\":251:253   */\n      iszero\n      tag_33\n      jumpi\n        /* \"#utility.yul\":282:361   */\n      tag_34\n      tag_35\n      jump\t// in\n    tag_34:\n        /* \"#utility.yul\":251:253   */\n    tag_33:\n        /* \"#utility.yul\":372:413   */\n      tag_36\n        /* \"#utility.yul\":406:412   */\n      dup5\n        /* \"#utility.yul\":401:404   */\n      dup3\n        /* \"#utility.yul\":396:399   */\n      dup6\n        /* \"#utility.yul\":372:413   */\n      tag_37\n      jump\t// in\n    tag_36:\n        /* \"#utility.yul\":91:419   */\n      pop\n      swap4\n      swap3\n      pop\n      pop\n      pop\n      jump\t// out\n        /* \"#utility.yul\":439:779   */\n    tag_38:\n        /* \"#utility.yul\":495:500   */\n      0x00\n        /* \"#utility.yul\":544:547   */\n      dup3\n        /* \"#utility.yul\":537:541   */\n      0x1f\n        /* \"#utility.yul\":529:535   */\n      dup4\n        /* \"#utility.yul\":525:542   */\n      add\n        /* \"#utility.yul\":521:548   */\n      slt\n        /* \"#utility.yul\":511:513   */\n      tag_40\n      jumpi\n        /* \"#utility.yul\":552:631   */\n      tag_41\n      tag_42\n      jump\t// in\n    tag_41:\n        /* \"#utility.yul\":511:513   */\n    tag_40:\n        /* \"#utility.yul\":669:675   */\n      dup2\n        /* \"#utility.yul\":656:676   */\n      calldataload\n        /* \"#utility.yul\":694:773   */\n      tag_43\n        /* \"#utility.yul\":769:772   */\n      dup5\n        /* \"#utility.yul\":761:767   */\n      dup3\n        /* \"#utility.yul\":754:758   */\n      0x20\n        /* \"#utility.yul\":746:752   */\n      dup7\n        /* \"#utility.yul\":742:759   */\n      add\n        /* \"#utility.yul\":694:773   */\n      tag_27\n      jump\t// in\n    tag_43:\n        /* \"#utility.yul\":685:773   */\n      swap2\n      pop\n        /* \"#utility.yul\":501:779   */\n      pop\n      swap3\n      swap2\n      pop\n      pop\n      jump\t// out\n        /* \"#utility.yul\":785:924   */\n    tag_44:\n        /* \"#utility.yul\":831:836   */\n      0x00\n        /* \"#utility.yul\":869:875   */\n      dup2\n        /* \"#utility.yul\":856:876   */\n      calldataload\n        /* \"#utility.yul\":847:876   */\n      swap1\n      pop\n        /* \"#utility.yul\":885:918   */\n      tag_46\n        /* \"#utility.yul\":912:917   */\n      dup2\n        /* \"#utility.yul\":885:918   */\n      tag_47\n      jump\t// in\n    tag_46:\n        /* \"#utility.yul\":837:924   */\n      swap3\n      swap2\n      pop\n      pop\n      jump\t// out\n        /* \"#utility.yul\":930:1584   */\n    tag_6:\n        /* \"#utility.yul\":1008:1014   */\n      0x00\n        /* \"#utility.yul\":1016:1022   */\n      dup1\n        /* \"#utility.yul\":1065:1067   */\n      0x40\n        /* \"#utility.yul\":1053:1062   */\n      dup4\n        /* \"#utility.yul\":1044:1051   */\n      dup6\n        /* \"#utility.yul\":1040:1063   */\n      sub\n        /* \"#utility.yul\":1036:1068   */\n      slt\n        /* \"#utility.yul\":1033:1035   */\n      iszero\n      tag_49\n      jumpi\n        /* \"#utility.yul\":1071:1150   */\n      tag_50\n      tag_51\n      jump\t// in\n    tag_50:\n        /* \"#utility.yul\":1033:1035   */\n    tag_49:\n        /* \"#utility.yul\":1219:1220   */\n      0x00\n        /* \"#utility.yul\":1208:1217   */\n      dup4\n        /* \"#utility.yul\":1204:1221   */\n      add\n        /* \"#utility.yul\":1191:1222   */\n      calldataload\n        /* \"#utility.yul\":1249:1267   */\n      0xffffffffffffffff\n        /* \"#utility.yul\":1241:1247   */\n      dup2\n        /* \"#utility.yul\":1238:1268   */\n      gt\n        /* \"#utility.yul\":1235:1237   */\n      iszero\n      tag_52\n      jumpi\n        /* \"#utility.yul\":1271:1350   */\n      tag_53\n      tag_54\n      jump\t// in\n    tag_53:\n        /* \"#utility.yul\":1235:1237   */\n    tag_52:\n        /* \"#utility.yul\":1376:1439   */\n      tag_55\n        /* \"#utility.yul\":1431:1438   */\n      dup6\n        /* \"#utility.yul\":1422:1428   */\n      dup3\n        /* \"#utility.yul\":1411:1420   */\n      dup7\n        /* \"#utility.yul\":1407:1429   */\n      add\n        /* \"#utility.yul\":1376:1439   */\n      tag_38\n      jump\t// in\n    tag_55:\n        /* \"#utility.yul\":1366:1439   */\n      swap3\n      pop\n        /* \"#utility.yul\":1162:1449   */\n      pop\n        /* \"#utility.yul\":1488:1490   */\n      0x20\n        /* \"#utility.yul\":1514:1567   */\n      tag_56\n        /* \"#utility.yul\":1559:1566   */\n      dup6\n        /* \"#utility.yul\":1550:1556   */\n      dup3\n        /* \"#utility.yul\":1539:1548   */\n      dup7\n        /* \"#utility.yul\":1535:1557   */\n      add\n        /* \"#utility.yul\":1514:1567   */\n      tag_44\n      jump\t// in\n    tag_56:\n        /* \"#utility.yul\":1504:1567   */\n      swap2\n      pop\n        /* \"#utility.yul\":1459:1577   */\n      pop\n        /* \"#utility.yul\":1023:1584   */\n      swap3\n      pop\n      swap3\n      swap1\n      pop\n      jump\t// out\n        /* \"#utility.yul\":1590:1967   */\n    tag_57:\n        /* \"#utility.yul\":1696:1699   */\n      0x00\n        /* \"#utility.yul\":1724:1763   */\n      tag_59\n        /* \"#utility.yul\":1757:1762   */\n      dup3\n        /* \"#utility.yul\":1724:1763   */\n      tag_60\n      jump\t// in\n    tag_59:\n        /* \"#utility.yul\":1779:1868   */\n      tag_61\n        /* \"#utility.yul\":1861:1867   */\n      dup2\n        /* \"#utility.yul\":1856:1859   */\n      dup6\n        /* \"#utility.yul\":1779:1868   */\n      tag_62\n      jump\t// in\n    tag_61:\n        /* \"#utility.yul\":1772:1868   */\n      swap4\n      pop\n        /* \"#utility.yul\":1877:1929   */\n      tag_63\n        /* \"#utility.yul\":1922:1928   */\n      dup2\n        /* \"#utility.yul\":1917:1920   */\n      dup6\n        /* \"#utility.yul\":1910:1914   */\n      0x20\n        /* \"#utility.yul\":1903:1908   */\n      dup7\n        /* \"#utility.yul\":1899:1915   */\n      add\n        /* \"#utility.yul\":1877:1929   */\n      tag_64\n      jump\t// in\n    tag_63:\n        /* \"#utility.yul\":1954:1960   */\n      dup1\n        /* \"#utility.yul\":1949:1952   */\n      dup5\n        /* \"#utility.yul\":1945:1961   */\n      add\n        /* \"#utility.yul\":1938:1961   */\n      swap2\n      pop\n        /* \"#utility.yul\":1700:1967   */\n      pop\n      swap3\n      swap2\n      pop\n      pop\n      jump\t// out\n        /* \"#utility.yul\":1973:2248   */\n    tag_12:\n        /* \"#utility.yul\":2105:2108   */\n      0x00\n        /* \"#utility.yul\":2127:2222   */\n      tag_66\n        /* \"#utility.yul\":2218:2221   */\n      dup3\n        /* \"#utility.yul\":2209:2215   */\n      dup5\n        /* \"#utility.yul\":2127:2222   */\n      tag_57\n      jump\t// in\n    tag_66:\n        /* \"#utility.yul\":2120:2222   */\n      swap2\n      pop\n        /* \"#utility.yul\":2239:2242   */\n      dup2\n        /* \"#utility.yul\":2232:2242   */\n      swap1\n      pop\n        /* \"#utility.yul\":2109:2248   */\n      swap3\n      swap2\n      pop\n      pop\n      jump\t// out\n        /* \"#utility.yul\":2254:2383   */\n    tag_32:\n        /* \"#utility.yul\":2288:2294   */\n      0x00\n        /* \"#utility.yul\":2315:2335   */\n      tag_68\n      tag_69\n      jump\t// in\n    tag_68:\n        /* \"#utility.yul\":2305:2335   */\n      swap1\n      pop\n        /* \"#utility.yul\":2344:2377   */\n      tag_70\n        /* \"#utility.yul\":2372:2376   */\n      dup3\n        /* \"#utility.yul\":2364:2370   */\n      dup3\n        /* \"#utility.yul\":2344:2377   */\n      tag_71\n      jump\t// in\n    tag_70:\n        /* \"#utility.yul\":2295:2383   */\n      swap2\n      swap1\n      pop\n      jump\t// out\n        /* \"#utility.yul\":2389:2464   */\n    tag_69:\n        /* \"#utility.yul\":2422:2428   */\n      0x00\n        /* \"#utility.yul\":2455:2457   */\n      0x40\n        /* \"#utility.yul\":2449:2458   */\n      mload\n        /* \"#utility.yul\":2439:2458   */\n      swap1\n      pop\n        /* \"#utility.yul\":2429:2464   */\n      swap1\n      jump\t// out\n        /* \"#utility.yul\":2470:2778   */\n    tag_31:\n        /* \"#utility.yul\":2532:2536   */\n      0x00\n        /* \"#utility.yul\":2622:2640   */\n      0xffffffffffffffff\n        /* \"#utility.yul\":2614:2620   */\n      dup3\n        /* \"#utility.yul\":2611:2641   */\n      gt\n        /* \"#utility.yul\":2608:2610   */\n      iszero\n      tag_74\n      jumpi\n        /* \"#utility.yul\":2644:2662   */\n      tag_75\n      tag_76\n      jump\t// in\n    tag_75:\n        /* \"#utility.yul\":2608:2610   */\n    tag_74:\n        /* \"#utility.yul\":2682:2711   */\n      tag_77\n        /* \"#utility.yul\":2704:2710   */\n      dup3\n        /* \"#utility.yul\":2682:2711   */\n      tag_78\n      jump\t// in\n    tag_77:\n        /* \"#utility.yul\":2674:2711   */\n      swap1\n      pop\n        /* \"#utility.yul\":2766:2770   */\n      0x20\n        /* \"#utility.yul\":2760:2764   */\n      dup2\n        /* \"#utility.yul\":2756:2771   */\n      add\n        /* \"#utility.yul\":2748:2771   */\n      swap1\n      pop\n        /* \"#utility.yul\":2537:2778   */\n      swap2\n      swap1\n      pop\n      jump\t// out\n        /* \"#utility.yul\":2784:2883   */\n    tag_60:\n        /* \"#utility.yul\":2836:2842   */\n      0x00\n        /* \"#utility.yul\":2870:2875   */\n      dup2\n        /* \"#utility.yul\":2864:2876   */\n      mload\n        /* \"#utility.yul\":2854:2876   */\n      swap1\n      pop\n        /* \"#utility.yul\":2843:2883   */\n      swap2\n      swap1\n      pop\n      jump\t// out\n        /* \"#utility.yul\":2889:3037   */\n    tag_62:\n        /* \"#utility.yul\":2991:3002   */\n      0x00\n        /* \"#utility.yul\":3028:3031   */\n      dup2\n        /* \"#utility.yul\":3013:3031   */\n      swap1\n      pop\n        /* \"#utility.yul\":3003:3037   */\n      swap3\n      swap2\n      pop\n      pop\n      jump\t// out\n        /* \"#utility.yul\":3043:3348   */\n    tag_10:\n        /* \"#utility.yul\":3083:3086   */\n      0x00\n        /* \"#utility.yul\":3102:3122   */\n      tag_82\n        /* \"#utility.yul\":3120:3121   */\n      dup3\n        /* \"#utility.yul\":3102:3122   */\n      tag_83\n      jump\t// in\n    tag_82:\n        /* \"#utility.yul\":3097:3122   */\n      swap2\n      pop\n        /* \"#utility.yul\":3136:3156   */\n      tag_84\n        /* \"#utility.yul\":3154:3155   */\n      dup4\n        /* \"#utility.yul\":3136:3156   */\n      tag_83\n      jump\t// in\n    tag_84:\n        /* \"#utility.yul\":3131:3156   */\n      swap3\n      pop\n        /* \"#utility.yul\":3290:3291   */\n      dup3\n        /* \"#utility.yul\":3222:3288   */\n      0xffffffffffffffffffffffffffffffffffffffffffffffffffffffffffffffff\n        /* \"#utility.yul\":3218:3292   */\n      sub\n        /* \"#utility.yul\":3215:3216   */\n      dup3\n        /* \"#utility.yul\":3212:3293   */\n      gt\n        /* \"#utility.yul\":3209:3211   */\n      iszero\n      tag_85\n      jumpi\n        /* \"#utility.yul\":3296:3314   */\n      tag_86\n      tag_87\n      jump\t// in\n    tag_86:\n        /* \"#utility.yul\":3209:3211   */\n    tag_85:\n        /* \"#utility.yul\":3340:3341   */\n      dup3\n        /* \"#utility.yul\":3337:3338   */\n      dup3\n        /* \"#utility.yul\":3333:3342   */\n      add\n        /* \"#utility.yul\":3326:3342   */\n      swap1\n      pop\n        /* \"#utility.yul\":3087:3348   */\n      swap3\n      swap2\n      pop\n      pop\n      jump\t// out\n        /* \"#utility.yul\":3354:3431   */\n    tag_83:\n        /* \"#utility.yul\":3391:3398   */\n      0x00\n        /* \"#utility.yul\":3420:3425   */\n      dup2\n        /* \"#utility.yul\":3409:3425   */\n      swap1\n      pop\n        /* \"#utility.yul\":3399:3431   */\n      swap2\n      swap1\n      pop\n      jump\t// out\n        /* \"#utility.yul\":3437:3591   */\n    tag_37:\n        /* \"#utility.yul\":3521:3527   */\n      dup3\n        /* \"#utility.yul\":3516:3519   */\n      dup2\n        /* \"#utility.yul\":3511:3514   */\n      dup4\n        /* \"#utility.yul\":3498:3528   */\n      calldatacopy\n        /* \"#utility.yul\":3583:3584   */\n      0x00\n        /* \"#utility.yul\":3574:3580   */\n      dup4\n        /* \"#utility.yul\":3569:3572   */\n      dup4\n        /* \"#utility.yul\":3565:3581   */\n      add\n        /* \"#utility.yul\":3558:3585   */\n      mstore\n        /* \"#utility.yul\":3488:3591   */\n      pop\n      pop\n      pop\n      jump\t// out\n        /* \"#utility.yul\":3597:3904   */\n    tag_64:\n        /* \"#utility.yul\":3665:3666   */\n      0x00\n        /* \"#utility.yul\":3675:3788   */\n    tag_91:\n        /* \"#utility.yul\":3689:3695   */\n      dup4\n        /* \"#utility.yul\":3686:3687   */\n      dup2\n        /* \"#utility.yul\":3683:3696   */\n      lt\n        /* \"#utility.yul\":3675:3788   */\n      iszero\n      tag_93\n      jumpi\n        /* \"#utility.yul\":3774:3775   */\n      dup1\n        /* \"#utility.yul\":3769:3772   */\n      dup3\n        /* \"#utility.yul\":3765:3776   */\n      add\n        /* \"#utility.yul\":3759:3777   */\n      mload\n        /* \"#utility.yul\":3755:3756   */\n      dup2\n        /* \"#utility.yul\":3750:3753   */\n      dup5\n        /* \"#utility.yul\":3746:3757   */\n      add\n        /* \"#utility.yul\":3739:3778   */\n      mstore\n        /* \"#utility.yul\":3711:3713   */\n      0x20\n        /* \"#utility.yul\":3708:3709   */\n      dup2\n        /* \"#utility.yul\":3704:3714   */\n      add\n        /* \"#utility.yul\":3699:3714   */\n      swap1\n      pop\n        /* \"#utility.yul\":3675:3788   */\n      jump(tag_91)\n    tag_93:\n        /* \"#utility.yul\":3806:3812   */\n      dup4\n        /* \"#utility.yul\":3803:3804   */\n      dup2\n        /* \"#utility.yul\":3800:3813   */\n      gt\n        /* \"#utility.yul\":3797:3799   */\n      iszero\n      tag_94\n      jumpi\n        /* \"#utility.yul\":3886:3887   */\n      0x00\n        /* \"#utility.yul\":3877:3883   */\n      dup5\n        /* \"#utility.yul\":3872:3875   */\n      dup5\n        /* \"#utility.yul\":3868:3884   */\n      add\n        /* \"#utility.yul\":3861:3888   */\n      mstore\n        /* \"#utility.yul\":3797:3799   */\n    tag_94:\n        /* \"#utility.yul\":3646:3904   */\n      pop\n      pop\n      pop\n      pop\n      jump\t// out\n        /* \"#utility.yul\":3910:4230   */\n    tag_16:\n        /* \"#utility.yul\":3954:3960   */\n      0x00\n        /* \"#utility.yul\":3991:3992   */\n      0x02\n        /* \"#utility.yul\":3985:3989   */\n      dup3\n        /* \"#utility.yul\":3981:3993   */\n      div\n        /* \"#utility.yul\":3971:3993   */\n      swap1\n      pop\n        /* \"#utility.yul\":4038:4039   */\n      0x01\n        /* \"#utility.yul\":4032:4036   */\n      dup3\n        /* \"#utility.yul\":4028:4040   */\n      and\n        /* \"#utility.yul\":4059:4077   */\n      dup1\n        /* \"#utility.yul\":4049:4051   */\n      tag_96\n      jumpi\n        /* \"#utility.yul\":4115:4119   */\n      0x7f\n        /* \"#utility.yul\":4107:4113   */\n      dup3\n        /* \"#utility.yul\":4103:4120   */\n      and\n        /* \"#utility.yul\":4093:4120   */\n      swap2\n      pop\n        /* \"#utility.yul\":4049:4051   */\n    tag_96:\n        /* \"#utility.yul\":4177:4179   */\n      0x20\n        /* \"#utility.yul\":4169:4175   */\n      dup3\n        /* \"#utility.yul\":4166:4180   */\n      lt\n        /* \"#utility.yul\":4146:4164   */\n      dup2\n        /* \"#utility.yul\":4143:4181   */\n      eq\n        /* \"#utility.yul\":4140:4142   */\n      iszero\n      tag_97\n      jumpi\n        /* \"#utility.yul\":4196:4214   */\n      tag_98\n      tag_99\n      jump\t// in\n    tag_98:\n        /* \"#utility.yul\":4140:4142   */\n    tag_97:\n        /* \"#utility.yul\":3961:4230   */\n      pop\n      swap2\n      swap1\n      pop\n      jump\t// out\n        /* \"#utility.yul\":4236:4517   */\n    tag_71:\n        /* \"#utility.yul\":4319:4346   */\n      tag_101\n        /* \"#utility.yul\":4341:4345   */\n      dup3\n        /* \"#utility.yul\":4319:4346   */\n      tag_78\n      jump\t// in\n    tag_101:\n        /* \"#utility.yul\":4311:4317   */\n      dup2\n        /* \"#utility.yul\":4307:4347   */\n      add\n        /* \"#utility.yul\":4449:4455   */\n      dup2\n        /* \"#utility.yul\":4437:4447   */\n      dup2\n        /* \"#utility.yul\":4434:4456   */\n      lt\n        /* \"#utility.yul\":4413:4431   */\n      0xffffffffffffffff\n        /* \"#utility.yul\":4401:4411   */\n      dup3\n        /* \"#utility.yul\":4398:4432   */\n      gt\n        /* \"#utility.yul\":4395:4457   */\n      or\n        /* \"#utility.yul\":4392:4394   */\n      iszero\n      tag_102\n      jumpi\n        /* \"#utility.yul\":4460:4478   */\n      tag_103\n      tag_76\n      jump\t// in\n    tag_103:\n        /* \"#utility.yul\":4392:4394   */\n    tag_102:\n        /* \"#utility.yul\":4500:4510   */\n      dup1\n        /* \"#utility.yul\":4496:4498   */\n      0x40\n        /* \"#utility.yul\":4489:4511   */\n      mstore\n        /* \"#utility.yul\":4279:4517   */\n      pop\n      pop\n      pop\n      jump\t// out\n        /* \"#utility.yul\":4523:4703   */\n    tag_87:\n        /* \"#utility.yul\":4571:4648   */\n      0x4e487b7100000000000000000000000000000000000000000000000000000000\n        /* \"#utility.yul\":4568:4569   */\n      0x00\n        /* \"#utility.yul\":4561:4649   */\n      mstore\n        /* \"#utility.yul\":4668:4672   */\n      0x11\n        /* \"#utility.yul\":4665:4666   */\n      0x04\n        /* \"#utility.yul\":4658:4673   */\n      mstore\n        /* \"#utility.yul\":4692:4696   */\n      0x24\n        /* \"#utility.yul\":4689:4690   */\n      0x00\n        /* \"#utility.yul\":4682:4697   */\n      revert\n        /* \"#utility.yul\":4709:4889   */\n    tag_99:\n        /* \"#utility.yul\":4757:4834   */\n      0x4e487b7100000000000000000000000000000000000000000000000000000000\n        /* \"#utility.yul\":4754:4755   */\n      0x00\n        /* \"#utility.yul\":4747:4835   */\n      mstore\n        /* \"#utility.yul\":4854:4858   */\n      0x22\n        /* \"#utility.yul\":4851:4852   */\n      0x04\n        /* \"#utility.yul\":4844:4859   */\n      mstore\n        /* \"#utility.yul\":4878:4882   */\n      0x24\n        /* \"#utility.yul\":4875:4876   */\n      0x00\n        /* \"#utility.yul\":4868:4883   */\n      revert\n        /* \"#utility.yul\":4895:5075   */\n    tag_76:\n        /* \"#utility.yul\":4943:5020   */\n      0x4e487b7100000000000000000000000000000000000000000000000000000000\n        /* \"#utility.yul\":4940:4941   */\n      0x00\n        /* \"#utility.yul\":4933:5021   */\n      mstore\n        /* \"#utility.yul\":5040:5044   */\n      0x41\n        /* \"#utility.yul\":5037:5038   */\n      0x04\n        /* \"#utility.yul\":5030:5045   */\n      mstore\n        /* \"#utility.yul\":5064:5068   */\n      0x24\n        /* \"#utility.yul\":5061:5062   */\n      0x00\n        /* \"#utility.yul\":5054:5069   */\n      revert\n        /* \"#utility.yul\":5081:5198   */\n    tag_42:\n        /* \"#utility.yul\":5190:5191   */\n      0x00\n        /* \"#utility.yul\":5187:5188   */\n      dup1\n        /* \"#utility.yul\":5180:5192   */\n      revert\n        /* \"#utility.yul\":5204:5321   */\n    tag_35:\n        /* \"#utility.yul\":5313:5314   */\n      0x00\n        /* \"#utility.yul\":5310:5311   */\n      dup1\n        /* \"#utility.yul\":5303:5315   */\n      revert\n        /* \"#utility.yul\":5327:5444   */\n    tag_54:\n        /* \"#utility.yul\":5436:5437   */\n      0x00\n        /* \"#utility.yul\":5433:5434   */\n      dup1\n        /* \"#utility.yul\":5426:5438   */\n      revert\n        /* \"#utility.yul\":5450:5567   */\n    tag_51:\n        /* \"#utility.yul\":5559:5560   */\n      0x00\n        /* \"#utility.yul\":5556:5557   */\n      dup1\n        /* \"#utility.yul\":5549:5561   */\n      revert\n        /* \"#utility.yul\":5573:5675   */\n    tag_78:\n        /* \"#utility.yul\":5614:5620   */\n      0x00\n        /* \"#utility.yul\":5665:5667   */\n      0x1f\n        /* \"#utility.yul\":5661:5668   */\n      not\n        /* \"#utility.yul\":5656:5658   */\n      0x1f\n        /* \"#utility.yul\":5649:5654   */\n      dup4\n        /* \"#utility.yul\":5645:5659   */\n      add\n        /* \"#utility.yul\":5641:5669   */\n      and\n        /* \"#utility.yul\":5631:5669   */\n      swap1\n      pop\n        /* \"#utility.yul\":5621:5675   */\n      swap2\n      swap1\n      pop\n      jump\t// out\n        /* \"#utility.yul\":5681:5803   */\n    tag_47:\n        /* \"#utility.yul\":5754:5778   */\n      tag_113\n        /* \"#utility.yul\":5772:5777   */\n      dup2\n        /* \"#utility.yul\":5754:5778   */\n      tag_83\n      jump\t// in\n    tag_113:\n        /* \"#utility.yul\":5747:5752   */\n      dup2\n        /* \"#utility.yul\":5744:5779   */\n      eq\n        /* \"#utility.yul\":5734:5736   */\n      tag_114\n      jumpi\n        /* \"#utility.yul\":5793:5794   */\n      0x00\n        /* \"#utility.yul\":5790:5791   */\n      dup1\n        /* \"#utility.yul\":5783:5795   */\n      revert\n        /* \"#utility.yul\":5734:5736   */\n    tag_114:\n        /* \"#utility.yul\":5724:5803   */\n      pop\n      jump\t// out\n\n    auxdata: 0xa2646970667358221220953a9b0d0f9a5253aff82134d15014532a75e41e7a9c4e76e4795a68a14cf41564736f6c63430008060033\n}\n",
				"bytecode": {
					"linkReferences": {},
					"object": "60806040526000805534801561001457600080fd5b50610525806100246000396000f3fe608060405234801561001057600080fd5b506004361061002b5760003560e01c80632e2a713f14610030575b600080fd5b61004a60048036038101906100459190610211565b61004c565b005b600160008082825461005e9190610321565b92505081905550604051806080016040528060005481526020018381526020018281526020016000815250600183604051610099919061029e565b90815260200160405180910390206000820151816000015560208201518160010190805190602001906100cd9291906100e9565b5060408201518160020155606082015181600301559050505050565b8280546100f5906103c3565b90600052602060002090601f016020900481019282610117576000855561015e565b82601f1061013057805160ff191683800117855561015e565b8280016001018555821561015e579182015b8281111561015d578251825591602001919060010190610142565b5b50905061016b919061016f565b5090565b5b80821115610188576000816000905550600101610170565b5090565b600061019f61019a846102da565b6102b5565b9050828152602081018484840111156101bb576101ba6104b8565b5b6101c6848285610381565b509392505050565b600082601f8301126101e3576101e26104b3565b5b81356101f384826020860161018c565b91505092915050565b60008135905061020b816104d8565b92915050565b60008060408385031215610228576102276104c2565b5b600083013567ffffffffffffffff811115610246576102456104bd565b5b610252858286016101ce565b9250506020610263858286016101fc565b9150509250929050565b60006102788261030b565b6102828185610316565b9350610292818560208601610390565b80840191505092915050565b60006102aa828461026d565b915081905092915050565b60006102bf6102d0565b90506102cb82826103f5565b919050565b6000604051905090565b600067ffffffffffffffff8211156102f5576102f4610484565b5b6102fe826104c7565b9050602081019050919050565b600081519050919050565b600081905092915050565b600061032c82610377565b915061033783610377565b9250827fffffffffffffffffffffffffffffffffffffffffffffffffffffffffffffffff0382111561036c5761036b610426565b5b828201905092915050565b6000819050919050565b82818337600083830152505050565b60005b838110156103ae578082015181840152602081019050610393565b838111156103bd576000848401525b50505050565b600060028204905060018216806103db57607f821691505b602082108114156103ef576103ee610455565b5b50919050565b6103fe826104c7565b810181811067ffffffffffffffff8211171561041d5761041c610484565b5b80604052505050565b7f4e487b7100000000000000000000000000000000000000000000000000000000600052601160045260246000fd5b7f4e487b7100000000000000000000000000000000000000000000000000000000600052602260045260246000fd5b7f4e487b7100000000000000000000000000000000000000000000000000000000600052604160045260246000fd5b600080fd5b600080fd5b600080fd5b600080fd5b6000601f19601f8301169050919050565b6104e181610377565b81146104ec57600080fd5b5056fea2646970667358221220953a9b0d0f9a5253aff82134d15014532a75e41e7a9c4e76e4795a68a14cf41564736f6c63430008060033",
					"opcodes": "PUSH1 0x80 PUSH1 0x40 MSTORE PUSH1 0x0 DUP1 SSTORE CALLVALUE DUP1 ISZERO PUSH2 0x14 JUMPI PUSH1 0x0 DUP1 REVERT JUMPDEST POP PUSH2 0x525 DUP1 PUSH2 0x24 PUSH1 0x0 CODECOPY PUSH1 0x0 RETURN INVALID PUSH1 0x80 PUSH1 0x40 MSTORE CALLVALUE DUP1 ISZERO PUSH2 0x10 JUMPI PUSH1 0x0 DUP1 REVERT JUMPDEST POP PUSH1 0x4 CALLDATASIZE LT PUSH2 0x2B JUMPI PUSH1 0x0 CALLDATALOAD PUSH1 0xE0 SHR DUP1 PUSH4 0x2E2A713F EQ PUSH2 0x30 JUMPI JUMPDEST PUSH1 0x0 DUP1 REVERT JUMPDEST PUSH2 0x4A PUSH1 0x4 DUP1 CALLDATASIZE SUB DUP2 ADD SWAP1 PUSH2 0x45 SWAP2 SWAP1 PUSH2 0x211 JUMP JUMPDEST PUSH2 0x4C JUMP JUMPDEST STOP JUMPDEST PUSH1 0x1 PUSH1 0x0 DUP1 DUP3 DUP3 SLOAD PUSH2 0x5E SWAP2 SWAP1 PUSH2 0x321 JUMP JUMPDEST SWAP3 POP POP DUP2 SWAP1 SSTORE POP PUSH1 0x40 MLOAD DUP1 PUSH1 0x80 ADD PUSH1 0x40 MSTORE DUP1 PUSH1 0x0 SLOAD DUP2 MSTORE PUSH1 0x20 ADD DUP4 DUP2 MSTORE PUSH1 0x20 ADD DUP3 DUP2 MSTORE PUSH1 0x20 ADD PUSH1 0x0 DUP2 MSTORE POP PUSH1 0x1 DUP4 PUSH1 0x40 MLOAD PUSH2 0x99 SWAP2 SWAP1 PUSH2 0x29E JUMP JUMPDEST SWAP1 DUP2 MSTORE PUSH1 0x20 ADD PUSH1 0x40 MLOAD DUP1 SWAP2 SUB SWAP1 KECCAK256 PUSH1 0x0 DUP3 ADD MLOAD DUP2 PUSH1 0x0 ADD SSTORE PUSH1 0x20 DUP3 ADD MLOAD DUP2 PUSH1 0x1 ADD SWAP1 DUP1 MLOAD SWAP1 PUSH1 0x20 ADD SWAP1 PUSH2 0xCD SWAP3 SWAP2 SWAP1 PUSH2 0xE9 JUMP JUMPDEST POP PUSH1 0x40 DUP3 ADD MLOAD DUP2 PUSH1 0x2 ADD SSTORE PUSH1 0x60 DUP3 ADD MLOAD DUP2 PUSH1 0x3 ADD SSTORE SWAP1 POP POP POP POP JUMP JUMPDEST DUP3 DUP1 SLOAD PUSH2 0xF5 SWAP1 PUSH2 0x3C3 JUMP JUMPDEST SWAP1 PUSH1 0x0 MSTORE PUSH1 0x20 PUSH1 0x0 KECCAK256 SWAP1 PUSH1 0x1F ADD PUSH1 0x20 SWAP1 DIV DUP2 ADD SWAP3 DUP3 PUSH2 0x117 JUMPI PUSH1 0x0 DUP6 SSTORE PUSH2 0x15E JUMP JUMPDEST DUP3 PUSH1 0x1F LT PUSH2 0x130 JUMPI DUP1 MLOAD PUSH1 0xFF NOT AND DUP4 DUP1 ADD OR DUP6 SSTORE PUSH2 0x15E JUMP JUMPDEST DUP3 DUP1 ADD PUSH1 0x1 ADD DUP6 SSTORE DUP3 ISZERO PUSH2 0x15E JUMPI SWAP2 DUP3 ADD JUMPDEST DUP3 DUP2 GT ISZERO PUSH2 0x15D JUMPI DUP3 MLOAD DUP3 SSTORE SWAP2 PUSH1 0x20 ADD SWAP2 SWAP1 PUSH1 0x1 ADD SWAP1 PUSH2 0x142 JUMP JUMPDEST JUMPDEST POP SWAP1 POP PUSH2 0x16B SWAP2 SWAP1 PUSH2 0x16F JUMP JUMPDEST POP SWAP1 JUMP JUMPDEST JUMPDEST DUP1 DUP3 GT ISZERO PUSH2 0x188 JUMPI PUSH1 0x0 DUP2 PUSH1 0x0 SWAP1 SSTORE POP PUSH1 0x1 ADD PUSH2 0x170 JUMP JUMPDEST POP SWAP1 JUMP JUMPDEST PUSH1 0x0 PUSH2 0x19F PUSH2 0x19A DUP5 PUSH2 0x2DA JUMP JUMPDEST PUSH2 0x2B5 JUMP JUMPDEST SWAP1 POP DUP3 DUP2 MSTORE PUSH1 0x20 DUP2 ADD DUP5 DUP5 DUP5 ADD GT ISZERO PUSH2 0x1BB JUMPI PUSH2 0x1BA PUSH2 0x4B8 JUMP JUMPDEST JUMPDEST PUSH2 0x1C6 DUP5 DUP3 DUP6 PUSH2 0x381 JUMP JUMPDEST POP SWAP4 SWAP3 POP POP POP JUMP JUMPDEST PUSH1 0x0 DUP3 PUSH1 0x1F DUP4 ADD SLT PUSH2 0x1E3 JUMPI PUSH2 0x1E2 PUSH2 0x4B3 JUMP JUMPDEST JUMPDEST DUP2 CALLDATALOAD PUSH2 0x1F3 DUP5 DUP3 PUSH1 0x20 DUP7 ADD PUSH2 0x18C JUMP JUMPDEST SWAP2 POP POP SWAP3 SWAP2 POP POP JUMP JUMPDEST PUSH1 0x0 DUP2 CALLDATALOAD SWAP1 POP PUSH2 0x20B DUP2 PUSH2 0x4D8 JUMP JUMPDEST SWAP3 SWAP2 POP POP JUMP JUMPDEST PUSH1 0x0 DUP1 PUSH1 0x40 DUP4 DUP6 SUB SLT ISZERO PUSH2 0x228 JUMPI PUSH2 0x227 PUSH2 0x4C2 JUMP JUMPDEST JUMPDEST PUSH1 0x0 DUP4 ADD CALLDATALOAD PUSH8 0xFFFFFFFFFFFFFFFF DUP2 GT ISZERO PUSH2 0x246 JUMPI PUSH2 0x245 PUSH2 0x4BD JUMP JUMPDEST JUMPDEST PUSH2 0x252 DUP6 DUP3 DUP7 ADD PUSH2 0x1CE JUMP JUMPDEST SWAP3 POP POP PUSH1 0x20 PUSH2 0x263 DUP6 DUP3 DUP7 ADD PUSH2 0x1FC JUMP JUMPDEST SWAP2 POP POP SWAP3 POP SWAP3 SWAP1 POP JUMP JUMPDEST PUSH1 0x0 PUSH2 0x278 DUP3 PUSH2 0x30B JUMP JUMPDEST PUSH2 0x282 DUP2 DUP6 PUSH2 0x316 JUMP JUMPDEST SWAP4 POP PUSH2 0x292 DUP2 DUP6 PUSH1 0x20 DUP7 ADD PUSH2 0x390 JUMP JUMPDEST DUP1 DUP5 ADD SWAP2 POP POP SWAP3 SWAP2 POP POP JUMP JUMPDEST PUSH1 0x0 PUSH2 0x2AA DUP3 DUP5 PUSH2 0x26D JUMP JUMPDEST SWAP2 POP DUP2 SWAP1 POP SWAP3 SWAP2 POP POP JUMP JUMPDEST PUSH1 0x0 PUSH2 0x2BF PUSH2 0x2D0 JUMP JUMPDEST SWAP1 POP PUSH2 0x2CB DUP3 DUP3 PUSH2 0x3F5 JUMP JUMPDEST SWAP2 SWAP1 POP JUMP JUMPDEST PUSH1 0x0 PUSH1 0x40 MLOAD SWAP1 POP SWAP1 JUMP JUMPDEST PUSH1 0x0 PUSH8 0xFFFFFFFFFFFFFFFF DUP3 GT ISZERO PUSH2 0x2F5 JUMPI PUSH2 0x2F4 PUSH2 0x484 JUMP JUMPDEST JUMPDEST PUSH2 0x2FE DUP3 PUSH2 0x4C7 JUMP JUMPDEST SWAP1 POP PUSH1 0x20 DUP2 ADD SWAP1 POP SWAP2 SWAP1 POP JUMP JUMPDEST PUSH1 0x0 DUP2 MLOAD SWAP1 POP SWAP2 SWAP1 POP JUMP JUMPDEST PUSH1 0x0 DUP2 SWAP1 POP SWAP3 SWAP2 POP POP JUMP JUMPDEST PUSH1 0x0 PUSH2 0x32C DUP3 PUSH2 0x377 JUMP JUMPDEST SWAP2 POP PUSH2 0x337 DUP4 PUSH2 0x377 JUMP JUMPDEST SWAP3 POP DUP3 PUSH32 0xFFFFFFFFFFFFFFFFFFFFFFFFFFFFFFFFFFFFFFFFFFFFFFFFFFFFFFFFFFFFFFFF SUB DUP3 GT ISZERO PUSH2 0x36C JUMPI PUSH2 0x36B PUSH2 0x426 JUMP JUMPDEST JUMPDEST DUP3 DUP3 ADD SWAP1 POP SWAP3 SWAP2 POP POP JUMP JUMPDEST PUSH1 0x0 DUP2 SWAP1 POP SWAP2 SWAP1 POP JUMP JUMPDEST DUP3 DUP2 DUP4 CALLDATACOPY PUSH1 0x0 DUP4 DUP4 ADD MSTORE POP POP POP JUMP JUMPDEST PUSH1 0x0 JUMPDEST DUP4 DUP2 LT ISZERO PUSH2 0x3AE JUMPI DUP1 DUP3 ADD MLOAD DUP2 DUP5 ADD MSTORE PUSH1 0x20 DUP2 ADD SWAP1 POP PUSH2 0x393 JUMP JUMPDEST DUP4 DUP2 GT ISZERO PUSH2 0x3BD JUMPI PUSH1 0x0 DUP5 DUP5 ADD MSTORE JUMPDEST POP POP POP POP JUMP JUMPDEST PUSH1 0x0 PUSH1 0x2 DUP3 DIV SWAP1 POP PUSH1 0x1 DUP3 AND DUP1 PUSH2 0x3DB JUMPI PUSH1 0x7F DUP3 AND SWAP2 POP JUMPDEST PUSH1 0x20 DUP3 LT DUP2 EQ ISZERO PUSH2 0x3EF JUMPI PUSH2 0x3EE PUSH2 0x455 JUMP JUMPDEST JUMPDEST POP SWAP2 SWAP1 POP JUMP JUMPDEST PUSH2 0x3FE DUP3 PUSH2 0x4C7 JUMP JUMPDEST DUP2 ADD DUP2 DUP2 LT PUSH8 0xFFFFFFFFFFFFFFFF DUP3 GT OR ISZERO PUSH2 0x41D JUMPI PUSH2 0x41C PUSH2 0x484 JUMP JUMPDEST JUMPDEST DUP1 PUSH1 0x40 MSTORE POP POP POP JUMP JUMPDEST PUSH32 0x4E487B7100000000000000000000000000000000000000000000000000000000 PUSH1 0x0 MSTORE PUSH1 0x11 PUSH1 0x4 MSTORE PUSH1 0x24 PUSH1 0x0 REVERT JUMPDEST PUSH32 0x4E487B7100000000000000000000000000000000000000000000000000000000 PUSH1 0x0 MSTORE PUSH1 0x22 PUSH1 0x4 MSTORE PUSH1 0x24 PUSH1 0x0 REVERT JUMPDEST PUSH32 0x4E487B7100000000000000000000000000000000000000000000000000000000 PUSH1 0x0 MSTORE PUSH1 0x41 PUSH1 0x4 MSTORE PUSH1 0x24 PUSH1 0x0 REVERT JUMPDEST PUSH1 0x0 DUP1 REVERT JUMPDEST PUSH1 0x0 DUP1 REVERT JUMPDEST PUSH1 0x0 DUP1 REVERT JUMPDEST PUSH1 0x0 DUP1 REVERT JUMPDEST PUSH1 0x0 PUSH1 0x1F NOT PUSH1 0x1F DUP4 ADD AND SWAP1 POP SWAP2 SWAP1 POP JUMP JUMPDEST PUSH2 0x4E1 DUP2 PUSH2 0x377 JUMP JUMPDEST DUP2 EQ PUSH2 0x4EC JUMPI PUSH1 0x0 DUP1 REVERT JUMPDEST POP JUMP INVALID LOG2 PUSH5 0x6970667358 0x22 SLT KECCAK256 SWAP6 GASPRICE SWAP12 0xD 0xF SWAP11 MSTORE MSTORE8 0xAF 0xF8 0x21 CALLVALUE 0xD1 POP EQ MSTORE8 0x2A PUSH22 0xE41E7A9C4E76E4795A68A14CF41564736F6C63430008 MOD STOP CALLER "
				},
				"gasEstimates": {
					"creation": {
						"codeDepositCost": "263400",
						"executionCost": "5312",
						"totalCost": "268712"
					},
					"external": {
						"agregarCausa(string,uint256)": "infinite"
					}
				},
				"methodIdentifiers": {
					"agregarCausa(string,uint256)": "2e2a713f"
				}
			},
			"storageLayout": {
				"storage": [
					{
						"astId": 13,
						"contract": "Funciones/causas_beneficas.sol:CausasBeneficas",
						"label": "contadorCausas",
						"offset": 0,
						"slot": "0",
						"type": "t_uint256"
					},
					{
						"astId": 18,
						"contract": "Funciones/causas_beneficas.sol:CausasBeneficas",
						"label": "causas",
						"offset": 0,
						"slot": "1",
						"type": "t_mapping(t_string_memory_ptr,t_struct(causa)10_storage)"
					}
				],
				"types": {
					"t_mapping(t_string_memory_ptr,t_struct(causa)10_storage)": {
						"encoding": "mapping",
						"key": "t_string_memory_ptr",
						"label": "mapping(string => struct CausasBeneficas.causa)",
						"numberOfBytes": "32",
						"value": "t_struct(causa)10_storage"
					},
					"t_string_memory_ptr": {
						"encoding": "bytes",
						"label": "string",
						"numberOfBytes": "32"
					},
					"t_string_storage": {
						"encoding": "bytes",
						"label": "string",
						"numberOfBytes": "32"
					},
					"t_struct(causa)10_storage": {
						"encoding": "inplace",
						"label": "struct CausasBeneficas.causa",
						"members": [
							{
								"astId": 3,
								"contract": "Funciones/causas_beneficas.sol:CausasBeneficas",
								"label": "id",
								"offset": 0,
								"slot": "0",
								"type": "t_uint256"
							},
							{
								"astId": 5,
								"contract": "Funciones/causas_beneficas.sol:CausasBeneficas",
								"label": "nombre",
								"offset": 0,
								"slot": "1",
								"type": "t_string_storage"
							},
							{
								"astId": 7,
								"contract": "Funciones/causas_beneficas.sol:CausasBeneficas",
								"label": "montoObjetivo",
								"offset": 0,
								"slot": "2",
								"type": "t_uint256"
							},
							{
								"astId": 9,
								"contract": "Funciones/causas_beneficas.sol:CausasBeneficas",
								"label": "montoRecaudado",
								"offset": 0,
								"slot": "3",
								"type": "t_uint256"
							}
						],
						"numberOfBytes": "128"
					},
					"t_uint256": {
						"encoding": "inplace",
						"label": "uint256",
						"numberOfBytes": "32"
					}
				}
			},
			"userdoc": {
				"kind": "user",
				"methods": {},
				"version": 1
			}
		}
	}
}