{
	"Funciones/causas_beneficas.sol": {
		"CausasBeneficas": {
			"abi": [
				{
					"inputs": [
						{
							"internalType": "string",
							"name": "_name",
							"type": "string"
						},
						{
							"internalType": "uint256",
							"name": "_montoObjetivo",
							"type": "uint256"
						}
					],
					"name": "addCausa",
					"outputs": [],
					"stateMutability": "nonpayable",
					"type": "function"
				}
			],
			"devdoc": {
				"kind": "dev",
				"methods": {},
				"version": 1
			},
			"evm": {
				"assembly": "    /* \"Funciones/causas_beneficas.sol\":33:368  contract CausasBeneficas {... */\n  mstore(0x40, 0x80)\n    /* \"Funciones/causas_beneficas.sol\":208:209  0 */\n  0x00\n    /* \"Funciones/causas_beneficas.sol\":186:209  uint contadorCausas = 0 */\n  dup1\n  sstore\n    /* \"Funciones/causas_beneficas.sol\":33:368  contract CausasBeneficas {... */\n  callvalue\n  dup1\n  iszero\n  tag_1\n  jumpi\n  0x00\n  dup1\n  revert\ntag_1:\n  pop\n  dataSize(sub_0)\n  dup1\n  dataOffset(sub_0)\n  0x00\n  codecopy\n  0x00\n  return\nstop\n\nsub_0: assembly {\n        /* \"Funciones/causas_beneficas.sol\":33:368  contract CausasBeneficas {... */\n      mstore(0x40, 0x80)\n      callvalue\n      dup1\n      iszero\n      tag_1\n      jumpi\n      0x00\n      dup1\n      revert\n    tag_1:\n      pop\n      jumpi(tag_2, lt(calldatasize, 0x04))\n      shr(0xe0, calldataload(0x00))\n      dup1\n      0xd255225f\n      eq\n      tag_3\n      jumpi\n    tag_2:\n      0x00\n      dup1\n      revert\n        /* \"Funciones/causas_beneficas.sol\":253:365  function addCausa(string memory _name, uint _montoObjetivo) public {... */\n    tag_3:\n      tag_4\n      0x04\n      dup1\n      calldatasize\n      sub\n      dup2\n      add\n      swap1\n      tag_5\n      swap2\n      swap1\n      tag_6\n      jump\t// in\n    tag_5:\n      tag_7\n      jump\t// in\n    tag_4:\n      stop\n    tag_7:\n        /* \"Funciones/causas_beneficas.sol\":348:349  1 */\n      0x01\n        /* \"Funciones/causas_beneficas.sol\":330:344  contadorCausas */\n      0x00\n      dup1\n        /* \"Funciones/causas_beneficas.sol\":330:349  contadorCausas += 1 */\n      dup3\n      dup3\n      sload\n      tag_9\n      swap2\n      swap1\n      tag_10\n      jump\t// in\n    tag_9:\n      swap3\n      pop\n      pop\n      dup2\n      swap1\n      sstore\n      pop\n        /* \"Funciones/causas_beneficas.sol\":253:365  function addCausa(string memory _name, uint _montoObjetivo) public {... */\n      pop\n      pop\n      jump\t// out\n        /* \"#utility.yul\":7:419   */\n    tag_12:\n        /* \"#utility.yul\":85:90   */\n      0x00\n        /* \"#utility.yul\":110:176   */\n      tag_14\n        /* \"#utility.yul\":126:175   */\n      tag_15\n        /* \"#utility.yul\":168:174   */\n      dup5\n        /* \"#utility.yul\":126:175   */\n      tag_16\n      jump\t// in\n    tag_15:\n        /* \"#utility.yul\":110:176   */\n      tag_17\n      jump\t// in\n    tag_14:\n        /* \"#utility.yul\":101:176   */\n      swap1\n      pop\n        /* \"#utility.yul\":199:205   */\n      dup3\n        /* \"#utility.yul\":192:197   */\n      dup2\n        /* \"#utility.yul\":185:206   */\n      mstore\n        /* \"#utility.yul\":237:241   */\n      0x20\n        /* \"#utility.yul\":230:235   */\n      dup2\n        /* \"#utility.yul\":226:242   */\n      add\n        /* \"#utility.yul\":275:278   */\n      dup5\n        /* \"#utility.yul\":266:272   */\n      dup5\n        /* \"#utility.yul\":261:264   */\n      dup5\n        /* \"#utility.yul\":257:273   */\n      add\n        /* \"#utility.yul\":254:279   */\n      gt\n        /* \"#utility.yul\":251:253   */\n      iszero\n      tag_18\n      jumpi\n        /* \"#utility.yul\":282:361   */\n      tag_19\n      tag_20\n      jump\t// in\n    tag_19:\n        /* \"#utility.yul\":251:253   */\n    tag_18:\n        /* \"#utility.yul\":372:413   */\n      tag_21\n        /* \"#utility.yul\":406:412   */\n      dup5\n        /* \"#utility.yul\":401:404   */\n      dup3\n        /* \"#utility.yul\":396:399   */\n      dup6\n        /* \"#utility.yul\":372:413   */\n      tag_22\n      jump\t// in\n    tag_21:\n        /* \"#utility.yul\":91:419   */\n      pop\n      swap4\n      swap3\n      pop\n      pop\n      pop\n      jump\t// out\n        /* \"#utility.yul\":439:779   */\n    tag_23:\n        /* \"#utility.yul\":495:500   */\n      0x00\n        /* \"#utility.yul\":544:547   */\n      dup3\n        /* \"#utility.yul\":537:541   */\n      0x1f\n        /* \"#utility.yul\":529:535   */\n      dup4\n        /* \"#utility.yul\":525:542   */\n      add\n        /* \"#utility.yul\":521:548   */\n      slt\n        /* \"#utility.yul\":511:513   */\n      tag_25\n      jumpi\n        /* \"#utility.yul\":552:631   */\n      tag_26\n      tag_27\n      jump\t// in\n    tag_26:\n        /* \"#utility.yul\":511:513   */\n    tag_25:\n        /* \"#utility.yul\":669:675   */\n      dup2\n        /* \"#utility.yul\":656:676   */\n      calldataload\n        /* \"#utility.yul\":694:773   */\n      tag_28\n        /* \"#utility.yul\":769:772   */\n      dup5\n        /* \"#utility.yul\":761:767   */\n      dup3\n        /* \"#utility.yul\":754:758   */\n      0x20\n        /* \"#utility.yul\":746:752   */\n      dup7\n        /* \"#utility.yul\":742:759   */\n      add\n        /* \"#utility.yul\":694:773   */\n      tag_12\n      jump\t// in\n    tag_28:\n        /* \"#utility.yul\":685:773   */\n      swap2\n      pop\n        /* \"#utility.yul\":501:779   */\n      pop\n      swap3\n      swap2\n      pop\n      pop\n      jump\t// out\n        /* \"#utility.yul\":785:924   */\n    tag_29:\n        /* \"#utility.yul\":831:836   */\n      0x00\n        /* \"#utility.yul\":869:875   */\n      dup2\n        /* \"#utility.yul\":856:876   */\n      calldataload\n        /* \"#utility.yul\":847:876   */\n      swap1\n      pop\n        /* \"#utility.yul\":885:918   */\n      tag_31\n        /* \"#utility.yul\":912:917   */\n      dup2\n        /* \"#utility.yul\":885:918   */\n      tag_32\n      jump\t// in\n    tag_31:\n        /* \"#utility.yul\":837:924   */\n      swap3\n      swap2\n      pop\n      pop\n      jump\t// out\n        /* \"#utility.yul\":930:1584   */\n    tag_6:\n        /* \"#utility.yul\":1008:1014   */\n      0x00\n        /* \"#utility.yul\":1016:1022   */\n      dup1\n        /* \"#utility.yul\":1065:1067   */\n      0x40\n        /* \"#utility.yul\":1053:1062   */\n      dup4\n        /* \"#utility.yul\":1044:1051   */\n      dup6\n        /* \"#utility.yul\":1040:1063   */\n      sub\n        /* \"#utility.yul\":1036:1068   */\n      slt\n        /* \"#utility.yul\":1033:1035   */\n      iszero\n      tag_34\n      jumpi\n        /* \"#utility.yul\":1071:1150   */\n      tag_35\n      tag_36\n      jump\t// in\n    tag_35:\n        /* \"#utility.yul\":1033:1035   */\n    tag_34:\n        /* \"#utility.yul\":1219:1220   */\n      0x00\n        /* \"#utility.yul\":1208:1217   */\n      dup4\n        /* \"#utility.yul\":1204:1221   */\n      add\n        /* \"#utility.yul\":1191:1222   */\n      calldataload\n        /* \"#utility.yul\":1249:1267   */\n      0xffffffffffffffff\n        /* \"#utility.yul\":1241:1247   */\n      dup2\n        /* \"#utility.yul\":1238:1268   */\n      gt\n        /* \"#utility.yul\":1235:1237   */\n      iszero\n      tag_37\n      jumpi\n        /* \"#utility.yul\":1271:1350   */\n      tag_38\n      tag_39\n      jump\t// in\n    tag_38:\n        /* \"#utility.yul\":1235:1237   */\n    tag_37:\n        /* \"#utility.yul\":1376:1439   */\n      tag_40\n        /* \"#utility.yul\":1431:1438   */\n      dup6\n        /* \"#utility.yul\":1422:1428   */\n      dup3\n        /* \"#utility.yul\":1411:1420   */\n      dup7\n        /* \"#utility.yul\":1407:1429   */\n      add\n        /* \"#utility.yul\":1376:1439   */\n      tag_23\n      jump\t// in\n    tag_40:\n        /* \"#utility.yul\":1366:1439   */\n      swap3\n      pop\n        /* \"#utility.yul\":1162:1449   */\n      pop\n        /* \"#utility.yul\":1488:1490   */\n      0x20\n        /* \"#utility.yul\":1514:1567   */\n      tag_41\n        /* \"#utility.yul\":1559:1566   */\n      dup6\n        /* \"#utility.yul\":1550:1556   */\n      dup3\n        /* \"#utility.yul\":1539:1548   */\n      dup7\n        /* \"#utility.yul\":1535:1557   */\n      add\n        /* \"#utility.yul\":1514:1567   */\n      tag_29\n      jump\t// in\n    tag_41:\n        /* \"#utility.yul\":1504:1567   */\n      swap2\n      pop\n        /* \"#utility.yul\":1459:1577   */\n      pop\n        /* \"#utility.yul\":1023:1584   */\n      swap3\n      pop\n      swap3\n      swap1\n      pop\n      jump\t// out\n        /* \"#utility.yul\":1590:1719   */\n    tag_17:\n        /* \"#utility.yul\":1624:1630   */\n      0x00\n        /* \"#utility.yul\":1651:1671   */\n      tag_43\n      tag_44\n      jump\t// in\n    tag_43:\n        /* \"#utility.yul\":1641:1671   */\n      swap1\n      pop\n        /* \"#utility.yul\":1680:1713   */\n      tag_45\n        /* \"#utility.yul\":1708:1712   */\n      dup3\n        /* \"#utility.yul\":1700:1706   */\n      dup3\n        /* \"#utility.yul\":1680:1713   */\n      tag_46\n      jump\t// in\n    tag_45:\n        /* \"#utility.yul\":1631:1719   */\n      swap2\n      swap1\n      pop\n      jump\t// out\n        /* \"#utility.yul\":1725:1800   */\n    tag_44:\n        /* \"#utility.yul\":1758:1764   */\n      0x00\n        /* \"#utility.yul\":1791:1793   */\n      0x40\n        /* \"#utility.yul\":1785:1794   */\n      mload\n        /* \"#utility.yul\":1775:1794   */\n      swap1\n      pop\n        /* \"#utility.yul\":1765:1800   */\n      swap1\n      jump\t// out\n        /* \"#utility.yul\":1806:2114   */\n    tag_16:\n        /* \"#utility.yul\":1868:1872   */\n      0x00\n        /* \"#utility.yul\":1958:1976   */\n      0xffffffffffffffff\n        /* \"#utility.yul\":1950:1956   */\n      dup3\n        /* \"#utility.yul\":1947:1977   */\n      gt\n        /* \"#utility.yul\":1944:1946   */\n      iszero\n      tag_49\n      jumpi\n        /* \"#utility.yul\":1980:1998   */\n      tag_50\n      tag_51\n      jump\t// in\n    tag_50:\n        /* \"#utility.yul\":1944:1946   */\n    tag_49:\n        /* \"#utility.yul\":2018:2047   */\n      tag_52\n        /* \"#utility.yul\":2040:2046   */\n      dup3\n        /* \"#utility.yul\":2018:2047   */\n      tag_53\n      jump\t// in\n    tag_52:\n        /* \"#utility.yul\":2010:2047   */\n      swap1\n      pop\n        /* \"#utility.yul\":2102:2106   */\n      0x20\n        /* \"#utility.yul\":2096:2100   */\n      dup2\n        /* \"#utility.yul\":2092:2107   */\n      add\n        /* \"#utility.yul\":2084:2107   */\n      swap1\n      pop\n        /* \"#utility.yul\":1873:2114   */\n      swap2\n      swap1\n      pop\n      jump\t// out\n        /* \"#utility.yul\":2120:2425   */\n    tag_10:\n        /* \"#utility.yul\":2160:2163   */\n      0x00\n        /* \"#utility.yul\":2179:2199   */\n      tag_55\n        /* \"#utility.yul\":2197:2198   */\n      dup3\n        /* \"#utility.yul\":2179:2199   */\n      tag_56\n      jump\t// in\n    tag_55:\n        /* \"#utility.yul\":2174:2199   */\n      swap2\n      pop\n        /* \"#utility.yul\":2213:2233   */\n      tag_57\n        /* \"#utility.yul\":2231:2232   */\n      dup4\n        /* \"#utility.yul\":2213:2233   */\n      tag_56\n      jump\t// in\n    tag_57:\n        /* \"#utility.yul\":2208:2233   */\n      swap3\n      pop\n        /* \"#utility.yul\":2367:2368   */\n      dup3\n        /* \"#utility.yul\":2299:2365   */\n      0xffffffffffffffffffffffffffffffffffffffffffffffffffffffffffffffff\n        /* \"#utility.yul\":2295:2369   */\n      sub\n        /* \"#utility.yul\":2292:2293   */\n      dup3\n        /* \"#utility.yul\":2289:2370   */\n      gt\n        /* \"#utility.yul\":2286:2288   */\n      iszero\n      tag_58\n      jumpi\n        /* \"#utility.yul\":2373:2391   */\n      tag_59\n      tag_60\n      jump\t// in\n    tag_59:\n        /* \"#utility.yul\":2286:2288   */\n    tag_58:\n        /* \"#utility.yul\":2417:2418   */\n      dup3\n        /* \"#utility.yul\":2414:2415   */\n      dup3\n        /* \"#utility.yul\":2410:2419   */\n      add\n        /* \"#utility.yul\":2403:2419   */\n      swap1\n      pop\n        /* \"#utility.yul\":2164:2425   */\n      swap3\n      swap2\n      pop\n      pop\n      jump\t// out\n        /* \"#utility.yul\":2431:2508   */\n    tag_56:\n        /* \"#utility.yul\":2468:2475   */\n      0x00\n        /* \"#utility.yul\":2497:2502   */\n      dup2\n        /* \"#utility.yul\":2486:2502   */\n      swap1\n      pop\n        /* \"#utility.yul\":2476:2508   */\n      swap2\n      swap1\n      pop\n      jump\t// out\n        /* \"#utility.yul\":2514:2668   */\n    tag_22:\n        /* \"#utility.yul\":2598:2604   */\n      dup3\n        /* \"#utility.yul\":2593:2596   */\n      dup2\n        /* \"#utility.yul\":2588:2591   */\n      dup4\n        /* \"#utility.yul\":2575:2605   */\n      calldatacopy\n        /* \"#utility.yul\":2660:2661   */\n      0x00\n        /* \"#utility.yul\":2651:2657   */\n      dup4\n        /* \"#utility.yul\":2646:2649   */\n      dup4\n        /* \"#utility.yul\":2642:2658   */\n      add\n        /* \"#utility.yul\":2635:2662   */\n      mstore\n        /* \"#utility.yul\":2565:2668   */\n      pop\n      pop\n      pop\n      jump\t// out\n        /* \"#utility.yul\":2674:2955   */\n    tag_46:\n        /* \"#utility.yul\":2757:2784   */\n      tag_64\n        /* \"#utility.yul\":2779:2783   */\n      dup3\n        /* \"#utility.yul\":2757:2784   */\n      tag_53\n      jump\t// in\n    tag_64:\n        /* \"#utility.yul\":2749:2755   */\n      dup2\n        /* \"#utility.yul\":2745:2785   */\n      add\n        /* \"#utility.yul\":2887:2893   */\n      dup2\n        /* \"#utility.yul\":2875:2885   */\n      dup2\n        /* \"#utility.yul\":2872:2894   */\n      lt\n        /* \"#utility.yul\":2851:2869   */\n      0xffffffffffffffff\n        /* \"#utility.yul\":2839:2849   */\n      dup3\n        /* \"#utility.yul\":2836:2870   */\n      gt\n        /* \"#utility.yul\":2833:2895   */\n      or\n        /* \"#utility.yul\":2830:2832   */\n      iszero\n      tag_65\n      jumpi\n        /* \"#utility.yul\":2898:2916   */\n      tag_66\n      tag_51\n      jump\t// in\n    tag_66:\n        /* \"#utility.yul\":2830:2832   */\n    tag_65:\n        /* \"#utility.yul\":2938:2948   */\n      dup1\n        /* \"#utility.yul\":2934:2936   */\n      0x40\n        /* \"#utility.yul\":2927:2949   */\n      mstore\n        /* \"#utility.yul\":2717:2955   */\n      pop\n      pop\n      pop\n      jump\t// out\n        /* \"#utility.yul\":2961:3141   */\n    tag_60:\n        /* \"#utility.yul\":3009:3086   */\n      0x4e487b7100000000000000000000000000000000000000000000000000000000\n        /* \"#utility.yul\":3006:3007   */\n      0x00\n        /* \"#utility.yul\":2999:3087   */\n      mstore\n        /* \"#utility.yul\":3106:3110   */\n      0x11\n        /* \"#utility.yul\":3103:3104   */\n      0x04\n        /* \"#utility.yul\":3096:3111   */\n      mstore\n        /* \"#utility.yul\":3130:3134   */\n      0x24\n        /* \"#utility.yul\":3127:3128   */\n      0x00\n        /* \"#utility.yul\":3120:3135   */\n      revert\n        /* \"#utility.yul\":3147:3327   */\n    tag_51:\n        /* \"#utility.yul\":3195:3272   */\n      0x4e487b7100000000000000000000000000000000000000000000000000000000\n        /* \"#utility.yul\":3192:3193   */\n      0x00\n        /* \"#utility.yul\":3185:3273   */\n      mstore\n        /* \"#utility.yul\":3292:3296   */\n      0x41\n        /* \"#utility.yul\":3289:3290   */\n      0x04\n        /* \"#utility.yul\":3282:3297   */\n      mstore\n        /* \"#utility.yul\":3316:3320   */\n      0x24\n        /* \"#utility.yul\":3313:3314   */\n      0x00\n        /* \"#utility.yul\":3306:3321   */\n      revert\n        /* \"#utility.yul\":3333:3450   */\n    tag_27:\n        /* \"#utility.yul\":3442:3443   */\n      0x00\n        /* \"#utility.yul\":3439:3440   */\n      dup1\n        /* \"#utility.yul\":3432:3444   */\n      revert\n        /* \"#utility.yul\":3456:3573   */\n    tag_20:\n        /* \"#utility.yul\":3565:3566   */\n      0x00\n        /* \"#utility.yul\":3562:3563   */\n      dup1\n        /* \"#utility.yul\":3555:3567   */\n      revert\n        /* \"#utility.yul\":3579:3696   */\n    tag_39:\n        /* \"#utility.yul\":3688:3689   */\n      0x00\n        /* \"#utility.yul\":3685:3686   */\n      dup1\n        /* \"#utility.yul\":3678:3690   */\n      revert\n        /* \"#utility.yul\":3702:3819   */\n    tag_36:\n        /* \"#utility.yul\":3811:3812   */\n      0x00\n        /* \"#utility.yul\":3808:3809   */\n      dup1\n        /* \"#utility.yul\":3801:3813   */\n      revert\n        /* \"#utility.yul\":3825:3927   */\n    tag_53:\n        /* \"#utility.yul\":3866:3872   */\n      0x00\n        /* \"#utility.yul\":3917:3919   */\n      0x1f\n        /* \"#utility.yul\":3913:3920   */\n      not\n        /* \"#utility.yul\":3908:3910   */\n      0x1f\n        /* \"#utility.yul\":3901:3906   */\n      dup4\n        /* \"#utility.yul\":3897:3911   */\n      add\n        /* \"#utility.yul\":3893:3921   */\n      and\n        /* \"#utility.yul\":3883:3921   */\n      swap1\n      pop\n        /* \"#utility.yul\":3873:3927   */\n      swap2\n      swap1\n      pop\n      jump\t// out\n        /* \"#utility.yul\":3933:4055   */\n    tag_32:\n        /* \"#utility.yul\":4006:4030   */\n      tag_75\n        /* \"#utility.yul\":4024:4029   */\n      dup2\n        /* \"#utility.yul\":4006:4030   */\n      tag_56\n      jump\t// in\n    tag_75:\n        /* \"#utility.yul\":3999:4004   */\n      dup2\n        /* \"#utility.yul\":3996:4031   */\n      eq\n        /* \"#utility.yul\":3986:3988   */\n      tag_76\n      jumpi\n        /* \"#utility.yul\":4045:4046   */\n      0x00\n        /* \"#utility.yul\":4042:4043   */\n      dup1\n        /* \"#utility.yul\":4035:4047   */\n      revert\n        /* \"#utility.yul\":3986:3988   */\n    tag_76:\n        /* \"#utility.yul\":3976:4055   */\n      pop\n      jump\t// out\n\n    auxdata: 0xa26469706673582212201b8dad5d58e8106cafa9e6d90a53e5b5382ec23d71caee0b31f426761377a77564736f6c63430008060033\n}\n",
				"bytecode": {
					"linkReferences": {},
					"object": "60806040526000805534801561001457600080fd5b50610310806100246000396000f3fe608060405234801561001057600080fd5b506004361061002b5760003560e01c8063d255225f14610030575b600080fd5b61004a600480360381019061004591906100ee565b61004c565b005b600160008082825461005e91906101a0565b925050819055505050565b600061007c6100778461016f565b61014a565b905082815260208101848484011115610098576100976102a3565b5b6100a3848285610200565b509392505050565b600082601f8301126100c0576100bf61029e565b5b81356100d0848260208601610069565b91505092915050565b6000813590506100e8816102c3565b92915050565b60008060408385031215610105576101046102ad565b5b600083013567ffffffffffffffff811115610123576101226102a8565b5b61012f858286016100ab565b9250506020610140858286016100d9565b9150509250929050565b6000610154610165565b9050610160828261020f565b919050565b6000604051905090565b600067ffffffffffffffff82111561018a5761018961026f565b5b610193826102b2565b9050602081019050919050565b60006101ab826101f6565b91506101b6836101f6565b9250827fffffffffffffffffffffffffffffffffffffffffffffffffffffffffffffffff038211156101eb576101ea610240565b5b828201905092915050565b6000819050919050565b82818337600083830152505050565b610218826102b2565b810181811067ffffffffffffffff821117156102375761023661026f565b5b80604052505050565b7f4e487b7100000000000000000000000000000000000000000000000000000000600052601160045260246000fd5b7f4e487b7100000000000000000000000000000000000000000000000000000000600052604160045260246000fd5b600080fd5b600080fd5b600080fd5b600080fd5b6000601f19601f8301169050919050565b6102cc816101f6565b81146102d757600080fd5b5056fea26469706673582212201b8dad5d58e8106cafa9e6d90a53e5b5382ec23d71caee0b31f426761377a77564736f6c63430008060033",
					"opcodes": "PUSH1 0x80 PUSH1 0x40 MSTORE PUSH1 0x0 DUP1 SSTORE CALLVALUE DUP1 ISZERO PUSH2 0x14 JUMPI PUSH1 0x0 DUP1 REVERT JUMPDEST POP PUSH2 0x310 DUP1 PUSH2 0x24 PUSH1 0x0 CODECOPY PUSH1 0x0 RETURN INVALID PUSH1 0x80 PUSH1 0x40 MSTORE CALLVALUE DUP1 ISZERO PUSH2 0x10 JUMPI PUSH1 0x0 DUP1 REVERT JUMPDEST POP PUSH1 0x4 CALLDATASIZE LT PUSH2 0x2B JUMPI PUSH1 0x0 CALLDATALOAD PUSH1 0xE0 SHR DUP1 PUSH4 0xD255225F EQ PUSH2 0x30 JUMPI JUMPDEST PUSH1 0x0 DUP1 REVERT JUMPDEST PUSH2 0x4A PUSH1 0x4 DUP1 CALLDATASIZE SUB DUP2 ADD SWAP1 PUSH2 0x45 SWAP2 SWAP1 PUSH2 0xEE JUMP JUMPDEST PUSH2 0x4C JUMP JUMPDEST STOP JUMPDEST PUSH1 0x1 PUSH1 0x0 DUP1 DUP3 DUP3 SLOAD PUSH2 0x5E SWAP2 SWAP1 PUSH2 0x1A0 JUMP JUMPDEST SWAP3 POP POP DUP2 SWAP1 SSTORE POP POP POP JUMP JUMPDEST PUSH1 0x0 PUSH2 0x7C PUSH2 0x77 DUP5 PUSH2 0x16F JUMP JUMPDEST PUSH2 0x14A JUMP JUMPDEST SWAP1 POP DUP3 DUP2 MSTORE PUSH1 0x20 DUP2 ADD DUP5 DUP5 DUP5 ADD GT ISZERO PUSH2 0x98 JUMPI PUSH2 0x97 PUSH2 0x2A3 JUMP JUMPDEST JUMPDEST PUSH2 0xA3 DUP5 DUP3 DUP6 PUSH2 0x200 JUMP JUMPDEST POP SWAP4 SWAP3 POP POP POP JUMP JUMPDEST PUSH1 0x0 DUP3 PUSH1 0x1F DUP4 ADD SLT PUSH2 0xC0 JUMPI PUSH2 0xBF PUSH2 0x29E JUMP JUMPDEST JUMPDEST DUP2 CALLDATALOAD PUSH2 0xD0 DUP5 DUP3 PUSH1 0x20 DUP7 ADD PUSH2 0x69 JUMP JUMPDEST SWAP2 POP POP SWAP3 SWAP2 POP POP JUMP JUMPDEST PUSH1 0x0 DUP2 CALLDATALOAD SWAP1 POP PUSH2 0xE8 DUP2 PUSH2 0x2C3 JUMP JUMPDEST SWAP3 SWAP2 POP POP JUMP JUMPDEST PUSH1 0x0 DUP1 PUSH1 0x40 DUP4 DUP6 SUB SLT ISZERO PUSH2 0x105 JUMPI PUSH2 0x104 PUSH2 0x2AD JUMP JUMPDEST JUMPDEST PUSH1 0x0 DUP4 ADD CALLDATALOAD PUSH8 0xFFFFFFFFFFFFFFFF DUP2 GT ISZERO PUSH2 0x123 JUMPI PUSH2 0x122 PUSH2 0x2A8 JUMP JUMPDEST JUMPDEST PUSH2 0x12F DUP6 DUP3 DUP7 ADD PUSH2 0xAB JUMP JUMPDEST SWAP3 POP POP PUSH1 0x20 PUSH2 0x140 DUP6 DUP3 DUP7 ADD PUSH2 0xD9 JUMP JUMPDEST SWAP2 POP POP SWAP3 POP SWAP3 SWAP1 POP JUMP JUMPDEST PUSH1 0x0 PUSH2 0x154 PUSH2 0x165 JUMP JUMPDEST SWAP1 POP PUSH2 0x160 DUP3 DUP3 PUSH2 0x20F JUMP JUMPDEST SWAP2 SWAP1 POP JUMP JUMPDEST PUSH1 0x0 PUSH1 0x40 MLOAD SWAP1 POP SWAP1 JUMP JUMPDEST PUSH1 0x0 PUSH8 0xFFFFFFFFFFFFFFFF DUP3 GT ISZERO PUSH2 0x18A JUMPI PUSH2 0x189 PUSH2 0x26F JUMP JUMPDEST JUMPDEST PUSH2 0x193 DUP3 PUSH2 0x2B2 JUMP JUMPDEST SWAP1 POP PUSH1 0x20 DUP2 ADD SWAP1 POP SWAP2 SWAP1 POP JUMP JUMPDEST PUSH1 0x0 PUSH2 0x1AB DUP3 PUSH2 0x1F6 JUMP JUMPDEST SWAP2 POP PUSH2 0x1B6 DUP4 PUSH2 0x1F6 JUMP JUMPDEST SWAP3 POP DUP3 PUSH32 0xFFFFFFFFFFFFFFFFFFFFFFFFFFFFFFFFFFFFFFFFFFFFFFFFFFFFFFFFFFFFFFFF SUB DUP3 GT ISZERO PUSH2 0x1EB JUMPI PUSH2 0x1EA PUSH2 0x240 JUMP JUMPDEST JUMPDEST DUP3 DUP3 ADD SWAP1 POP SWAP3 SWAP2 POP POP JUMP JUMPDEST PUSH1 0x0 DUP2 SWAP1 POP SWAP2 SWAP1 POP JUMP JUMPDEST DUP3 DUP2 DUP4 CALLDATACOPY PUSH1 0x0 DUP4 DUP4 ADD MSTORE POP POP POP JUMP JUMPDEST PUSH2 0x218 DUP3 PUSH2 0x2B2 JUMP JUMPDEST DUP2 ADD DUP2 DUP2 LT PUSH8 0xFFFFFFFFFFFFFFFF DUP3 GT OR ISZERO PUSH2 0x237 JUMPI PUSH2 0x236 PUSH2 0x26F JUMP JUMPDEST JUMPDEST DUP1 PUSH1 0x40 MSTORE POP POP POP JUMP JUMPDEST PUSH32 0x4E487B7100000000000000000000000000000000000000000000000000000000 PUSH1 0x0 MSTORE PUSH1 0x11 PUSH1 0x4 MSTORE PUSH1 0x24 PUSH1 0x0 REVERT JUMPDEST PUSH32 0x4E487B7100000000000000000000000000000000000000000000000000000000 PUSH1 0x0 MSTORE PUSH1 0x41 PUSH1 0x4 MSTORE PUSH1 0x24 PUSH1 0x0 REVERT JUMPDEST PUSH1 0x0 DUP1 REVERT JUMPDEST PUSH1 0x0 DUP1 REVERT JUMPDEST PUSH1 0x0 DUP1 REVERT JUMPDEST PUSH1 0x0 DUP1 REVERT JUMPDEST PUSH1 0x0 PUSH1 0x1F NOT PUSH1 0x1F DUP4 ADD AND SWAP1 POP SWAP2 SWAP1 POP JUMP JUMPDEST PUSH2 0x2CC DUP2 PUSH2 0x1F6 JUMP JUMPDEST DUP2 EQ PUSH2 0x2D7 JUMPI PUSH1 0x0 DUP1 REVERT JUMPDEST POP JUMP INVALID LOG2 PUSH5 0x6970667358 0x22 SLT KECCAK256 SHL DUP14 0xAD 0x5D PC 0xE8 LT PUSH13 0xAFA9E6D90A53E5B5382EC23D71 0xCA 0xEE SIGNEXTEND BALANCE DELEGATECALL 0x26 PUSH23 0x1377A77564736F6C634300080600330000000000000000 "
				},
				"gasEstimates": {
					"creation": {
						"codeDepositCost": "156800",
						"executionCost": "5208",
						"totalCost": "162008"
					},
					"external": {
						"addCausa(string,uint256)": "infinite"
					}
				},
				"methodIdentifiers": {
					"addCausa(string,uint256)": "d255225f"
				}
			},
			"storageLayout": {
				"storage": [
					{
						"astId": 13,
						"contract": "Funciones/causas_beneficas.sol:CausasBeneficas",
						"label": "contadorCausas",
						"offset": 0,
						"slot": "0",
						"type": "t_uint256"
					},
					{
						"astId": 18,
						"contract": "Funciones/causas_beneficas.sol:CausasBeneficas",
						"label": "causas",
						"offset": 0,
						"slot": "1",
						"type": "t_mapping(t_string_memory_ptr,t_struct(causa)10_storage)"
					}
				],
				"types": {
					"t_mapping(t_string_memory_ptr,t_struct(causa)10_storage)": {
						"encoding": "mapping",
						"key": "t_string_memory_ptr",
						"label": "mapping(string => struct CausasBeneficas.causa)",
						"numberOfBytes": "32",
						"value": "t_struct(causa)10_storage"
					},
					"t_string_memory_ptr": {
						"encoding": "bytes",
						"label": "string",
						"numberOfBytes": "32"
					},
					"t_string_storage": {
						"encoding": "bytes",
						"label": "string",
						"numberOfBytes": "32"
					},
					"t_struct(causa)10_storage": {
						"encoding": "inplace",
						"label": "struct CausasBeneficas.causa",
						"members": [
							{
								"astId": 3,
								"contract": "Funciones/causas_beneficas.sol:CausasBeneficas",
								"label": "id",
								"offset": 0,
								"slot": "0",
								"type": "t_uint256"
							},
							{
								"astId": 5,
								"contract": "Funciones/causas_beneficas.sol:CausasBeneficas",
								"label": "name",
								"offset": 0,
								"slot": "1",
								"type": "t_string_storage"
							},
							{
								"astId": 7,
								"contract": "Funciones/causas_beneficas.sol:CausasBeneficas",
								"label": "montoObjetivo",
								"offset": 0,
								"slot": "2",
								"type": "t_uint256"
							},
							{
								"astId": 9,
								"contract": "Funciones/causas_beneficas.sol:CausasBeneficas",
								"label": "montoRecaudado",
								"offset": 0,
								"slot": "3",
								"type": "t_uint256"
							}
						],
						"numberOfBytes": "128"
					},
					"t_uint256": {
						"encoding": "inplace",
						"label": "uint256",
						"numberOfBytes": "32"
					}
				}
			},
			"userdoc": {
				"kind": "user",
				"methods": {},
				"version": 1
			}
		}
	}
}