{
	"Funciones/eventos.sol": {
		"Eventos": {
			"abi": [
				{
					"anonymous": false,
					"inputs": [
						{
							"indexed": false,
							"internalType": "string",
							"name": "_nombrePersona",
							"type": "string"
						}
					],
					"name": "evento1",
					"type": "event"
				},
				{
					"anonymous": false,
					"inputs": [
						{
							"indexed": false,
							"internalType": "string",
							"name": "_nombrePersona",
							"type": "string"
						},
						{
							"indexed": false,
							"internalType": "uint256",
							"name": "_edadPersona",
							"type": "uint256"
						}
					],
					"name": "evento2",
					"type": "event"
				},
				{
					"anonymous": false,
					"inputs": [
						{
							"indexed": false,
							"internalType": "string",
							"name": "",
							"type": "string"
						},
						{
							"indexed": false,
							"internalType": "uint256",
							"name": "",
							"type": "uint256"
						},
						{
							"indexed": false,
							"internalType": "address",
							"name": "",
							"type": "address"
						},
						{
							"indexed": false,
							"internalType": "bytes32",
							"name": "",
							"type": "bytes32"
						}
					],
					"name": "evento3",
					"type": "event"
				},
				{
					"anonymous": false,
					"inputs": [
						{
							"indexed": false,
							"internalType": "string",
							"name": "",
							"type": "string"
						},
						{
							"indexed": false,
							"internalType": "uint256",
							"name": "",
							"type": "uint256"
						},
						{
							"indexed": false,
							"internalType": "address",
							"name": "",
							"type": "address"
						},
						{
							"indexed": false,
							"internalType": "bytes32",
							"name": "",
							"type": "bytes32"
						}
					],
					"name": "evento4",
					"type": "event"
				},
				{
					"inputs": [
						{
							"internalType": "string",
							"name": "_nombrePersona",
							"type": "string"
						}
					],
					"name": "emitirEvento1",
					"outputs": [],
					"stateMutability": "nonpayable",
					"type": "function"
				},
				{
					"inputs": [
						{
							"internalType": "string",
							"name": "_nombrePersona",
							"type": "string"
						},
						{
							"internalType": "uint256",
							"name": "_edadPersona",
							"type": "uint256"
						}
					],
					"name": "emitirEvento2",
					"outputs": [],
					"stateMutability": "nonpayable",
					"type": "function"
				},
				{
					"inputs": [
						{
							"internalType": "string",
							"name": "_nombrePersona",
							"type": "string"
						},
						{
							"internalType": "uint256",
							"name": "_edadPersona",
							"type": "uint256"
						}
					],
					"name": "emitirEvento3",
					"outputs": [],
					"stateMutability": "nonpayable",
					"type": "function"
				}
			],
			"devdoc": {
				"kind": "dev",
				"methods": {},
				"version": 1
			},
			"evm": {
				"assembly": "    /* \"Funciones/eventos.sol\":67:857  contract Eventos {... */\n  mstore(0x40, 0x80)\n  callvalue\n  dup1\n  iszero\n  tag_1\n  jumpi\n  0x00\n  dup1\n  revert\ntag_1:\n  pop\n  dataSize(sub_0)\n  dup1\n  dataOffset(sub_0)\n  0x00\n  codecopy\n  0x00\n  return\nstop\n\nsub_0: assembly {\n        /* \"Funciones/eventos.sol\":67:857  contract Eventos {... */\n      mstore(0x40, 0x80)\n      callvalue\n      dup1\n      iszero\n      tag_1\n      jumpi\n      0x00\n      dup1\n      revert\n    tag_1:\n      pop\n      jumpi(tag_2, lt(calldatasize, 0x04))\n      shr(0xe0, calldataload(0x00))\n      dup1\n      0x6480f5c2\n      eq\n      tag_3\n      jumpi\n      dup1\n      0x7cf1103d\n      eq\n      tag_4\n      jumpi\n      dup1\n      0x7f4f0f35\n      eq\n      tag_5\n      jumpi\n    tag_2:\n      0x00\n      dup1\n      revert\n        /* \"Funciones/eventos.sol\":597:854  function emitirEvento3(string memory _nombrePersona, uint _edadPersona) public {... */\n    tag_3:\n      tag_6\n      0x04\n      dup1\n      calldatasize\n      sub\n      dup2\n      add\n      swap1\n      tag_7\n      swap2\n      swap1\n      tag_8\n      jump\t// in\n    tag_7:\n      tag_9\n      jump\t// in\n    tag_6:\n      stop\n        /* \"Funciones/eventos.sol\":342:447  function emitirEvento1(string memory _nombrePersona) public {... */\n    tag_4:\n      tag_10\n      0x04\n      dup1\n      calldatasize\n      sub\n      dup2\n      add\n      swap1\n      tag_11\n      swap2\n      swap1\n      tag_12\n      jump\t// in\n    tag_11:\n      tag_13\n      jump\t// in\n    tag_10:\n      stop\n        /* \"Funciones/eventos.sol\":453:591  function emitirEvento2(string memory _nombrePersona, uint _edadPersona) public {... */\n    tag_5:\n      tag_14\n      0x04\n      dup1\n      calldatasize\n      sub\n      dup2\n      add\n      swap1\n      tag_15\n      swap2\n      swap1\n      tag_8\n      jump\t// in\n    tag_15:\n      tag_16\n      jump\t// in\n    tag_14:\n      stop\n        /* \"Funciones/eventos.sol\":597:854  function emitirEvento3(string memory _nombrePersona, uint _edadPersona) public {... */\n    tag_9:\n        /* \"Funciones/eventos.sol\":686:701  bytes32 hash_id */\n      0x00\n        /* \"Funciones/eventos.sol\":731:745  _nombrePersona */\n      dup3\n        /* \"Funciones/eventos.sol\":747:759  _edadPersona */\n      dup3\n        /* \"Funciones/eventos.sol\":761:771  msg.sender */\n      caller\n        /* \"Funciones/eventos.sol\":714:772  abi.encodePacked(_nombrePersona, _edadPersona, msg.sender) */\n      add(0x20, mload(0x40))\n      tag_18\n      swap4\n      swap3\n      swap2\n      swap1\n      tag_19\n      jump\t// in\n    tag_18:\n      mload(0x40)\n      0x20\n      dup2\n      dup4\n      sub\n      sub\n      dup2\n      mstore\n      swap1\n      0x40\n      mstore\n        /* \"Funciones/eventos.sol\":704:773  keccak256(abi.encodePacked(_nombrePersona, _edadPersona, msg.sender)) */\n      dup1\n      mload\n      swap1\n      0x20\n      add\n      keccak256\n        /* \"Funciones/eventos.sol\":686:773  bytes32 hash_id = keccak256(abi.encodePacked(_nombrePersona, _edadPersona, msg.sender)) */\n      swap1\n      pop\n        /* \"Funciones/eventos.sol\":789:847  evento3(_nombrePersona, _edadPersona, msg.sender, hash_id) */\n      0x346531129c2fec3012d8c533fc369fd64078ad2ecf1c54fd5998131bb00472aa\n        /* \"Funciones/eventos.sol\":797:811  _nombrePersona */\n      dup4\n        /* \"Funciones/eventos.sol\":813:825  _edadPersona */\n      dup4\n        /* \"Funciones/eventos.sol\":827:837  msg.sender */\n      caller\n        /* \"Funciones/eventos.sol\":839:846  hash_id */\n      dup5\n        /* \"Funciones/eventos.sol\":789:847  evento3(_nombrePersona, _edadPersona, msg.sender, hash_id) */\n      mload(0x40)\n      tag_20\n      swap5\n      swap4\n      swap3\n      swap2\n      swap1\n      tag_21\n      jump\t// in\n    tag_20:\n      mload(0x40)\n      dup1\n      swap2\n      sub\n      swap1\n      log1\n        /* \"Funciones/eventos.sol\":676:854  {... */\n      pop\n        /* \"Funciones/eventos.sol\":597:854  function emitirEvento3(string memory _nombrePersona, uint _edadPersona) public {... */\n      pop\n      pop\n      jump\t// out\n        /* \"Funciones/eventos.sol\":342:447  function emitirEvento1(string memory _nombrePersona) public {... */\n    tag_13:\n        /* \"Funciones/eventos.sol\":417:440  evento1(_nombrePersona) */\n      0xbb9feca183dbd63d27399e01607802b8663d1c6d1b7a331ed919063ea22675a2\n        /* \"Funciones/eventos.sol\":425:439  _nombrePersona */\n      dup2\n        /* \"Funciones/eventos.sol\":417:440  evento1(_nombrePersona) */\n      mload(0x40)\n      tag_23\n      swap2\n      swap1\n      tag_24\n      jump\t// in\n    tag_23:\n      mload(0x40)\n      dup1\n      swap2\n      sub\n      swap1\n      log1\n        /* \"Funciones/eventos.sol\":342:447  function emitirEvento1(string memory _nombrePersona) public {... */\n      pop\n      jump\t// out\n        /* \"Funciones/eventos.sol\":453:591  function emitirEvento2(string memory _nombrePersona, uint _edadPersona) public {... */\n    tag_16:\n        /* \"Funciones/eventos.sol\":547:584  evento2(_nombrePersona, _edadPersona) */\n      0x2abcdd8402d13cddfdae95d2581c51409054966b88de81287628c3e06235d8b0\n        /* \"Funciones/eventos.sol\":555:569  _nombrePersona */\n      dup3\n        /* \"Funciones/eventos.sol\":571:583  _edadPersona */\n      dup3\n        /* \"Funciones/eventos.sol\":547:584  evento2(_nombrePersona, _edadPersona) */\n      mload(0x40)\n      tag_26\n      swap3\n      swap2\n      swap1\n      tag_27\n      jump\t// in\n    tag_26:\n      mload(0x40)\n      dup1\n      swap2\n      sub\n      swap1\n      log1\n        /* \"Funciones/eventos.sol\":453:591  function emitirEvento2(string memory _nombrePersona, uint _edadPersona) public {... */\n      pop\n      pop\n      jump\t// out\n        /* \"#utility.yul\":7:419   */\n    tag_29:\n        /* \"#utility.yul\":85:90   */\n      0x00\n        /* \"#utility.yul\":110:176   */\n      tag_31\n        /* \"#utility.yul\":126:175   */\n      tag_32\n        /* \"#utility.yul\":168:174   */\n      dup5\n        /* \"#utility.yul\":126:175   */\n      tag_33\n      jump\t// in\n    tag_32:\n        /* \"#utility.yul\":110:176   */\n      tag_34\n      jump\t// in\n    tag_31:\n        /* \"#utility.yul\":101:176   */\n      swap1\n      pop\n        /* \"#utility.yul\":199:205   */\n      dup3\n        /* \"#utility.yul\":192:197   */\n      dup2\n        /* \"#utility.yul\":185:206   */\n      mstore\n        /* \"#utility.yul\":237:241   */\n      0x20\n        /* \"#utility.yul\":230:235   */\n      dup2\n        /* \"#utility.yul\":226:242   */\n      add\n        /* \"#utility.yul\":275:278   */\n      dup5\n        /* \"#utility.yul\":266:272   */\n      dup5\n        /* \"#utility.yul\":261:264   */\n      dup5\n        /* \"#utility.yul\":257:273   */\n      add\n        /* \"#utility.yul\":254:279   */\n      gt\n        /* \"#utility.yul\":251:253   */\n      iszero\n      tag_35\n      jumpi\n        /* \"#utility.yul\":282:361   */\n      tag_36\n      tag_37\n      jump\t// in\n    tag_36:\n        /* \"#utility.yul\":251:253   */\n    tag_35:\n        /* \"#utility.yul\":372:413   */\n      tag_38\n        /* \"#utility.yul\":406:412   */\n      dup5\n        /* \"#utility.yul\":401:404   */\n      dup3\n        /* \"#utility.yul\":396:399   */\n      dup6\n        /* \"#utility.yul\":372:413   */\n      tag_39\n      jump\t// in\n    tag_38:\n        /* \"#utility.yul\":91:419   */\n      pop\n      swap4\n      swap3\n      pop\n      pop\n      pop\n      jump\t// out\n        /* \"#utility.yul\":439:779   */\n    tag_40:\n        /* \"#utility.yul\":495:500   */\n      0x00\n        /* \"#utility.yul\":544:547   */\n      dup3\n        /* \"#utility.yul\":537:541   */\n      0x1f\n        /* \"#utility.yul\":529:535   */\n      dup4\n        /* \"#utility.yul\":525:542   */\n      add\n        /* \"#utility.yul\":521:548   */\n      slt\n        /* \"#utility.yul\":511:513   */\n      tag_42\n      jumpi\n        /* \"#utility.yul\":552:631   */\n      tag_43\n      tag_44\n      jump\t// in\n    tag_43:\n        /* \"#utility.yul\":511:513   */\n    tag_42:\n        /* \"#utility.yul\":669:675   */\n      dup2\n        /* \"#utility.yul\":656:676   */\n      calldataload\n        /* \"#utility.yul\":694:773   */\n      tag_45\n        /* \"#utility.yul\":769:772   */\n      dup5\n        /* \"#utility.yul\":761:767   */\n      dup3\n        /* \"#utility.yul\":754:758   */\n      0x20\n        /* \"#utility.yul\":746:752   */\n      dup7\n        /* \"#utility.yul\":742:759   */\n      add\n        /* \"#utility.yul\":694:773   */\n      tag_29\n      jump\t// in\n    tag_45:\n        /* \"#utility.yul\":685:773   */\n      swap2\n      pop\n        /* \"#utility.yul\":501:779   */\n      pop\n      swap3\n      swap2\n      pop\n      pop\n      jump\t// out\n        /* \"#utility.yul\":785:924   */\n    tag_46:\n        /* \"#utility.yul\":831:836   */\n      0x00\n        /* \"#utility.yul\":869:875   */\n      dup2\n        /* \"#utility.yul\":856:876   */\n      calldataload\n        /* \"#utility.yul\":847:876   */\n      swap1\n      pop\n        /* \"#utility.yul\":885:918   */\n      tag_48\n        /* \"#utility.yul\":912:917   */\n      dup2\n        /* \"#utility.yul\":885:918   */\n      tag_49\n      jump\t// in\n    tag_48:\n        /* \"#utility.yul\":837:924   */\n      swap3\n      swap2\n      pop\n      pop\n      jump\t// out\n        /* \"#utility.yul\":930:1439   */\n    tag_12:\n        /* \"#utility.yul\":999:1005   */\n      0x00\n        /* \"#utility.yul\":1048:1050   */\n      0x20\n        /* \"#utility.yul\":1036:1045   */\n      dup3\n        /* \"#utility.yul\":1027:1034   */\n      dup5\n        /* \"#utility.yul\":1023:1046   */\n      sub\n        /* \"#utility.yul\":1019:1051   */\n      slt\n        /* \"#utility.yul\":1016:1018   */\n      iszero\n      tag_51\n      jumpi\n        /* \"#utility.yul\":1054:1133   */\n      tag_52\n      tag_53\n      jump\t// in\n    tag_52:\n        /* \"#utility.yul\":1016:1018   */\n    tag_51:\n        /* \"#utility.yul\":1202:1203   */\n      0x00\n        /* \"#utility.yul\":1191:1200   */\n      dup3\n        /* \"#utility.yul\":1187:1204   */\n      add\n        /* \"#utility.yul\":1174:1205   */\n      calldataload\n        /* \"#utility.yul\":1232:1250   */\n      0xffffffffffffffff\n        /* \"#utility.yul\":1224:1230   */\n      dup2\n        /* \"#utility.yul\":1221:1251   */\n      gt\n        /* \"#utility.yul\":1218:1220   */\n      iszero\n      tag_54\n      jumpi\n        /* \"#utility.yul\":1254:1333   */\n      tag_55\n      tag_56\n      jump\t// in\n    tag_55:\n        /* \"#utility.yul\":1218:1220   */\n    tag_54:\n        /* \"#utility.yul\":1359:1422   */\n      tag_57\n        /* \"#utility.yul\":1414:1421   */\n      dup5\n        /* \"#utility.yul\":1405:1411   */\n      dup3\n        /* \"#utility.yul\":1394:1403   */\n      dup6\n        /* \"#utility.yul\":1390:1412   */\n      add\n        /* \"#utility.yul\":1359:1422   */\n      tag_40\n      jump\t// in\n    tag_57:\n        /* \"#utility.yul\":1349:1422   */\n      swap2\n      pop\n        /* \"#utility.yul\":1145:1432   */\n      pop\n        /* \"#utility.yul\":1006:1439   */\n      swap3\n      swap2\n      pop\n      pop\n      jump\t// out\n        /* \"#utility.yul\":1445:2099   */\n    tag_8:\n        /* \"#utility.yul\":1523:1529   */\n      0x00\n        /* \"#utility.yul\":1531:1537   */\n      dup1\n        /* \"#utility.yul\":1580:1582   */\n      0x40\n        /* \"#utility.yul\":1568:1577   */\n      dup4\n        /* \"#utility.yul\":1559:1566   */\n      dup6\n        /* \"#utility.yul\":1555:1578   */\n      sub\n        /* \"#utility.yul\":1551:1583   */\n      slt\n        /* \"#utility.yul\":1548:1550   */\n      iszero\n      tag_59\n      jumpi\n        /* \"#utility.yul\":1586:1665   */\n      tag_60\n      tag_53\n      jump\t// in\n    tag_60:\n        /* \"#utility.yul\":1548:1550   */\n    tag_59:\n        /* \"#utility.yul\":1734:1735   */\n      0x00\n        /* \"#utility.yul\":1723:1732   */\n      dup4\n        /* \"#utility.yul\":1719:1736   */\n      add\n        /* \"#utility.yul\":1706:1737   */\n      calldataload\n        /* \"#utility.yul\":1764:1782   */\n      0xffffffffffffffff\n        /* \"#utility.yul\":1756:1762   */\n      dup2\n        /* \"#utility.yul\":1753:1783   */\n      gt\n        /* \"#utility.yul\":1750:1752   */\n      iszero\n      tag_61\n      jumpi\n        /* \"#utility.yul\":1786:1865   */\n      tag_62\n      tag_56\n      jump\t// in\n    tag_62:\n        /* \"#utility.yul\":1750:1752   */\n    tag_61:\n        /* \"#utility.yul\":1891:1954   */\n      tag_63\n        /* \"#utility.yul\":1946:1953   */\n      dup6\n        /* \"#utility.yul\":1937:1943   */\n      dup3\n        /* \"#utility.yul\":1926:1935   */\n      dup7\n        /* \"#utility.yul\":1922:1944   */\n      add\n        /* \"#utility.yul\":1891:1954   */\n      tag_40\n      jump\t// in\n    tag_63:\n        /* \"#utility.yul\":1881:1954   */\n      swap3\n      pop\n        /* \"#utility.yul\":1677:1964   */\n      pop\n        /* \"#utility.yul\":2003:2005   */\n      0x20\n        /* \"#utility.yul\":2029:2082   */\n      tag_64\n        /* \"#utility.yul\":2074:2081   */\n      dup6\n        /* \"#utility.yul\":2065:2071   */\n      dup3\n        /* \"#utility.yul\":2054:2063   */\n      dup7\n        /* \"#utility.yul\":2050:2072   */\n      add\n        /* \"#utility.yul\":2029:2082   */\n      tag_46\n      jump\t// in\n    tag_64:\n        /* \"#utility.yul\":2019:2082   */\n      swap2\n      pop\n        /* \"#utility.yul\":1974:2092   */\n      pop\n        /* \"#utility.yul\":1538:2099   */\n      swap3\n      pop\n      swap3\n      swap1\n      pop\n      jump\t// out\n        /* \"#utility.yul\":2105:2223   */\n    tag_65:\n        /* \"#utility.yul\":2192:2216   */\n      tag_67\n        /* \"#utility.yul\":2210:2215   */\n      dup2\n        /* \"#utility.yul\":2192:2216   */\n      tag_68\n      jump\t// in\n    tag_67:\n        /* \"#utility.yul\":2187:2190   */\n      dup3\n        /* \"#utility.yul\":2180:2217   */\n      mstore\n        /* \"#utility.yul\":2170:2223   */\n      pop\n      pop\n      jump\t// out\n        /* \"#utility.yul\":2229:2386   */\n    tag_69:\n        /* \"#utility.yul\":2334:2379   */\n      tag_71\n        /* \"#utility.yul\":2354:2378   */\n      tag_72\n        /* \"#utility.yul\":2372:2377   */\n      dup3\n        /* \"#utility.yul\":2354:2378   */\n      tag_68\n      jump\t// in\n    tag_72:\n        /* \"#utility.yul\":2334:2379   */\n      tag_73\n      jump\t// in\n    tag_71:\n        /* \"#utility.yul\":2329:2332   */\n      dup3\n        /* \"#utility.yul\":2322:2380   */\n      mstore\n        /* \"#utility.yul\":2312:2386   */\n      pop\n      pop\n      jump\t// out\n        /* \"#utility.yul\":2392:2510   */\n    tag_74:\n        /* \"#utility.yul\":2479:2503   */\n      tag_76\n        /* \"#utility.yul\":2497:2502   */\n      dup2\n        /* \"#utility.yul\":2479:2503   */\n      tag_77\n      jump\t// in\n    tag_76:\n        /* \"#utility.yul\":2474:2477   */\n      dup3\n        /* \"#utility.yul\":2467:2504   */\n      mstore\n        /* \"#utility.yul\":2457:2510   */\n      pop\n      pop\n      jump\t// out\n        /* \"#utility.yul\":2516:2880   */\n    tag_78:\n        /* \"#utility.yul\":2604:2607   */\n      0x00\n        /* \"#utility.yul\":2632:2671   */\n      tag_80\n        /* \"#utility.yul\":2665:2670   */\n      dup3\n        /* \"#utility.yul\":2632:2671   */\n      tag_81\n      jump\t// in\n    tag_80:\n        /* \"#utility.yul\":2687:2758   */\n      tag_82\n        /* \"#utility.yul\":2751:2757   */\n      dup2\n        /* \"#utility.yul\":2746:2749   */\n      dup6\n        /* \"#utility.yul\":2687:2758   */\n      tag_83\n      jump\t// in\n    tag_82:\n        /* \"#utility.yul\":2680:2758   */\n      swap4\n      pop\n        /* \"#utility.yul\":2767:2819   */\n      tag_84\n        /* \"#utility.yul\":2812:2818   */\n      dup2\n        /* \"#utility.yul\":2807:2810   */\n      dup6\n        /* \"#utility.yul\":2800:2804   */\n      0x20\n        /* \"#utility.yul\":2793:2798   */\n      dup7\n        /* \"#utility.yul\":2789:2805   */\n      add\n        /* \"#utility.yul\":2767:2819   */\n      tag_85\n      jump\t// in\n    tag_84:\n        /* \"#utility.yul\":2844:2873   */\n      tag_86\n        /* \"#utility.yul\":2866:2872   */\n      dup2\n        /* \"#utility.yul\":2844:2873   */\n      tag_87\n      jump\t// in\n    tag_86:\n        /* \"#utility.yul\":2839:2842   */\n      dup5\n        /* \"#utility.yul\":2835:2874   */\n      add\n        /* \"#utility.yul\":2828:2874   */\n      swap2\n      pop\n        /* \"#utility.yul\":2608:2880   */\n      pop\n      swap3\n      swap2\n      pop\n      pop\n      jump\t// out\n        /* \"#utility.yul\":2886:3263   */\n    tag_88:\n        /* \"#utility.yul\":2992:2995   */\n      0x00\n        /* \"#utility.yul\":3020:3059   */\n      tag_90\n        /* \"#utility.yul\":3053:3058   */\n      dup3\n        /* \"#utility.yul\":3020:3059   */\n      tag_81\n      jump\t// in\n    tag_90:\n        /* \"#utility.yul\":3075:3164   */\n      tag_91\n        /* \"#utility.yul\":3157:3163   */\n      dup2\n        /* \"#utility.yul\":3152:3155   */\n      dup6\n        /* \"#utility.yul\":3075:3164   */\n      tag_92\n      jump\t// in\n    tag_91:\n        /* \"#utility.yul\":3068:3164   */\n      swap4\n      pop\n        /* \"#utility.yul\":3173:3225   */\n      tag_93\n        /* \"#utility.yul\":3218:3224   */\n      dup2\n        /* \"#utility.yul\":3213:3216   */\n      dup6\n        /* \"#utility.yul\":3206:3210   */\n      0x20\n        /* \"#utility.yul\":3199:3204   */\n      dup7\n        /* \"#utility.yul\":3195:3211   */\n      add\n        /* \"#utility.yul\":3173:3225   */\n      tag_85\n      jump\t// in\n    tag_93:\n        /* \"#utility.yul\":3250:3256   */\n      dup1\n        /* \"#utility.yul\":3245:3248   */\n      dup5\n        /* \"#utility.yul\":3241:3257   */\n      add\n        /* \"#utility.yul\":3234:3257   */\n      swap2\n      pop\n        /* \"#utility.yul\":2996:3263   */\n      pop\n      swap3\n      swap2\n      pop\n      pop\n      jump\t// out\n        /* \"#utility.yul\":3269:3387   */\n    tag_94:\n        /* \"#utility.yul\":3356:3380   */\n      tag_96\n        /* \"#utility.yul\":3374:3379   */\n      dup2\n        /* \"#utility.yul\":3356:3380   */\n      tag_97\n      jump\t// in\n    tag_96:\n        /* \"#utility.yul\":3351:3354   */\n      dup3\n        /* \"#utility.yul\":3344:3381   */\n      mstore\n        /* \"#utility.yul\":3334:3387   */\n      pop\n      pop\n      jump\t// out\n        /* \"#utility.yul\":3393:3550   */\n    tag_98:\n        /* \"#utility.yul\":3498:3543   */\n      tag_100\n        /* \"#utility.yul\":3518:3542   */\n      tag_101\n        /* \"#utility.yul\":3536:3541   */\n      dup3\n        /* \"#utility.yul\":3518:3542   */\n      tag_97\n      jump\t// in\n    tag_101:\n        /* \"#utility.yul\":3498:3543   */\n      tag_102\n      jump\t// in\n    tag_100:\n        /* \"#utility.yul\":3493:3496   */\n      dup3\n        /* \"#utility.yul\":3486:3544   */\n      mstore\n        /* \"#utility.yul\":3476:3550   */\n      pop\n      pop\n      jump\t// out\n        /* \"#utility.yul\":3556:4113   */\n    tag_19:\n        /* \"#utility.yul\":3744:3747   */\n      0x00\n        /* \"#utility.yul\":3766:3861   */\n      tag_104\n        /* \"#utility.yul\":3857:3860   */\n      dup3\n        /* \"#utility.yul\":3848:3854   */\n      dup7\n        /* \"#utility.yul\":3766:3861   */\n      tag_88\n      jump\t// in\n    tag_104:\n        /* \"#utility.yul\":3759:3861   */\n      swap2\n      pop\n        /* \"#utility.yul\":3871:3946   */\n      tag_105\n        /* \"#utility.yul\":3942:3945   */\n      dup3\n        /* \"#utility.yul\":3933:3939   */\n      dup6\n        /* \"#utility.yul\":3871:3946   */\n      tag_98\n      jump\t// in\n    tag_105:\n        /* \"#utility.yul\":3971:3973   */\n      0x20\n        /* \"#utility.yul\":3966:3969   */\n      dup3\n        /* \"#utility.yul\":3962:3974   */\n      add\n        /* \"#utility.yul\":3955:3974   */\n      swap2\n      pop\n        /* \"#utility.yul\":3984:4059   */\n      tag_106\n        /* \"#utility.yul\":4055:4058   */\n      dup3\n        /* \"#utility.yul\":4046:4052   */\n      dup5\n        /* \"#utility.yul\":3984:4059   */\n      tag_69\n      jump\t// in\n    tag_106:\n        /* \"#utility.yul\":4084:4086   */\n      0x14\n        /* \"#utility.yul\":4079:4082   */\n      dup3\n        /* \"#utility.yul\":4075:4087   */\n      add\n        /* \"#utility.yul\":4068:4087   */\n      swap2\n      pop\n        /* \"#utility.yul\":4104:4107   */\n      dup2\n        /* \"#utility.yul\":4097:4107   */\n      swap1\n      pop\n        /* \"#utility.yul\":3748:4113   */\n      swap5\n      swap4\n      pop\n      pop\n      pop\n      pop\n      jump\t// out\n        /* \"#utility.yul\":4119:4432   */\n    tag_24:\n        /* \"#utility.yul\":4232:4236   */\n      0x00\n        /* \"#utility.yul\":4270:4272   */\n      0x20\n        /* \"#utility.yul\":4259:4268   */\n      dup3\n        /* \"#utility.yul\":4255:4273   */\n      add\n        /* \"#utility.yul\":4247:4273   */\n      swap1\n      pop\n        /* \"#utility.yul\":4319:4328   */\n      dup2\n        /* \"#utility.yul\":4313:4317   */\n      dup2\n        /* \"#utility.yul\":4309:4329   */\n      sub\n        /* \"#utility.yul\":4305:4306   */\n      0x00\n        /* \"#utility.yul\":4294:4303   */\n      dup4\n        /* \"#utility.yul\":4290:4307   */\n      add\n        /* \"#utility.yul\":4283:4330   */\n      mstore\n        /* \"#utility.yul\":4347:4425   */\n      tag_108\n        /* \"#utility.yul\":4420:4424   */\n      dup2\n        /* \"#utility.yul\":4411:4417   */\n      dup5\n        /* \"#utility.yul\":4347:4425   */\n      tag_78\n      jump\t// in\n    tag_108:\n        /* \"#utility.yul\":4339:4425   */\n      swap1\n      pop\n        /* \"#utility.yul\":4237:4432   */\n      swap3\n      swap2\n      pop\n      pop\n      jump\t// out\n        /* \"#utility.yul\":4438:4861   */\n    tag_27:\n        /* \"#utility.yul\":4579:4583   */\n      0x00\n        /* \"#utility.yul\":4617:4619   */\n      0x40\n        /* \"#utility.yul\":4606:4615   */\n      dup3\n        /* \"#utility.yul\":4602:4620   */\n      add\n        /* \"#utility.yul\":4594:4620   */\n      swap1\n      pop\n        /* \"#utility.yul\":4666:4675   */\n      dup2\n        /* \"#utility.yul\":4660:4664   */\n      dup2\n        /* \"#utility.yul\":4656:4676   */\n      sub\n        /* \"#utility.yul\":4652:4653   */\n      0x00\n        /* \"#utility.yul\":4641:4650   */\n      dup4\n        /* \"#utility.yul\":4637:4654   */\n      add\n        /* \"#utility.yul\":4630:4677   */\n      mstore\n        /* \"#utility.yul\":4694:4772   */\n      tag_110\n        /* \"#utility.yul\":4767:4771   */\n      dup2\n        /* \"#utility.yul\":4758:4764   */\n      dup6\n        /* \"#utility.yul\":4694:4772   */\n      tag_78\n      jump\t// in\n    tag_110:\n        /* \"#utility.yul\":4686:4772   */\n      swap1\n      pop\n        /* \"#utility.yul\":4782:4854   */\n      tag_111\n        /* \"#utility.yul\":4850:4852   */\n      0x20\n        /* \"#utility.yul\":4839:4848   */\n      dup4\n        /* \"#utility.yul\":4835:4853   */\n      add\n        /* \"#utility.yul\":4826:4832   */\n      dup5\n        /* \"#utility.yul\":4782:4854   */\n      tag_94\n      jump\t// in\n    tag_111:\n        /* \"#utility.yul\":4584:4861   */\n      swap4\n      swap3\n      pop\n      pop\n      pop\n      jump\t// out\n        /* \"#utility.yul\":4867:5511   */\n    tag_21:\n        /* \"#utility.yul\":5064:5068   */\n      0x00\n        /* \"#utility.yul\":5102:5105   */\n      0x80\n        /* \"#utility.yul\":5091:5100   */\n      dup3\n        /* \"#utility.yul\":5087:5106   */\n      add\n        /* \"#utility.yul\":5079:5106   */\n      swap1\n      pop\n        /* \"#utility.yul\":5152:5161   */\n      dup2\n        /* \"#utility.yul\":5146:5150   */\n      dup2\n        /* \"#utility.yul\":5142:5162   */\n      sub\n        /* \"#utility.yul\":5138:5139   */\n      0x00\n        /* \"#utility.yul\":5127:5136   */\n      dup4\n        /* \"#utility.yul\":5123:5140   */\n      add\n        /* \"#utility.yul\":5116:5163   */\n      mstore\n        /* \"#utility.yul\":5180:5258   */\n      tag_113\n        /* \"#utility.yul\":5253:5257   */\n      dup2\n        /* \"#utility.yul\":5244:5250   */\n      dup8\n        /* \"#utility.yul\":5180:5258   */\n      tag_78\n      jump\t// in\n    tag_113:\n        /* \"#utility.yul\":5172:5258   */\n      swap1\n      pop\n        /* \"#utility.yul\":5268:5340   */\n      tag_114\n        /* \"#utility.yul\":5336:5338   */\n      0x20\n        /* \"#utility.yul\":5325:5334   */\n      dup4\n        /* \"#utility.yul\":5321:5339   */\n      add\n        /* \"#utility.yul\":5312:5318   */\n      dup7\n        /* \"#utility.yul\":5268:5340   */\n      tag_94\n      jump\t// in\n    tag_114:\n        /* \"#utility.yul\":5350:5422   */\n      tag_115\n        /* \"#utility.yul\":5418:5420   */\n      0x40\n        /* \"#utility.yul\":5407:5416   */\n      dup4\n        /* \"#utility.yul\":5403:5421   */\n      add\n        /* \"#utility.yul\":5394:5400   */\n      dup6\n        /* \"#utility.yul\":5350:5422   */\n      tag_65\n      jump\t// in\n    tag_115:\n        /* \"#utility.yul\":5432:5504   */\n      tag_116\n        /* \"#utility.yul\":5500:5502   */\n      0x60\n        /* \"#utility.yul\":5489:5498   */\n      dup4\n        /* \"#utility.yul\":5485:5503   */\n      add\n        /* \"#utility.yul\":5476:5482   */\n      dup5\n        /* \"#utility.yul\":5432:5504   */\n      tag_74\n      jump\t// in\n    tag_116:\n        /* \"#utility.yul\":5069:5511   */\n      swap6\n      swap5\n      pop\n      pop\n      pop\n      pop\n      pop\n      jump\t// out\n        /* \"#utility.yul\":5517:5646   */\n    tag_34:\n        /* \"#utility.yul\":5551:5557   */\n      0x00\n        /* \"#utility.yul\":5578:5598   */\n      tag_118\n      tag_119\n      jump\t// in\n    tag_118:\n        /* \"#utility.yul\":5568:5598   */\n      swap1\n      pop\n        /* \"#utility.yul\":5607:5640   */\n      tag_120\n        /* \"#utility.yul\":5635:5639   */\n      dup3\n        /* \"#utility.yul\":5627:5633   */\n      dup3\n        /* \"#utility.yul\":5607:5640   */\n      tag_121\n      jump\t// in\n    tag_120:\n        /* \"#utility.yul\":5558:5646   */\n      swap2\n      swap1\n      pop\n      jump\t// out\n        /* \"#utility.yul\":5652:5727   */\n    tag_119:\n        /* \"#utility.yul\":5685:5691   */\n      0x00\n        /* \"#utility.yul\":5718:5720   */\n      0x40\n        /* \"#utility.yul\":5712:5721   */\n      mload\n        /* \"#utility.yul\":5702:5721   */\n      swap1\n      pop\n        /* \"#utility.yul\":5692:5727   */\n      swap1\n      jump\t// out\n        /* \"#utility.yul\":5733:6041   */\n    tag_33:\n        /* \"#utility.yul\":5795:5799   */\n      0x00\n        /* \"#utility.yul\":5885:5903   */\n      0xffffffffffffffff\n        /* \"#utility.yul\":5877:5883   */\n      dup3\n        /* \"#utility.yul\":5874:5904   */\n      gt\n        /* \"#utility.yul\":5871:5873   */\n      iszero\n      tag_124\n      jumpi\n        /* \"#utility.yul\":5907:5925   */\n      tag_125\n      tag_126\n      jump\t// in\n    tag_125:\n        /* \"#utility.yul\":5871:5873   */\n    tag_124:\n        /* \"#utility.yul\":5945:5974   */\n      tag_127\n        /* \"#utility.yul\":5967:5973   */\n      dup3\n        /* \"#utility.yul\":5945:5974   */\n      tag_87\n      jump\t// in\n    tag_127:\n        /* \"#utility.yul\":5937:5974   */\n      swap1\n      pop\n        /* \"#utility.yul\":6029:6033   */\n      0x20\n        /* \"#utility.yul\":6023:6027   */\n      dup2\n        /* \"#utility.yul\":6019:6034   */\n      add\n        /* \"#utility.yul\":6011:6034   */\n      swap1\n      pop\n        /* \"#utility.yul\":5800:6041   */\n      swap2\n      swap1\n      pop\n      jump\t// out\n        /* \"#utility.yul\":6047:6146   */\n    tag_81:\n        /* \"#utility.yul\":6099:6105   */\n      0x00\n        /* \"#utility.yul\":6133:6138   */\n      dup2\n        /* \"#utility.yul\":6127:6139   */\n      mload\n        /* \"#utility.yul\":6117:6139   */\n      swap1\n      pop\n        /* \"#utility.yul\":6106:6146   */\n      swap2\n      swap1\n      pop\n      jump\t// out\n        /* \"#utility.yul\":6152:6321   */\n    tag_83:\n        /* \"#utility.yul\":6236:6247   */\n      0x00\n        /* \"#utility.yul\":6270:6276   */\n      dup3\n        /* \"#utility.yul\":6265:6268   */\n      dup3\n        /* \"#utility.yul\":6258:6277   */\n      mstore\n        /* \"#utility.yul\":6310:6314   */\n      0x20\n        /* \"#utility.yul\":6305:6308   */\n      dup3\n        /* \"#utility.yul\":6301:6315   */\n      add\n        /* \"#utility.yul\":6286:6315   */\n      swap1\n      pop\n        /* \"#utility.yul\":6248:6321   */\n      swap3\n      swap2\n      pop\n      pop\n      jump\t// out\n        /* \"#utility.yul\":6327:6475   */\n    tag_92:\n        /* \"#utility.yul\":6429:6440   */\n      0x00\n        /* \"#utility.yul\":6466:6469   */\n      dup2\n        /* \"#utility.yul\":6451:6469   */\n      swap1\n      pop\n        /* \"#utility.yul\":6441:6475   */\n      swap3\n      swap2\n      pop\n      pop\n      jump\t// out\n        /* \"#utility.yul\":6481:6577   */\n    tag_68:\n        /* \"#utility.yul\":6518:6525   */\n      0x00\n        /* \"#utility.yul\":6547:6571   */\n      tag_132\n        /* \"#utility.yul\":6565:6570   */\n      dup3\n        /* \"#utility.yul\":6547:6571   */\n      tag_133\n      jump\t// in\n    tag_132:\n        /* \"#utility.yul\":6536:6571   */\n      swap1\n      pop\n        /* \"#utility.yul\":6526:6577   */\n      swap2\n      swap1\n      pop\n      jump\t// out\n        /* \"#utility.yul\":6583:6660   */\n    tag_77:\n        /* \"#utility.yul\":6620:6627   */\n      0x00\n        /* \"#utility.yul\":6649:6654   */\n      dup2\n        /* \"#utility.yul\":6638:6654   */\n      swap1\n      pop\n        /* \"#utility.yul\":6628:6660   */\n      swap2\n      swap1\n      pop\n      jump\t// out\n        /* \"#utility.yul\":6666:6792   */\n    tag_133:\n        /* \"#utility.yul\":6703:6710   */\n      0x00\n        /* \"#utility.yul\":6743:6785   */\n      0xffffffffffffffffffffffffffffffffffffffff\n        /* \"#utility.yul\":6736:6741   */\n      dup3\n        /* \"#utility.yul\":6732:6786   */\n      and\n        /* \"#utility.yul\":6721:6786   */\n      swap1\n      pop\n        /* \"#utility.yul\":6711:6792   */\n      swap2\n      swap1\n      pop\n      jump\t// out\n        /* \"#utility.yul\":6798:6875   */\n    tag_97:\n        /* \"#utility.yul\":6835:6842   */\n      0x00\n        /* \"#utility.yul\":6864:6869   */\n      dup2\n        /* \"#utility.yul\":6853:6869   */\n      swap1\n      pop\n        /* \"#utility.yul\":6843:6875   */\n      swap2\n      swap1\n      pop\n      jump\t// out\n        /* \"#utility.yul\":6881:7035   */\n    tag_39:\n        /* \"#utility.yul\":6965:6971   */\n      dup3\n        /* \"#utility.yul\":6960:6963   */\n      dup2\n        /* \"#utility.yul\":6955:6958   */\n      dup4\n        /* \"#utility.yul\":6942:6972   */\n      calldatacopy\n        /* \"#utility.yul\":7027:7028   */\n      0x00\n        /* \"#utility.yul\":7018:7024   */\n      dup4\n        /* \"#utility.yul\":7013:7016   */\n      dup4\n        /* \"#utility.yul\":7009:7025   */\n      add\n        /* \"#utility.yul\":7002:7029   */\n      mstore\n        /* \"#utility.yul\":6932:7035   */\n      pop\n      pop\n      pop\n      jump\t// out\n        /* \"#utility.yul\":7041:7348   */\n    tag_85:\n        /* \"#utility.yul\":7109:7110   */\n      0x00\n        /* \"#utility.yul\":7119:7232   */\n    tag_139:\n        /* \"#utility.yul\":7133:7139   */\n      dup4\n        /* \"#utility.yul\":7130:7131   */\n      dup2\n        /* \"#utility.yul\":7127:7140   */\n      lt\n        /* \"#utility.yul\":7119:7232   */\n      iszero\n      tag_141\n      jumpi\n        /* \"#utility.yul\":7218:7219   */\n      dup1\n        /* \"#utility.yul\":7213:7216   */\n      dup3\n        /* \"#utility.yul\":7209:7220   */\n      add\n        /* \"#utility.yul\":7203:7221   */\n      mload\n        /* \"#utility.yul\":7199:7200   */\n      dup2\n        /* \"#utility.yul\":7194:7197   */\n      dup5\n        /* \"#utility.yul\":7190:7201   */\n      add\n        /* \"#utility.yul\":7183:7222   */\n      mstore\n        /* \"#utility.yul\":7155:7157   */\n      0x20\n        /* \"#utility.yul\":7152:7153   */\n      dup2\n        /* \"#utility.yul\":7148:7158   */\n      add\n        /* \"#utility.yul\":7143:7158   */\n      swap1\n      pop\n        /* \"#utility.yul\":7119:7232   */\n      jump(tag_139)\n    tag_141:\n        /* \"#utility.yul\":7250:7256   */\n      dup4\n        /* \"#utility.yul\":7247:7248   */\n      dup2\n        /* \"#utility.yul\":7244:7257   */\n      gt\n        /* \"#utility.yul\":7241:7243   */\n      iszero\n      tag_142\n      jumpi\n        /* \"#utility.yul\":7330:7331   */\n      0x00\n        /* \"#utility.yul\":7321:7327   */\n      dup5\n        /* \"#utility.yul\":7316:7319   */\n      dup5\n        /* \"#utility.yul\":7312:7328   */\n      add\n        /* \"#utility.yul\":7305:7332   */\n      mstore\n        /* \"#utility.yul\":7241:7243   */\n    tag_142:\n        /* \"#utility.yul\":7090:7348   */\n      pop\n      pop\n      pop\n      pop\n      jump\t// out\n        /* \"#utility.yul\":7354:7635   */\n    tag_121:\n        /* \"#utility.yul\":7437:7464   */\n      tag_144\n        /* \"#utility.yul\":7459:7463   */\n      dup3\n        /* \"#utility.yul\":7437:7464   */\n      tag_87\n      jump\t// in\n    tag_144:\n        /* \"#utility.yul\":7429:7435   */\n      dup2\n        /* \"#utility.yul\":7425:7465   */\n      add\n        /* \"#utility.yul\":7567:7573   */\n      dup2\n        /* \"#utility.yul\":7555:7565   */\n      dup2\n        /* \"#utility.yul\":7552:7574   */\n      lt\n        /* \"#utility.yul\":7531:7549   */\n      0xffffffffffffffff\n        /* \"#utility.yul\":7519:7529   */\n      dup3\n        /* \"#utility.yul\":7516:7550   */\n      gt\n        /* \"#utility.yul\":7513:7575   */\n      or\n        /* \"#utility.yul\":7510:7512   */\n      iszero\n      tag_145\n      jumpi\n        /* \"#utility.yul\":7578:7596   */\n      tag_146\n      tag_126\n      jump\t// in\n    tag_146:\n        /* \"#utility.yul\":7510:7512   */\n    tag_145:\n        /* \"#utility.yul\":7618:7628   */\n      dup1\n        /* \"#utility.yul\":7614:7616   */\n      0x40\n        /* \"#utility.yul\":7607:7629   */\n      mstore\n        /* \"#utility.yul\":7397:7635   */\n      pop\n      pop\n      pop\n      jump\t// out\n        /* \"#utility.yul\":7641:7741   */\n    tag_73:\n        /* \"#utility.yul\":7680:7687   */\n      0x00\n        /* \"#utility.yul\":7709:7735   */\n      tag_148\n        /* \"#utility.yul\":7729:7734   */\n      dup3\n        /* \"#utility.yul\":7709:7735   */\n      tag_149\n      jump\t// in\n    tag_148:\n        /* \"#utility.yul\":7698:7735   */\n      swap1\n      pop\n        /* \"#utility.yul\":7688:7741   */\n      swap2\n      swap1\n      pop\n      jump\t// out\n        /* \"#utility.yul\":7747:7841   */\n    tag_149:\n        /* \"#utility.yul\":7786:7793   */\n      0x00\n        /* \"#utility.yul\":7815:7835   */\n      tag_151\n        /* \"#utility.yul\":7829:7834   */\n      dup3\n        /* \"#utility.yul\":7815:7835   */\n      tag_152\n      jump\t// in\n    tag_151:\n        /* \"#utility.yul\":7804:7835   */\n      swap1\n      pop\n        /* \"#utility.yul\":7794:7841   */\n      swap2\n      swap1\n      pop\n      jump\t// out\n        /* \"#utility.yul\":7847:7926   */\n    tag_102:\n        /* \"#utility.yul\":7886:7893   */\n      0x00\n        /* \"#utility.yul\":7915:7920   */\n      dup2\n        /* \"#utility.yul\":7904:7920   */\n      swap1\n      pop\n        /* \"#utility.yul\":7894:7926   */\n      swap2\n      swap1\n      pop\n      jump\t// out\n        /* \"#utility.yul\":7932:8112   */\n    tag_126:\n        /* \"#utility.yul\":7980:8057   */\n      0x4e487b7100000000000000000000000000000000000000000000000000000000\n        /* \"#utility.yul\":7977:7978   */\n      0x00\n        /* \"#utility.yul\":7970:8058   */\n      mstore\n        /* \"#utility.yul\":8077:8081   */\n      0x41\n        /* \"#utility.yul\":8074:8075   */\n      0x04\n        /* \"#utility.yul\":8067:8082   */\n      mstore\n        /* \"#utility.yul\":8101:8105   */\n      0x24\n        /* \"#utility.yul\":8098:8099   */\n      0x00\n        /* \"#utility.yul\":8091:8106   */\n      revert\n        /* \"#utility.yul\":8118:8235   */\n    tag_44:\n        /* \"#utility.yul\":8227:8228   */\n      0x00\n        /* \"#utility.yul\":8224:8225   */\n      dup1\n        /* \"#utility.yul\":8217:8229   */\n      revert\n        /* \"#utility.yul\":8241:8358   */\n    tag_37:\n        /* \"#utility.yul\":8350:8351   */\n      0x00\n        /* \"#utility.yul\":8347:8348   */\n      dup1\n        /* \"#utility.yul\":8340:8352   */\n      revert\n        /* \"#utility.yul\":8364:8481   */\n    tag_56:\n        /* \"#utility.yul\":8473:8474   */\n      0x00\n        /* \"#utility.yul\":8470:8471   */\n      dup1\n        /* \"#utility.yul\":8463:8475   */\n      revert\n        /* \"#utility.yul\":8487:8604   */\n    tag_53:\n        /* \"#utility.yul\":8596:8597   */\n      0x00\n        /* \"#utility.yul\":8593:8594   */\n      dup1\n        /* \"#utility.yul\":8586:8598   */\n      revert\n        /* \"#utility.yul\":8610:8712   */\n    tag_87:\n        /* \"#utility.yul\":8651:8657   */\n      0x00\n        /* \"#utility.yul\":8702:8704   */\n      0x1f\n        /* \"#utility.yul\":8698:8705   */\n      not\n        /* \"#utility.yul\":8693:8695   */\n      0x1f\n        /* \"#utility.yul\":8686:8691   */\n      dup4\n        /* \"#utility.yul\":8682:8696   */\n      add\n        /* \"#utility.yul\":8678:8706   */\n      and\n        /* \"#utility.yul\":8668:8706   */\n      swap1\n      pop\n        /* \"#utility.yul\":8658:8712   */\n      swap2\n      swap1\n      pop\n      jump\t// out\n        /* \"#utility.yul\":8718:8812   */\n    tag_152:\n        /* \"#utility.yul\":8751:8759   */\n      0x00\n        /* \"#utility.yul\":8799:8804   */\n      dup2\n        /* \"#utility.yul\":8795:8797   */\n      0x60\n        /* \"#utility.yul\":8791:8805   */\n      shl\n        /* \"#utility.yul\":8770:8805   */\n      swap1\n      pop\n        /* \"#utility.yul\":8760:8812   */\n      swap2\n      swap1\n      pop\n      jump\t// out\n        /* \"#utility.yul\":8818:8940   */\n    tag_49:\n        /* \"#utility.yul\":8891:8915   */\n      tag_162\n        /* \"#utility.yul\":8909:8914   */\n      dup2\n        /* \"#utility.yul\":8891:8915   */\n      tag_97\n      jump\t// in\n    tag_162:\n        /* \"#utility.yul\":8884:8889   */\n      dup2\n        /* \"#utility.yul\":8881:8916   */\n      eq\n        /* \"#utility.yul\":8871:8873   */\n      tag_163\n      jumpi\n        /* \"#utility.yul\":8930:8931   */\n      0x00\n        /* \"#utility.yul\":8927:8928   */\n      dup1\n        /* \"#utility.yul\":8920:8932   */\n      revert\n        /* \"#utility.yul\":8871:8873   */\n    tag_163:\n        /* \"#utility.yul\":8861:8940   */\n      pop\n      jump\t// out\n\n    auxdata: 0xa2646970667358221220f7165e979d39b87418d884d8a162d1670f452de693eecdf2509496b84400b7d864736f6c63430008060033\n}\n",
				"bytecode": {
					"linkReferences": {},
					"object": "608060405234801561001057600080fd5b5061065a806100206000396000f3fe608060405234801561001057600080fd5b50600436106100415760003560e01c80636480f5c2146100465780637cf1103d146100625780637f4f0f351461007e575b600080fd5b610060600480360381019061005b9190610250565b61009a565b005b61007c60048036038101906100779190610207565b61010b565b005b61009860048036038101906100939190610250565b610145565b005b60008282336040516020016100b193929190610371565b6040516020818303038152906040528051906020012090507f346531129c2fec3012d8c533fc369fd64078ad2ecf1c54fd5998131bb00472aa838333846040516100fe94939291906103fc565b60405180910390a1505050565b7fbb9feca183dbd63d27399e01607802b8663d1c6d1b7a331ed919063ea22675a28160405161013a91906103aa565b60405180910390a150565b7f2abcdd8402d13cddfdae95d2581c51409054966b88de81287628c3e06235d8b082826040516101769291906103cc565b60405180910390a15050565b60006101956101908461046d565b610448565b9050828152602081018484840111156101b1576101b06105e0565b5b6101bc84828561050b565b509392505050565b600082601f8301126101d9576101d86105db565b5b81356101e9848260208601610182565b91505092915050565b6000813590506102018161060d565b92915050565b60006020828403121561021d5761021c6105ea565b5b600082013567ffffffffffffffff81111561023b5761023a6105e5565b5b610247848285016101c4565b91505092915050565b60008060408385031215610267576102666105ea565b5b600083013567ffffffffffffffff811115610285576102846105e5565b5b610291858286016101c4565b92505060206102a2858286016101f2565b9150509250929050565b6102b5816104c5565b82525050565b6102cc6102c7826104c5565b61057e565b82525050565b6102db816104d7565b82525050565b60006102ec8261049e565b6102f681856104a9565b935061030681856020860161051a565b61030f816105ef565b840191505092915050565b60006103258261049e565b61032f81856104ba565b935061033f81856020860161051a565b80840191505092915050565b61035481610501565b82525050565b61036b61036682610501565b6105a2565b82525050565b600061037d828661031a565b9150610389828561035a565b60208201915061039982846102bb565b601482019150819050949350505050565b600060208201905081810360008301526103c481846102e1565b905092915050565b600060408201905081810360008301526103e681856102e1565b90506103f5602083018461034b565b9392505050565b6000608082019050818103600083015261041681876102e1565b9050610425602083018661034b565b61043260408301856102ac565b61043f60608301846102d2565b95945050505050565b6000610452610463565b905061045e828261054d565b919050565b6000604051905090565b600067ffffffffffffffff821115610488576104876105ac565b5b610491826105ef565b9050602081019050919050565b600081519050919050565b600082825260208201905092915050565b600081905092915050565b60006104d0826104e1565b9050919050565b6000819050919050565b600073ffffffffffffffffffffffffffffffffffffffff82169050919050565b6000819050919050565b82818337600083830152505050565b60005b8381101561053857808201518184015260208101905061051d565b83811115610547576000848401525b50505050565b610556826105ef565b810181811067ffffffffffffffff82111715610575576105746105ac565b5b80604052505050565b600061058982610590565b9050919050565b600061059b82610600565b9050919050565b6000819050919050565b7f4e487b7100000000000000000000000000000000000000000000000000000000600052604160045260246000fd5b600080fd5b600080fd5b600080fd5b600080fd5b6000601f19601f8301169050919050565b60008160601b9050919050565b61061681610501565b811461062157600080fd5b5056fea2646970667358221220f7165e979d39b87418d884d8a162d1670f452de693eecdf2509496b84400b7d864736f6c63430008060033",
					"opcodes": "PUSH1 0x80 PUSH1 0x40 MSTORE CALLVALUE DUP1 ISZERO PUSH2 0x10 JUMPI PUSH1 0x0 DUP1 REVERT JUMPDEST POP PUSH2 0x65A DUP1 PUSH2 0x20 PUSH1 0x0 CODECOPY PUSH1 0x0 RETURN INVALID PUSH1 0x80 PUSH1 0x40 MSTORE CALLVALUE DUP1 ISZERO PUSH2 0x10 JUMPI PUSH1 0x0 DUP1 REVERT JUMPDEST POP PUSH1 0x4 CALLDATASIZE LT PUSH2 0x41 JUMPI PUSH1 0x0 CALLDATALOAD PUSH1 0xE0 SHR DUP1 PUSH4 0x6480F5C2 EQ PUSH2 0x46 JUMPI DUP1 PUSH4 0x7CF1103D EQ PUSH2 0x62 JUMPI DUP1 PUSH4 0x7F4F0F35 EQ PUSH2 0x7E JUMPI JUMPDEST PUSH1 0x0 DUP1 REVERT JUMPDEST PUSH2 0x60 PUSH1 0x4 DUP1 CALLDATASIZE SUB DUP2 ADD SWAP1 PUSH2 0x5B SWAP2 SWAP1 PUSH2 0x250 JUMP JUMPDEST PUSH2 0x9A JUMP JUMPDEST STOP JUMPDEST PUSH2 0x7C PUSH1 0x4 DUP1 CALLDATASIZE SUB DUP2 ADD SWAP1 PUSH2 0x77 SWAP2 SWAP1 PUSH2 0x207 JUMP JUMPDEST PUSH2 0x10B JUMP JUMPDEST STOP JUMPDEST PUSH2 0x98 PUSH1 0x4 DUP1 CALLDATASIZE SUB DUP2 ADD SWAP1 PUSH2 0x93 SWAP2 SWAP1 PUSH2 0x250 JUMP JUMPDEST PUSH2 0x145 JUMP JUMPDEST STOP JUMPDEST PUSH1 0x0 DUP3 DUP3 CALLER PUSH1 0x40 MLOAD PUSH1 0x20 ADD PUSH2 0xB1 SWAP4 SWAP3 SWAP2 SWAP1 PUSH2 0x371 JUMP JUMPDEST PUSH1 0x40 MLOAD PUSH1 0x20 DUP2 DUP4 SUB SUB DUP2 MSTORE SWAP1 PUSH1 0x40 MSTORE DUP1 MLOAD SWAP1 PUSH1 0x20 ADD KECCAK256 SWAP1 POP PUSH32 0x346531129C2FEC3012D8C533FC369FD64078AD2ECF1C54FD5998131BB00472AA DUP4 DUP4 CALLER DUP5 PUSH1 0x40 MLOAD PUSH2 0xFE SWAP5 SWAP4 SWAP3 SWAP2 SWAP1 PUSH2 0x3FC JUMP JUMPDEST PUSH1 0x40 MLOAD DUP1 SWAP2 SUB SWAP1 LOG1 POP POP POP JUMP JUMPDEST PUSH32 0xBB9FECA183DBD63D27399E01607802B8663D1C6D1B7A331ED919063EA22675A2 DUP2 PUSH1 0x40 MLOAD PUSH2 0x13A SWAP2 SWAP1 PUSH2 0x3AA JUMP JUMPDEST PUSH1 0x40 MLOAD DUP1 SWAP2 SUB SWAP1 LOG1 POP JUMP JUMPDEST PUSH32 0x2ABCDD8402D13CDDFDAE95D2581C51409054966B88DE81287628C3E06235D8B0 DUP3 DUP3 PUSH1 0x40 MLOAD PUSH2 0x176 SWAP3 SWAP2 SWAP1 PUSH2 0x3CC JUMP JUMPDEST PUSH1 0x40 MLOAD DUP1 SWAP2 SUB SWAP1 LOG1 POP POP JUMP JUMPDEST PUSH1 0x0 PUSH2 0x195 PUSH2 0x190 DUP5 PUSH2 0x46D JUMP JUMPDEST PUSH2 0x448 JUMP JUMPDEST SWAP1 POP DUP3 DUP2 MSTORE PUSH1 0x20 DUP2 ADD DUP5 DUP5 DUP5 ADD GT ISZERO PUSH2 0x1B1 JUMPI PUSH2 0x1B0 PUSH2 0x5E0 JUMP JUMPDEST JUMPDEST PUSH2 0x1BC DUP5 DUP3 DUP6 PUSH2 0x50B JUMP JUMPDEST POP SWAP4 SWAP3 POP POP POP JUMP JUMPDEST PUSH1 0x0 DUP3 PUSH1 0x1F DUP4 ADD SLT PUSH2 0x1D9 JUMPI PUSH2 0x1D8 PUSH2 0x5DB JUMP JUMPDEST JUMPDEST DUP2 CALLDATALOAD PUSH2 0x1E9 DUP5 DUP3 PUSH1 0x20 DUP7 ADD PUSH2 0x182 JUMP JUMPDEST SWAP2 POP POP SWAP3 SWAP2 POP POP JUMP JUMPDEST PUSH1 0x0 DUP2 CALLDATALOAD SWAP1 POP PUSH2 0x201 DUP2 PUSH2 0x60D JUMP JUMPDEST SWAP3 SWAP2 POP POP JUMP JUMPDEST PUSH1 0x0 PUSH1 0x20 DUP3 DUP5 SUB SLT ISZERO PUSH2 0x21D JUMPI PUSH2 0x21C PUSH2 0x5EA JUMP JUMPDEST JUMPDEST PUSH1 0x0 DUP3 ADD CALLDATALOAD PUSH8 0xFFFFFFFFFFFFFFFF DUP2 GT ISZERO PUSH2 0x23B JUMPI PUSH2 0x23A PUSH2 0x5E5 JUMP JUMPDEST JUMPDEST PUSH2 0x247 DUP5 DUP3 DUP6 ADD PUSH2 0x1C4 JUMP JUMPDEST SWAP2 POP POP SWAP3 SWAP2 POP POP JUMP JUMPDEST PUSH1 0x0 DUP1 PUSH1 0x40 DUP4 DUP6 SUB SLT ISZERO PUSH2 0x267 JUMPI PUSH2 0x266 PUSH2 0x5EA JUMP JUMPDEST JUMPDEST PUSH1 0x0 DUP4 ADD CALLDATALOAD PUSH8 0xFFFFFFFFFFFFFFFF DUP2 GT ISZERO PUSH2 0x285 JUMPI PUSH2 0x284 PUSH2 0x5E5 JUMP JUMPDEST JUMPDEST PUSH2 0x291 DUP6 DUP3 DUP7 ADD PUSH2 0x1C4 JUMP JUMPDEST SWAP3 POP POP PUSH1 0x20 PUSH2 0x2A2 DUP6 DUP3 DUP7 ADD PUSH2 0x1F2 JUMP JUMPDEST SWAP2 POP POP SWAP3 POP SWAP3 SWAP1 POP JUMP JUMPDEST PUSH2 0x2B5 DUP2 PUSH2 0x4C5 JUMP JUMPDEST DUP3 MSTORE POP POP JUMP JUMPDEST PUSH2 0x2CC PUSH2 0x2C7 DUP3 PUSH2 0x4C5 JUMP JUMPDEST PUSH2 0x57E JUMP JUMPDEST DUP3 MSTORE POP POP JUMP JUMPDEST PUSH2 0x2DB DUP2 PUSH2 0x4D7 JUMP JUMPDEST DUP3 MSTORE POP POP JUMP JUMPDEST PUSH1 0x0 PUSH2 0x2EC DUP3 PUSH2 0x49E JUMP JUMPDEST PUSH2 0x2F6 DUP2 DUP6 PUSH2 0x4A9 JUMP JUMPDEST SWAP4 POP PUSH2 0x306 DUP2 DUP6 PUSH1 0x20 DUP7 ADD PUSH2 0x51A JUMP JUMPDEST PUSH2 0x30F DUP2 PUSH2 0x5EF JUMP JUMPDEST DUP5 ADD SWAP2 POP POP SWAP3 SWAP2 POP POP JUMP JUMPDEST PUSH1 0x0 PUSH2 0x325 DUP3 PUSH2 0x49E JUMP JUMPDEST PUSH2 0x32F DUP2 DUP6 PUSH2 0x4BA JUMP JUMPDEST SWAP4 POP PUSH2 0x33F DUP2 DUP6 PUSH1 0x20 DUP7 ADD PUSH2 0x51A JUMP JUMPDEST DUP1 DUP5 ADD SWAP2 POP POP SWAP3 SWAP2 POP POP JUMP JUMPDEST PUSH2 0x354 DUP2 PUSH2 0x501 JUMP JUMPDEST DUP3 MSTORE POP POP JUMP JUMPDEST PUSH2 0x36B PUSH2 0x366 DUP3 PUSH2 0x501 JUMP JUMPDEST PUSH2 0x5A2 JUMP JUMPDEST DUP3 MSTORE POP POP JUMP JUMPDEST PUSH1 0x0 PUSH2 0x37D DUP3 DUP7 PUSH2 0x31A JUMP JUMPDEST SWAP2 POP PUSH2 0x389 DUP3 DUP6 PUSH2 0x35A JUMP JUMPDEST PUSH1 0x20 DUP3 ADD SWAP2 POP PUSH2 0x399 DUP3 DUP5 PUSH2 0x2BB JUMP JUMPDEST PUSH1 0x14 DUP3 ADD SWAP2 POP DUP2 SWAP1 POP SWAP5 SWAP4 POP POP POP POP JUMP JUMPDEST PUSH1 0x0 PUSH1 0x20 DUP3 ADD SWAP1 POP DUP2 DUP2 SUB PUSH1 0x0 DUP4 ADD MSTORE PUSH2 0x3C4 DUP2 DUP5 PUSH2 0x2E1 JUMP JUMPDEST SWAP1 POP SWAP3 SWAP2 POP POP JUMP JUMPDEST PUSH1 0x0 PUSH1 0x40 DUP3 ADD SWAP1 POP DUP2 DUP2 SUB PUSH1 0x0 DUP4 ADD MSTORE PUSH2 0x3E6 DUP2 DUP6 PUSH2 0x2E1 JUMP JUMPDEST SWAP1 POP PUSH2 0x3F5 PUSH1 0x20 DUP4 ADD DUP5 PUSH2 0x34B JUMP JUMPDEST SWAP4 SWAP3 POP POP POP JUMP JUMPDEST PUSH1 0x0 PUSH1 0x80 DUP3 ADD SWAP1 POP DUP2 DUP2 SUB PUSH1 0x0 DUP4 ADD MSTORE PUSH2 0x416 DUP2 DUP8 PUSH2 0x2E1 JUMP JUMPDEST SWAP1 POP PUSH2 0x425 PUSH1 0x20 DUP4 ADD DUP7 PUSH2 0x34B JUMP JUMPDEST PUSH2 0x432 PUSH1 0x40 DUP4 ADD DUP6 PUSH2 0x2AC JUMP JUMPDEST PUSH2 0x43F PUSH1 0x60 DUP4 ADD DUP5 PUSH2 0x2D2 JUMP JUMPDEST SWAP6 SWAP5 POP POP POP POP POP JUMP JUMPDEST PUSH1 0x0 PUSH2 0x452 PUSH2 0x463 JUMP JUMPDEST SWAP1 POP PUSH2 0x45E DUP3 DUP3 PUSH2 0x54D JUMP JUMPDEST SWAP2 SWAP1 POP JUMP JUMPDEST PUSH1 0x0 PUSH1 0x40 MLOAD SWAP1 POP SWAP1 JUMP JUMPDEST PUSH1 0x0 PUSH8 0xFFFFFFFFFFFFFFFF DUP3 GT ISZERO PUSH2 0x488 JUMPI PUSH2 0x487 PUSH2 0x5AC JUMP JUMPDEST JUMPDEST PUSH2 0x491 DUP3 PUSH2 0x5EF JUMP JUMPDEST SWAP1 POP PUSH1 0x20 DUP2 ADD SWAP1 POP SWAP2 SWAP1 POP JUMP JUMPDEST PUSH1 0x0 DUP2 MLOAD SWAP1 POP SWAP2 SWAP1 POP JUMP JUMPDEST PUSH1 0x0 DUP3 DUP3 MSTORE PUSH1 0x20 DUP3 ADD SWAP1 POP SWAP3 SWAP2 POP POP JUMP JUMPDEST PUSH1 0x0 DUP2 SWAP1 POP SWAP3 SWAP2 POP POP JUMP JUMPDEST PUSH1 0x0 PUSH2 0x4D0 DUP3 PUSH2 0x4E1 JUMP JUMPDEST SWAP1 POP SWAP2 SWAP1 POP JUMP JUMPDEST PUSH1 0x0 DUP2 SWAP1 POP SWAP2 SWAP1 POP JUMP JUMPDEST PUSH1 0x0 PUSH20 0xFFFFFFFFFFFFFFFFFFFFFFFFFFFFFFFFFFFFFFFF DUP3 AND SWAP1 POP SWAP2 SWAP1 POP JUMP JUMPDEST PUSH1 0x0 DUP2 SWAP1 POP SWAP2 SWAP1 POP JUMP JUMPDEST DUP3 DUP2 DUP4 CALLDATACOPY PUSH1 0x0 DUP4 DUP4 ADD MSTORE POP POP POP JUMP JUMPDEST PUSH1 0x0 JUMPDEST DUP4 DUP2 LT ISZERO PUSH2 0x538 JUMPI DUP1 DUP3 ADD MLOAD DUP2 DUP5 ADD MSTORE PUSH1 0x20 DUP2 ADD SWAP1 POP PUSH2 0x51D JUMP JUMPDEST DUP4 DUP2 GT ISZERO PUSH2 0x547 JUMPI PUSH1 0x0 DUP5 DUP5 ADD MSTORE JUMPDEST POP POP POP POP JUMP JUMPDEST PUSH2 0x556 DUP3 PUSH2 0x5EF JUMP JUMPDEST DUP2 ADD DUP2 DUP2 LT PUSH8 0xFFFFFFFFFFFFFFFF DUP3 GT OR ISZERO PUSH2 0x575 JUMPI PUSH2 0x574 PUSH2 0x5AC JUMP JUMPDEST JUMPDEST DUP1 PUSH1 0x40 MSTORE POP POP POP JUMP JUMPDEST PUSH1 0x0 PUSH2 0x589 DUP3 PUSH2 0x590 JUMP JUMPDEST SWAP1 POP SWAP2 SWAP1 POP JUMP JUMPDEST PUSH1 0x0 PUSH2 0x59B DUP3 PUSH2 0x600 JUMP JUMPDEST SWAP1 POP SWAP2 SWAP1 POP JUMP JUMPDEST PUSH1 0x0 DUP2 SWAP1 POP SWAP2 SWAP1 POP JUMP JUMPDEST PUSH32 0x4E487B7100000000000000000000000000000000000000000000000000000000 PUSH1 0x0 MSTORE PUSH1 0x41 PUSH1 0x4 MSTORE PUSH1 0x24 PUSH1 0x0 REVERT JUMPDEST PUSH1 0x0 DUP1 REVERT JUMPDEST PUSH1 0x0 DUP1 REVERT JUMPDEST PUSH1 0x0 DUP1 REVERT JUMPDEST PUSH1 0x0 DUP1 REVERT JUMPDEST PUSH1 0x0 PUSH1 0x1F NOT PUSH1 0x1F DUP4 ADD AND SWAP1 POP SWAP2 SWAP1 POP JUMP JUMPDEST PUSH1 0x0 DUP2 PUSH1 0x60 SHL SWAP1 POP SWAP2 SWAP1 POP JUMP JUMPDEST PUSH2 0x616 DUP2 PUSH2 0x501 JUMP JUMPDEST DUP2 EQ PUSH2 0x621 JUMPI PUSH1 0x0 DUP1 REVERT JUMPDEST POP JUMP INVALID LOG2 PUSH5 0x6970667358 0x22 SLT KECCAK256 0xF7 AND 0x5E SWAP8 SWAP14 CODECOPY 0xB8 PUSH21 0x18D884D8A162D1670F452DE693EECDF2509496B844 STOP 0xB7 0xD8 PUSH5 0x736F6C6343 STOP ADDMOD MOD STOP CALLER "
				},
				"gasEstimates": {
					"creation": {
						"codeDepositCost": "325200",
						"executionCost": "362",
						"totalCost": "325562"
					},
					"external": {
						"emitirEvento1(string)": "infinite",
						"emitirEvento2(string,uint256)": "infinite",
						"emitirEvento3(string,uint256)": "infinite"
					}
				},
				"methodIdentifiers": {
					"emitirEvento1(string)": "7cf1103d",
					"emitirEvento2(string,uint256)": "7f4f0f35",
					"emitirEvento3(string,uint256)": "6480f5c2"
				}
			},
			"storageLayout": {
				"storage": [],
				"types": null
			},
			"userdoc": {
				"kind": "user",
				"methods": {},
				"version": 1
			}
		}
	}
}