{
	"Funciones/eventos.sol": {
		"Eventos": {
			"abi": [
				{
					"anonymous": false,
					"inputs": [
						{
							"indexed": false,
							"internalType": "string",
							"name": "_nombrePersona",
							"type": "string"
						}
					],
					"name": "evento1",
					"type": "event"
				},
				{
					"anonymous": false,
					"inputs": [
						{
							"indexed": false,
							"internalType": "string",
							"name": "_nombrePersona",
							"type": "string"
						},
						{
							"indexed": false,
							"internalType": "uint256",
							"name": "_edadPersona",
							"type": "uint256"
						}
					],
					"name": "evento2",
					"type": "event"
				},
				{
					"anonymous": false,
					"inputs": [
						{
							"indexed": false,
							"internalType": "string",
							"name": "",
							"type": "string"
						},
						{
							"indexed": false,
							"internalType": "uint256",
							"name": "",
							"type": "uint256"
						},
						{
							"indexed": false,
							"internalType": "address",
							"name": "",
							"type": "address"
						},
						{
							"indexed": false,
							"internalType": "bytes32",
							"name": "",
							"type": "bytes32"
						}
					],
					"name": "evento3",
					"type": "event"
				},
				{
					"inputs": [
						{
							"internalType": "string",
							"name": "_nombrePersona",
							"type": "string"
						}
					],
					"name": "emitirEvento1",
					"outputs": [],
					"stateMutability": "nonpayable",
					"type": "function"
				},
				{
					"inputs": [
						{
							"internalType": "string",
							"name": "_nombrePersona",
							"type": "string"
						},
						{
							"internalType": "uint256",
							"name": "_edadPersona",
							"type": "uint256"
						}
					],
					"name": "emitirEvento2",
					"outputs": [],
					"stateMutability": "nonpayable",
					"type": "function"
				},
				{
					"inputs": [
						{
							"internalType": "string",
							"name": "_nombrePersona",
							"type": "string"
						},
						{
							"internalType": "uint256",
							"name": "_edadPersona",
							"type": "uint256"
						},
						{
							"internalType": "address",
							"name": "_direccion",
							"type": "address"
						}
					],
					"name": "emitirEvento3",
					"outputs": [],
					"stateMutability": "nonpayable",
					"type": "function"
				}
			],
			"devdoc": {
				"kind": "dev",
				"methods": {},
				"version": 1
			},
			"evm": {
				"assembly": "    /* \"Funciones/eventos.sol\":33:672  contract Eventos {... */\n  mstore(0x40, 0x80)\n  callvalue\n  dup1\n  iszero\n  tag_1\n  jumpi\n  0x00\n  dup1\n  revert\ntag_1:\n  pop\n  dataSize(sub_0)\n  dup1\n  dataOffset(sub_0)\n  0x00\n  codecopy\n  0x00\n  return\nstop\n\nsub_0: assembly {\n        /* \"Funciones/eventos.sol\":33:672  contract Eventos {... */\n      mstore(0x40, 0x80)\n      callvalue\n      dup1\n      iszero\n      tag_1\n      jumpi\n      0x00\n      dup1\n      revert\n    tag_1:\n      pop\n      jumpi(tag_2, lt(calldatasize, 0x04))\n      shr(0xe0, calldataload(0x00))\n      dup1\n      0x492e27d9\n      eq\n      tag_3\n      jumpi\n      dup1\n      0x7cf1103d\n      eq\n      tag_4\n      jumpi\n      dup1\n      0x7f4f0f35\n      eq\n      tag_5\n      jumpi\n    tag_2:\n      0x00\n      dup1\n      revert\n        /* \"Funciones/eventos.sol\":511:669  function emitirEvento3(string memory _nombrePersona, uint _edadPersona, address _direccion) public {... */\n    tag_3:\n      tag_6\n      0x04\n      dup1\n      calldatasize\n      sub\n      dup2\n      add\n      swap1\n      tag_7\n      swap2\n      swap1\n      tag_8\n      jump\t// in\n    tag_7:\n      tag_9\n      jump\t// in\n    tag_6:\n      stop\n        /* \"Funciones/eventos.sol\":256:361  function emitirEvento1(string memory _nombrePersona) public {... */\n    tag_4:\n      tag_10\n      0x04\n      dup1\n      calldatasize\n      sub\n      dup2\n      add\n      swap1\n      tag_11\n      swap2\n      swap1\n      tag_12\n      jump\t// in\n    tag_11:\n      tag_13\n      jump\t// in\n    tag_10:\n      stop\n        /* \"Funciones/eventos.sol\":367:505  function emitirEvento2(string memory _nombrePersona, uint _edadPersona) public {... */\n    tag_5:\n      tag_14\n      0x04\n      dup1\n      calldatasize\n      sub\n      dup2\n      add\n      swap1\n      tag_15\n      swap2\n      swap1\n      tag_16\n      jump\t// in\n    tag_15:\n      tag_17\n      jump\t// in\n    tag_14:\n      stop\n        /* \"Funciones/eventos.sol\":511:669  function emitirEvento3(string memory _nombrePersona, uint _edadPersona, address _direccion) public {... */\n    tag_9:\n        /* \"Funciones/eventos.sol\":625:662  evento2(_nombrePersona, _edadPersona) */\n      0x2abcdd8402d13cddfdae95d2581c51409054966b88de81287628c3e06235d8b0\n        /* \"Funciones/eventos.sol\":633:647  _nombrePersona */\n      dup4\n        /* \"Funciones/eventos.sol\":649:661  _edadPersona */\n      dup4\n        /* \"Funciones/eventos.sol\":625:662  evento2(_nombrePersona, _edadPersona) */\n      mload(0x40)\n      tag_19\n      swap3\n      swap2\n      swap1\n      tag_20\n      jump\t// in\n    tag_19:\n      mload(0x40)\n      dup1\n      swap2\n      sub\n      swap1\n      log1\n        /* \"Funciones/eventos.sol\":511:669  function emitirEvento3(string memory _nombrePersona, uint _edadPersona, address _direccion) public {... */\n      pop\n      pop\n      pop\n      jump\t// out\n        /* \"Funciones/eventos.sol\":256:361  function emitirEvento1(string memory _nombrePersona) public {... */\n    tag_13:\n        /* \"Funciones/eventos.sol\":331:354  evento1(_nombrePersona) */\n      0xbb9feca183dbd63d27399e01607802b8663d1c6d1b7a331ed919063ea22675a2\n        /* \"Funciones/eventos.sol\":339:353  _nombrePersona */\n      dup2\n        /* \"Funciones/eventos.sol\":331:354  evento1(_nombrePersona) */\n      mload(0x40)\n      tag_22\n      swap2\n      swap1\n      tag_23\n      jump\t// in\n    tag_22:\n      mload(0x40)\n      dup1\n      swap2\n      sub\n      swap1\n      log1\n        /* \"Funciones/eventos.sol\":256:361  function emitirEvento1(string memory _nombrePersona) public {... */\n      pop\n      jump\t// out\n        /* \"Funciones/eventos.sol\":367:505  function emitirEvento2(string memory _nombrePersona, uint _edadPersona) public {... */\n    tag_17:\n        /* \"Funciones/eventos.sol\":461:498  evento2(_nombrePersona, _edadPersona) */\n      0x2abcdd8402d13cddfdae95d2581c51409054966b88de81287628c3e06235d8b0\n        /* \"Funciones/eventos.sol\":469:483  _nombrePersona */\n      dup3\n        /* \"Funciones/eventos.sol\":485:497  _edadPersona */\n      dup3\n        /* \"Funciones/eventos.sol\":461:498  evento2(_nombrePersona, _edadPersona) */\n      mload(0x40)\n      tag_25\n      swap3\n      swap2\n      swap1\n      tag_20\n      jump\t// in\n    tag_25:\n      mload(0x40)\n      dup1\n      swap2\n      sub\n      swap1\n      log1\n        /* \"Funciones/eventos.sol\":367:505  function emitirEvento2(string memory _nombrePersona, uint _edadPersona) public {... */\n      pop\n      pop\n      jump\t// out\n        /* \"#utility.yul\":7:419   */\n    tag_27:\n        /* \"#utility.yul\":85:90   */\n      0x00\n        /* \"#utility.yul\":110:176   */\n      tag_29\n        /* \"#utility.yul\":126:175   */\n      tag_30\n        /* \"#utility.yul\":168:174   */\n      dup5\n        /* \"#utility.yul\":126:175   */\n      tag_31\n      jump\t// in\n    tag_30:\n        /* \"#utility.yul\":110:176   */\n      tag_32\n      jump\t// in\n    tag_29:\n        /* \"#utility.yul\":101:176   */\n      swap1\n      pop\n        /* \"#utility.yul\":199:205   */\n      dup3\n        /* \"#utility.yul\":192:197   */\n      dup2\n        /* \"#utility.yul\":185:206   */\n      mstore\n        /* \"#utility.yul\":237:241   */\n      0x20\n        /* \"#utility.yul\":230:235   */\n      dup2\n        /* \"#utility.yul\":226:242   */\n      add\n        /* \"#utility.yul\":275:278   */\n      dup5\n        /* \"#utility.yul\":266:272   */\n      dup5\n        /* \"#utility.yul\":261:264   */\n      dup5\n        /* \"#utility.yul\":257:273   */\n      add\n        /* \"#utility.yul\":254:279   */\n      gt\n        /* \"#utility.yul\":251:253   */\n      iszero\n      tag_33\n      jumpi\n        /* \"#utility.yul\":282:361   */\n      tag_34\n      tag_35\n      jump\t// in\n    tag_34:\n        /* \"#utility.yul\":251:253   */\n    tag_33:\n        /* \"#utility.yul\":372:413   */\n      tag_36\n        /* \"#utility.yul\":406:412   */\n      dup5\n        /* \"#utility.yul\":401:404   */\n      dup3\n        /* \"#utility.yul\":396:399   */\n      dup6\n        /* \"#utility.yul\":372:413   */\n      tag_37\n      jump\t// in\n    tag_36:\n        /* \"#utility.yul\":91:419   */\n      pop\n      swap4\n      swap3\n      pop\n      pop\n      pop\n      jump\t// out\n        /* \"#utility.yul\":425:564   */\n    tag_38:\n        /* \"#utility.yul\":471:476   */\n      0x00\n        /* \"#utility.yul\":509:515   */\n      dup2\n        /* \"#utility.yul\":496:516   */\n      calldataload\n        /* \"#utility.yul\":487:516   */\n      swap1\n      pop\n        /* \"#utility.yul\":525:558   */\n      tag_40\n        /* \"#utility.yul\":552:557   */\n      dup2\n        /* \"#utility.yul\":525:558   */\n      tag_41\n      jump\t// in\n    tag_40:\n        /* \"#utility.yul\":477:564   */\n      swap3\n      swap2\n      pop\n      pop\n      jump\t// out\n        /* \"#utility.yul\":584:924   */\n    tag_42:\n        /* \"#utility.yul\":640:645   */\n      0x00\n        /* \"#utility.yul\":689:692   */\n      dup3\n        /* \"#utility.yul\":682:686   */\n      0x1f\n        /* \"#utility.yul\":674:680   */\n      dup4\n        /* \"#utility.yul\":670:687   */\n      add\n        /* \"#utility.yul\":666:693   */\n      slt\n        /* \"#utility.yul\":656:658   */\n      tag_44\n      jumpi\n        /* \"#utility.yul\":697:776   */\n      tag_45\n      tag_46\n      jump\t// in\n    tag_45:\n        /* \"#utility.yul\":656:658   */\n    tag_44:\n        /* \"#utility.yul\":814:820   */\n      dup2\n        /* \"#utility.yul\":801:821   */\n      calldataload\n        /* \"#utility.yul\":839:918   */\n      tag_47\n        /* \"#utility.yul\":914:917   */\n      dup5\n        /* \"#utility.yul\":906:912   */\n      dup3\n        /* \"#utility.yul\":899:903   */\n      0x20\n        /* \"#utility.yul\":891:897   */\n      dup7\n        /* \"#utility.yul\":887:904   */\n      add\n        /* \"#utility.yul\":839:918   */\n      tag_27\n      jump\t// in\n    tag_47:\n        /* \"#utility.yul\":830:918   */\n      swap2\n      pop\n        /* \"#utility.yul\":646:924   */\n      pop\n      swap3\n      swap2\n      pop\n      pop\n      jump\t// out\n        /* \"#utility.yul\":930:1069   */\n    tag_48:\n        /* \"#utility.yul\":976:981   */\n      0x00\n        /* \"#utility.yul\":1014:1020   */\n      dup2\n        /* \"#utility.yul\":1001:1021   */\n      calldataload\n        /* \"#utility.yul\":992:1021   */\n      swap1\n      pop\n        /* \"#utility.yul\":1030:1063   */\n      tag_50\n        /* \"#utility.yul\":1057:1062   */\n      dup2\n        /* \"#utility.yul\":1030:1063   */\n      tag_51\n      jump\t// in\n    tag_50:\n        /* \"#utility.yul\":982:1069   */\n      swap3\n      swap2\n      pop\n      pop\n      jump\t// out\n        /* \"#utility.yul\":1075:1584   */\n    tag_12:\n        /* \"#utility.yul\":1144:1150   */\n      0x00\n        /* \"#utility.yul\":1193:1195   */\n      0x20\n        /* \"#utility.yul\":1181:1190   */\n      dup3\n        /* \"#utility.yul\":1172:1179   */\n      dup5\n        /* \"#utility.yul\":1168:1191   */\n      sub\n        /* \"#utility.yul\":1164:1196   */\n      slt\n        /* \"#utility.yul\":1161:1163   */\n      iszero\n      tag_53\n      jumpi\n        /* \"#utility.yul\":1199:1278   */\n      tag_54\n      tag_55\n      jump\t// in\n    tag_54:\n        /* \"#utility.yul\":1161:1163   */\n    tag_53:\n        /* \"#utility.yul\":1347:1348   */\n      0x00\n        /* \"#utility.yul\":1336:1345   */\n      dup3\n        /* \"#utility.yul\":1332:1349   */\n      add\n        /* \"#utility.yul\":1319:1350   */\n      calldataload\n        /* \"#utility.yul\":1377:1395   */\n      0xffffffffffffffff\n        /* \"#utility.yul\":1369:1375   */\n      dup2\n        /* \"#utility.yul\":1366:1396   */\n      gt\n        /* \"#utility.yul\":1363:1365   */\n      iszero\n      tag_56\n      jumpi\n        /* \"#utility.yul\":1399:1478   */\n      tag_57\n      tag_58\n      jump\t// in\n    tag_57:\n        /* \"#utility.yul\":1363:1365   */\n    tag_56:\n        /* \"#utility.yul\":1504:1567   */\n      tag_59\n        /* \"#utility.yul\":1559:1566   */\n      dup5\n        /* \"#utility.yul\":1550:1556   */\n      dup3\n        /* \"#utility.yul\":1539:1548   */\n      dup6\n        /* \"#utility.yul\":1535:1557   */\n      add\n        /* \"#utility.yul\":1504:1567   */\n      tag_42\n      jump\t// in\n    tag_59:\n        /* \"#utility.yul\":1494:1567   */\n      swap2\n      pop\n        /* \"#utility.yul\":1290:1577   */\n      pop\n        /* \"#utility.yul\":1151:1584   */\n      swap3\n      swap2\n      pop\n      pop\n      jump\t// out\n        /* \"#utility.yul\":1590:2244   */\n    tag_16:\n        /* \"#utility.yul\":1668:1674   */\n      0x00\n        /* \"#utility.yul\":1676:1682   */\n      dup1\n        /* \"#utility.yul\":1725:1727   */\n      0x40\n        /* \"#utility.yul\":1713:1722   */\n      dup4\n        /* \"#utility.yul\":1704:1711   */\n      dup6\n        /* \"#utility.yul\":1700:1723   */\n      sub\n        /* \"#utility.yul\":1696:1728   */\n      slt\n        /* \"#utility.yul\":1693:1695   */\n      iszero\n      tag_61\n      jumpi\n        /* \"#utility.yul\":1731:1810   */\n      tag_62\n      tag_55\n      jump\t// in\n    tag_62:\n        /* \"#utility.yul\":1693:1695   */\n    tag_61:\n        /* \"#utility.yul\":1879:1880   */\n      0x00\n        /* \"#utility.yul\":1868:1877   */\n      dup4\n        /* \"#utility.yul\":1864:1881   */\n      add\n        /* \"#utility.yul\":1851:1882   */\n      calldataload\n        /* \"#utility.yul\":1909:1927   */\n      0xffffffffffffffff\n        /* \"#utility.yul\":1901:1907   */\n      dup2\n        /* \"#utility.yul\":1898:1928   */\n      gt\n        /* \"#utility.yul\":1895:1897   */\n      iszero\n      tag_63\n      jumpi\n        /* \"#utility.yul\":1931:2010   */\n      tag_64\n      tag_58\n      jump\t// in\n    tag_64:\n        /* \"#utility.yul\":1895:1897   */\n    tag_63:\n        /* \"#utility.yul\":2036:2099   */\n      tag_65\n        /* \"#utility.yul\":2091:2098   */\n      dup6\n        /* \"#utility.yul\":2082:2088   */\n      dup3\n        /* \"#utility.yul\":2071:2080   */\n      dup7\n        /* \"#utility.yul\":2067:2089   */\n      add\n        /* \"#utility.yul\":2036:2099   */\n      tag_42\n      jump\t// in\n    tag_65:\n        /* \"#utility.yul\":2026:2099   */\n      swap3\n      pop\n        /* \"#utility.yul\":1822:2109   */\n      pop\n        /* \"#utility.yul\":2148:2150   */\n      0x20\n        /* \"#utility.yul\":2174:2227   */\n      tag_66\n        /* \"#utility.yul\":2219:2226   */\n      dup6\n        /* \"#utility.yul\":2210:2216   */\n      dup3\n        /* \"#utility.yul\":2199:2208   */\n      dup7\n        /* \"#utility.yul\":2195:2217   */\n      add\n        /* \"#utility.yul\":2174:2227   */\n      tag_48\n      jump\t// in\n    tag_66:\n        /* \"#utility.yul\":2164:2227   */\n      swap2\n      pop\n        /* \"#utility.yul\":2119:2237   */\n      pop\n        /* \"#utility.yul\":1683:2244   */\n      swap3\n      pop\n      swap3\n      swap1\n      pop\n      jump\t// out\n        /* \"#utility.yul\":2250:3049   */\n    tag_8:\n        /* \"#utility.yul\":2337:2343   */\n      0x00\n        /* \"#utility.yul\":2345:2351   */\n      dup1\n        /* \"#utility.yul\":2353:2359   */\n      0x00\n        /* \"#utility.yul\":2402:2404   */\n      0x60\n        /* \"#utility.yul\":2390:2399   */\n      dup5\n        /* \"#utility.yul\":2381:2388   */\n      dup7\n        /* \"#utility.yul\":2377:2400   */\n      sub\n        /* \"#utility.yul\":2373:2405   */\n      slt\n        /* \"#utility.yul\":2370:2372   */\n      iszero\n      tag_68\n      jumpi\n        /* \"#utility.yul\":2408:2487   */\n      tag_69\n      tag_55\n      jump\t// in\n    tag_69:\n        /* \"#utility.yul\":2370:2372   */\n    tag_68:\n        /* \"#utility.yul\":2556:2557   */\n      0x00\n        /* \"#utility.yul\":2545:2554   */\n      dup5\n        /* \"#utility.yul\":2541:2558   */\n      add\n        /* \"#utility.yul\":2528:2559   */\n      calldataload\n        /* \"#utility.yul\":2586:2604   */\n      0xffffffffffffffff\n        /* \"#utility.yul\":2578:2584   */\n      dup2\n        /* \"#utility.yul\":2575:2605   */\n      gt\n        /* \"#utility.yul\":2572:2574   */\n      iszero\n      tag_70\n      jumpi\n        /* \"#utility.yul\":2608:2687   */\n      tag_71\n      tag_58\n      jump\t// in\n    tag_71:\n        /* \"#utility.yul\":2572:2574   */\n    tag_70:\n        /* \"#utility.yul\":2713:2776   */\n      tag_72\n        /* \"#utility.yul\":2768:2775   */\n      dup7\n        /* \"#utility.yul\":2759:2765   */\n      dup3\n        /* \"#utility.yul\":2748:2757   */\n      dup8\n        /* \"#utility.yul\":2744:2766   */\n      add\n        /* \"#utility.yul\":2713:2776   */\n      tag_42\n      jump\t// in\n    tag_72:\n        /* \"#utility.yul\":2703:2776   */\n      swap4\n      pop\n        /* \"#utility.yul\":2499:2786   */\n      pop\n        /* \"#utility.yul\":2825:2827   */\n      0x20\n        /* \"#utility.yul\":2851:2904   */\n      tag_73\n        /* \"#utility.yul\":2896:2903   */\n      dup7\n        /* \"#utility.yul\":2887:2893   */\n      dup3\n        /* \"#utility.yul\":2876:2885   */\n      dup8\n        /* \"#utility.yul\":2872:2894   */\n      add\n        /* \"#utility.yul\":2851:2904   */\n      tag_48\n      jump\t// in\n    tag_73:\n        /* \"#utility.yul\":2841:2904   */\n      swap3\n      pop\n        /* \"#utility.yul\":2796:2914   */\n      pop\n        /* \"#utility.yul\":2953:2955   */\n      0x40\n        /* \"#utility.yul\":2979:3032   */\n      tag_74\n        /* \"#utility.yul\":3024:3031   */\n      dup7\n        /* \"#utility.yul\":3015:3021   */\n      dup3\n        /* \"#utility.yul\":3004:3013   */\n      dup8\n        /* \"#utility.yul\":3000:3022   */\n      add\n        /* \"#utility.yul\":2979:3032   */\n      tag_38\n      jump\t// in\n    tag_74:\n        /* \"#utility.yul\":2969:3032   */\n      swap2\n      pop\n        /* \"#utility.yul\":2924:3042   */\n      pop\n        /* \"#utility.yul\":2360:3049   */\n      swap3\n      pop\n      swap3\n      pop\n      swap3\n      jump\t// out\n        /* \"#utility.yul\":3055:3419   */\n    tag_75:\n        /* \"#utility.yul\":3143:3146   */\n      0x00\n        /* \"#utility.yul\":3171:3210   */\n      tag_77\n        /* \"#utility.yul\":3204:3209   */\n      dup3\n        /* \"#utility.yul\":3171:3210   */\n      tag_78\n      jump\t// in\n    tag_77:\n        /* \"#utility.yul\":3226:3297   */\n      tag_79\n        /* \"#utility.yul\":3290:3296   */\n      dup2\n        /* \"#utility.yul\":3285:3288   */\n      dup6\n        /* \"#utility.yul\":3226:3297   */\n      tag_80\n      jump\t// in\n    tag_79:\n        /* \"#utility.yul\":3219:3297   */\n      swap4\n      pop\n        /* \"#utility.yul\":3306:3358   */\n      tag_81\n        /* \"#utility.yul\":3351:3357   */\n      dup2\n        /* \"#utility.yul\":3346:3349   */\n      dup6\n        /* \"#utility.yul\":3339:3343   */\n      0x20\n        /* \"#utility.yul\":3332:3337   */\n      dup7\n        /* \"#utility.yul\":3328:3344   */\n      add\n        /* \"#utility.yul\":3306:3358   */\n      tag_82\n      jump\t// in\n    tag_81:\n        /* \"#utility.yul\":3383:3412   */\n      tag_83\n        /* \"#utility.yul\":3405:3411   */\n      dup2\n        /* \"#utility.yul\":3383:3412   */\n      tag_84\n      jump\t// in\n    tag_83:\n        /* \"#utility.yul\":3378:3381   */\n      dup5\n        /* \"#utility.yul\":3374:3413   */\n      add\n        /* \"#utility.yul\":3367:3413   */\n      swap2\n      pop\n        /* \"#utility.yul\":3147:3419   */\n      pop\n      swap3\n      swap2\n      pop\n      pop\n      jump\t// out\n        /* \"#utility.yul\":3425:3543   */\n    tag_85:\n        /* \"#utility.yul\":3512:3536   */\n      tag_87\n        /* \"#utility.yul\":3530:3535   */\n      dup2\n        /* \"#utility.yul\":3512:3536   */\n      tag_88\n      jump\t// in\n    tag_87:\n        /* \"#utility.yul\":3507:3510   */\n      dup3\n        /* \"#utility.yul\":3500:3537   */\n      mstore\n        /* \"#utility.yul\":3490:3543   */\n      pop\n      pop\n      jump\t// out\n        /* \"#utility.yul\":3549:3862   */\n    tag_23:\n        /* \"#utility.yul\":3662:3666   */\n      0x00\n        /* \"#utility.yul\":3700:3702   */\n      0x20\n        /* \"#utility.yul\":3689:3698   */\n      dup3\n        /* \"#utility.yul\":3685:3703   */\n      add\n        /* \"#utility.yul\":3677:3703   */\n      swap1\n      pop\n        /* \"#utility.yul\":3749:3758   */\n      dup2\n        /* \"#utility.yul\":3743:3747   */\n      dup2\n        /* \"#utility.yul\":3739:3759   */\n      sub\n        /* \"#utility.yul\":3735:3736   */\n      0x00\n        /* \"#utility.yul\":3724:3733   */\n      dup4\n        /* \"#utility.yul\":3720:3737   */\n      add\n        /* \"#utility.yul\":3713:3760   */\n      mstore\n        /* \"#utility.yul\":3777:3855   */\n      tag_90\n        /* \"#utility.yul\":3850:3854   */\n      dup2\n        /* \"#utility.yul\":3841:3847   */\n      dup5\n        /* \"#utility.yul\":3777:3855   */\n      tag_75\n      jump\t// in\n    tag_90:\n        /* \"#utility.yul\":3769:3855   */\n      swap1\n      pop\n        /* \"#utility.yul\":3667:3862   */\n      swap3\n      swap2\n      pop\n      pop\n      jump\t// out\n        /* \"#utility.yul\":3868:4291   */\n    tag_20:\n        /* \"#utility.yul\":4009:4013   */\n      0x00\n        /* \"#utility.yul\":4047:4049   */\n      0x40\n        /* \"#utility.yul\":4036:4045   */\n      dup3\n        /* \"#utility.yul\":4032:4050   */\n      add\n        /* \"#utility.yul\":4024:4050   */\n      swap1\n      pop\n        /* \"#utility.yul\":4096:4105   */\n      dup2\n        /* \"#utility.yul\":4090:4094   */\n      dup2\n        /* \"#utility.yul\":4086:4106   */\n      sub\n        /* \"#utility.yul\":4082:4083   */\n      0x00\n        /* \"#utility.yul\":4071:4080   */\n      dup4\n        /* \"#utility.yul\":4067:4084   */\n      add\n        /* \"#utility.yul\":4060:4107   */\n      mstore\n        /* \"#utility.yul\":4124:4202   */\n      tag_92\n        /* \"#utility.yul\":4197:4201   */\n      dup2\n        /* \"#utility.yul\":4188:4194   */\n      dup6\n        /* \"#utility.yul\":4124:4202   */\n      tag_75\n      jump\t// in\n    tag_92:\n        /* \"#utility.yul\":4116:4202   */\n      swap1\n      pop\n        /* \"#utility.yul\":4212:4284   */\n      tag_93\n        /* \"#utility.yul\":4280:4282   */\n      0x20\n        /* \"#utility.yul\":4269:4278   */\n      dup4\n        /* \"#utility.yul\":4265:4283   */\n      add\n        /* \"#utility.yul\":4256:4262   */\n      dup5\n        /* \"#utility.yul\":4212:4284   */\n      tag_85\n      jump\t// in\n    tag_93:\n        /* \"#utility.yul\":4014:4291   */\n      swap4\n      swap3\n      pop\n      pop\n      pop\n      jump\t// out\n        /* \"#utility.yul\":4297:4426   */\n    tag_32:\n        /* \"#utility.yul\":4331:4337   */\n      0x00\n        /* \"#utility.yul\":4358:4378   */\n      tag_95\n      tag_96\n      jump\t// in\n    tag_95:\n        /* \"#utility.yul\":4348:4378   */\n      swap1\n      pop\n        /* \"#utility.yul\":4387:4420   */\n      tag_97\n        /* \"#utility.yul\":4415:4419   */\n      dup3\n        /* \"#utility.yul\":4407:4413   */\n      dup3\n        /* \"#utility.yul\":4387:4420   */\n      tag_98\n      jump\t// in\n    tag_97:\n        /* \"#utility.yul\":4338:4426   */\n      swap2\n      swap1\n      pop\n      jump\t// out\n        /* \"#utility.yul\":4432:4507   */\n    tag_96:\n        /* \"#utility.yul\":4465:4471   */\n      0x00\n        /* \"#utility.yul\":4498:4500   */\n      0x40\n        /* \"#utility.yul\":4492:4501   */\n      mload\n        /* \"#utility.yul\":4482:4501   */\n      swap1\n      pop\n        /* \"#utility.yul\":4472:4507   */\n      swap1\n      jump\t// out\n        /* \"#utility.yul\":4513:4821   */\n    tag_31:\n        /* \"#utility.yul\":4575:4579   */\n      0x00\n        /* \"#utility.yul\":4665:4683   */\n      0xffffffffffffffff\n        /* \"#utility.yul\":4657:4663   */\n      dup3\n        /* \"#utility.yul\":4654:4684   */\n      gt\n        /* \"#utility.yul\":4651:4653   */\n      iszero\n      tag_101\n      jumpi\n        /* \"#utility.yul\":4687:4705   */\n      tag_102\n      tag_103\n      jump\t// in\n    tag_102:\n        /* \"#utility.yul\":4651:4653   */\n    tag_101:\n        /* \"#utility.yul\":4725:4754   */\n      tag_104\n        /* \"#utility.yul\":4747:4753   */\n      dup3\n        /* \"#utility.yul\":4725:4754   */\n      tag_84\n      jump\t// in\n    tag_104:\n        /* \"#utility.yul\":4717:4754   */\n      swap1\n      pop\n        /* \"#utility.yul\":4809:4813   */\n      0x20\n        /* \"#utility.yul\":4803:4807   */\n      dup2\n        /* \"#utility.yul\":4799:4814   */\n      add\n        /* \"#utility.yul\":4791:4814   */\n      swap1\n      pop\n        /* \"#utility.yul\":4580:4821   */\n      swap2\n      swap1\n      pop\n      jump\t// out\n        /* \"#utility.yul\":4827:4926   */\n    tag_78:\n        /* \"#utility.yul\":4879:4885   */\n      0x00\n        /* \"#utility.yul\":4913:4918   */\n      dup2\n        /* \"#utility.yul\":4907:4919   */\n      mload\n        /* \"#utility.yul\":4897:4919   */\n      swap1\n      pop\n        /* \"#utility.yul\":4886:4926   */\n      swap2\n      swap1\n      pop\n      jump\t// out\n        /* \"#utility.yul\":4932:5101   */\n    tag_80:\n        /* \"#utility.yul\":5016:5027   */\n      0x00\n        /* \"#utility.yul\":5050:5056   */\n      dup3\n        /* \"#utility.yul\":5045:5048   */\n      dup3\n        /* \"#utility.yul\":5038:5057   */\n      mstore\n        /* \"#utility.yul\":5090:5094   */\n      0x20\n        /* \"#utility.yul\":5085:5088   */\n      dup3\n        /* \"#utility.yul\":5081:5095   */\n      add\n        /* \"#utility.yul\":5066:5095   */\n      swap1\n      pop\n        /* \"#utility.yul\":5028:5101   */\n      swap3\n      swap2\n      pop\n      pop\n      jump\t// out\n        /* \"#utility.yul\":5107:5203   */\n    tag_107:\n        /* \"#utility.yul\":5144:5151   */\n      0x00\n        /* \"#utility.yul\":5173:5197   */\n      tag_109\n        /* \"#utility.yul\":5191:5196   */\n      dup3\n        /* \"#utility.yul\":5173:5197   */\n      tag_110\n      jump\t// in\n    tag_109:\n        /* \"#utility.yul\":5162:5197   */\n      swap1\n      pop\n        /* \"#utility.yul\":5152:5203   */\n      swap2\n      swap1\n      pop\n      jump\t// out\n        /* \"#utility.yul\":5209:5335   */\n    tag_110:\n        /* \"#utility.yul\":5246:5253   */\n      0x00\n        /* \"#utility.yul\":5286:5328   */\n      0xffffffffffffffffffffffffffffffffffffffff\n        /* \"#utility.yul\":5279:5284   */\n      dup3\n        /* \"#utility.yul\":5275:5329   */\n      and\n        /* \"#utility.yul\":5264:5329   */\n      swap1\n      pop\n        /* \"#utility.yul\":5254:5335   */\n      swap2\n      swap1\n      pop\n      jump\t// out\n        /* \"#utility.yul\":5341:5418   */\n    tag_88:\n        /* \"#utility.yul\":5378:5385   */\n      0x00\n        /* \"#utility.yul\":5407:5412   */\n      dup2\n        /* \"#utility.yul\":5396:5412   */\n      swap1\n      pop\n        /* \"#utility.yul\":5386:5418   */\n      swap2\n      swap1\n      pop\n      jump\t// out\n        /* \"#utility.yul\":5424:5578   */\n    tag_37:\n        /* \"#utility.yul\":5508:5514   */\n      dup3\n        /* \"#utility.yul\":5503:5506   */\n      dup2\n        /* \"#utility.yul\":5498:5501   */\n      dup4\n        /* \"#utility.yul\":5485:5515   */\n      calldatacopy\n        /* \"#utility.yul\":5570:5571   */\n      0x00\n        /* \"#utility.yul\":5561:5567   */\n      dup4\n        /* \"#utility.yul\":5556:5559   */\n      dup4\n        /* \"#utility.yul\":5552:5568   */\n      add\n        /* \"#utility.yul\":5545:5572   */\n      mstore\n        /* \"#utility.yul\":5475:5578   */\n      pop\n      pop\n      pop\n      jump\t// out\n        /* \"#utility.yul\":5584:5891   */\n    tag_82:\n        /* \"#utility.yul\":5652:5653   */\n      0x00\n        /* \"#utility.yul\":5662:5775   */\n    tag_115:\n        /* \"#utility.yul\":5676:5682   */\n      dup4\n        /* \"#utility.yul\":5673:5674   */\n      dup2\n        /* \"#utility.yul\":5670:5683   */\n      lt\n        /* \"#utility.yul\":5662:5775   */\n      iszero\n      tag_117\n      jumpi\n        /* \"#utility.yul\":5761:5762   */\n      dup1\n        /* \"#utility.yul\":5756:5759   */\n      dup3\n        /* \"#utility.yul\":5752:5763   */\n      add\n        /* \"#utility.yul\":5746:5764   */\n      mload\n        /* \"#utility.yul\":5742:5743   */\n      dup2\n        /* \"#utility.yul\":5737:5740   */\n      dup5\n        /* \"#utility.yul\":5733:5744   */\n      add\n        /* \"#utility.yul\":5726:5765   */\n      mstore\n        /* \"#utility.yul\":5698:5700   */\n      0x20\n        /* \"#utility.yul\":5695:5696   */\n      dup2\n        /* \"#utility.yul\":5691:5701   */\n      add\n        /* \"#utility.yul\":5686:5701   */\n      swap1\n      pop\n        /* \"#utility.yul\":5662:5775   */\n      jump(tag_115)\n    tag_117:\n        /* \"#utility.yul\":5793:5799   */\n      dup4\n        /* \"#utility.yul\":5790:5791   */\n      dup2\n        /* \"#utility.yul\":5787:5800   */\n      gt\n        /* \"#utility.yul\":5784:5786   */\n      iszero\n      tag_118\n      jumpi\n        /* \"#utility.yul\":5873:5874   */\n      0x00\n        /* \"#utility.yul\":5864:5870   */\n      dup5\n        /* \"#utility.yul\":5859:5862   */\n      dup5\n        /* \"#utility.yul\":5855:5871   */\n      add\n        /* \"#utility.yul\":5848:5875   */\n      mstore\n        /* \"#utility.yul\":5784:5786   */\n    tag_118:\n        /* \"#utility.yul\":5633:5891   */\n      pop\n      pop\n      pop\n      pop\n      jump\t// out\n        /* \"#utility.yul\":5897:6178   */\n    tag_98:\n        /* \"#utility.yul\":5980:6007   */\n      tag_120\n        /* \"#utility.yul\":6002:6006   */\n      dup3\n        /* \"#utility.yul\":5980:6007   */\n      tag_84\n      jump\t// in\n    tag_120:\n        /* \"#utility.yul\":5972:5978   */\n      dup2\n        /* \"#utility.yul\":5968:6008   */\n      add\n        /* \"#utility.yul\":6110:6116   */\n      dup2\n        /* \"#utility.yul\":6098:6108   */\n      dup2\n        /* \"#utility.yul\":6095:6117   */\n      lt\n        /* \"#utility.yul\":6074:6092   */\n      0xffffffffffffffff\n        /* \"#utility.yul\":6062:6072   */\n      dup3\n        /* \"#utility.yul\":6059:6093   */\n      gt\n        /* \"#utility.yul\":6056:6118   */\n      or\n        /* \"#utility.yul\":6053:6055   */\n      iszero\n      tag_121\n      jumpi\n        /* \"#utility.yul\":6121:6139   */\n      tag_122\n      tag_103\n      jump\t// in\n    tag_122:\n        /* \"#utility.yul\":6053:6055   */\n    tag_121:\n        /* \"#utility.yul\":6161:6171   */\n      dup1\n        /* \"#utility.yul\":6157:6159   */\n      0x40\n        /* \"#utility.yul\":6150:6172   */\n      mstore\n        /* \"#utility.yul\":5940:6178   */\n      pop\n      pop\n      pop\n      jump\t// out\n        /* \"#utility.yul\":6184:6364   */\n    tag_103:\n        /* \"#utility.yul\":6232:6309   */\n      0x4e487b7100000000000000000000000000000000000000000000000000000000\n        /* \"#utility.yul\":6229:6230   */\n      0x00\n        /* \"#utility.yul\":6222:6310   */\n      mstore\n        /* \"#utility.yul\":6329:6333   */\n      0x41\n        /* \"#utility.yul\":6326:6327   */\n      0x04\n        /* \"#utility.yul\":6319:6334   */\n      mstore\n        /* \"#utility.yul\":6353:6357   */\n      0x24\n        /* \"#utility.yul\":6350:6351   */\n      0x00\n        /* \"#utility.yul\":6343:6358   */\n      revert\n        /* \"#utility.yul\":6370:6487   */\n    tag_46:\n        /* \"#utility.yul\":6479:6480   */\n      0x00\n        /* \"#utility.yul\":6476:6477   */\n      dup1\n        /* \"#utility.yul\":6469:6481   */\n      revert\n        /* \"#utility.yul\":6493:6610   */\n    tag_35:\n        /* \"#utility.yul\":6602:6603   */\n      0x00\n        /* \"#utility.yul\":6599:6600   */\n      dup1\n        /* \"#utility.yul\":6592:6604   */\n      revert\n        /* \"#utility.yul\":6616:6733   */\n    tag_58:\n        /* \"#utility.yul\":6725:6726   */\n      0x00\n        /* \"#utility.yul\":6722:6723   */\n      dup1\n        /* \"#utility.yul\":6715:6727   */\n      revert\n        /* \"#utility.yul\":6739:6856   */\n    tag_55:\n        /* \"#utility.yul\":6848:6849   */\n      0x00\n        /* \"#utility.yul\":6845:6846   */\n      dup1\n        /* \"#utility.yul\":6838:6850   */\n      revert\n        /* \"#utility.yul\":6862:6964   */\n    tag_84:\n        /* \"#utility.yul\":6903:6909   */\n      0x00\n        /* \"#utility.yul\":6954:6956   */\n      0x1f\n        /* \"#utility.yul\":6950:6957   */\n      not\n        /* \"#utility.yul\":6945:6947   */\n      0x1f\n        /* \"#utility.yul\":6938:6943   */\n      dup4\n        /* \"#utility.yul\":6934:6948   */\n      add\n        /* \"#utility.yul\":6930:6958   */\n      and\n        /* \"#utility.yul\":6920:6958   */\n      swap1\n      pop\n        /* \"#utility.yul\":6910:6964   */\n      swap2\n      swap1\n      pop\n      jump\t// out\n        /* \"#utility.yul\":6970:7092   */\n    tag_41:\n        /* \"#utility.yul\":7043:7067   */\n      tag_130\n        /* \"#utility.yul\":7061:7066   */\n      dup2\n        /* \"#utility.yul\":7043:7067   */\n      tag_107\n      jump\t// in\n    tag_130:\n        /* \"#utility.yul\":7036:7041   */\n      dup2\n        /* \"#utility.yul\":7033:7068   */\n      eq\n        /* \"#utility.yul\":7023:7025   */\n      tag_131\n      jumpi\n        /* \"#utility.yul\":7082:7083   */\n      0x00\n        /* \"#utility.yul\":7079:7080   */\n      dup1\n        /* \"#utility.yul\":7072:7084   */\n      revert\n        /* \"#utility.yul\":7023:7025   */\n    tag_131:\n        /* \"#utility.yul\":7013:7092   */\n      pop\n      jump\t// out\n        /* \"#utility.yul\":7098:7220   */\n    tag_51:\n        /* \"#utility.yul\":7171:7195   */\n      tag_133\n        /* \"#utility.yul\":7189:7194   */\n      dup2\n        /* \"#utility.yul\":7171:7195   */\n      tag_88\n      jump\t// in\n    tag_133:\n        /* \"#utility.yul\":7164:7169   */\n      dup2\n        /* \"#utility.yul\":7161:7196   */\n      eq\n        /* \"#utility.yul\":7151:7153   */\n      tag_134\n      jumpi\n        /* \"#utility.yul\":7210:7211   */\n      0x00\n        /* \"#utility.yul\":7207:7208   */\n      dup1\n        /* \"#utility.yul\":7200:7212   */\n      revert\n        /* \"#utility.yul\":7151:7153   */\n    tag_134:\n        /* \"#utility.yul\":7141:7220   */\n      pop\n      jump\t// out\n\n    auxdata: 0xa26469706673582212204aad43e6cb42698d8dc988683d8dfdfd7c7d62df9b066fe2894122ff772d8d8e64736f6c63430008060033\n}\n",
				"bytecode": {
					"linkReferences": {},
					"object": "608060405234801561001057600080fd5b50610570806100206000396000f3fe608060405234801561001057600080fd5b50600436106100415760003560e01c8063492e27d9146100465780637cf1103d146100625780637f4f0f351461007e575b600080fd5b610060600480360381019061005b919061028e565b61009a565b005b61007c600480360381019061007791906101e9565b6100d8565b005b61009860048036038101906100939190610232565b610112565b005b7f2abcdd8402d13cddfdae95d2581c51409054966b88de81287628c3e06235d8b083836040516100cb929190610367565b60405180910390a1505050565b7fbb9feca183dbd63d27399e01607802b8663d1c6d1b7a331ed919063ea22675a2816040516101079190610345565b60405180910390a150565b7f2abcdd8402d13cddfdae95d2581c51409054966b88de81287628c3e06235d8b08282604051610143929190610367565b60405180910390a15050565b600061016261015d846103bc565b610397565b90508281526020810184848401111561017e5761017d6104ec565b5b610189848285610445565b509392505050565b6000813590506101a08161050c565b92915050565b600082601f8301126101bb576101ba6104e7565b5b81356101cb84826020860161014f565b91505092915050565b6000813590506101e381610523565b92915050565b6000602082840312156101ff576101fe6104f6565b5b600082013567ffffffffffffffff81111561021d5761021c6104f1565b5b610229848285016101a6565b91505092915050565b60008060408385031215610249576102486104f6565b5b600083013567ffffffffffffffff811115610267576102666104f1565b5b610273858286016101a6565b9250506020610284858286016101d4565b9150509250929050565b6000806000606084860312156102a7576102a66104f6565b5b600084013567ffffffffffffffff8111156102c5576102c46104f1565b5b6102d1868287016101a6565b93505060206102e2868287016101d4565b92505060406102f386828701610191565b9150509250925092565b6000610308826103ed565b61031281856103f8565b9350610322818560208601610454565b61032b816104fb565b840191505092915050565b61033f8161043b565b82525050565b6000602082019050818103600083015261035f81846102fd565b905092915050565b6000604082019050818103600083015261038181856102fd565b90506103906020830184610336565b9392505050565b60006103a16103b2565b90506103ad8282610487565b919050565b6000604051905090565b600067ffffffffffffffff8211156103d7576103d66104b8565b5b6103e0826104fb565b9050602081019050919050565b600081519050919050565b600082825260208201905092915050565b60006104148261041b565b9050919050565b600073ffffffffffffffffffffffffffffffffffffffff82169050919050565b6000819050919050565b82818337600083830152505050565b60005b83811015610472578082015181840152602081019050610457565b83811115610481576000848401525b50505050565b610490826104fb565b810181811067ffffffffffffffff821117156104af576104ae6104b8565b5b80604052505050565b7f4e487b7100000000000000000000000000000000000000000000000000000000600052604160045260246000fd5b600080fd5b600080fd5b600080fd5b600080fd5b6000601f19601f8301169050919050565b61051581610409565b811461052057600080fd5b50565b61052c8161043b565b811461053757600080fd5b5056fea26469706673582212204aad43e6cb42698d8dc988683d8dfdfd7c7d62df9b066fe2894122ff772d8d8e64736f6c63430008060033",
					"opcodes": "PUSH1 0x80 PUSH1 0x40 MSTORE CALLVALUE DUP1 ISZERO PUSH2 0x10 JUMPI PUSH1 0x0 DUP1 REVERT JUMPDEST POP PUSH2 0x570 DUP1 PUSH2 0x20 PUSH1 0x0 CODECOPY PUSH1 0x0 RETURN INVALID PUSH1 0x80 PUSH1 0x40 MSTORE CALLVALUE DUP1 ISZERO PUSH2 0x10 JUMPI PUSH1 0x0 DUP1 REVERT JUMPDEST POP PUSH1 0x4 CALLDATASIZE LT PUSH2 0x41 JUMPI PUSH1 0x0 CALLDATALOAD PUSH1 0xE0 SHR DUP1 PUSH4 0x492E27D9 EQ PUSH2 0x46 JUMPI DUP1 PUSH4 0x7CF1103D EQ PUSH2 0x62 JUMPI DUP1 PUSH4 0x7F4F0F35 EQ PUSH2 0x7E JUMPI JUMPDEST PUSH1 0x0 DUP1 REVERT JUMPDEST PUSH2 0x60 PUSH1 0x4 DUP1 CALLDATASIZE SUB DUP2 ADD SWAP1 PUSH2 0x5B SWAP2 SWAP1 PUSH2 0x28E JUMP JUMPDEST PUSH2 0x9A JUMP JUMPDEST STOP JUMPDEST PUSH2 0x7C PUSH1 0x4 DUP1 CALLDATASIZE SUB DUP2 ADD SWAP1 PUSH2 0x77 SWAP2 SWAP1 PUSH2 0x1E9 JUMP JUMPDEST PUSH2 0xD8 JUMP JUMPDEST STOP JUMPDEST PUSH2 0x98 PUSH1 0x4 DUP1 CALLDATASIZE SUB DUP2 ADD SWAP1 PUSH2 0x93 SWAP2 SWAP1 PUSH2 0x232 JUMP JUMPDEST PUSH2 0x112 JUMP JUMPDEST STOP JUMPDEST PUSH32 0x2ABCDD8402D13CDDFDAE95D2581C51409054966B88DE81287628C3E06235D8B0 DUP4 DUP4 PUSH1 0x40 MLOAD PUSH2 0xCB SWAP3 SWAP2 SWAP1 PUSH2 0x367 JUMP JUMPDEST PUSH1 0x40 MLOAD DUP1 SWAP2 SUB SWAP1 LOG1 POP POP POP JUMP JUMPDEST PUSH32 0xBB9FECA183DBD63D27399E01607802B8663D1C6D1B7A331ED919063EA22675A2 DUP2 PUSH1 0x40 MLOAD PUSH2 0x107 SWAP2 SWAP1 PUSH2 0x345 JUMP JUMPDEST PUSH1 0x40 MLOAD DUP1 SWAP2 SUB SWAP1 LOG1 POP JUMP JUMPDEST PUSH32 0x2ABCDD8402D13CDDFDAE95D2581C51409054966B88DE81287628C3E06235D8B0 DUP3 DUP3 PUSH1 0x40 MLOAD PUSH2 0x143 SWAP3 SWAP2 SWAP1 PUSH2 0x367 JUMP JUMPDEST PUSH1 0x40 MLOAD DUP1 SWAP2 SUB SWAP1 LOG1 POP POP JUMP JUMPDEST PUSH1 0x0 PUSH2 0x162 PUSH2 0x15D DUP5 PUSH2 0x3BC JUMP JUMPDEST PUSH2 0x397 JUMP JUMPDEST SWAP1 POP DUP3 DUP2 MSTORE PUSH1 0x20 DUP2 ADD DUP5 DUP5 DUP5 ADD GT ISZERO PUSH2 0x17E JUMPI PUSH2 0x17D PUSH2 0x4EC JUMP JUMPDEST JUMPDEST PUSH2 0x189 DUP5 DUP3 DUP6 PUSH2 0x445 JUMP JUMPDEST POP SWAP4 SWAP3 POP POP POP JUMP JUMPDEST PUSH1 0x0 DUP2 CALLDATALOAD SWAP1 POP PUSH2 0x1A0 DUP2 PUSH2 0x50C JUMP JUMPDEST SWAP3 SWAP2 POP POP JUMP JUMPDEST PUSH1 0x0 DUP3 PUSH1 0x1F DUP4 ADD SLT PUSH2 0x1BB JUMPI PUSH2 0x1BA PUSH2 0x4E7 JUMP JUMPDEST JUMPDEST DUP2 CALLDATALOAD PUSH2 0x1CB DUP5 DUP3 PUSH1 0x20 DUP7 ADD PUSH2 0x14F JUMP JUMPDEST SWAP2 POP POP SWAP3 SWAP2 POP POP JUMP JUMPDEST PUSH1 0x0 DUP2 CALLDATALOAD SWAP1 POP PUSH2 0x1E3 DUP2 PUSH2 0x523 JUMP JUMPDEST SWAP3 SWAP2 POP POP JUMP JUMPDEST PUSH1 0x0 PUSH1 0x20 DUP3 DUP5 SUB SLT ISZERO PUSH2 0x1FF JUMPI PUSH2 0x1FE PUSH2 0x4F6 JUMP JUMPDEST JUMPDEST PUSH1 0x0 DUP3 ADD CALLDATALOAD PUSH8 0xFFFFFFFFFFFFFFFF DUP2 GT ISZERO PUSH2 0x21D JUMPI PUSH2 0x21C PUSH2 0x4F1 JUMP JUMPDEST JUMPDEST PUSH2 0x229 DUP5 DUP3 DUP6 ADD PUSH2 0x1A6 JUMP JUMPDEST SWAP2 POP POP SWAP3 SWAP2 POP POP JUMP JUMPDEST PUSH1 0x0 DUP1 PUSH1 0x40 DUP4 DUP6 SUB SLT ISZERO PUSH2 0x249 JUMPI PUSH2 0x248 PUSH2 0x4F6 JUMP JUMPDEST JUMPDEST PUSH1 0x0 DUP4 ADD CALLDATALOAD PUSH8 0xFFFFFFFFFFFFFFFF DUP2 GT ISZERO PUSH2 0x267 JUMPI PUSH2 0x266 PUSH2 0x4F1 JUMP JUMPDEST JUMPDEST PUSH2 0x273 DUP6 DUP3 DUP7 ADD PUSH2 0x1A6 JUMP JUMPDEST SWAP3 POP POP PUSH1 0x20 PUSH2 0x284 DUP6 DUP3 DUP7 ADD PUSH2 0x1D4 JUMP JUMPDEST SWAP2 POP POP SWAP3 POP SWAP3 SWAP1 POP JUMP JUMPDEST PUSH1 0x0 DUP1 PUSH1 0x0 PUSH1 0x60 DUP5 DUP7 SUB SLT ISZERO PUSH2 0x2A7 JUMPI PUSH2 0x2A6 PUSH2 0x4F6 JUMP JUMPDEST JUMPDEST PUSH1 0x0 DUP5 ADD CALLDATALOAD PUSH8 0xFFFFFFFFFFFFFFFF DUP2 GT ISZERO PUSH2 0x2C5 JUMPI PUSH2 0x2C4 PUSH2 0x4F1 JUMP JUMPDEST JUMPDEST PUSH2 0x2D1 DUP7 DUP3 DUP8 ADD PUSH2 0x1A6 JUMP JUMPDEST SWAP4 POP POP PUSH1 0x20 PUSH2 0x2E2 DUP7 DUP3 DUP8 ADD PUSH2 0x1D4 JUMP JUMPDEST SWAP3 POP POP PUSH1 0x40 PUSH2 0x2F3 DUP7 DUP3 DUP8 ADD PUSH2 0x191 JUMP JUMPDEST SWAP2 POP POP SWAP3 POP SWAP3 POP SWAP3 JUMP JUMPDEST PUSH1 0x0 PUSH2 0x308 DUP3 PUSH2 0x3ED JUMP JUMPDEST PUSH2 0x312 DUP2 DUP6 PUSH2 0x3F8 JUMP JUMPDEST SWAP4 POP PUSH2 0x322 DUP2 DUP6 PUSH1 0x20 DUP7 ADD PUSH2 0x454 JUMP JUMPDEST PUSH2 0x32B DUP2 PUSH2 0x4FB JUMP JUMPDEST DUP5 ADD SWAP2 POP POP SWAP3 SWAP2 POP POP JUMP JUMPDEST PUSH2 0x33F DUP2 PUSH2 0x43B JUMP JUMPDEST DUP3 MSTORE POP POP JUMP JUMPDEST PUSH1 0x0 PUSH1 0x20 DUP3 ADD SWAP1 POP DUP2 DUP2 SUB PUSH1 0x0 DUP4 ADD MSTORE PUSH2 0x35F DUP2 DUP5 PUSH2 0x2FD JUMP JUMPDEST SWAP1 POP SWAP3 SWAP2 POP POP JUMP JUMPDEST PUSH1 0x0 PUSH1 0x40 DUP3 ADD SWAP1 POP DUP2 DUP2 SUB PUSH1 0x0 DUP4 ADD MSTORE PUSH2 0x381 DUP2 DUP6 PUSH2 0x2FD JUMP JUMPDEST SWAP1 POP PUSH2 0x390 PUSH1 0x20 DUP4 ADD DUP5 PUSH2 0x336 JUMP JUMPDEST SWAP4 SWAP3 POP POP POP JUMP JUMPDEST PUSH1 0x0 PUSH2 0x3A1 PUSH2 0x3B2 JUMP JUMPDEST SWAP1 POP PUSH2 0x3AD DUP3 DUP3 PUSH2 0x487 JUMP JUMPDEST SWAP2 SWAP1 POP JUMP JUMPDEST PUSH1 0x0 PUSH1 0x40 MLOAD SWAP1 POP SWAP1 JUMP JUMPDEST PUSH1 0x0 PUSH8 0xFFFFFFFFFFFFFFFF DUP3 GT ISZERO PUSH2 0x3D7 JUMPI PUSH2 0x3D6 PUSH2 0x4B8 JUMP JUMPDEST JUMPDEST PUSH2 0x3E0 DUP3 PUSH2 0x4FB JUMP JUMPDEST SWAP1 POP PUSH1 0x20 DUP2 ADD SWAP1 POP SWAP2 SWAP1 POP JUMP JUMPDEST PUSH1 0x0 DUP2 MLOAD SWAP1 POP SWAP2 SWAP1 POP JUMP JUMPDEST PUSH1 0x0 DUP3 DUP3 MSTORE PUSH1 0x20 DUP3 ADD SWAP1 POP SWAP3 SWAP2 POP POP JUMP JUMPDEST PUSH1 0x0 PUSH2 0x414 DUP3 PUSH2 0x41B JUMP JUMPDEST SWAP1 POP SWAP2 SWAP1 POP JUMP JUMPDEST PUSH1 0x0 PUSH20 0xFFFFFFFFFFFFFFFFFFFFFFFFFFFFFFFFFFFFFFFF DUP3 AND SWAP1 POP SWAP2 SWAP1 POP JUMP JUMPDEST PUSH1 0x0 DUP2 SWAP1 POP SWAP2 SWAP1 POP JUMP JUMPDEST DUP3 DUP2 DUP4 CALLDATACOPY PUSH1 0x0 DUP4 DUP4 ADD MSTORE POP POP POP JUMP JUMPDEST PUSH1 0x0 JUMPDEST DUP4 DUP2 LT ISZERO PUSH2 0x472 JUMPI DUP1 DUP3 ADD MLOAD DUP2 DUP5 ADD MSTORE PUSH1 0x20 DUP2 ADD SWAP1 POP PUSH2 0x457 JUMP JUMPDEST DUP4 DUP2 GT ISZERO PUSH2 0x481 JUMPI PUSH1 0x0 DUP5 DUP5 ADD MSTORE JUMPDEST POP POP POP POP JUMP JUMPDEST PUSH2 0x490 DUP3 PUSH2 0x4FB JUMP JUMPDEST DUP2 ADD DUP2 DUP2 LT PUSH8 0xFFFFFFFFFFFFFFFF DUP3 GT OR ISZERO PUSH2 0x4AF JUMPI PUSH2 0x4AE PUSH2 0x4B8 JUMP JUMPDEST JUMPDEST DUP1 PUSH1 0x40 MSTORE POP POP POP JUMP JUMPDEST PUSH32 0x4E487B7100000000000000000000000000000000000000000000000000000000 PUSH1 0x0 MSTORE PUSH1 0x41 PUSH1 0x4 MSTORE PUSH1 0x24 PUSH1 0x0 REVERT JUMPDEST PUSH1 0x0 DUP1 REVERT JUMPDEST PUSH1 0x0 DUP1 REVERT JUMPDEST PUSH1 0x0 DUP1 REVERT JUMPDEST PUSH1 0x0 DUP1 REVERT JUMPDEST PUSH1 0x0 PUSH1 0x1F NOT PUSH1 0x1F DUP4 ADD AND SWAP1 POP SWAP2 SWAP1 POP JUMP JUMPDEST PUSH2 0x515 DUP2 PUSH2 0x409 JUMP JUMPDEST DUP2 EQ PUSH2 0x520 JUMPI PUSH1 0x0 DUP1 REVERT JUMPDEST POP JUMP JUMPDEST PUSH2 0x52C DUP2 PUSH2 0x43B JUMP JUMPDEST DUP2 EQ PUSH2 0x537 JUMPI PUSH1 0x0 DUP1 REVERT JUMPDEST POP JUMP INVALID LOG2 PUSH5 0x6970667358 0x22 SLT KECCAK256 0x4A 0xAD NUMBER 0xE6 0xCB TIMESTAMP PUSH10 0x8D8DC988683D8DFDFD7C PUSH30 0x62DF9B066FE2894122FF772D8D8E64736F6C634300080600330000000000 "
				},
				"gasEstimates": {
					"creation": {
						"codeDepositCost": "278400",
						"executionCost": "318",
						"totalCost": "278718"
					},
					"external": {
						"emitirEvento1(string)": "infinite",
						"emitirEvento2(string,uint256)": "infinite",
						"emitirEvento3(string,uint256,address)": "infinite"
					}
				},
				"methodIdentifiers": {
					"emitirEvento1(string)": "7cf1103d",
					"emitirEvento2(string,uint256)": "7f4f0f35",
					"emitirEvento3(string,uint256,address)": "492e27d9"
				}
			},
			"storageLayout": {
				"storage": [],
				"types": null
			},
			"userdoc": {
				"kind": "user",
				"methods": {},
				"version": 1
			}
		}
	}
}